{
  "_format": "hh-sol-artifact-1",
  "contractName": "FRYPredictionMarket",
  "sourceName": "contracts/FRYPredictionMarket.sol",
  "abi": [
    {
      "inputs": [
        {
          "internalType": "address",
          "name": "_usdFryToken",
          "type": "address"
        },
        {
          "internalType": "address",
          "name": "_stablecoin",
          "type": "address"
        }
      ],
      "stateMutability": "nonpayable",
      "type": "constructor"
    },
    {
      "anonymous": false,
      "inputs": [
        {
          "indexed": true,
          "internalType": "uint256",
          "name": "marketId",
          "type": "uint256"
        },
        {
          "indexed": true,
          "internalType": "address",
          "name": "bettor",
          "type": "address"
        },
        {
          "indexed": false,
          "internalType": "bool",
          "name": "prediction",
          "type": "bool"
        },
        {
          "indexed": false,
          "internalType": "uint256",
          "name": "amount",
          "type": "uint256"
        }
      ],
      "name": "BetPlaced",
      "type": "event"
    },
    {
      "anonymous": false,
      "inputs": [
        {
          "indexed": true,
          "internalType": "uint256",
          "name": "marketId",
          "type": "uint256"
        },
        {
          "indexed": false,
          "internalType": "string",
          "name": "question",
          "type": "string"
        },
        {
          "indexed": false,
          "internalType": "string",
          "name": "asset",
          "type": "string"
        },
        {
          "indexed": false,
          "internalType": "uint256",
          "name": "targetPrice",
          "type": "uint256"
        },
        {
          "indexed": false,
          "internalType": "uint256",
          "name": "resolutionTime",
          "type": "uint256"
        }
      ],
      "name": "MarketCreated",
      "type": "event"
    },
    {
      "anonymous": false,
      "inputs": [
        {
          "indexed": true,
          "internalType": "uint256",
          "name": "marketId",
          "type": "uint256"
        },
        {
          "indexed": false,
          "internalType": "bool",
          "name": "outcome",
          "type": "bool"
        },
        {
          "indexed": false,
          "internalType": "int256",
          "name": "finalPrice",
          "type": "int256"
        },
        {
          "indexed": false,
          "internalType": "uint256",
          "name": "timestamp",
          "type": "uint256"
        }
      ],
      "name": "MarketResolved",
      "type": "event"
    },
    {
      "anonymous": false,
      "inputs": [
        {
          "indexed": true,
          "internalType": "bytes32",
          "name": "role",
          "type": "bytes32"
        },
        {
          "indexed": true,
          "internalType": "bytes32",
          "name": "previousAdminRole",
          "type": "bytes32"
        },
        {
          "indexed": true,
          "internalType": "bytes32",
          "name": "newAdminRole",
          "type": "bytes32"
        }
      ],
      "name": "RoleAdminChanged",
      "type": "event"
    },
    {
      "anonymous": false,
      "inputs": [
        {
          "indexed": true,
          "internalType": "bytes32",
          "name": "role",
          "type": "bytes32"
        },
        {
          "indexed": true,
          "internalType": "address",
          "name": "account",
          "type": "address"
        },
        {
          "indexed": true,
          "internalType": "address",
          "name": "sender",
          "type": "address"
        }
      ],
      "name": "RoleGranted",
      "type": "event"
    },
    {
      "anonymous": false,
      "inputs": [
        {
          "indexed": true,
          "internalType": "bytes32",
          "name": "role",
          "type": "bytes32"
        },
        {
          "indexed": true,
          "internalType": "address",
          "name": "account",
          "type": "address"
        },
        {
          "indexed": true,
          "internalType": "address",
          "name": "sender",
          "type": "address"
        }
      ],
      "name": "RoleRevoked",
      "type": "event"
    },
    {
      "anonymous": false,
      "inputs": [
        {
          "indexed": true,
          "internalType": "uint256",
          "name": "marketId",
          "type": "uint256"
        },
        {
          "indexed": true,
          "internalType": "address",
          "name": "winner",
          "type": "address"
        },
        {
          "indexed": false,
          "internalType": "uint256",
          "name": "payout",
          "type": "uint256"
        }
      ],
      "name": "WinningsClaimed",
      "type": "event"
    },
    {
      "anonymous": false,
      "inputs": [
        {
          "indexed": true,
          "internalType": "uint256",
          "name": "marketId",
          "type": "uint256"
        },
        {
          "indexed": true,
          "internalType": "address",
          "name": "loser",
          "type": "address"
        },
        {
          "indexed": false,
          "internalType": "uint256",
          "name": "lossAmount",
          "type": "uint256"
        },
        {
          "indexed": false,
          "internalType": "uint256",
          "name": "fryMinted",
          "type": "uint256"
        }
      ],
      "name": "WreckageProcessed",
      "type": "event"
    },
    {
      "inputs": [],
      "name": "DEFAULT_ADMIN_ROLE",
      "outputs": [
        {
          "internalType": "bytes32",
          "name": "",
          "type": "bytes32"
        }
      ],
      "stateMutability": "view",
      "type": "function"
    },
    {
      "inputs": [],
      "name": "OPERATOR_ROLE",
      "outputs": [
        {
          "internalType": "bytes32",
          "name": "",
          "type": "bytes32"
        }
      ],
      "stateMutability": "view",
      "type": "function"
    },
    {
      "inputs": [
        {
          "internalType": "uint256",
          "name": "marketId",
          "type": "uint256"
        }
      ],
      "name": "claimWinnings",
      "outputs": [],
      "stateMutability": "nonpayable",
      "type": "function"
    },
    {
      "inputs": [
        {
          "internalType": "string",
          "name": "question",
          "type": "string"
        },
        {
          "internalType": "string",
          "name": "asset",
          "type": "string"
        },
        {
          "internalType": "uint256",
          "name": "targetPrice",
          "type": "uint256"
        },
        {
          "internalType": "uint256",
          "name": "resolutionTime",
          "type": "uint256"
        },
        {
          "internalType": "address",
          "name": "priceFeed",
          "type": "address"
        }
      ],
      "name": "createMarket",
      "outputs": [
        {
          "internalType": "uint256",
          "name": "",
          "type": "uint256"
        }
      ],
      "stateMutability": "nonpayable",
      "type": "function"
    },
    {
      "inputs": [
        {
          "internalType": "uint256",
          "name": "marketId",
          "type": "uint256"
        }
      ],
      "name": "getMarket",
      "outputs": [
        {
          "components": [
            {
              "internalType": "uint256",
              "name": "id",
              "type": "uint256"
            },
            {
              "internalType": "string",
              "name": "question",
              "type": "string"
            },
            {
              "internalType": "string",
              "name": "asset",
              "type": "string"
            },
            {
              "internalType": "uint256",
              "name": "targetPrice",
              "type": "uint256"
            },
            {
              "internalType": "uint256",
              "name": "resolutionTime",
              "type": "uint256"
            },
            {
              "internalType": "bool",
              "name": "resolved",
              "type": "bool"
            },
            {
              "internalType": "bool",
              "name": "outcome",
              "type": "bool"
            },
            {
              "internalType": "uint256",
              "name": "totalYesBets",
              "type": "uint256"
            },
            {
              "internalType": "uint256",
              "name": "totalNoBets",
              "type": "uint256"
            },
            {
              "internalType": "address",
              "name": "priceFeed",
              "type": "address"
            }
          ],
          "internalType": "struct FRYPredictionMarket.Market",
          "name": "",
          "type": "tuple"
        }
      ],
      "stateMutability": "view",
      "type": "function"
    },
    {
      "inputs": [
        {
          "internalType": "uint256",
          "name": "marketId",
          "type": "uint256"
        }
      ],
      "name": "getMarketBets",
      "outputs": [
        {
          "components": [
            {
              "internalType": "address",
              "name": "bettor",
              "type": "address"
            },
            {
              "internalType": "uint256",
              "name": "marketId",
              "type": "uint256"
            },
            {
              "internalType": "bool",
              "name": "prediction",
              "type": "bool"
            },
            {
              "internalType": "uint256",
              "name": "amount",
              "type": "uint256"
            },
            {
              "internalType": "bool",
              "name": "claimed",
              "type": "bool"
            }
          ],
          "internalType": "struct FRYPredictionMarket.Bet[]",
          "name": "",
          "type": "tuple[]"
        }
      ],
      "stateMutability": "view",
      "type": "function"
    },
    {
      "inputs": [
        {
          "internalType": "bytes32",
          "name": "role",
          "type": "bytes32"
        }
      ],
      "name": "getRoleAdmin",
      "outputs": [
        {
          "internalType": "bytes32",
          "name": "",
          "type": "bytes32"
        }
      ],
      "stateMutability": "view",
      "type": "function"
    },
    {
      "inputs": [],
      "name": "getSystemStats",
      "outputs": [
        {
          "internalType": "uint256",
          "name": "totalMarkets",
          "type": "uint256"
        },
        {
          "internalType": "uint256",
          "name": "marketsResolved",
          "type": "uint256"
        },
        {
          "internalType": "uint256",
          "name": "wreckageProcessed",
          "type": "uint256"
        }
      ],
      "stateMutability": "view",
      "type": "function"
    },
    {
      "inputs": [
        {
          "internalType": "address",
          "name": "user",
          "type": "address"
        }
      ],
      "name": "getUserBets",
      "outputs": [
        {
          "internalType": "uint256[]",
          "name": "",
          "type": "uint256[]"
        }
      ],
      "stateMutability": "view",
      "type": "function"
    },
    {
      "inputs": [
        {
          "internalType": "bytes32",
          "name": "role",
          "type": "bytes32"
        },
        {
          "internalType": "address",
          "name": "account",
          "type": "address"
        }
      ],
      "name": "grantRole",
      "outputs": [],
      "stateMutability": "nonpayable",
      "type": "function"
    },
    {
      "inputs": [
        {
          "internalType": "bytes32",
          "name": "role",
          "type": "bytes32"
        },
        {
          "internalType": "address",
          "name": "account",
          "type": "address"
        }
      ],
      "name": "hasRole",
      "outputs": [
        {
          "internalType": "bool",
          "name": "",
          "type": "bool"
        }
      ],
      "stateMutability": "view",
      "type": "function"
    },
    {
      "inputs": [
        {
          "internalType": "uint256",
          "name": "",
          "type": "uint256"
        },
        {
          "internalType": "uint256",
          "name": "",
          "type": "uint256"
        }
      ],
      "name": "marketBets",
      "outputs": [
        {
          "internalType": "address",
          "name": "bettor",
          "type": "address"
        },
        {
          "internalType": "uint256",
          "name": "marketId",
          "type": "uint256"
        },
        {
          "internalType": "bool",
          "name": "prediction",
          "type": "bool"
        },
        {
          "internalType": "uint256",
          "name": "amount",
          "type": "uint256"
        },
        {
          "internalType": "bool",
          "name": "claimed",
          "type": "bool"
        }
      ],
      "stateMutability": "view",
      "type": "function"
    },
    {
      "inputs": [],
      "name": "marketCount",
      "outputs": [
        {
          "internalType": "uint256",
          "name": "",
          "type": "uint256"
        }
      ],
      "stateMutability": "view",
      "type": "function"
    },
    {
      "inputs": [
        {
          "internalType": "uint256",
          "name": "",
          "type": "uint256"
        }
      ],
      "name": "markets",
      "outputs": [
        {
          "internalType": "uint256",
          "name": "id",
          "type": "uint256"
        },
        {
          "internalType": "string",
          "name": "question",
          "type": "string"
        },
        {
          "internalType": "string",
          "name": "asset",
          "type": "string"
        },
        {
          "internalType": "uint256",
          "name": "targetPrice",
          "type": "uint256"
        },
        {
          "internalType": "uint256",
          "name": "resolutionTime",
          "type": "uint256"
        },
        {
          "internalType": "bool",
          "name": "resolved",
          "type": "bool"
        },
        {
          "internalType": "bool",
          "name": "outcome",
          "type": "bool"
        },
        {
          "internalType": "uint256",
          "name": "totalYesBets",
          "type": "uint256"
        },
        {
          "internalType": "uint256",
          "name": "totalNoBets",
          "type": "uint256"
        },
        {
          "internalType": "address",
          "name": "priceFeed",
          "type": "address"
        }
      ],
      "stateMutability": "view",
      "type": "function"
    },
    {
      "inputs": [
        {
          "internalType": "uint256",
          "name": "marketId",
          "type": "uint256"
        },
        {
          "internalType": "bool",
          "name": "prediction",
          "type": "bool"
        },
        {
          "internalType": "uint256",
          "name": "amount",
          "type": "uint256"
        }
      ],
      "name": "placeBet",
      "outputs": [],
      "stateMutability": "nonpayable",
      "type": "function"
    },
    {
      "inputs": [
        {
          "internalType": "bytes32",
          "name": "role",
          "type": "bytes32"
        },
        {
          "internalType": "address",
          "name": "account",
          "type": "address"
        }
      ],
      "name": "renounceRole",
      "outputs": [],
      "stateMutability": "nonpayable",
      "type": "function"
    },
    {
      "inputs": [
        {
          "internalType": "uint256",
          "name": "marketId",
          "type": "uint256"
        }
      ],
      "name": "resolveMarket",
      "outputs": [],
      "stateMutability": "nonpayable",
      "type": "function"
    },
    {
      "inputs": [
        {
          "internalType": "bytes32",
          "name": "role",
          "type": "bytes32"
        },
        {
          "internalType": "address",
          "name": "account",
          "type": "address"
        }
      ],
      "name": "revokeRole",
      "outputs": [],
      "stateMutability": "nonpayable",
      "type": "function"
    },
    {
      "inputs": [],
      "name": "stablecoin",
      "outputs": [
        {
          "internalType": "contract IERC20",
          "name": "",
          "type": "address"
        }
      ],
      "stateMutability": "view",
      "type": "function"
    },
    {
      "inputs": [
        {
          "internalType": "bytes4",
          "name": "interfaceId",
          "type": "bytes4"
        }
      ],
      "name": "supportsInterface",
      "outputs": [
        {
          "internalType": "bool",
          "name": "",
          "type": "bool"
        }
      ],
      "stateMutability": "view",
      "type": "function"
    },
    {
      "inputs": [],
      "name": "totalMarketsResolved",
      "outputs": [
        {
          "internalType": "uint256",
          "name": "",
          "type": "uint256"
        }
      ],
      "stateMutability": "view",
      "type": "function"
    },
    {
      "inputs": [],
      "name": "totalWreckageProcessed",
      "outputs": [
        {
          "internalType": "uint256",
          "name": "",
          "type": "uint256"
        }
      ],
      "stateMutability": "view",
      "type": "function"
    },
    {
      "inputs": [],
      "name": "usdFryToken",
      "outputs": [
        {
          "internalType": "contract IUSDFRYToken",
          "name": "",
          "type": "address"
        }
      ],
      "stateMutability": "view",
      "type": "function"
    },
    {
      "inputs": [
        {
          "internalType": "address",
          "name": "",
          "type": "address"
        },
        {
          "internalType": "uint256",
          "name": "",
          "type": "uint256"
        }
      ],
      "name": "userBets",
      "outputs": [
        {
          "internalType": "uint256",
          "name": "",
          "type": "uint256"
        }
      ],
      "stateMutability": "view",
      "type": "function"
    }
  ],
  "bytecode": "0x60803462000171576200232990601f38839003908101601f19168201906001600160401b0382118383101762000176578083916040958694855283398101031262000171576200004f816200018c565b6200005e60208093016200018c565b60016000818155600280546001600160a01b03199081166001600160a01b039687161790915560038054909116949093169390931790915581805280835283822033835283528382205460ff16156200013a575b7f97667070c54ef182b0f5858b034beac1b6f3089aa2d3188bb1e8929f4fa9b92992838352818152848320338452815260ff858420541615620000ff575b84516121679081620001a28239f35b83835281815284832090338452528382209060ff19825416179055339160008051602062002309833981519152339280a438808080620000f0565b81805280835283822033835283528382208160ff19825416179055333383600080516020620023098339815191528180a4620000b2565b600080fd5b634e487b7160e01b600052604160045260246000fd5b51906001600160a01b0382168203620001715756fe608080604052600436101561001357600080fd5b60003560e01c90816301ffc9a714611aa5575080630ea2b28514611a875780631a38cac61461174e578063248a9ca31461171f5780632d56657d1461166b5780632db0521f14610f415780632f2ff15d14610e8e57806336568abe14610dfc5780633adadc0a14610cbc5780636399d03d146108ce578063677bd9ff146106075780637739329e146105de5780638068aa6814610586578063879b27581461056857806391d148541461051b578063a217fddf146104ff578063b1283e7714610433578063d1ce59a714610404578063d547741f146103c3578063e9cbd8221461039a578063eb44fdd314610205578063ec979082146101e7578063f2e55021146101675763f5b541a61461012757600080fd5b346101625760003660031901126101625760206040517f97667070c54ef182b0f5858b034beac1b6f3089aa2d3188bb1e8929f4fa9b9298152f35b600080fd5b34610162576040366003190112610162576024356004356000526005602052604060002080548210156101625760a0916101a091611d32565b50600180831b038154169060018101549060ff60028201541660ff600460038401549301541692604051948552602085015215156040840152606083015215156080820152f35b34610162576000366003190112610162576020600754604051908152f35b3461016257602036600319011261016257600061012060405161022781611b40565b82815260606020820152606060408201528260608201528260808201528260a08201528260c08201528260e0820152826101008201520152600435600052600460205260406000206040519061027c82611b40565b8054825261028c60018201611c44565b602083015261029d60028201611c44565b6040830152600381015460608301526004810154608083015260ff6005820154818116151560a085015260081c16151560c0830152600681015460e08301526007810154610100830152600860018060a01b039101541661012082015260405180916020825280516020830152602081015161034061032a61014092836040870152610160860190611d0d565b6040840151858203601f19016060870152611d0d565b9160608101516080850152608081015160a085015260a0810151151560c085015260c0810151151560e085015260e081015161010085015261010081015161012085015261012060018060a01b0391015116908301520390f35b34610162576000366003190112610162576003546040516001600160a01b039091168152602090f35b34610162576040366003190112610162576104026004356103e2611b0e565b908060005260016020526103fd600160406000200154611d4e565b611f00565b005b346101625760003660031901126101625760606007546008546009549060405192835260208301526040820152f35b346101625760203660031901126101625760043560005260046020526040600020805461046260018301611c44565b9161046f60028201611c44565b600382015491600481015460ff60058301546006840154926104ca600786015495600860018060a01b0391015416966104bc6040519b8c9b8c5260208c61014091829101528c0190611d0d565b908a820360408c0152611d0d565b9660608901526080880152818116151560a088015260081c16151560c086015260e08501526101008401526101208301520390f35b3461016257600036600319011261016257602060405160008152f35b3461016257604036600319011261016257610534611b0e565b600435600052600160205260406000209060018060a01b0316600052602052602060ff604060002054166040519015158152f35b34610162576000366003190112610162576020600954604051908152f35b346101625760403660031901126101625761059f611af8565b6001600160a01b0316600090815260066020526040902080546024359190821015610162576020916105d091611bf2565b90546040519160031b1c8152f35b34610162576000366003190112610162576002546040516001600160a01b039091168152602090f35b346101625760208060031936011261016257600435906106256120c4565b81600052600481526040600020916005830160ff8082541615610893578260005260058452604060002060009360005b8254811015610795576106688184611d32565b5080546001600160a01b031633148061077b575b8061076d575b610696575b506106919061205f565b610655565b959084865460081c1691826000146107625760068a0154925b156107575760078a0154925b600389015491848302948386041483151715610741576046948581029581870414901517156107415760649182810292818404149015171561074157811561072b5761071260049361071893610691970490611f76565b90611f76565b9701805460ff1916600117905590610687565b634e487b7160e01b600052601260045260246000fd5b634e487b7160e01b600052601160045260246000fd5b60068a0154926106bb565b60078a0154926106af565b508460048201541615610682565b508460028201541685875460081c1615159015151461067c565b85828882156108585760035460405163a9059cbb60e01b81523360048201526024810185905291908190839060449082906000906001600160a01b03165af191821561084c577f5380cf6fe903b40c6d5a9e0dfbca2f3a423f0a21520b4d5947ed5169bdba946d9261080f9160009161081f575b50612086565b6040519384523393a36001600055005b61083f9150833d8511610845575b6108378183611b79565b81019061206e565b86610809565b503d61082d565b6040513d6000823e3d90fd5b6064906040519062461bcd60e51b8252600482015260146024820152734e6f2077696e6e696e677320746f20636c61696d60601b6044820152fd5b60405162461bcd60e51b815260048101859052601360248201527213585c9ad95d081b9bdd081c995cdbdb1d9959606a1b6044820152606490fd5b34610162576020366003190112610162576108e76120c4565b60043560005260046020526040600020600581019060ff825416610c845760048101544210610c48576008810154604051633fabe5a360e21b8152929060a090849060049082906001600160a01b03165afa801561084c57600093600091610bf5575b506000841315610bc05715610b8d5760039190910154815461ffff191661ff0091841015600890811b929092161760011782555460ff919061098b9061205f565b6008555460081c1690604051911515825260208201524260408201527ff28ae02d78bf9ff07a61338e363664f9436648d14aeb8add0aa7e8f8c07345bb606060043592a2600435600052600460205260406000206005602052604060002060005b8154811015610b86576109ff8183611d32565b5090600260ff818401541660ff600587015460081c16151590151503610a30575b50610a2b915061205f565b6109ec565b60018060a01b0390541691602060018060a01b038254166101846003840154916000604051978894859363458ecfad60e11b85526004850152602484015260c06044840152601060c48401526f141c99591a58dd1a5bdb93585c9ad95d60821b60e484015261010060648401526004610104840152635553444360e01b6101248401526101406084840152600b6101448401526a6d61726b65745f6c6f737360a81b61016484015261213460a48401525af1801561084c57600090610b52575b610a2b93506003820154610b076009918254611f76565b9055600360018060a01b038354169201549060405191825260208201527f6b5755243f3f945419d8d435dc7dd5b2106c449661c08f6ea2771957be5477e2604060043592a384610a20565b506020833d602011610b7e575b81610b6c60209383611b79565b8101031261016257610a2b9251610af0565b3d9150610b5f565b6001600055005b60405162461bcd60e51b815260206004820152600b60248201526a5374616c6520707269636560a81b6044820152606490fd5b60405162461bcd60e51b815260206004820152600d60248201526c496e76616c696420707269636560981b6044820152606490fd5b93505060a0833d8211610c40575b81610c1060a09383611b79565b8101031261016257610c218361211a565b506020830151610c3860806060860151950161211a565b50928461094a565b3d9150610c03565b60405162461bcd60e51b8152602060048201526014602482015273546f6f206561726c7920746f207265736f6c766560601b6044820152606490fd5b60405162461bcd60e51b815260206004820152601060248201526f105b1c9958591e481c995cdbdb1d995960821b6044820152606490fd5b346101625760208060031936011261016257600435600052600590818152604060002091825467ffffffffffffffff8111610de65760405191610d038483831b0184611b79565b8183528383018095600052846000206000915b848310610d8d57604080518881528751818a018190528a928201908a60005b828110610d425784840385f35b855180516001600160a01b031685528083015185840152604080820151151590860152606080820151908601526080908101511515908501529481019460a090930192600101610d35565b8387600192604051610d9e81611b24565b848060a01b038654168152848601548382015260ff80600288015416151560408301526003870154606083015260048701541615156080820152815201920192019190610d16565b634e487b7160e01b600052604160045260246000fd5b3461016257604036600319011261016257610e15611b0e565b336001600160a01b03821603610e315761040290600435611f00565b60405162461bcd60e51b815260206004820152602f60248201527f416363657373436f6e74726f6c3a2063616e206f6e6c792072656e6f756e636560448201526e103937b632b9903337b91039b2b63360891b6064820152608490fd5b3461016257604036600319011261016257600435610eaa611b0e565b816000526001602052610ec4600160406000200154611d4e565b81600052600160205260406000209060018060a01b0316908160005260205260ff6040600020541615610ef357005b8160005260016020526040600020816000526020526040600020600160ff1982541617905533917f2f8788117e7eff1d82e926ec794901d17c78024a50270940304540a733656f0d600080a4005b346101625760a03660031901126101625760043567ffffffffffffffff811161016257610f72903690600401611b9b565b60243567ffffffffffffffff811161016257610f92903690600401611b9b565b608435906001600160a01b0382168203610162573360009081527f31c1e66639f421f1853aeefe8ad6b62a3b96f3287efe23106923cd924aa025c260205260409020547f97667070c54ef182b0f5858b034beac1b6f3089aa2d3188bb1e8929f4fa9b9299060ff16156114db575042606435111561148c576001600160a01b038216156114525760443515611416576007549161102e8361205f565b6007556040519061103e82611b40565b83825284602083015282604083015260443560608301526064356080830152600060a0830152600060c0830152600060e0830152600061010083015260018060a01b0316610120820152826000526004602052604060002081518155602082015180519067ffffffffffffffff8211610de65781906110c06001850154611c0a565b601f81116113c3575b50602090601f831160011461135157600092611346575b50508160011b916000199060031b1c19161760018201555b604082015180519067ffffffffffffffff8211610de65761111c6002840154611c0a565b601f81116112ff575b509160209693918695938890601f83116001146112615761123b938361122e97947f17d90d3582c74be4b748fcd33bff502fbee3da6e29c772512a0b6eac36528be8999794600894600092611256575b50508160011b916000199060031b1c19161760028201555b60608301516003820155608083015160048201556111df600582016111c460a08601511515829060ff801983541691151516179055565b60c0850151815461ff00191690151560081b61ff0016179055565b60e083015160068201556101008301516007820155019061012060018060a01b03910151166bffffffffffffffffffffffff60a01b825416179055604051938493608085526080850190611d0d565b9083820389850152611d0d565b604435604083015260643560608301520390a2604051908152f35b015190508d80611175565b9060028401600052896000209160005b601f19851681106112e55750936001847f17d90d3582c74be4b748fcd33bff502fbee3da6e29c772512a0b6eac36528be899979460089461123b9861122e9b98601f198116106112cc575b505050811b01600282015561118d565b015160001960f88460031b161c191690558d80806112bc565b8183015184558a9950600190930192918b01918b01611271565b600284016000526020600020601f840160051c81016020851061133f575b601f830160051c82018110611333575050611125565b6000815560010161131d565b508061131d565b0151905087806110e0565b9250600184016000526020600020906000935b601f19841685106113a8576001945083601f1981161061138f575b505050811b0160018201556110f8565b015160001960f88460031b161c1916905587808061137f565b81810151835560209485019460019093019290910190611364565b909150600184016000526020600020601f840160051c81016020851061140f575b90849392915b601f830160051c820181106114005750506110c9565b600081558594506001016113ea565b50806113e4565b60405162461bcd60e51b8152602060048201526014602482015273496e76616c69642074617267657420707269636560601b6044820152606490fd5b60405162461bcd60e51b8152602060048201526012602482015271125b9d985b1a59081c1c9a58d9481999595960721b6044820152606490fd5b60405162461bcd60e51b815260206004820152602160248201527f5265736f6c7574696f6e2074696d65206d75737420626520696e2066757475726044820152606560f81b6064820152608490fd5b6114e433611f94565b604051916114f183611b5d565b60428352602083019060603683378351156116555760308253835160011015611655576078602185015360415b6001811161161357506115cf57604861159c926115ab926115cb9560405195869376020b1b1b2b9b9a1b7b73a3937b61d1030b1b1b7bab73a1604d1b6020860152611573815180926020603789019101611cea565b8401917001034b99036b4b9b9b4b733903937b6329607d1b603784015251809386840190611cea565b01036028810184520182611b79565b60405162461bcd60e51b8152602060048201529182916024830190611d0d565b0390fd5b606460405162461bcd60e51b815260206004820152602060248201527f537472696e67733a20686578206c656e67746820696e73756666696369656e746044820152fd5b90600f81166010811015611655576f181899199a1a9b1b9c1cb0b131b232b360811b901a6116418387611f83565b5360041c908015610741576000190161151e565b634e487b7160e01b600052603260045260246000fd5b3461016257602080600319360112610162576001600160a01b0361168d611af8565b1660005260068152604060002060405190818382549182815201908192600052846000209060005b8682821061170b5786866116cb82880383611b79565b604051928392818401908285525180915260408401929160005b8281106116f457505050500390f35b8351855286955093810193928101926001016116e5565b8354855290930192600192830192016116b5565b346101625760203660031901126101625760043560005260016020526020600160406000200154604051908152f35b3461016257606036600319011261016257602435151560243503610162576117746120c4565b6004356000526004602052604060002060ff600582015416611a42576004810154421015611a0d57604435156119d3576003546040516323b872dd60e01b8152336004820152306024820152604480359082015290602090829060649082906000906001600160a01b03165af1801561084c576117f8916000916119b45750612086565b60405161180481611b24565b338152600435602082015260243515156040820152604435606082015260006080820152600435600052600560205260406000208054600160401b811015610de65761185591600182018155611d32565b61199e57600460806118cb9360018060a01b038151166bffffffffffffffffffffffff60a01b855416178455602081015160018501556118aa60408201511515600286019060ff801983541691151516179055565b606081015160038501550151151591019060ff801983541691151516179055565b3360005260066020526040600020600435600052600560205260406000205460001991828201918211610741578054600160401b811015610de65761191591600182018155611bf2565b909283549160031b92831b921b1916179055602435600014611987576006016119416044358254611f76565b90555b60405160243515158152604435602082015233907f4af71b021e799c62c158bd54636ca8da2fa26115a21a2dc6efe486ec104fd15f604060043592a36001600055005b6007016119976044358254611f76565b9055611944565b634e487b7160e01b600052600060045260246000fd5b6119cd915060203d602011610845576108378183611b79565b83610809565b60405162461bcd60e51b81526020600482015260126024820152710416d6f756e74206d757374206265203e20360741b6044820152606490fd5b60405162461bcd60e51b815260206004820152600d60248201526c13585c9ad95d0818db1bdcd959609a1b6044820152606490fd5b60405162461bcd60e51b815260206004820152601760248201527f4d61726b657420616c7265616479207265736f6c7665640000000000000000006044820152606490fd5b34610162576000366003190112610162576020600854604051908152f35b34610162576020366003190112610162576004359063ffffffff60e01b821680920361016257602091637965db0b60e01b8114908115611ae7575b5015158152f35b6301ffc9a760e01b14905083611ae0565b600435906001600160a01b038216820361016257565b602435906001600160a01b038216820361016257565b60a0810190811067ffffffffffffffff821117610de657604052565b610140810190811067ffffffffffffffff821117610de657604052565b6080810190811067ffffffffffffffff821117610de657604052565b90601f8019910116810190811067ffffffffffffffff821117610de657604052565b81601f820112156101625780359067ffffffffffffffff8211610de65760405192611bd0601f8401601f191660200185611b79565b8284526020838301011161016257816000926020809301838601378301015290565b80548210156116555760005260206000200190600090565b90600182811c92168015611c3a575b6020831014611c2457565b634e487b7160e01b600052602260045260246000fd5b91607f1691611c19565b9060405191826000825492611c5884611c0a565b908184526001948581169081600014611cc75750600114611c84575b5050611c8292500383611b79565b565b9093915060005260209081600020936000915b818310611caf575050611c8293508201013880611c74565b85548884018501529485019487945091830191611c97565b915050611c8294506020925060ff191682840152151560051b8201013880611c74565b60005b838110611cfd5750506000910152565b8181015183820152602001611ced565b90602091611d2681518092818552858086019101611cea565b601f01601f1916010190565b8054821015611655576000526005602060002091020190600090565b6000818152600191602091838352604093848220338352845260ff858320541615611d7a575050505050565b611d8333611f94565b92855191611d9083611b5d565b60428352858301936060368637835115611eec57603085538351821015611eec5790607860218501536041915b818311611e7e57505050611e3c5760486115cb938693611e2093611e11985198899376020b1b1b2b9b9a1b7b73a3937b61d1030b1b1b7bab73a1604d1b8a860152611573815180928c603789019101611cea565b01036028810187520185611b79565b5192839262461bcd60e51b845260048401526024830190611d0d565b60648486519062461bcd60e51b825280600483015260248201527f537472696e67733a20686578206c656e67746820696e73756666696369656e746044820152fd5b909192600f81166010811015611ed8576f181899199a1a9b1b9c1cb0b131b232b360811b901a611eae8587611f83565b5360041c928015611ec457600019019190611dbd565b634e487b7160e01b82526011600452602482fd5b634e487b7160e01b83526032600452602483fd5b634e487b7160e01b81526032600452602490fd5b906000918083526001602052604083209160018060a01b03169182845260205260ff604084205416611f3157505050565b8083526001602052604083208284526020526040832060ff1981541690557ff6391f5c32d9c69d2a47ea670b442974b53935d1edc7fd64eb21e047a839171b339380a4565b9190820180921161074157565b908151811015611655570160200190565b604051906060820182811067ffffffffffffffff821117610de657604052602a82526020820160403682378251156116555760309053815160019081101561165557607860218401536029905b808211611ff15750506115cf5790565b9091600f8116601081101561204a576f181899199a1a9b1b9c1cb0b131b232b360811b901a6120208486611f83565b5360041c918015612035576000190190611fe1565b60246000634e487b7160e01b81526011600452fd5b60246000634e487b7160e01b81526032600452fd5b60001981146107415760010190565b90816020910312610162575180151581036101625790565b1561208d57565b60405162461bcd60e51b815260206004820152600f60248201526e151c985b9cd9995c8819985a5b1959608a1b6044820152606490fd5b6002600054146120d5576002600055565b60405162461bcd60e51b815260206004820152601f60248201527f5265656e7472616e637947756172643a207265656e7472616e742063616c6c006044820152606490fd5b519069ffffffffffffffffffff821682036101625756fea264697066735822122034d611962bb61b5b14a9fb9126b7166666a2666f9f7e561df44398830ab46d3f64736f6c634300081300332f8788117e7eff1d82e926ec794901d17c78024a50270940304540a733656f0d",
  "linkReferences": {},
  "deployedLinkReferences": {}
}