{"contracts/WreckageProcessorWithOracle.sol":{"WreckageProcessorWithOracle":{"abi":[{"inputs":[{"internalType":"address","name":"_usdFryToken","type":"address"}],"stateMutability":"nonpayable","type":"constructor"},{"anonymous":false,"inputs":[{"indexed":false,"internalType":"string","name":"asset","type":"string"},{"indexed":false,"internalType":"address","name":"priceFeed","type":"address"}],"name":"PriceFeedUpdated","type":"event"},{"anonymous":false,"inputs":[{"indexed":true,"internalType":"bytes32","name":"role","type":"bytes32"},{"indexed":true,"internalType":"bytes32","name":"previousAdminRole","type":"bytes32"},{"indexed":true,"internalType":"bytes32","name":"newAdminRole","type":"bytes32"}],"name":"RoleAdminChanged","type":"event"},{"anonymous":false,"inputs":[{"indexed":true,"internalType":"bytes32","name":"role","type":"bytes32"},{"indexed":true,"internalType":"address","name":"account","type":"address"},{"indexed":true,"internalType":"address","name":"sender","type":"address"}],"name":"RoleGranted","type":"event"},{"anonymous":false,"inputs":[{"indexed":true,"internalType":"bytes32","name":"role","type":"bytes32"},{"indexed":true,"internalType":"address","name":"account","type":"address"},{"indexed":true,"internalType":"address","name":"sender","type":"address"}],"name":"RoleRevoked","type":"event"},{"anonymous":false,"inputs":[{"indexed":true,"internalType":"address","name":"user","type":"address"},{"indexed":false,"internalType":"string","name":"asset","type":"string"},{"indexed":false,"internalType":"uint256","name":"amount","type":"uint256"},{"indexed":false,"internalType":"uint256","name":"usdValue","type":"uint256"},{"indexed":false,"internalType":"uint256","name":"fryMinted","type":"uint256"},{"indexed":false,"internalType":"int256","name":"verifiedPrice","type":"int256"}],"name":"WreckageProcessed","type":"event"},{"inputs":[],"name":"DEFAULT_ADMIN_ROLE","outputs":[{"internalType":"bytes32","name":"","type":"bytes32"}],"stateMutability":"view","type":"function"},{"inputs":[],"name":"OPERATOR_ROLE","outputs":[{"internalType":"bytes32","name":"","type":"bytes32"}],"stateMutability":"view","type":"function"},{"inputs":[{"internalType":"string","name":"asset","type":"string"},{"internalType":"address","name":"feedAddress","type":"address"}],"name":"addPriceFeed","outputs":[],"stateMutability":"nonpayable","type":"function"},{"inputs":[{"internalType":"string","name":"asset","type":"string"},{"internalType":"uint256","name":"amount","type":"uint256"},{"internalType":"uint256","name":"decimals","type":"uint256"}],"name":"calculateWreckageValue","outputs":[{"internalType":"uint256","name":"","type":"uint256"}],"stateMutability":"view","type":"function"},{"inputs":[{"internalType":"string","name":"asset","type":"string"}],"name":"getLatestPrice","outputs":[{"internalType":"int256","name":"","type":"int256"}],"stateMutability":"view","type":"function"},{"inputs":[{"internalType":"bytes32","name":"role","type":"bytes32"}],"name":"getRoleAdmin","outputs":[{"internalType":"bytes32","name":"","type":"bytes32"}],"stateMutability":"view","type":"function"},{"inputs":[],"name":"getSupportedAssets","outputs":[{"internalType":"string[]","name":"","type":"string[]"}],"stateMutability":"view","type":"function"},{"inputs":[],"name":"getSystemStats","outputs":[{"internalType":"uint256","name":"wreckageProcessed","type":"uint256"},{"internalType":"uint256","name":"fryMinted","type":"uint256"},{"internalType":"uint256","name":"transactions","type":"uint256"}],"stateMutability":"view","type":"function"},{"inputs":[{"internalType":"bytes32","name":"role","type":"bytes32"},{"internalType":"address","name":"account","type":"address"}],"name":"grantRole","outputs":[],"stateMutability":"nonpayable","type":"function"},{"inputs":[{"internalType":"bytes32","name":"role","type":"bytes32"},{"internalType":"address","name":"account","type":"address"}],"name":"hasRole","outputs":[{"internalType":"bool","name":"","type":"bool"}],"stateMutability":"view","type":"function"},{"inputs":[{"internalType":"string","name":"asset","type":"string"}],"name":"isPriceFeedHealthy","outputs":[{"internalType":"bool","name":"","type":"bool"}],"stateMutability":"view","type":"function"},{"inputs":[{"internalType":"string","name":"","type":"string"}],"name":"priceFeeds","outputs":[{"internalType":"address","name":"","type":"address"}],"stateMutability":"view","type":"function"},{"inputs":[{"internalType":"string","name":"asset","type":"string"},{"internalType":"uint256","name":"amount","type":"uint256"},{"internalType":"uint256","name":"decimals","type":"uint256"}],"name":"processWreckage","outputs":[{"internalType":"uint256","name":"","type":"uint256"}],"stateMutability":"nonpayable","type":"function"},{"inputs":[{"internalType":"string","name":"asset","type":"string"},{"internalType":"uint256","name":"usdAmount","type":"uint256"}],"name":"processWreckageUSD","outputs":[{"internalType":"uint256","name":"","type":"uint256"}],"stateMutability":"nonpayable","type":"function"},{"inputs":[{"internalType":"bytes32","name":"role","type":"bytes32"},{"internalType":"address","name":"account","type":"address"}],"name":"renounceRole","outputs":[],"stateMutability":"nonpayable","type":"function"},{"inputs":[{"internalType":"bytes32","name":"role","type":"bytes32"},{"internalType":"address","name":"account","type":"address"}],"name":"revokeRole","outputs":[],"stateMutability":"nonpayable","type":"function"},{"inputs":[{"internalType":"uint256","name":"","type":"uint256"}],"name":"supportedAssets","outputs":[{"internalType":"string","name":"","type":"string"}],"stateMutability":"view","type":"function"},{"inputs":[{"internalType":"bytes4","name":"interfaceId","type":"bytes4"}],"name":"supportsInterface","outputs":[{"internalType":"bool","name":"","type":"bool"}],"stateMutability":"view","type":"function"},{"inputs":[],"name":"totalFryMinted","outputs":[{"internalType":"uint256","name":"","type":"uint256"}],"stateMutability":"view","type":"function"},{"inputs":[],"name":"totalTransactions","outputs":[{"internalType":"uint256","name":"","type":"uint256"}],"stateMutability":"view","type":"function"},{"inputs":[],"name":"totalWreckageProcessed","outputs":[{"internalType":"uint256","name":"","type":"uint256"}],"stateMutability":"view","type":"function"},{"inputs":[],"name":"usdFryToken","outputs":[{"internalType":"contract IUSDFRYToken","name":"","type":"address"}],"stateMutability":"view","type":"function"}],"evm":{"bytecode":{"linkReferences":{},"object":"6080346200067f57601f6200218038819003918201601f19168301916001600160401b0383118484101762000455578084926020946040528339810103126200067f57516001600160a01b038116908190036200067f5760016000908155600280546001600160a01b0319169290921790915533815260008051602062002140833981519152602052604090205460ff16156200063c575b3360009081527f31c1e66639f421f1853aeefe8ad6b62a3b96f3287efe23106923cd924aa025c260205260409020547f97667070c54ef182b0f5858b034beac1b6f3089aa2d3188bb1e8929f4fa9b9299060ff1615620005f8575b50620000fd62000684565b600381526242544360e81b60208201526040516200011f8160208401620006a4565b6005600382015260239020546001600160a01b03161562000481575b6040516020818351620001528183858801620006cc565b81016005815203019020907356a43eb56da12c0dc1d972acb089c06a5def8e69918260018060a01b03198254161790556040519160408352620001a6825180938160408701526020606087019101620006cc565b60208301527f74b9819a3b3ab6f1735c195541c4352dec722e0e22f92198d9f1719d2e89a757918291601f01601f1916810181900360600190a1620001ea62000684565b60038152602081016208aa8960eb1b81526040516200020a8183620006a4565b6005600382015260239020546001600160a01b031615620002b1575b6200028f91606091604051602081845162000243818387620006cc565b8101600581520301902073d30e2101a97dcbaebcbc04f14c3f624e67a35165908160018060a01b03198254161790556040519485936040855251809381604087015286860190620006cc565b6020830152601f01601f19168101030190a1604051611a2e9081620006f28239f35b60065468010000000000000000811015620004555760018101806006558110156200046b57600660005282516000805160206200216083398151915291909101906001600160401b03811162000455578154600181811c911680156200044a575b60208210146200043457601f8111620003e7575b506020601f821160011462000374579181606094926200028f969460009162000368575b508160011b916000199060031b1c19161790555b9150915062000226565b9050840151386200034a565b601f198216908360005260206000209160005b818110620003ce5750926200028f969492600192826060989610620003b4575b5050811b0190556200035e565b86015160001960f88460031b161c191690553880620003a7565b9192602060018192868b01518155019401920162000387565b826000526020600020601f830160051c8101916020841062000429575b601f0160051c01905b8181106200041c575062000326565b600081556001016200040d565b909150819062000404565b634e487b7160e01b600052602260045260246000fd5b90607f169062000312565b634e487b7160e01b600052604160045260246000fd5b634e487b7160e01b600052603260045260246000fd5b60065468010000000000000000811015620004555760018101806006558110156200046b57600660005281516000805160206200216083398151915291909101906001600160401b03811162000455578154600181811c91168015620005ed575b60208210146200043457601f8111620005a0575b50806020601f8211600114620005345760009162000528575b508160011b916000199060031b1c19161790556200013b565b9050830151386200050f565b91508260005260206000206000925b601f198316841062000587576001935082601f198116106200056d575b5050811b0190556200013b565b85015160001960f88460031b161c19169055388062000560565b8581015182556020938401936001909201910162000543565b826000526020600020601f830160051c81019160208410620005e2575b601f0160051c01905b818110620005d55750620004f6565b60008155600101620005c6565b9091508190620005bd565b90607f1690620004e2565b8060005260016020526040600020336000526020526040600020600160ff198254161790553390339060008051602062002120833981519152600080a438620000f2565b3360008181526000805160206200214083398151915260205260408120805460ff191660011790558190600080516020620021208339815191528180a462000097565b600080fd5b60408051919082016001600160401b038111838210176200045557604052565b60005b60038110620006bb57505060036000910152565b8181015183820152602001620006a7565b60005b838110620006e05750506000910152565b8181015183820152602001620006cf56fe608060408181526004918236101561001657600080fd5b600090813560e01c90816301ffc9a714611023575080630dc16e1f14610b75578063242601c014610b30578063248a9ca314610b065780632f2ff15d14610a595780633314b4c7146107ef57806336568abe1461075e5780637739329e14610735578063879b2758146107165780638ccae4e2146106f757806391d14854146106b0578063a06bed3a14610430578063a217fddf14610415578063b9a60038146103f6578063c68dbb3714610392578063c7f68cf214610376578063cb8ae86c1461030e578063d1ce59a7146102de578063d547741f1461029c578063e5406dbf1461019a578063f5b541a61461015b5763f66a1b711461011657600080fd5b346101585760203660031901126101585782359067ffffffffffffffff8211610158575061014c602093610151923691016110cb565b6116a6565b9051908152f35b80fd5b509034610196578160031936011261019657602090517f97667070c54ef182b0f5858b034beac1b6f3089aa2d3188bb1e8929f4fa9b9298152f35b5080fd5b5082346101965781600319360112610196576006549067ffffffffffffffff821161028957508251916020926101d5848460051b01826110a9565b8281526006825283810192827ff652222313e28459528d920b65115c16c04f3efc82aaedc97be59f3f377c0d3f855b83831061026557505050508451938085019181865251809252858501958260051b8601019392955b8287106102395785850386f35b909192938280610255600193603f198a820301865288516112c3565b960192019601959291909261022c565b6001888192610277859b98999b6111fa565b81520192019201919096949396610204565b634e487b7160e01b835260419052602482fd5b509190346102da57806003193601126102da576102d791356102d260016102c1611127565b9383875281602052862001546112e8565b61149a565b80f35b8280fd5b50903461019657816003193601126101965760609060075490600854906009549181519384526020840152820152f35b50346101585760203660031901126101585782359067ffffffffffffffff82116101585750602092610342913691016110cb565b82610355835192838151938492016112a0565b6005908201908152819003830190205490516001600160a01b039091168152f35b5090346101965760209061015161038c3661113d565b9161182b565b5034610158576020366003190112610158578235600654811015610196576103b990611173565b9390936103e4576103e0836103cd866111fa565b90519182916020835260208301906112c3565b0390f35b634e487b7160e01b8252819052602490fd5b5090346101965781600319360112610196576020906009549051908152f35b50903461019657816003193601126101965751908152602090f35b509190346102da576104413661113d565b949161044b6118fc565b6104568215156118ac565b83519581519660209761046c81838b87016112a0565b600590820190815281900388019020546001600160a01b0390811615610677576104a0610498846116a6565b92858561182b565b801561063c57670de0b6b3a7640000899104916002541697875198899163458ecfad60e11b8352339083015283602483015260c06044830152600960c483015268436861696e6c696e6b60b81b60e4830152610100606483015281888a61051c610104840160409060038152621554d160ea1b60208201520190565b656f7261636c6560d01b87858303926003198401608488015260068152015261251c60a485015201925af19687156106325785976105df575b50917f411b9b78af95bf59aea270ea30d2c77853017fe9e32cb1ce7a736cc2a0ea6a76918361058a6001979695600754611510565b60075561059989600854611510565b6008556105a76009546118ed565b6009556105be88519360a0855260a08501906112c3565b948a8401528783015287606083015260808201528033930390a25551908152f35b9096508781813d831161062b575b6105f781836110a9565b810103126106275751957f411b9b78af95bf59aea270ea30d2c77853017fe9e32cb1ce7a736cc2a0ea6a76610555565b8480fd5b503d6105ed565b86513d87823e3d90fd5b865162461bcd60e51b81528089018a9052601560248201527405553442076616c7565206d757374206265203e203605c1b6044820152606490fd5b855162461bcd60e51b81528088018990526013602482015272105cdcd95d081b9bdd081cdd5c1c1bdc9d1959606a1b6044820152606490fd5b5091346102da57816003193601126102da578160209360ff926106d1611127565b90358252600186528282206001600160a01b039091168252855220549151911615158152f35b5090346101965781600319360112610196576020906008549051908152f35b5090346101965781600319360112610196576020906007549051908152f35b50903461019657816003193601126101965760025490516001600160a01b039091168152602090f35b508234610196578260031936011261019657610778611127565b90336001600160a01b0383160361079457906102d7913561149a565b608490602085519162461bcd60e51b8352820152602f60248201527f416363657373436f6e74726f6c3a2063616e206f6e6c792072656e6f756e636560448201526e103937b632b9903337b91039b2b63360891b6064820152fd5b5090346101965760031991818336011261015857833567ffffffffffffffff81116101965761082190369086016110cb565b6024359061082d6118fc565b6108388215156118ac565b8284519582519660209761084f81838b88016112a0565b600590820190815281900388019020546001600160a01b039081166109d5575b90879887989260025416908789519a8b94859363458ecfad60e11b855233818601528a602486015260c0604486015260c48501526344656d6f60e01b60e4850152610100606485015265191a5c9958dd60d21b876108e2610104870160409060038152621554d160ea1b60208201520190565b868103938401608488015260068152015261232860a485015201925af19586156109cb578496610997575b5082917f411b9b78af95bf59aea270ea30d2c77853017fe9e32cb1ce7a736cc2a0ea6a769161094160019695600754611510565b60075561095088600854611510565b60085561095e6009546118ed565b60095561097587519260a0845260a08401906112c3565b93858a8401528783015287606083015260808201528033930390a25551908152f35b9095508681813d83116109c4575b6109af81836110a9565b810103126109c0575194600161090d565b8380fd5b503d6109a5565b85513d86823e3d90fd5b865163f66a1b7160e01b81528981018990528881806109f760248201896112c3565b0381305afa879181610a26575b5091899a91899a9493610a1e575b5091925098975061086f565b945038610a12565b9091508981813d8311610a52575b610a3e81836110a9565b81010312610a4e57519088610a04565b8780fd5b503d610a34565b5091346102da57816003193601126102da573590610a75611127565b908284526001602052610a8d600182862001546112e8565b828452600160209081528185206001600160a01b039093168086529290528084205460ff1615610abb578380f35b82845260016020528084208285526020528320600160ff1982541617905533917f2f8788117e7eff1d82e926ec794901d17c78024a50270940304540a733656f0d8480a43880808380f35b5091346102da5760203660031901126102da57816020936001923581528285522001549051908152f35b50346101585760203660031901126101585782359067ffffffffffffffff82116101585750610b67602093610b6c923691016110cb565b611952565b90519015158152f35b50903461019657806003193601126101965767ffffffffffffffff9083358281116109c057610ba790369086016110cb565b91610bb0611127565b94848052600190602092828452848720338852845260ff858820541615610e70576001600160a01b03978816928315610e365785519887519986818c81838d019e8f91610bfc926112a0565b81016005815203019020541615610c86575b505050610c48827f74b9819a3b3ab6f1735c195541c4352dec722e0e22f92198d9f1719d2e89a757969785518093819289519283916112a0565b81016005815203019020816bffffffffffffffffffffffff60a01b825416179055610c7c83519484869586528501906112c3565b918301520390a180f35b60065468010000000000000000811015610e23578082610ca99201600655611173565b939093610e11578751928311610dfe5750610cc483546111c0565b601f8111610db8575b5084601f8311600114610d315792828087948b9c94610c48977f74b9819a3b3ab6f1735c195541c4352dec722e0e22f92198d9f1719d2e89a7579d93610d26575b501b916000199060031b1c19161790555b9796610c0e565b8c0151925038610d0e565b83895285892091929190601f1983168a5b818110610da3575092610c489592889592827f74b9819a3b3ab6f1735c195541c4352dec722e0e22f92198d9f1719d2e89a7579d9e9610610d8a575b5050811b019055610d1f565b8b015160001960f88460031b161c191690553880610d7e565b8a830151845592850192918801918801610d42565b838952858920601f840160051c810191878510610df4575b601f0160051c019082905b828110610de9575050610ccd565b8a8155018290610ddb565b9091508190610dd0565b634e487b7160e01b895260419052602488fd5b634e487b7160e01b8952889052602488fd5b634e487b7160e01b895260418452602489fd5b855162461bcd60e51b81528084018690526014602482015273496e76616c69642066656564206164647265737360601b6044820152606490fd5b5093509093610e7e33611544565b9181845191610e8c83611077565b60428352878301936060368637835115611010576030855383518210156110105790607860218501536041915b818311610fa557505050610f64576048610f37938593610f4693610f60975196879376020b1b1b2b9b9a1b7b73a3937b61d1030b1b1b7bab73a1604d1b8c860152610f0e8c82519283916037890191016112a0565b8401917001034b99036b4b9b9b4b733903937b6329607d1b6037840152518093868401906112a0565b010360288101855201836110a9565b5193849362461bcd60e51b855284015260248301906112c3565b0390fd5b606485878087519262461bcd60e51b845283015260248201527f537472696e67733a20686578206c656e67746820696e73756666696369656e746044820152fd5b909192600f81166010811015610ffd576f181899199a1a9b1b9c1cb0b131b232b360811b901a610fd58587611533565b53881c928015610fea57600019019190610eb9565b634e487b7160e01b825260118952602482fd5b634e487b7160e01b835260328a52602483fd5b634e487b7160e01b815260328852602490fd5b905083346102da5760203660031901126102da573563ffffffff60e01b81168091036102da5760209250637965db0b60e01b8114908115611066575b5015158152f35b6301ffc9a760e01b1490508361105f565b6080810190811067ffffffffffffffff82111761109357604052565b634e487b7160e01b600052604160045260246000fd5b90601f8019910116810190811067ffffffffffffffff82111761109357604052565b81601f820112156111225780359067ffffffffffffffff82116110935760405192611100601f8401601f1916602001856110a9565b8284526020838301011161112257816000926020809301838601378301015290565b600080fd5b602435906001600160a01b038216820361112257565b6060600319820112611122576004359067ffffffffffffffff821161112257611168916004016110cb565b906024359060443590565b6006548110156111aa5760066000527ff652222313e28459528d920b65115c16c04f3efc82aaedc97be59f3f377c0d3f0190600090565b634e487b7160e01b600052603260045260246000fd5b90600182811c921680156111f0575b60208310146111da57565b634e487b7160e01b600052602260045260246000fd5b91607f16916111cf565b906040519182600082549261120e846111c0565b90818452600194858116908160001461127d575060011461123a575b5050611238925003836110a9565b565b9093915060005260209081600020936000915b8183106112655750506112389350820101388061122a565b8554888401850152948501948794509183019161124d565b91505061123894506020925060ff191682840152151560051b820101388061122a565b60005b8381106112b35750506000910152565b81810151838201526020016112a3565b906020916112dc815180928185528580860191016112a0565b601f01601f1916010190565b6000818152600191602091838352604093848220338352845260ff858320541615611314575050505050565b61131d33611544565b9285519161132a83611077565b60428352858301936060368637835115611486576030855383518210156114865790607860218501536041915b818311611418575050506113d6576048610f609386936113ba936113ab985198899376020b1b1b2b9b9a1b7b73a3937b61d1030b1b1b7bab73a1604d1b8a860152610f0e815180928c6037890191016112a0565b010360288101875201856110a9565b5192839262461bcd60e51b8452600484015260248301906112c3565b60648486519062461bcd60e51b825280600483015260248201527f537472696e67733a20686578206c656e67746820696e73756666696369656e746044820152fd5b909192600f81166010811015611472576f181899199a1a9b1b9c1cb0b131b232b360811b901a6114488587611533565b5360041c92801561145e57600019019190611357565b634e487b7160e01b82526011600452602482fd5b634e487b7160e01b83526032600452602483fd5b634e487b7160e01b81526032600452602490fd5b906000918083526001602052604083209160018060a01b03169182845260205260ff6040842054166114cb57505050565b8083526001602052604083208284526020526040832060ff1981541690557ff6391f5c32d9c69d2a47ea670b442974b53935d1edc7fd64eb21e047a839171b339380a4565b9190820180921161151d57565b634e487b7160e01b600052601160045260246000fd5b9081518110156111aa570160200190565b604051906060820182811067ffffffffffffffff82111761109357604052602a82526020820160403682378251156111aa576030905381516001908110156111aa57607860218401536029905b8082116115e55750506115a15790565b606460405162461bcd60e51b815260206004820152602060248201527f537472696e67733a20686578206c656e67746820696e73756666696369656e746044820152fd5b9091600f8116601081101561163e576f181899199a1a9b1b9c1cb0b131b232b360811b901a6116148486611533565b5360041c918015611629576000190190611591565b60246000634e487b7160e01b81526011600452fd5b60246000634e487b7160e01b81526032600452fd5b519069ffffffffffffffffffff8216820361112257565b1561167157565b60405162461bcd60e51b815260206004820152600d60248201526c496e76616c696420707269636560981b6044820152606490fd5b6040805182516116bb818360208097016112a0565b600590820190815281900383019020546001600160a01b031680156117f0579060a060049392825194858092633fabe5a360e21b82525afa80156117e5576000938491611792575b506117106000851361166a565b801561176057420342811161151d57610e10111561172d57505090565b60649250519062461bcd60e51b82526004820152600d60248201526c141c9a58d9481d1bdbc81bdb19609a1b6044820152fd5b815162461bcd60e51b815260048101849052600b60248201526a5374616c6520707269636560a81b6044820152606490fd5b93905060a0843d82116117dd575b816117ad60a093836110a9565b8101031261015857506117bf83611653565b50818301516117d5608060608601519501611653565b509238611703565b3d91506117a0565b50513d6000823e3d90fd5b815162461bcd60e51b8152600481018490526014602482015273141c9a58d94819995959081b9bdd08199bdd5b9960621b6044820152606490fd5b611837909291926116a6565b9060009261184684841361166a565b828102928184041490151715611898576402540be4009182810292818404149015171561189857604d811161189857600a0a91821561188457500490565b634e487b7160e01b81526012600452602490fd5b634e487b7160e01b83526011600452602483fd5b156118b357565b60405162461bcd60e51b81526020600482015260126024820152710416d6f756e74206d757374206265203e20360741b6044820152606490fd5b600019811461151d5760010190565b60026000541461190d576002600055565b60405162461bcd60e51b815260206004820152601f60248201527f5265656e7472616e637947756172643a207265656e7472616e742063616c6c006044820152606490fd5b60405181519060209161196881838587016112a0565b600590820190815281900382019020546001600160a01b0316156119f157806119ac926040518094819263f66a1b7160e01b835284600484015260248301906112c3565b0381305afa91826119c8575b50506119c357600090565b600190565b813d83116119ea575b6119db81836110a9565b810103126111225738806119b8565b503d6119d1565b505060009056fea2646970667358221220561aebe48d1121e1b7d9afbe65f939701e326e6da17ec7383b639fb79f40f33864736f6c634300081300332f8788117e7eff1d82e926ec794901d17c78024a50270940304540a733656f0da6eef7e35abe7026729641147f7915573c7e97b47efa546f5f6e3230263bcb49f652222313e28459528d920b65115c16c04f3efc82aaedc97be59f3f377c0d3f","opcodes":"PUSH1 0x80 CALLVALUE PUSH3 0x67F JUMPI PUSH1 0x1F PUSH3 0x2180 CODESIZE DUP2 SWAP1 SUB SWAP2 DUP3 ADD PUSH1 0x1F NOT AND DUP4 ADD SWAP2 PUSH1 0x1 PUSH1 0x1 PUSH1 0x40 SHL SUB DUP4 GT DUP5 DUP5 LT OR PUSH3 0x455 JUMPI DUP1 DUP5 SWAP3 PUSH1 0x20 SWAP5 PUSH1 0x40 MSTORE DUP4 CODECOPY DUP2 ADD SUB SLT PUSH3 0x67F JUMPI MLOAD PUSH1 0x1 PUSH1 0x1 PUSH1 0xA0 SHL SUB DUP2 AND SWAP1 DUP2 SWAP1 SUB PUSH3 0x67F JUMPI PUSH1 0x1 PUSH1 0x0 SWAP1 DUP2 SSTORE PUSH1 0x2 DUP1 SLOAD PUSH1 0x1 PUSH1 0x1 PUSH1 0xA0 SHL SUB NOT AND SWAP3 SWAP1 SWAP3 OR SWAP1 SWAP2 SSTORE CALLER DUP2 MSTORE PUSH1 0x0 DUP1 MLOAD PUSH1 0x20 PUSH3 0x2140 DUP4 CODECOPY DUP2 MLOAD SWAP2 MSTORE PUSH1 0x20 MSTORE PUSH1 0x40 SWAP1 KECCAK256 SLOAD PUSH1 0xFF AND ISZERO PUSH3 0x63C JUMPI JUMPDEST CALLER PUSH1 0x0 SWAP1 DUP2 MSTORE PUSH32 0x31C1E66639F421F1853AEEFE8AD6B62A3B96F3287EFE23106923CD924AA025C2 PUSH1 0x20 MSTORE PUSH1 0x40 SWAP1 KECCAK256 SLOAD PUSH32 0x97667070C54EF182B0F5858B034BEAC1B6F3089AA2D3188BB1E8929F4FA9B929 SWAP1 PUSH1 0xFF AND ISZERO PUSH3 0x5F8 JUMPI JUMPDEST POP PUSH3 0xFD PUSH3 0x684 JUMP JUMPDEST PUSH1 0x3 DUP2 MSTORE PUSH3 0x425443 PUSH1 0xE8 SHL PUSH1 0x20 DUP3 ADD MSTORE PUSH1 0x40 MLOAD PUSH3 0x11F DUP2 PUSH1 0x20 DUP5 ADD PUSH3 0x6A4 JUMP JUMPDEST PUSH1 0x5 PUSH1 0x3 DUP3 ADD MSTORE PUSH1 0x23 SWAP1 KECCAK256 SLOAD PUSH1 0x1 PUSH1 0x1 PUSH1 0xA0 SHL SUB AND ISZERO PUSH3 0x481 JUMPI JUMPDEST PUSH1 0x40 MLOAD PUSH1 0x20 DUP2 DUP4 MLOAD PUSH3 0x152 DUP2 DUP4 DUP6 DUP9 ADD PUSH3 0x6CC JUMP JUMPDEST DUP2 ADD PUSH1 0x5 DUP2 MSTORE SUB ADD SWAP1 KECCAK256 SWAP1 PUSH20 0x56A43EB56DA12C0DC1D972ACB089C06A5DEF8E69 SWAP2 DUP3 PUSH1 0x1 DUP1 PUSH1 0xA0 SHL SUB NOT DUP3 SLOAD AND OR SWAP1 SSTORE PUSH1 0x40 MLOAD SWAP2 PUSH1 0x40 DUP4 MSTORE PUSH3 0x1A6 DUP3 MLOAD DUP1 SWAP4 DUP2 PUSH1 0x40 DUP8 ADD MSTORE PUSH1 0x20 PUSH1 0x60 DUP8 ADD SWAP2 ADD PUSH3 0x6CC JUMP JUMPDEST PUSH1 0x20 DUP4 ADD MSTORE PUSH32 0x74B9819A3B3AB6F1735C195541C4352DEC722E0E22F92198D9F1719D2E89A757 SWAP2 DUP3 SWAP2 PUSH1 0x1F ADD PUSH1 0x1F NOT AND DUP2 ADD DUP2 SWAP1 SUB PUSH1 0x60 ADD SWAP1 LOG1 PUSH3 0x1EA PUSH3 0x684 JUMP JUMPDEST PUSH1 0x3 DUP2 MSTORE PUSH1 0x20 DUP2 ADD PUSH3 0x8AA89 PUSH1 0xEB SHL DUP2 MSTORE PUSH1 0x40 MLOAD PUSH3 0x20A DUP2 DUP4 PUSH3 0x6A4 JUMP JUMPDEST PUSH1 0x5 PUSH1 0x3 DUP3 ADD MSTORE PUSH1 0x23 SWAP1 KECCAK256 SLOAD PUSH1 0x1 PUSH1 0x1 PUSH1 0xA0 SHL SUB AND ISZERO PUSH3 0x2B1 JUMPI JUMPDEST PUSH3 0x28F SWAP2 PUSH1 0x60 SWAP2 PUSH1 0x40 MLOAD PUSH1 0x20 DUP2 DUP5 MLOAD PUSH3 0x243 DUP2 DUP4 DUP8 PUSH3 0x6CC JUMP JUMPDEST DUP2 ADD PUSH1 0x5 DUP2 MSTORE SUB ADD SWAP1 KECCAK256 PUSH20 0xD30E2101A97DCBAEBCBC04F14C3F624E67A35165 SWAP1 DUP2 PUSH1 0x1 DUP1 PUSH1 0xA0 SHL SUB NOT DUP3 SLOAD AND OR SWAP1 SSTORE PUSH1 0x40 MLOAD SWAP5 DUP6 SWAP4 PUSH1 0x40 DUP6 MSTORE MLOAD DUP1 SWAP4 DUP2 PUSH1 0x40 DUP8 ADD MSTORE DUP7 DUP7 ADD SWAP1 PUSH3 0x6CC JUMP JUMPDEST PUSH1 0x20 DUP4 ADD MSTORE PUSH1 0x1F ADD PUSH1 0x1F NOT AND DUP2 ADD SUB ADD SWAP1 LOG1 PUSH1 0x40 MLOAD PUSH2 0x1A2E SWAP1 DUP2 PUSH3 0x6F2 DUP3 CODECOPY RETURN JUMPDEST PUSH1 0x6 SLOAD PUSH9 0x10000000000000000 DUP2 LT ISZERO PUSH3 0x455 JUMPI PUSH1 0x1 DUP2 ADD DUP1 PUSH1 0x6 SSTORE DUP2 LT ISZERO PUSH3 0x46B JUMPI PUSH1 0x6 PUSH1 0x0 MSTORE DUP3 MLOAD PUSH1 0x0 DUP1 MLOAD PUSH1 0x20 PUSH3 0x2160 DUP4 CODECOPY DUP2 MLOAD SWAP2 MSTORE SWAP2 SWAP1 SWAP2 ADD SWAP1 PUSH1 0x1 PUSH1 0x1 PUSH1 0x40 SHL SUB DUP2 GT PUSH3 0x455 JUMPI DUP2 SLOAD PUSH1 0x1 DUP2 DUP2 SHR SWAP2 AND DUP1 ISZERO PUSH3 0x44A JUMPI JUMPDEST PUSH1 0x20 DUP3 LT EQ PUSH3 0x434 JUMPI PUSH1 0x1F DUP2 GT PUSH3 0x3E7 JUMPI JUMPDEST POP PUSH1 0x20 PUSH1 0x1F DUP3 GT PUSH1 0x1 EQ PUSH3 0x374 JUMPI SWAP2 DUP2 PUSH1 0x60 SWAP5 SWAP3 PUSH3 0x28F SWAP7 SWAP5 PUSH1 0x0 SWAP2 PUSH3 0x368 JUMPI JUMPDEST POP DUP2 PUSH1 0x1 SHL SWAP2 PUSH1 0x0 NOT SWAP1 PUSH1 0x3 SHL SHR NOT AND OR SWAP1 SSTORE JUMPDEST SWAP2 POP SWAP2 POP PUSH3 0x226 JUMP JUMPDEST SWAP1 POP DUP5 ADD MLOAD CODESIZE PUSH3 0x34A JUMP JUMPDEST PUSH1 0x1F NOT DUP3 AND SWAP1 DUP4 PUSH1 0x0 MSTORE PUSH1 0x20 PUSH1 0x0 KECCAK256 SWAP2 PUSH1 0x0 JUMPDEST DUP2 DUP2 LT PUSH3 0x3CE JUMPI POP SWAP3 PUSH3 0x28F SWAP7 SWAP5 SWAP3 PUSH1 0x1 SWAP3 DUP3 PUSH1 0x60 SWAP9 SWAP7 LT PUSH3 0x3B4 JUMPI JUMPDEST POP POP DUP2 SHL ADD SWAP1 SSTORE PUSH3 0x35E JUMP JUMPDEST DUP7 ADD MLOAD PUSH1 0x0 NOT PUSH1 0xF8 DUP5 PUSH1 0x3 SHL AND SHR NOT AND SWAP1 SSTORE CODESIZE DUP1 PUSH3 0x3A7 JUMP JUMPDEST SWAP2 SWAP3 PUSH1 0x20 PUSH1 0x1 DUP2 SWAP3 DUP7 DUP12 ADD MLOAD DUP2 SSTORE ADD SWAP5 ADD SWAP3 ADD PUSH3 0x387 JUMP JUMPDEST DUP3 PUSH1 0x0 MSTORE PUSH1 0x20 PUSH1 0x0 KECCAK256 PUSH1 0x1F DUP4 ADD PUSH1 0x5 SHR DUP2 ADD SWAP2 PUSH1 0x20 DUP5 LT PUSH3 0x429 JUMPI JUMPDEST PUSH1 0x1F ADD PUSH1 0x5 SHR ADD SWAP1 JUMPDEST DUP2 DUP2 LT PUSH3 0x41C JUMPI POP PUSH3 0x326 JUMP JUMPDEST PUSH1 0x0 DUP2 SSTORE PUSH1 0x1 ADD PUSH3 0x40D JUMP JUMPDEST SWAP1 SWAP2 POP DUP2 SWAP1 PUSH3 0x404 JUMP JUMPDEST PUSH4 0x4E487B71 PUSH1 0xE0 SHL PUSH1 0x0 MSTORE PUSH1 0x22 PUSH1 0x4 MSTORE PUSH1 0x24 PUSH1 0x0 REVERT JUMPDEST SWAP1 PUSH1 0x7F AND SWAP1 PUSH3 0x312 JUMP JUMPDEST PUSH4 0x4E487B71 PUSH1 0xE0 SHL PUSH1 0x0 MSTORE PUSH1 0x41 PUSH1 0x4 MSTORE PUSH1 0x24 PUSH1 0x0 REVERT JUMPDEST PUSH4 0x4E487B71 PUSH1 0xE0 SHL PUSH1 0x0 MSTORE PUSH1 0x32 PUSH1 0x4 MSTORE PUSH1 0x24 PUSH1 0x0 REVERT JUMPDEST PUSH1 0x6 SLOAD PUSH9 0x10000000000000000 DUP2 LT ISZERO PUSH3 0x455 JUMPI PUSH1 0x1 DUP2 ADD DUP1 PUSH1 0x6 SSTORE DUP2 LT ISZERO PUSH3 0x46B JUMPI PUSH1 0x6 PUSH1 0x0 MSTORE DUP2 MLOAD PUSH1 0x0 DUP1 MLOAD PUSH1 0x20 PUSH3 0x2160 DUP4 CODECOPY DUP2 MLOAD SWAP2 MSTORE SWAP2 SWAP1 SWAP2 ADD SWAP1 PUSH1 0x1 PUSH1 0x1 PUSH1 0x40 SHL SUB DUP2 GT PUSH3 0x455 JUMPI DUP2 SLOAD PUSH1 0x1 DUP2 DUP2 SHR SWAP2 AND DUP1 ISZERO PUSH3 0x5ED JUMPI JUMPDEST PUSH1 0x20 DUP3 LT EQ PUSH3 0x434 JUMPI PUSH1 0x1F DUP2 GT PUSH3 0x5A0 JUMPI JUMPDEST POP DUP1 PUSH1 0x20 PUSH1 0x1F DUP3 GT PUSH1 0x1 EQ PUSH3 0x534 JUMPI PUSH1 0x0 SWAP2 PUSH3 0x528 JUMPI JUMPDEST POP DUP2 PUSH1 0x1 SHL SWAP2 PUSH1 0x0 NOT SWAP1 PUSH1 0x3 SHL SHR NOT AND OR SWAP1 SSTORE PUSH3 0x13B JUMP JUMPDEST SWAP1 POP DUP4 ADD MLOAD CODESIZE PUSH3 0x50F JUMP JUMPDEST SWAP2 POP DUP3 PUSH1 0x0 MSTORE PUSH1 0x20 PUSH1 0x0 KECCAK256 PUSH1 0x0 SWAP3 JUMPDEST PUSH1 0x1F NOT DUP4 AND DUP5 LT PUSH3 0x587 JUMPI PUSH1 0x1 SWAP4 POP DUP3 PUSH1 0x1F NOT DUP2 AND LT PUSH3 0x56D JUMPI JUMPDEST POP POP DUP2 SHL ADD SWAP1 SSTORE PUSH3 0x13B JUMP JUMPDEST DUP6 ADD MLOAD PUSH1 0x0 NOT PUSH1 0xF8 DUP5 PUSH1 0x3 SHL AND SHR NOT AND SWAP1 SSTORE CODESIZE DUP1 PUSH3 0x560 JUMP JUMPDEST DUP6 DUP2 ADD MLOAD DUP3 SSTORE PUSH1 0x20 SWAP4 DUP5 ADD SWAP4 PUSH1 0x1 SWAP1 SWAP3 ADD SWAP2 ADD PUSH3 0x543 JUMP JUMPDEST DUP3 PUSH1 0x0 MSTORE PUSH1 0x20 PUSH1 0x0 KECCAK256 PUSH1 0x1F DUP4 ADD PUSH1 0x5 SHR DUP2 ADD SWAP2 PUSH1 0x20 DUP5 LT PUSH3 0x5E2 JUMPI JUMPDEST PUSH1 0x1F ADD PUSH1 0x5 SHR ADD SWAP1 JUMPDEST DUP2 DUP2 LT PUSH3 0x5D5 JUMPI POP PUSH3 0x4F6 JUMP JUMPDEST PUSH1 0x0 DUP2 SSTORE PUSH1 0x1 ADD PUSH3 0x5C6 JUMP JUMPDEST SWAP1 SWAP2 POP DUP2 SWAP1 PUSH3 0x5BD JUMP JUMPDEST SWAP1 PUSH1 0x7F AND SWAP1 PUSH3 0x4E2 JUMP JUMPDEST DUP1 PUSH1 0x0 MSTORE PUSH1 0x1 PUSH1 0x20 MSTORE PUSH1 0x40 PUSH1 0x0 KECCAK256 CALLER PUSH1 0x0 MSTORE PUSH1 0x20 MSTORE PUSH1 0x40 PUSH1 0x0 KECCAK256 PUSH1 0x1 PUSH1 0xFF NOT DUP3 SLOAD AND OR SWAP1 SSTORE CALLER SWAP1 CALLER SWAP1 PUSH1 0x0 DUP1 MLOAD PUSH1 0x20 PUSH3 0x2120 DUP4 CODECOPY DUP2 MLOAD SWAP2 MSTORE PUSH1 0x0 DUP1 LOG4 CODESIZE PUSH3 0xF2 JUMP JUMPDEST CALLER PUSH1 0x0 DUP2 DUP2 MSTORE PUSH1 0x0 DUP1 MLOAD PUSH1 0x20 PUSH3 0x2140 DUP4 CODECOPY DUP2 MLOAD SWAP2 MSTORE PUSH1 0x20 MSTORE PUSH1 0x40 DUP2 KECCAK256 DUP1 SLOAD PUSH1 0xFF NOT AND PUSH1 0x1 OR SWAP1 SSTORE DUP2 SWAP1 PUSH1 0x0 DUP1 MLOAD PUSH1 0x20 PUSH3 0x2120 DUP4 CODECOPY DUP2 MLOAD SWAP2 MSTORE DUP2 DUP1 LOG4 PUSH3 0x97 JUMP JUMPDEST PUSH1 0x0 DUP1 REVERT JUMPDEST PUSH1 0x40 DUP1 MLOAD SWAP2 SWAP1 DUP3 ADD PUSH1 0x1 PUSH1 0x1 PUSH1 0x40 SHL SUB DUP2 GT DUP4 DUP3 LT OR PUSH3 0x455 JUMPI PUSH1 0x40 MSTORE JUMP JUMPDEST PUSH1 0x0 JUMPDEST PUSH1 0x3 DUP2 LT PUSH3 0x6BB JUMPI POP POP PUSH1 0x3 PUSH1 0x0 SWAP2 ADD MSTORE JUMP JUMPDEST DUP2 DUP2 ADD MLOAD DUP4 DUP3 ADD MSTORE PUSH1 0x20 ADD PUSH3 0x6A7 JUMP JUMPDEST PUSH1 0x0 JUMPDEST DUP4 DUP2 LT PUSH3 0x6E0 JUMPI POP POP PUSH1 0x0 SWAP2 ADD MSTORE JUMP JUMPDEST DUP2 DUP2 ADD MLOAD DUP4 DUP3 ADD MSTORE PUSH1 0x20 ADD PUSH3 0x6CF JUMP INVALID PUSH1 0x80 PUSH1 0x40 DUP2 DUP2 MSTORE PUSH1 0x4 SWAP2 DUP3 CALLDATASIZE LT ISZERO PUSH2 0x16 JUMPI PUSH1 0x0 DUP1 REVERT JUMPDEST PUSH1 0x0 SWAP1 DUP2 CALLDATALOAD PUSH1 0xE0 SHR SWAP1 DUP2 PUSH4 0x1FFC9A7 EQ PUSH2 0x1023 JUMPI POP DUP1 PUSH4 0xDC16E1F EQ PUSH2 0xB75 JUMPI DUP1 PUSH4 0x242601C0 EQ PUSH2 0xB30 JUMPI DUP1 PUSH4 0x248A9CA3 EQ PUSH2 0xB06 JUMPI DUP1 PUSH4 0x2F2FF15D EQ PUSH2 0xA59 JUMPI DUP1 PUSH4 0x3314B4C7 EQ PUSH2 0x7EF JUMPI DUP1 PUSH4 0x36568ABE EQ PUSH2 0x75E JUMPI DUP1 PUSH4 0x7739329E EQ PUSH2 0x735 JUMPI DUP1 PUSH4 0x879B2758 EQ PUSH2 0x716 JUMPI DUP1 PUSH4 0x8CCAE4E2 EQ PUSH2 0x6F7 JUMPI DUP1 PUSH4 0x91D14854 EQ PUSH2 0x6B0 JUMPI DUP1 PUSH4 0xA06BED3A EQ PUSH2 0x430 JUMPI DUP1 PUSH4 0xA217FDDF EQ PUSH2 0x415 JUMPI DUP1 PUSH4 0xB9A60038 EQ PUSH2 0x3F6 JUMPI DUP1 PUSH4 0xC68DBB37 EQ PUSH2 0x392 JUMPI DUP1 PUSH4 0xC7F68CF2 EQ PUSH2 0x376 JUMPI DUP1 PUSH4 0xCB8AE86C EQ PUSH2 0x30E JUMPI DUP1 PUSH4 0xD1CE59A7 EQ PUSH2 0x2DE JUMPI DUP1 PUSH4 0xD547741F EQ PUSH2 0x29C JUMPI DUP1 PUSH4 0xE5406DBF EQ PUSH2 0x19A JUMPI DUP1 PUSH4 0xF5B541A6 EQ PUSH2 0x15B JUMPI PUSH4 0xF66A1B71 EQ PUSH2 0x116 JUMPI PUSH1 0x0 DUP1 REVERT JUMPDEST CALLVALUE PUSH2 0x158 JUMPI PUSH1 0x20 CALLDATASIZE PUSH1 0x3 NOT ADD SLT PUSH2 0x158 JUMPI DUP3 CALLDATALOAD SWAP1 PUSH8 0xFFFFFFFFFFFFFFFF DUP3 GT PUSH2 0x158 JUMPI POP PUSH2 0x14C PUSH1 0x20 SWAP4 PUSH2 0x151 SWAP3 CALLDATASIZE SWAP2 ADD PUSH2 0x10CB JUMP JUMPDEST PUSH2 0x16A6 JUMP JUMPDEST SWAP1 MLOAD SWAP1 DUP2 MSTORE RETURN JUMPDEST DUP1 REVERT JUMPDEST POP SWAP1 CALLVALUE PUSH2 0x196 JUMPI DUP2 PUSH1 0x3 NOT CALLDATASIZE ADD SLT PUSH2 0x196 JUMPI PUSH1 0x20 SWAP1 MLOAD PUSH32 0x97667070C54EF182B0F5858B034BEAC1B6F3089AA2D3188BB1E8929F4FA9B929 DUP2 MSTORE RETURN JUMPDEST POP DUP1 REVERT JUMPDEST POP DUP3 CALLVALUE PUSH2 0x196 JUMPI DUP2 PUSH1 0x3 NOT CALLDATASIZE ADD SLT PUSH2 0x196 JUMPI PUSH1 0x6 SLOAD SWAP1 PUSH8 0xFFFFFFFFFFFFFFFF DUP3 GT PUSH2 0x289 JUMPI POP DUP3 MLOAD SWAP2 PUSH1 0x20 SWAP3 PUSH2 0x1D5 DUP5 DUP5 PUSH1 0x5 SHL ADD DUP3 PUSH2 0x10A9 JUMP JUMPDEST DUP3 DUP2 MSTORE PUSH1 0x6 DUP3 MSTORE DUP4 DUP2 ADD SWAP3 DUP3 PUSH32 0xF652222313E28459528D920B65115C16C04F3EFC82AAEDC97BE59F3F377C0D3F DUP6 JUMPDEST DUP4 DUP4 LT PUSH2 0x265 JUMPI POP POP POP POP DUP5 MLOAD SWAP4 DUP1 DUP6 ADD SWAP2 DUP2 DUP7 MSTORE MLOAD DUP1 SWAP3 MSTORE DUP6 DUP6 ADD SWAP6 DUP3 PUSH1 0x5 SHL DUP7 ADD ADD SWAP4 SWAP3 SWAP6 JUMPDEST DUP3 DUP8 LT PUSH2 0x239 JUMPI DUP6 DUP6 SUB DUP7 RETURN JUMPDEST SWAP1 SWAP2 SWAP3 SWAP4 DUP3 DUP1 PUSH2 0x255 PUSH1 0x1 SWAP4 PUSH1 0x3F NOT DUP11 DUP3 SUB ADD DUP7 MSTORE DUP9 MLOAD PUSH2 0x12C3 JUMP JUMPDEST SWAP7 ADD SWAP3 ADD SWAP7 ADD SWAP6 SWAP3 SWAP2 SWAP1 SWAP3 PUSH2 0x22C JUMP JUMPDEST PUSH1 0x1 DUP9 DUP2 SWAP3 PUSH2 0x277 DUP6 SWAP12 SWAP9 SWAP10 SWAP12 PUSH2 0x11FA JUMP JUMPDEST DUP2 MSTORE ADD SWAP3 ADD SWAP3 ADD SWAP2 SWAP1 SWAP7 SWAP5 SWAP4 SWAP7 PUSH2 0x204 JUMP JUMPDEST PUSH4 0x4E487B71 PUSH1 0xE0 SHL DUP4 MSTORE PUSH1 0x41 SWAP1 MSTORE PUSH1 0x24 DUP3 REVERT JUMPDEST POP SWAP2 SWAP1 CALLVALUE PUSH2 0x2DA JUMPI DUP1 PUSH1 0x3 NOT CALLDATASIZE ADD SLT PUSH2 0x2DA JUMPI PUSH2 0x2D7 SWAP2 CALLDATALOAD PUSH2 0x2D2 PUSH1 0x1 PUSH2 0x2C1 PUSH2 0x1127 JUMP JUMPDEST SWAP4 DUP4 DUP8 MSTORE DUP2 PUSH1 0x20 MSTORE DUP7 KECCAK256 ADD SLOAD PUSH2 0x12E8 JUMP JUMPDEST PUSH2 0x149A JUMP JUMPDEST DUP1 RETURN JUMPDEST DUP3 DUP1 REVERT JUMPDEST POP SWAP1 CALLVALUE PUSH2 0x196 JUMPI DUP2 PUSH1 0x3 NOT CALLDATASIZE ADD SLT PUSH2 0x196 JUMPI PUSH1 0x60 SWAP1 PUSH1 0x7 SLOAD SWAP1 PUSH1 0x8 SLOAD SWAP1 PUSH1 0x9 SLOAD SWAP2 DUP2 MLOAD SWAP4 DUP5 MSTORE PUSH1 0x20 DUP5 ADD MSTORE DUP3 ADD MSTORE RETURN JUMPDEST POP CALLVALUE PUSH2 0x158 JUMPI PUSH1 0x20 CALLDATASIZE PUSH1 0x3 NOT ADD SLT PUSH2 0x158 JUMPI DUP3 CALLDATALOAD SWAP1 PUSH8 0xFFFFFFFFFFFFFFFF DUP3 GT PUSH2 0x158 JUMPI POP PUSH1 0x20 SWAP3 PUSH2 0x342 SWAP2 CALLDATASIZE SWAP2 ADD PUSH2 0x10CB JUMP JUMPDEST DUP3 PUSH2 0x355 DUP4 MLOAD SWAP3 DUP4 DUP2 MLOAD SWAP4 DUP5 SWAP3 ADD PUSH2 0x12A0 JUMP JUMPDEST PUSH1 0x5 SWAP1 DUP3 ADD SWAP1 DUP2 MSTORE DUP2 SWAP1 SUB DUP4 ADD SWAP1 KECCAK256 SLOAD SWAP1 MLOAD PUSH1 0x1 PUSH1 0x1 PUSH1 0xA0 SHL SUB SWAP1 SWAP2 AND DUP2 MSTORE RETURN JUMPDEST POP SWAP1 CALLVALUE PUSH2 0x196 JUMPI PUSH1 0x20 SWAP1 PUSH2 0x151 PUSH2 0x38C CALLDATASIZE PUSH2 0x113D JUMP JUMPDEST SWAP2 PUSH2 0x182B JUMP JUMPDEST POP CALLVALUE PUSH2 0x158 JUMPI PUSH1 0x20 CALLDATASIZE PUSH1 0x3 NOT ADD SLT PUSH2 0x158 JUMPI DUP3 CALLDATALOAD PUSH1 0x6 SLOAD DUP2 LT ISZERO PUSH2 0x196 JUMPI PUSH2 0x3B9 SWAP1 PUSH2 0x1173 JUMP JUMPDEST SWAP4 SWAP1 SWAP4 PUSH2 0x3E4 JUMPI PUSH2 0x3E0 DUP4 PUSH2 0x3CD DUP7 PUSH2 0x11FA JUMP JUMPDEST SWAP1 MLOAD SWAP2 DUP3 SWAP2 PUSH1 0x20 DUP4 MSTORE PUSH1 0x20 DUP4 ADD SWAP1 PUSH2 0x12C3 JUMP JUMPDEST SUB SWAP1 RETURN JUMPDEST PUSH4 0x4E487B71 PUSH1 0xE0 SHL DUP3 MSTORE DUP2 SWAP1 MSTORE PUSH1 0x24 SWAP1 REVERT JUMPDEST POP SWAP1 CALLVALUE PUSH2 0x196 JUMPI DUP2 PUSH1 0x3 NOT CALLDATASIZE ADD SLT PUSH2 0x196 JUMPI PUSH1 0x20 SWAP1 PUSH1 0x9 SLOAD SWAP1 MLOAD SWAP1 DUP2 MSTORE RETURN JUMPDEST POP SWAP1 CALLVALUE PUSH2 0x196 JUMPI DUP2 PUSH1 0x3 NOT CALLDATASIZE ADD SLT PUSH2 0x196 JUMPI MLOAD SWAP1 DUP2 MSTORE PUSH1 0x20 SWAP1 RETURN JUMPDEST POP SWAP2 SWAP1 CALLVALUE PUSH2 0x2DA JUMPI PUSH2 0x441 CALLDATASIZE PUSH2 0x113D JUMP JUMPDEST SWAP5 SWAP2 PUSH2 0x44B PUSH2 0x18FC JUMP JUMPDEST PUSH2 0x456 DUP3 ISZERO ISZERO PUSH2 0x18AC JUMP JUMPDEST DUP4 MLOAD SWAP6 DUP2 MLOAD SWAP7 PUSH1 0x20 SWAP8 PUSH2 0x46C DUP2 DUP4 DUP12 DUP8 ADD PUSH2 0x12A0 JUMP JUMPDEST PUSH1 0x5 SWAP1 DUP3 ADD SWAP1 DUP2 MSTORE DUP2 SWAP1 SUB DUP9 ADD SWAP1 KECCAK256 SLOAD PUSH1 0x1 PUSH1 0x1 PUSH1 0xA0 SHL SUB SWAP1 DUP2 AND ISZERO PUSH2 0x677 JUMPI PUSH2 0x4A0 PUSH2 0x498 DUP5 PUSH2 0x16A6 JUMP JUMPDEST SWAP3 DUP6 DUP6 PUSH2 0x182B JUMP JUMPDEST DUP1 ISZERO PUSH2 0x63C JUMPI PUSH8 0xDE0B6B3A7640000 DUP10 SWAP2 DIV SWAP2 PUSH1 0x2 SLOAD AND SWAP8 DUP8 MLOAD SWAP9 DUP10 SWAP2 PUSH4 0x458ECFAD PUSH1 0xE1 SHL DUP4 MSTORE CALLER SWAP1 DUP4 ADD MSTORE DUP4 PUSH1 0x24 DUP4 ADD MSTORE PUSH1 0xC0 PUSH1 0x44 DUP4 ADD MSTORE PUSH1 0x9 PUSH1 0xC4 DUP4 ADD MSTORE PUSH9 0x436861696E6C696E6B PUSH1 0xB8 SHL PUSH1 0xE4 DUP4 ADD MSTORE PUSH2 0x100 PUSH1 0x64 DUP4 ADD MSTORE DUP2 DUP9 DUP11 PUSH2 0x51C PUSH2 0x104 DUP5 ADD PUSH1 0x40 SWAP1 PUSH1 0x3 DUP2 MSTORE PUSH3 0x1554D1 PUSH1 0xEA SHL PUSH1 0x20 DUP3 ADD MSTORE ADD SWAP1 JUMP JUMPDEST PUSH6 0x6F7261636C65 PUSH1 0xD0 SHL DUP8 DUP6 DUP4 SUB SWAP3 PUSH1 0x3 NOT DUP5 ADD PUSH1 0x84 DUP9 ADD MSTORE PUSH1 0x6 DUP2 MSTORE ADD MSTORE PUSH2 0x251C PUSH1 0xA4 DUP6 ADD MSTORE ADD SWAP3 GAS CALL SWAP7 DUP8 ISZERO PUSH2 0x632 JUMPI DUP6 SWAP8 PUSH2 0x5DF JUMPI JUMPDEST POP SWAP2 PUSH32 0x411B9B78AF95BF59AEA270EA30D2C77853017FE9E32CB1CE7A736CC2A0EA6A76 SWAP2 DUP4 PUSH2 0x58A PUSH1 0x1 SWAP8 SWAP7 SWAP6 PUSH1 0x7 SLOAD PUSH2 0x1510 JUMP JUMPDEST PUSH1 0x7 SSTORE PUSH2 0x599 DUP10 PUSH1 0x8 SLOAD PUSH2 0x1510 JUMP JUMPDEST PUSH1 0x8 SSTORE PUSH2 0x5A7 PUSH1 0x9 SLOAD PUSH2 0x18ED JUMP JUMPDEST PUSH1 0x9 SSTORE PUSH2 0x5BE DUP9 MLOAD SWAP4 PUSH1 0xA0 DUP6 MSTORE PUSH1 0xA0 DUP6 ADD SWAP1 PUSH2 0x12C3 JUMP JUMPDEST SWAP5 DUP11 DUP5 ADD MSTORE DUP8 DUP4 ADD MSTORE DUP8 PUSH1 0x60 DUP4 ADD MSTORE PUSH1 0x80 DUP3 ADD MSTORE DUP1 CALLER SWAP4 SUB SWAP1 LOG2 SSTORE MLOAD SWAP1 DUP2 MSTORE RETURN JUMPDEST SWAP1 SWAP7 POP DUP8 DUP2 DUP2 RETURNDATASIZE DUP4 GT PUSH2 0x62B JUMPI JUMPDEST PUSH2 0x5F7 DUP2 DUP4 PUSH2 0x10A9 JUMP JUMPDEST DUP2 ADD SUB SLT PUSH2 0x627 JUMPI MLOAD SWAP6 PUSH32 0x411B9B78AF95BF59AEA270EA30D2C77853017FE9E32CB1CE7A736CC2A0EA6A76 PUSH2 0x555 JUMP JUMPDEST DUP5 DUP1 REVERT JUMPDEST POP RETURNDATASIZE PUSH2 0x5ED JUMP JUMPDEST DUP7 MLOAD RETURNDATASIZE DUP8 DUP3 RETURNDATACOPY RETURNDATASIZE SWAP1 REVERT JUMPDEST DUP7 MLOAD PUSH3 0x461BCD PUSH1 0xE5 SHL DUP2 MSTORE DUP1 DUP10 ADD DUP11 SWAP1 MSTORE PUSH1 0x15 PUSH1 0x24 DUP3 ADD MSTORE PUSH21 0x5553442076616C7565206D757374206265203E203 PUSH1 0x5C SHL PUSH1 0x44 DUP3 ADD MSTORE PUSH1 0x64 SWAP1 REVERT JUMPDEST DUP6 MLOAD PUSH3 0x461BCD PUSH1 0xE5 SHL DUP2 MSTORE DUP1 DUP9 ADD DUP10 SWAP1 MSTORE PUSH1 0x13 PUSH1 0x24 DUP3 ADD MSTORE PUSH19 0x105CDCD95D081B9BDD081CDD5C1C1BDC9D1959 PUSH1 0x6A SHL PUSH1 0x44 DUP3 ADD MSTORE PUSH1 0x64 SWAP1 REVERT JUMPDEST POP SWAP2 CALLVALUE PUSH2 0x2DA JUMPI DUP2 PUSH1 0x3 NOT CALLDATASIZE ADD SLT PUSH2 0x2DA JUMPI DUP2 PUSH1 0x20 SWAP4 PUSH1 0xFF SWAP3 PUSH2 0x6D1 PUSH2 0x1127 JUMP JUMPDEST SWAP1 CALLDATALOAD DUP3 MSTORE PUSH1 0x1 DUP7 MSTORE DUP3 DUP3 KECCAK256 PUSH1 0x1 PUSH1 0x1 PUSH1 0xA0 SHL SUB SWAP1 SWAP2 AND DUP3 MSTORE DUP6 MSTORE KECCAK256 SLOAD SWAP2 MLOAD SWAP2 AND ISZERO ISZERO DUP2 MSTORE RETURN JUMPDEST POP SWAP1 CALLVALUE PUSH2 0x196 JUMPI DUP2 PUSH1 0x3 NOT CALLDATASIZE ADD SLT PUSH2 0x196 JUMPI PUSH1 0x20 SWAP1 PUSH1 0x8 SLOAD SWAP1 MLOAD SWAP1 DUP2 MSTORE RETURN JUMPDEST POP SWAP1 CALLVALUE PUSH2 0x196 JUMPI DUP2 PUSH1 0x3 NOT CALLDATASIZE ADD SLT PUSH2 0x196 JUMPI PUSH1 0x20 SWAP1 PUSH1 0x7 SLOAD SWAP1 MLOAD SWAP1 DUP2 MSTORE RETURN JUMPDEST POP SWAP1 CALLVALUE PUSH2 0x196 JUMPI DUP2 PUSH1 0x3 NOT CALLDATASIZE ADD SLT PUSH2 0x196 JUMPI PUSH1 0x2 SLOAD SWAP1 MLOAD PUSH1 0x1 PUSH1 0x1 PUSH1 0xA0 SHL SUB SWAP1 SWAP2 AND DUP2 MSTORE PUSH1 0x20 SWAP1 RETURN JUMPDEST POP DUP3 CALLVALUE PUSH2 0x196 JUMPI DUP3 PUSH1 0x3 NOT CALLDATASIZE ADD SLT PUSH2 0x196 JUMPI PUSH2 0x778 PUSH2 0x1127 JUMP JUMPDEST SWAP1 CALLER PUSH1 0x1 PUSH1 0x1 PUSH1 0xA0 SHL SUB DUP4 AND SUB PUSH2 0x794 JUMPI SWAP1 PUSH2 0x2D7 SWAP2 CALLDATALOAD PUSH2 0x149A JUMP JUMPDEST PUSH1 0x84 SWAP1 PUSH1 0x20 DUP6 MLOAD SWAP2 PUSH3 0x461BCD PUSH1 0xE5 SHL DUP4 MSTORE DUP3 ADD MSTORE PUSH1 0x2F PUSH1 0x24 DUP3 ADD MSTORE PUSH32 0x416363657373436F6E74726F6C3A2063616E206F6E6C792072656E6F756E6365 PUSH1 0x44 DUP3 ADD MSTORE PUSH15 0x103937B632B9903337B91039B2B633 PUSH1 0x89 SHL PUSH1 0x64 DUP3 ADD MSTORE REVERT JUMPDEST POP SWAP1 CALLVALUE PUSH2 0x196 JUMPI PUSH1 0x3 NOT SWAP2 DUP2 DUP4 CALLDATASIZE ADD SLT PUSH2 0x158 JUMPI DUP4 CALLDATALOAD PUSH8 0xFFFFFFFFFFFFFFFF DUP2 GT PUSH2 0x196 JUMPI PUSH2 0x821 SWAP1 CALLDATASIZE SWAP1 DUP7 ADD PUSH2 0x10CB JUMP JUMPDEST PUSH1 0x24 CALLDATALOAD SWAP1 PUSH2 0x82D PUSH2 0x18FC JUMP JUMPDEST PUSH2 0x838 DUP3 ISZERO ISZERO PUSH2 0x18AC JUMP JUMPDEST DUP3 DUP5 MLOAD SWAP6 DUP3 MLOAD SWAP7 PUSH1 0x20 SWAP8 PUSH2 0x84F DUP2 DUP4 DUP12 DUP9 ADD PUSH2 0x12A0 JUMP JUMPDEST PUSH1 0x5 SWAP1 DUP3 ADD SWAP1 DUP2 MSTORE DUP2 SWAP1 SUB DUP9 ADD SWAP1 KECCAK256 SLOAD PUSH1 0x1 PUSH1 0x1 PUSH1 0xA0 SHL SUB SWAP1 DUP2 AND PUSH2 0x9D5 JUMPI JUMPDEST SWAP1 DUP8 SWAP9 DUP8 SWAP9 SWAP3 PUSH1 0x2 SLOAD AND SWAP1 DUP8 DUP10 MLOAD SWAP11 DUP12 SWAP5 DUP6 SWAP4 PUSH4 0x458ECFAD PUSH1 0xE1 SHL DUP6 MSTORE CALLER DUP2 DUP7 ADD MSTORE DUP11 PUSH1 0x24 DUP7 ADD MSTORE PUSH1 0xC0 PUSH1 0x44 DUP7 ADD MSTORE PUSH1 0xC4 DUP6 ADD MSTORE PUSH4 0x44656D6F PUSH1 0xE0 SHL PUSH1 0xE4 DUP6 ADD MSTORE PUSH2 0x100 PUSH1 0x64 DUP6 ADD MSTORE PUSH6 0x191A5C9958DD PUSH1 0xD2 SHL DUP8 PUSH2 0x8E2 PUSH2 0x104 DUP8 ADD PUSH1 0x40 SWAP1 PUSH1 0x3 DUP2 MSTORE PUSH3 0x1554D1 PUSH1 0xEA SHL PUSH1 0x20 DUP3 ADD MSTORE ADD SWAP1 JUMP JUMPDEST DUP7 DUP2 SUB SWAP4 DUP5 ADD PUSH1 0x84 DUP9 ADD MSTORE PUSH1 0x6 DUP2 MSTORE ADD MSTORE PUSH2 0x2328 PUSH1 0xA4 DUP6 ADD MSTORE ADD SWAP3 GAS CALL SWAP6 DUP7 ISZERO PUSH2 0x9CB JUMPI DUP5 SWAP7 PUSH2 0x997 JUMPI JUMPDEST POP DUP3 SWAP2 PUSH32 0x411B9B78AF95BF59AEA270EA30D2C77853017FE9E32CB1CE7A736CC2A0EA6A76 SWAP2 PUSH2 0x941 PUSH1 0x1 SWAP7 SWAP6 PUSH1 0x7 SLOAD PUSH2 0x1510 JUMP JUMPDEST PUSH1 0x7 SSTORE PUSH2 0x950 DUP9 PUSH1 0x8 SLOAD PUSH2 0x1510 JUMP JUMPDEST PUSH1 0x8 SSTORE PUSH2 0x95E PUSH1 0x9 SLOAD PUSH2 0x18ED JUMP JUMPDEST PUSH1 0x9 SSTORE PUSH2 0x975 DUP8 MLOAD SWAP3 PUSH1 0xA0 DUP5 MSTORE PUSH1 0xA0 DUP5 ADD SWAP1 PUSH2 0x12C3 JUMP JUMPDEST SWAP4 DUP6 DUP11 DUP5 ADD MSTORE DUP8 DUP4 ADD MSTORE DUP8 PUSH1 0x60 DUP4 ADD MSTORE PUSH1 0x80 DUP3 ADD MSTORE DUP1 CALLER SWAP4 SUB SWAP1 LOG2 SSTORE MLOAD SWAP1 DUP2 MSTORE RETURN JUMPDEST SWAP1 SWAP6 POP DUP7 DUP2 DUP2 RETURNDATASIZE DUP4 GT PUSH2 0x9C4 JUMPI JUMPDEST PUSH2 0x9AF DUP2 DUP4 PUSH2 0x10A9 JUMP JUMPDEST DUP2 ADD SUB SLT PUSH2 0x9C0 JUMPI MLOAD SWAP5 PUSH1 0x1 PUSH2 0x90D JUMP JUMPDEST DUP4 DUP1 REVERT JUMPDEST POP RETURNDATASIZE PUSH2 0x9A5 JUMP JUMPDEST DUP6 MLOAD RETURNDATASIZE DUP7 DUP3 RETURNDATACOPY RETURNDATASIZE SWAP1 REVERT JUMPDEST DUP7 MLOAD PUSH4 0xF66A1B71 PUSH1 0xE0 SHL DUP2 MSTORE DUP10 DUP2 ADD DUP10 SWAP1 MSTORE DUP9 DUP2 DUP1 PUSH2 0x9F7 PUSH1 0x24 DUP3 ADD DUP10 PUSH2 0x12C3 JUMP JUMPDEST SUB DUP2 ADDRESS GAS STATICCALL DUP8 SWAP2 DUP2 PUSH2 0xA26 JUMPI JUMPDEST POP SWAP2 DUP10 SWAP11 SWAP2 DUP10 SWAP11 SWAP5 SWAP4 PUSH2 0xA1E JUMPI JUMPDEST POP SWAP2 SWAP3 POP SWAP9 SWAP8 POP PUSH2 0x86F JUMP JUMPDEST SWAP5 POP CODESIZE PUSH2 0xA12 JUMP JUMPDEST SWAP1 SWAP2 POP DUP10 DUP2 DUP2 RETURNDATASIZE DUP4 GT PUSH2 0xA52 JUMPI JUMPDEST PUSH2 0xA3E DUP2 DUP4 PUSH2 0x10A9 JUMP JUMPDEST DUP2 ADD SUB SLT PUSH2 0xA4E JUMPI MLOAD SWAP1 DUP9 PUSH2 0xA04 JUMP JUMPDEST DUP8 DUP1 REVERT JUMPDEST POP RETURNDATASIZE PUSH2 0xA34 JUMP JUMPDEST POP SWAP2 CALLVALUE PUSH2 0x2DA JUMPI DUP2 PUSH1 0x3 NOT CALLDATASIZE ADD SLT PUSH2 0x2DA JUMPI CALLDATALOAD SWAP1 PUSH2 0xA75 PUSH2 0x1127 JUMP JUMPDEST SWAP1 DUP3 DUP5 MSTORE PUSH1 0x1 PUSH1 0x20 MSTORE PUSH2 0xA8D PUSH1 0x1 DUP3 DUP7 KECCAK256 ADD SLOAD PUSH2 0x12E8 JUMP JUMPDEST DUP3 DUP5 MSTORE PUSH1 0x1 PUSH1 0x20 SWAP1 DUP2 MSTORE DUP2 DUP6 KECCAK256 PUSH1 0x1 PUSH1 0x1 PUSH1 0xA0 SHL SUB SWAP1 SWAP4 AND DUP1 DUP7 MSTORE SWAP3 SWAP1 MSTORE DUP1 DUP5 KECCAK256 SLOAD PUSH1 0xFF AND ISZERO PUSH2 0xABB JUMPI DUP4 DUP1 RETURN JUMPDEST DUP3 DUP5 MSTORE PUSH1 0x1 PUSH1 0x20 MSTORE DUP1 DUP5 KECCAK256 DUP3 DUP6 MSTORE PUSH1 0x20 MSTORE DUP4 KECCAK256 PUSH1 0x1 PUSH1 0xFF NOT DUP3 SLOAD AND OR SWAP1 SSTORE CALLER SWAP2 PUSH32 0x2F8788117E7EFF1D82E926EC794901D17C78024A50270940304540A733656F0D DUP5 DUP1 LOG4 CODESIZE DUP1 DUP1 DUP4 DUP1 RETURN JUMPDEST POP SWAP2 CALLVALUE PUSH2 0x2DA JUMPI PUSH1 0x20 CALLDATASIZE PUSH1 0x3 NOT ADD SLT PUSH2 0x2DA JUMPI DUP2 PUSH1 0x20 SWAP4 PUSH1 0x1 SWAP3 CALLDATALOAD DUP2 MSTORE DUP3 DUP6 MSTORE KECCAK256 ADD SLOAD SWAP1 MLOAD SWAP1 DUP2 MSTORE RETURN JUMPDEST POP CALLVALUE PUSH2 0x158 JUMPI PUSH1 0x20 CALLDATASIZE PUSH1 0x3 NOT ADD SLT PUSH2 0x158 JUMPI DUP3 CALLDATALOAD SWAP1 PUSH8 0xFFFFFFFFFFFFFFFF DUP3 GT PUSH2 0x158 JUMPI POP PUSH2 0xB67 PUSH1 0x20 SWAP4 PUSH2 0xB6C SWAP3 CALLDATASIZE SWAP2 ADD PUSH2 0x10CB JUMP JUMPDEST PUSH2 0x1952 JUMP JUMPDEST SWAP1 MLOAD SWAP1 ISZERO ISZERO DUP2 MSTORE RETURN JUMPDEST POP SWAP1 CALLVALUE PUSH2 0x196 JUMPI DUP1 PUSH1 0x3 NOT CALLDATASIZE ADD SLT PUSH2 0x196 JUMPI PUSH8 0xFFFFFFFFFFFFFFFF SWAP1 DUP4 CALLDATALOAD DUP3 DUP2 GT PUSH2 0x9C0 JUMPI PUSH2 0xBA7 SWAP1 CALLDATASIZE SWAP1 DUP7 ADD PUSH2 0x10CB JUMP JUMPDEST SWAP2 PUSH2 0xBB0 PUSH2 0x1127 JUMP JUMPDEST SWAP5 DUP5 DUP1 MSTORE PUSH1 0x1 SWAP1 PUSH1 0x20 SWAP3 DUP3 DUP5 MSTORE DUP5 DUP8 KECCAK256 CALLER DUP9 MSTORE DUP5 MSTORE PUSH1 0xFF DUP6 DUP9 KECCAK256 SLOAD AND ISZERO PUSH2 0xE70 JUMPI PUSH1 0x1 PUSH1 0x1 PUSH1 0xA0 SHL SUB SWAP8 DUP9 AND SWAP3 DUP4 ISZERO PUSH2 0xE36 JUMPI DUP6 MLOAD SWAP9 DUP8 MLOAD SWAP10 DUP7 DUP2 DUP13 DUP2 DUP4 DUP14 ADD SWAP15 DUP16 SWAP2 PUSH2 0xBFC SWAP3 PUSH2 0x12A0 JUMP JUMPDEST DUP2 ADD PUSH1 0x5 DUP2 MSTORE SUB ADD SWAP1 KECCAK256 SLOAD AND ISZERO PUSH2 0xC86 JUMPI JUMPDEST POP POP POP PUSH2 0xC48 DUP3 PUSH32 0x74B9819A3B3AB6F1735C195541C4352DEC722E0E22F92198D9F1719D2E89A757 SWAP7 SWAP8 DUP6 MLOAD DUP1 SWAP4 DUP2 SWAP3 DUP10 MLOAD SWAP3 DUP4 SWAP2 PUSH2 0x12A0 JUMP JUMPDEST DUP2 ADD PUSH1 0x5 DUP2 MSTORE SUB ADD SWAP1 KECCAK256 DUP2 PUSH12 0xFFFFFFFFFFFFFFFFFFFFFFFF PUSH1 0xA0 SHL DUP3 SLOAD AND OR SWAP1 SSTORE PUSH2 0xC7C DUP4 MLOAD SWAP5 DUP5 DUP7 SWAP6 DUP7 MSTORE DUP6 ADD SWAP1 PUSH2 0x12C3 JUMP JUMPDEST SWAP2 DUP4 ADD MSTORE SUB SWAP1 LOG1 DUP1 RETURN JUMPDEST PUSH1 0x6 SLOAD PUSH9 0x10000000000000000 DUP2 LT ISZERO PUSH2 0xE23 JUMPI DUP1 DUP3 PUSH2 0xCA9 SWAP3 ADD PUSH1 0x6 SSTORE PUSH2 0x1173 JUMP JUMPDEST SWAP4 SWAP1 SWAP4 PUSH2 0xE11 JUMPI DUP8 MLOAD SWAP3 DUP4 GT PUSH2 0xDFE JUMPI POP PUSH2 0xCC4 DUP4 SLOAD PUSH2 0x11C0 JUMP JUMPDEST PUSH1 0x1F DUP2 GT PUSH2 0xDB8 JUMPI JUMPDEST POP DUP5 PUSH1 0x1F DUP4 GT PUSH1 0x1 EQ PUSH2 0xD31 JUMPI SWAP3 DUP3 DUP1 DUP8 SWAP5 DUP12 SWAP13 SWAP5 PUSH2 0xC48 SWAP8 PUSH32 0x74B9819A3B3AB6F1735C195541C4352DEC722E0E22F92198D9F1719D2E89A757 SWAP14 SWAP4 PUSH2 0xD26 JUMPI JUMPDEST POP SHL SWAP2 PUSH1 0x0 NOT SWAP1 PUSH1 0x3 SHL SHR NOT AND OR SWAP1 SSTORE JUMPDEST SWAP8 SWAP7 PUSH2 0xC0E JUMP JUMPDEST DUP13 ADD MLOAD SWAP3 POP CODESIZE PUSH2 0xD0E JUMP JUMPDEST DUP4 DUP10 MSTORE DUP6 DUP10 KECCAK256 SWAP2 SWAP3 SWAP2 SWAP1 PUSH1 0x1F NOT DUP4 AND DUP11 JUMPDEST DUP2 DUP2 LT PUSH2 0xDA3 JUMPI POP SWAP3 PUSH2 0xC48 SWAP6 SWAP3 DUP9 SWAP6 SWAP3 DUP3 PUSH32 0x74B9819A3B3AB6F1735C195541C4352DEC722E0E22F92198D9F1719D2E89A757 SWAP14 SWAP15 SWAP7 LT PUSH2 0xD8A JUMPI JUMPDEST POP POP DUP2 SHL ADD SWAP1 SSTORE PUSH2 0xD1F JUMP JUMPDEST DUP12 ADD MLOAD PUSH1 0x0 NOT PUSH1 0xF8 DUP5 PUSH1 0x3 SHL AND SHR NOT AND SWAP1 SSTORE CODESIZE DUP1 PUSH2 0xD7E JUMP JUMPDEST DUP11 DUP4 ADD MLOAD DUP5 SSTORE SWAP3 DUP6 ADD SWAP3 SWAP2 DUP9 ADD SWAP2 DUP9 ADD PUSH2 0xD42 JUMP JUMPDEST DUP4 DUP10 MSTORE DUP6 DUP10 KECCAK256 PUSH1 0x1F DUP5 ADD PUSH1 0x5 SHR DUP2 ADD SWAP2 DUP8 DUP6 LT PUSH2 0xDF4 JUMPI JUMPDEST PUSH1 0x1F ADD PUSH1 0x5 SHR ADD SWAP1 DUP3 SWAP1 JUMPDEST DUP3 DUP2 LT PUSH2 0xDE9 JUMPI POP POP PUSH2 0xCCD JUMP JUMPDEST DUP11 DUP2 SSTORE ADD DUP3 SWAP1 PUSH2 0xDDB JUMP JUMPDEST SWAP1 SWAP2 POP DUP2 SWAP1 PUSH2 0xDD0 JUMP JUMPDEST PUSH4 0x4E487B71 PUSH1 0xE0 SHL DUP10 MSTORE PUSH1 0x41 SWAP1 MSTORE PUSH1 0x24 DUP9 REVERT JUMPDEST PUSH4 0x4E487B71 PUSH1 0xE0 SHL DUP10 MSTORE DUP9 SWAP1 MSTORE PUSH1 0x24 DUP9 REVERT JUMPDEST PUSH4 0x4E487B71 PUSH1 0xE0 SHL DUP10 MSTORE PUSH1 0x41 DUP5 MSTORE PUSH1 0x24 DUP10 REVERT JUMPDEST DUP6 MLOAD PUSH3 0x461BCD PUSH1 0xE5 SHL DUP2 MSTORE DUP1 DUP5 ADD DUP7 SWAP1 MSTORE PUSH1 0x14 PUSH1 0x24 DUP3 ADD MSTORE PUSH20 0x496E76616C696420666565642061646472657373 PUSH1 0x60 SHL PUSH1 0x44 DUP3 ADD MSTORE PUSH1 0x64 SWAP1 REVERT JUMPDEST POP SWAP4 POP SWAP1 SWAP4 PUSH2 0xE7E CALLER PUSH2 0x1544 JUMP JUMPDEST SWAP2 DUP2 DUP5 MLOAD SWAP2 PUSH2 0xE8C DUP4 PUSH2 0x1077 JUMP JUMPDEST PUSH1 0x42 DUP4 MSTORE DUP8 DUP4 ADD SWAP4 PUSH1 0x60 CALLDATASIZE DUP7 CALLDATACOPY DUP4 MLOAD ISZERO PUSH2 0x1010 JUMPI PUSH1 0x30 DUP6 MSTORE8 DUP4 MLOAD DUP3 LT ISZERO PUSH2 0x1010 JUMPI SWAP1 PUSH1 0x78 PUSH1 0x21 DUP6 ADD MSTORE8 PUSH1 0x41 SWAP2 JUMPDEST DUP2 DUP4 GT PUSH2 0xFA5 JUMPI POP POP POP PUSH2 0xF64 JUMPI PUSH1 0x48 PUSH2 0xF37 SWAP4 DUP6 SWAP4 PUSH2 0xF46 SWAP4 PUSH2 0xF60 SWAP8 MLOAD SWAP7 DUP8 SWAP4 PUSH23 0x20B1B1B2B9B9A1B7B73A3937B61D1030B1B1B7BAB73A1 PUSH1 0x4D SHL DUP13 DUP7 ADD MSTORE PUSH2 0xF0E DUP13 DUP3 MLOAD SWAP3 DUP4 SWAP2 PUSH1 0x37 DUP10 ADD SWAP2 ADD PUSH2 0x12A0 JUMP JUMPDEST DUP5 ADD SWAP2 PUSH17 0x1034B99036B4B9B9B4B733903937B6329 PUSH1 0x7D SHL PUSH1 0x37 DUP5 ADD MSTORE MLOAD DUP1 SWAP4 DUP7 DUP5 ADD SWAP1 PUSH2 0x12A0 JUMP JUMPDEST ADD SUB PUSH1 0x28 DUP2 ADD DUP6 MSTORE ADD DUP4 PUSH2 0x10A9 JUMP JUMPDEST MLOAD SWAP4 DUP5 SWAP4 PUSH3 0x461BCD PUSH1 0xE5 SHL DUP6 MSTORE DUP5 ADD MSTORE PUSH1 0x24 DUP4 ADD SWAP1 PUSH2 0x12C3 JUMP JUMPDEST SUB SWAP1 REVERT JUMPDEST PUSH1 0x64 DUP6 DUP8 DUP1 DUP8 MLOAD SWAP3 PUSH3 0x461BCD PUSH1 0xE5 SHL DUP5 MSTORE DUP4 ADD MSTORE PUSH1 0x24 DUP3 ADD MSTORE PUSH32 0x537472696E67733A20686578206C656E67746820696E73756666696369656E74 PUSH1 0x44 DUP3 ADD MSTORE REVERT JUMPDEST SWAP1 SWAP2 SWAP3 PUSH1 0xF DUP2 AND PUSH1 0x10 DUP2 LT ISZERO PUSH2 0xFFD JUMPI PUSH16 0x181899199A1A9B1B9C1CB0B131B232B3 PUSH1 0x81 SHL SWAP1 BYTE PUSH2 0xFD5 DUP6 DUP8 PUSH2 0x1533 JUMP JUMPDEST MSTORE8 DUP9 SHR SWAP3 DUP1 ISZERO PUSH2 0xFEA JUMPI PUSH1 0x0 NOT ADD SWAP2 SWAP1 PUSH2 0xEB9 JUMP JUMPDEST PUSH4 0x4E487B71 PUSH1 0xE0 SHL DUP3 MSTORE PUSH1 0x11 DUP10 MSTORE PUSH1 0x24 DUP3 REVERT JUMPDEST PUSH4 0x4E487B71 PUSH1 0xE0 SHL DUP4 MSTORE PUSH1 0x32 DUP11 MSTORE PUSH1 0x24 DUP4 REVERT JUMPDEST PUSH4 0x4E487B71 PUSH1 0xE0 SHL DUP2 MSTORE PUSH1 0x32 DUP9 MSTORE PUSH1 0x24 SWAP1 REVERT JUMPDEST SWAP1 POP DUP4 CALLVALUE PUSH2 0x2DA JUMPI PUSH1 0x20 CALLDATASIZE PUSH1 0x3 NOT ADD SLT PUSH2 0x2DA JUMPI CALLDATALOAD PUSH4 0xFFFFFFFF PUSH1 0xE0 SHL DUP2 AND DUP1 SWAP2 SUB PUSH2 0x2DA JUMPI PUSH1 0x20 SWAP3 POP PUSH4 0x7965DB0B PUSH1 0xE0 SHL DUP2 EQ SWAP1 DUP2 ISZERO PUSH2 0x1066 JUMPI JUMPDEST POP ISZERO ISZERO DUP2 MSTORE RETURN JUMPDEST PUSH4 0x1FFC9A7 PUSH1 0xE0 SHL EQ SWAP1 POP DUP4 PUSH2 0x105F JUMP JUMPDEST PUSH1 0x80 DUP2 ADD SWAP1 DUP2 LT PUSH8 0xFFFFFFFFFFFFFFFF DUP3 GT OR PUSH2 0x1093 JUMPI PUSH1 0x40 MSTORE JUMP JUMPDEST PUSH4 0x4E487B71 PUSH1 0xE0 SHL PUSH1 0x0 MSTORE PUSH1 0x41 PUSH1 0x4 MSTORE PUSH1 0x24 PUSH1 0x0 REVERT JUMPDEST SWAP1 PUSH1 0x1F DUP1 NOT SWAP2 ADD AND DUP2 ADD SWAP1 DUP2 LT PUSH8 0xFFFFFFFFFFFFFFFF DUP3 GT OR PUSH2 0x1093 JUMPI PUSH1 0x40 MSTORE JUMP JUMPDEST DUP2 PUSH1 0x1F DUP3 ADD SLT ISZERO PUSH2 0x1122 JUMPI DUP1 CALLDATALOAD SWAP1 PUSH8 0xFFFFFFFFFFFFFFFF DUP3 GT PUSH2 0x1093 JUMPI PUSH1 0x40 MLOAD SWAP3 PUSH2 0x1100 PUSH1 0x1F DUP5 ADD PUSH1 0x1F NOT AND PUSH1 0x20 ADD DUP6 PUSH2 0x10A9 JUMP JUMPDEST DUP3 DUP5 MSTORE PUSH1 0x20 DUP4 DUP4 ADD ADD GT PUSH2 0x1122 JUMPI DUP2 PUSH1 0x0 SWAP3 PUSH1 0x20 DUP1 SWAP4 ADD DUP4 DUP7 ADD CALLDATACOPY DUP4 ADD ADD MSTORE SWAP1 JUMP JUMPDEST PUSH1 0x0 DUP1 REVERT JUMPDEST PUSH1 0x24 CALLDATALOAD SWAP1 PUSH1 0x1 PUSH1 0x1 PUSH1 0xA0 SHL SUB DUP3 AND DUP3 SUB PUSH2 0x1122 JUMPI JUMP JUMPDEST PUSH1 0x60 PUSH1 0x3 NOT DUP3 ADD SLT PUSH2 0x1122 JUMPI PUSH1 0x4 CALLDATALOAD SWAP1 PUSH8 0xFFFFFFFFFFFFFFFF DUP3 GT PUSH2 0x1122 JUMPI PUSH2 0x1168 SWAP2 PUSH1 0x4 ADD PUSH2 0x10CB JUMP JUMPDEST SWAP1 PUSH1 0x24 CALLDATALOAD SWAP1 PUSH1 0x44 CALLDATALOAD SWAP1 JUMP JUMPDEST PUSH1 0x6 SLOAD DUP2 LT ISZERO PUSH2 0x11AA JUMPI PUSH1 0x6 PUSH1 0x0 MSTORE PUSH32 0xF652222313E28459528D920B65115C16C04F3EFC82AAEDC97BE59F3F377C0D3F ADD SWAP1 PUSH1 0x0 SWAP1 JUMP JUMPDEST PUSH4 0x4E487B71 PUSH1 0xE0 SHL PUSH1 0x0 MSTORE PUSH1 0x32 PUSH1 0x4 MSTORE PUSH1 0x24 PUSH1 0x0 REVERT JUMPDEST SWAP1 PUSH1 0x1 DUP3 DUP2 SHR SWAP3 AND DUP1 ISZERO PUSH2 0x11F0 JUMPI JUMPDEST PUSH1 0x20 DUP4 LT EQ PUSH2 0x11DA JUMPI JUMP JUMPDEST PUSH4 0x4E487B71 PUSH1 0xE0 SHL PUSH1 0x0 MSTORE PUSH1 0x22 PUSH1 0x4 MSTORE PUSH1 0x24 PUSH1 0x0 REVERT JUMPDEST SWAP2 PUSH1 0x7F AND SWAP2 PUSH2 0x11CF JUMP JUMPDEST SWAP1 PUSH1 0x40 MLOAD SWAP2 DUP3 PUSH1 0x0 DUP3 SLOAD SWAP3 PUSH2 0x120E DUP5 PUSH2 0x11C0 JUMP JUMPDEST SWAP1 DUP2 DUP5 MSTORE PUSH1 0x1 SWAP5 DUP6 DUP2 AND SWAP1 DUP2 PUSH1 0x0 EQ PUSH2 0x127D JUMPI POP PUSH1 0x1 EQ PUSH2 0x123A JUMPI JUMPDEST POP POP PUSH2 0x1238 SWAP3 POP SUB DUP4 PUSH2 0x10A9 JUMP JUMPDEST JUMP JUMPDEST SWAP1 SWAP4 SWAP2 POP PUSH1 0x0 MSTORE PUSH1 0x20 SWAP1 DUP2 PUSH1 0x0 KECCAK256 SWAP4 PUSH1 0x0 SWAP2 JUMPDEST DUP2 DUP4 LT PUSH2 0x1265 JUMPI POP POP PUSH2 0x1238 SWAP4 POP DUP3 ADD ADD CODESIZE DUP1 PUSH2 0x122A JUMP JUMPDEST DUP6 SLOAD DUP9 DUP5 ADD DUP6 ADD MSTORE SWAP5 DUP6 ADD SWAP5 DUP8 SWAP5 POP SWAP2 DUP4 ADD SWAP2 PUSH2 0x124D JUMP JUMPDEST SWAP2 POP POP PUSH2 0x1238 SWAP5 POP PUSH1 0x20 SWAP3 POP PUSH1 0xFF NOT AND DUP3 DUP5 ADD MSTORE ISZERO ISZERO PUSH1 0x5 SHL DUP3 ADD ADD CODESIZE DUP1 PUSH2 0x122A JUMP JUMPDEST PUSH1 0x0 JUMPDEST DUP4 DUP2 LT PUSH2 0x12B3 JUMPI POP POP PUSH1 0x0 SWAP2 ADD MSTORE JUMP JUMPDEST DUP2 DUP2 ADD MLOAD DUP4 DUP3 ADD MSTORE PUSH1 0x20 ADD PUSH2 0x12A3 JUMP JUMPDEST SWAP1 PUSH1 0x20 SWAP2 PUSH2 0x12DC DUP2 MLOAD DUP1 SWAP3 DUP2 DUP6 MSTORE DUP6 DUP1 DUP7 ADD SWAP2 ADD PUSH2 0x12A0 JUMP JUMPDEST PUSH1 0x1F ADD PUSH1 0x1F NOT AND ADD ADD SWAP1 JUMP JUMPDEST PUSH1 0x0 DUP2 DUP2 MSTORE PUSH1 0x1 SWAP2 PUSH1 0x20 SWAP2 DUP4 DUP4 MSTORE PUSH1 0x40 SWAP4 DUP5 DUP3 KECCAK256 CALLER DUP4 MSTORE DUP5 MSTORE PUSH1 0xFF DUP6 DUP4 KECCAK256 SLOAD AND ISZERO PUSH2 0x1314 JUMPI POP POP POP POP POP JUMP JUMPDEST PUSH2 0x131D CALLER PUSH2 0x1544 JUMP JUMPDEST SWAP3 DUP6 MLOAD SWAP2 PUSH2 0x132A DUP4 PUSH2 0x1077 JUMP JUMPDEST PUSH1 0x42 DUP4 MSTORE DUP6 DUP4 ADD SWAP4 PUSH1 0x60 CALLDATASIZE DUP7 CALLDATACOPY DUP4 MLOAD ISZERO PUSH2 0x1486 JUMPI PUSH1 0x30 DUP6 MSTORE8 DUP4 MLOAD DUP3 LT ISZERO PUSH2 0x1486 JUMPI SWAP1 PUSH1 0x78 PUSH1 0x21 DUP6 ADD MSTORE8 PUSH1 0x41 SWAP2 JUMPDEST DUP2 DUP4 GT PUSH2 0x1418 JUMPI POP POP POP PUSH2 0x13D6 JUMPI PUSH1 0x48 PUSH2 0xF60 SWAP4 DUP7 SWAP4 PUSH2 0x13BA SWAP4 PUSH2 0x13AB SWAP9 MLOAD SWAP9 DUP10 SWAP4 PUSH23 0x20B1B1B2B9B9A1B7B73A3937B61D1030B1B1B7BAB73A1 PUSH1 0x4D SHL DUP11 DUP7 ADD MSTORE PUSH2 0xF0E DUP2 MLOAD DUP1 SWAP3 DUP13 PUSH1 0x37 DUP10 ADD SWAP2 ADD PUSH2 0x12A0 JUMP JUMPDEST ADD SUB PUSH1 0x28 DUP2 ADD DUP8 MSTORE ADD DUP6 PUSH2 0x10A9 JUMP JUMPDEST MLOAD SWAP3 DUP4 SWAP3 PUSH3 0x461BCD PUSH1 0xE5 SHL DUP5 MSTORE PUSH1 0x4 DUP5 ADD MSTORE PUSH1 0x24 DUP4 ADD SWAP1 PUSH2 0x12C3 JUMP JUMPDEST PUSH1 0x64 DUP5 DUP7 MLOAD SWAP1 PUSH3 0x461BCD PUSH1 0xE5 SHL DUP3 MSTORE DUP1 PUSH1 0x4 DUP4 ADD MSTORE PUSH1 0x24 DUP3 ADD MSTORE PUSH32 0x537472696E67733A20686578206C656E67746820696E73756666696369656E74 PUSH1 0x44 DUP3 ADD MSTORE REVERT JUMPDEST SWAP1 SWAP2 SWAP3 PUSH1 0xF DUP2 AND PUSH1 0x10 DUP2 LT ISZERO PUSH2 0x1472 JUMPI PUSH16 0x181899199A1A9B1B9C1CB0B131B232B3 PUSH1 0x81 SHL SWAP1 BYTE PUSH2 0x1448 DUP6 DUP8 PUSH2 0x1533 JUMP JUMPDEST MSTORE8 PUSH1 0x4 SHR SWAP3 DUP1 ISZERO PUSH2 0x145E JUMPI PUSH1 0x0 NOT ADD SWAP2 SWAP1 PUSH2 0x1357 JUMP JUMPDEST PUSH4 0x4E487B71 PUSH1 0xE0 SHL DUP3 MSTORE PUSH1 0x11 PUSH1 0x4 MSTORE PUSH1 0x24 DUP3 REVERT JUMPDEST PUSH4 0x4E487B71 PUSH1 0xE0 SHL DUP4 MSTORE PUSH1 0x32 PUSH1 0x4 MSTORE PUSH1 0x24 DUP4 REVERT JUMPDEST PUSH4 0x4E487B71 PUSH1 0xE0 SHL DUP2 MSTORE PUSH1 0x32 PUSH1 0x4 MSTORE PUSH1 0x24 SWAP1 REVERT JUMPDEST SWAP1 PUSH1 0x0 SWAP2 DUP1 DUP4 MSTORE PUSH1 0x1 PUSH1 0x20 MSTORE PUSH1 0x40 DUP4 KECCAK256 SWAP2 PUSH1 0x1 DUP1 PUSH1 0xA0 SHL SUB AND SWAP2 DUP3 DUP5 MSTORE PUSH1 0x20 MSTORE PUSH1 0xFF PUSH1 0x40 DUP5 KECCAK256 SLOAD AND PUSH2 0x14CB JUMPI POP POP POP JUMP JUMPDEST DUP1 DUP4 MSTORE PUSH1 0x1 PUSH1 0x20 MSTORE PUSH1 0x40 DUP4 KECCAK256 DUP3 DUP5 MSTORE PUSH1 0x20 MSTORE PUSH1 0x40 DUP4 KECCAK256 PUSH1 0xFF NOT DUP2 SLOAD AND SWAP1 SSTORE PUSH32 0xF6391F5C32D9C69D2A47EA670B442974B53935D1EDC7FD64EB21E047A839171B CALLER SWAP4 DUP1 LOG4 JUMP JUMPDEST SWAP2 SWAP1 DUP3 ADD DUP1 SWAP3 GT PUSH2 0x151D JUMPI JUMP JUMPDEST PUSH4 0x4E487B71 PUSH1 0xE0 SHL PUSH1 0x0 MSTORE PUSH1 0x11 PUSH1 0x4 MSTORE PUSH1 0x24 PUSH1 0x0 REVERT JUMPDEST SWAP1 DUP2 MLOAD DUP2 LT ISZERO PUSH2 0x11AA JUMPI ADD PUSH1 0x20 ADD SWAP1 JUMP JUMPDEST PUSH1 0x40 MLOAD SWAP1 PUSH1 0x60 DUP3 ADD DUP3 DUP2 LT PUSH8 0xFFFFFFFFFFFFFFFF DUP3 GT OR PUSH2 0x1093 JUMPI PUSH1 0x40 MSTORE PUSH1 0x2A DUP3 MSTORE PUSH1 0x20 DUP3 ADD PUSH1 0x40 CALLDATASIZE DUP3 CALLDATACOPY DUP3 MLOAD ISZERO PUSH2 0x11AA JUMPI PUSH1 0x30 SWAP1 MSTORE8 DUP2 MLOAD PUSH1 0x1 SWAP1 DUP2 LT ISZERO PUSH2 0x11AA JUMPI PUSH1 0x78 PUSH1 0x21 DUP5 ADD MSTORE8 PUSH1 0x29 SWAP1 JUMPDEST DUP1 DUP3 GT PUSH2 0x15E5 JUMPI POP POP PUSH2 0x15A1 JUMPI SWAP1 JUMP JUMPDEST PUSH1 0x64 PUSH1 0x40 MLOAD PUSH3 0x461BCD PUSH1 0xE5 SHL DUP2 MSTORE PUSH1 0x20 PUSH1 0x4 DUP3 ADD MSTORE PUSH1 0x20 PUSH1 0x24 DUP3 ADD MSTORE PUSH32 0x537472696E67733A20686578206C656E67746820696E73756666696369656E74 PUSH1 0x44 DUP3 ADD MSTORE REVERT JUMPDEST SWAP1 SWAP2 PUSH1 0xF DUP2 AND PUSH1 0x10 DUP2 LT ISZERO PUSH2 0x163E JUMPI PUSH16 0x181899199A1A9B1B9C1CB0B131B232B3 PUSH1 0x81 SHL SWAP1 BYTE PUSH2 0x1614 DUP5 DUP7 PUSH2 0x1533 JUMP JUMPDEST MSTORE8 PUSH1 0x4 SHR SWAP2 DUP1 ISZERO PUSH2 0x1629 JUMPI PUSH1 0x0 NOT ADD SWAP1 PUSH2 0x1591 JUMP JUMPDEST PUSH1 0x24 PUSH1 0x0 PUSH4 0x4E487B71 PUSH1 0xE0 SHL DUP2 MSTORE PUSH1 0x11 PUSH1 0x4 MSTORE REVERT JUMPDEST PUSH1 0x24 PUSH1 0x0 PUSH4 0x4E487B71 PUSH1 0xE0 SHL DUP2 MSTORE PUSH1 0x32 PUSH1 0x4 MSTORE REVERT JUMPDEST MLOAD SWAP1 PUSH10 0xFFFFFFFFFFFFFFFFFFFF DUP3 AND DUP3 SUB PUSH2 0x1122 JUMPI JUMP JUMPDEST ISZERO PUSH2 0x1671 JUMPI JUMP JUMPDEST PUSH1 0x40 MLOAD PUSH3 0x461BCD PUSH1 0xE5 SHL DUP2 MSTORE PUSH1 0x20 PUSH1 0x4 DUP3 ADD MSTORE PUSH1 0xD PUSH1 0x24 DUP3 ADD MSTORE PUSH13 0x496E76616C6964207072696365 PUSH1 0x98 SHL PUSH1 0x44 DUP3 ADD MSTORE PUSH1 0x64 SWAP1 REVERT JUMPDEST PUSH1 0x40 DUP1 MLOAD DUP3 MLOAD PUSH2 0x16BB DUP2 DUP4 PUSH1 0x20 DUP1 SWAP8 ADD PUSH2 0x12A0 JUMP JUMPDEST PUSH1 0x5 SWAP1 DUP3 ADD SWAP1 DUP2 MSTORE DUP2 SWAP1 SUB DUP4 ADD SWAP1 KECCAK256 SLOAD PUSH1 0x1 PUSH1 0x1 PUSH1 0xA0 SHL SUB AND DUP1 ISZERO PUSH2 0x17F0 JUMPI SWAP1 PUSH1 0xA0 PUSH1 0x4 SWAP4 SWAP3 DUP3 MLOAD SWAP5 DUP6 DUP1 SWAP3 PUSH4 0x3FABE5A3 PUSH1 0xE2 SHL DUP3 MSTORE GAS STATICCALL DUP1 ISZERO PUSH2 0x17E5 JUMPI PUSH1 0x0 SWAP4 DUP5 SWAP2 PUSH2 0x1792 JUMPI JUMPDEST POP PUSH2 0x1710 PUSH1 0x0 DUP6 SGT PUSH2 0x166A JUMP JUMPDEST DUP1 ISZERO PUSH2 0x1760 JUMPI TIMESTAMP SUB TIMESTAMP DUP2 GT PUSH2 0x151D JUMPI PUSH2 0xE10 GT ISZERO PUSH2 0x172D JUMPI POP POP SWAP1 JUMP JUMPDEST PUSH1 0x64 SWAP3 POP MLOAD SWAP1 PUSH3 0x461BCD PUSH1 0xE5 SHL DUP3 MSTORE PUSH1 0x4 DUP3 ADD MSTORE PUSH1 0xD PUSH1 0x24 DUP3 ADD MSTORE PUSH13 0x141C9A58D9481D1BDBC81BDB19 PUSH1 0x9A SHL PUSH1 0x44 DUP3 ADD MSTORE REVERT JUMPDEST DUP2 MLOAD PUSH3 0x461BCD PUSH1 0xE5 SHL DUP2 MSTORE PUSH1 0x4 DUP2 ADD DUP5 SWAP1 MSTORE PUSH1 0xB PUSH1 0x24 DUP3 ADD MSTORE PUSH11 0x5374616C65207072696365 PUSH1 0xA8 SHL PUSH1 0x44 DUP3 ADD MSTORE PUSH1 0x64 SWAP1 REVERT JUMPDEST SWAP4 SWAP1 POP PUSH1 0xA0 DUP5 RETURNDATASIZE DUP3 GT PUSH2 0x17DD JUMPI JUMPDEST DUP2 PUSH2 0x17AD PUSH1 0xA0 SWAP4 DUP4 PUSH2 0x10A9 JUMP JUMPDEST DUP2 ADD SUB SLT PUSH2 0x158 JUMPI POP PUSH2 0x17BF DUP4 PUSH2 0x1653 JUMP JUMPDEST POP DUP2 DUP4 ADD MLOAD PUSH2 0x17D5 PUSH1 0x80 PUSH1 0x60 DUP7 ADD MLOAD SWAP6 ADD PUSH2 0x1653 JUMP JUMPDEST POP SWAP3 CODESIZE PUSH2 0x1703 JUMP JUMPDEST RETURNDATASIZE SWAP2 POP PUSH2 0x17A0 JUMP JUMPDEST POP MLOAD RETURNDATASIZE PUSH1 0x0 DUP3 RETURNDATACOPY RETURNDATASIZE SWAP1 REVERT JUMPDEST DUP2 MLOAD PUSH3 0x461BCD PUSH1 0xE5 SHL DUP2 MSTORE PUSH1 0x4 DUP2 ADD DUP5 SWAP1 MSTORE PUSH1 0x14 PUSH1 0x24 DUP3 ADD MSTORE PUSH20 0x141C9A58D94819995959081B9BDD08199BDD5B99 PUSH1 0x62 SHL PUSH1 0x44 DUP3 ADD MSTORE PUSH1 0x64 SWAP1 REVERT JUMPDEST PUSH2 0x1837 SWAP1 SWAP3 SWAP2 SWAP3 PUSH2 0x16A6 JUMP JUMPDEST SWAP1 PUSH1 0x0 SWAP3 PUSH2 0x1846 DUP5 DUP5 SGT PUSH2 0x166A JUMP JUMPDEST DUP3 DUP2 MUL SWAP3 DUP2 DUP5 DIV EQ SWAP1 ISZERO OR ISZERO PUSH2 0x1898 JUMPI PUSH5 0x2540BE400 SWAP2 DUP3 DUP2 MUL SWAP3 DUP2 DUP5 DIV EQ SWAP1 ISZERO OR ISZERO PUSH2 0x1898 JUMPI PUSH1 0x4D DUP2 GT PUSH2 0x1898 JUMPI PUSH1 0xA EXP SWAP2 DUP3 ISZERO PUSH2 0x1884 JUMPI POP DIV SWAP1 JUMP JUMPDEST PUSH4 0x4E487B71 PUSH1 0xE0 SHL DUP2 MSTORE PUSH1 0x12 PUSH1 0x4 MSTORE PUSH1 0x24 SWAP1 REVERT JUMPDEST PUSH4 0x4E487B71 PUSH1 0xE0 SHL DUP4 MSTORE PUSH1 0x11 PUSH1 0x4 MSTORE PUSH1 0x24 DUP4 REVERT JUMPDEST ISZERO PUSH2 0x18B3 JUMPI JUMP JUMPDEST PUSH1 0x40 MLOAD PUSH3 0x461BCD PUSH1 0xE5 SHL DUP2 MSTORE PUSH1 0x20 PUSH1 0x4 DUP3 ADD MSTORE PUSH1 0x12 PUSH1 0x24 DUP3 ADD MSTORE PUSH18 0x416D6F756E74206D757374206265203E203 PUSH1 0x74 SHL PUSH1 0x44 DUP3 ADD MSTORE PUSH1 0x64 SWAP1 REVERT JUMPDEST PUSH1 0x0 NOT DUP2 EQ PUSH2 0x151D JUMPI PUSH1 0x1 ADD SWAP1 JUMP JUMPDEST PUSH1 0x2 PUSH1 0x0 SLOAD EQ PUSH2 0x190D JUMPI PUSH1 0x2 PUSH1 0x0 SSTORE JUMP JUMPDEST PUSH1 0x40 MLOAD PUSH3 0x461BCD PUSH1 0xE5 SHL DUP2 MSTORE PUSH1 0x20 PUSH1 0x4 DUP3 ADD MSTORE PUSH1 0x1F PUSH1 0x24 DUP3 ADD MSTORE PUSH32 0x5265656E7472616E637947756172643A207265656E7472616E742063616C6C00 PUSH1 0x44 DUP3 ADD MSTORE PUSH1 0x64 SWAP1 REVERT JUMPDEST PUSH1 0x40 MLOAD DUP2 MLOAD SWAP1 PUSH1 0x20 SWAP2 PUSH2 0x1968 DUP2 DUP4 DUP6 DUP8 ADD PUSH2 0x12A0 JUMP JUMPDEST PUSH1 0x5 SWAP1 DUP3 ADD SWAP1 DUP2 MSTORE DUP2 SWAP1 SUB DUP3 ADD SWAP1 KECCAK256 SLOAD PUSH1 0x1 PUSH1 0x1 PUSH1 0xA0 SHL SUB AND ISZERO PUSH2 0x19F1 JUMPI DUP1 PUSH2 0x19AC SWAP3 PUSH1 0x40 MLOAD DUP1 SWAP5 DUP2 SWAP3 PUSH4 0xF66A1B71 PUSH1 0xE0 SHL DUP4 MSTORE DUP5 PUSH1 0x4 DUP5 ADD MSTORE PUSH1 0x24 DUP4 ADD SWAP1 PUSH2 0x12C3 JUMP JUMPDEST SUB DUP2 ADDRESS GAS STATICCALL SWAP2 DUP3 PUSH2 0x19C8 JUMPI JUMPDEST POP POP PUSH2 0x19C3 JUMPI PUSH1 0x0 SWAP1 JUMP JUMPDEST PUSH1 0x1 SWAP1 JUMP JUMPDEST DUP2 RETURNDATASIZE DUP4 GT PUSH2 0x19EA JUMPI JUMPDEST PUSH2 0x19DB DUP2 DUP4 PUSH2 0x10A9 JUMP JUMPDEST DUP2 ADD SUB SLT PUSH2 0x1122 JUMPI CODESIZE DUP1 PUSH2 0x19B8 JUMP JUMPDEST POP RETURNDATASIZE PUSH2 0x19D1 JUMP JUMPDEST POP POP PUSH1 0x0 SWAP1 JUMP INVALID LOG2 PUSH5 0x6970667358 0x22 SLT KECCAK256 JUMP BYTE 0xEB 0xE4 DUP14 GT 0x21 0xE1 0xB7 0xD9 0xAF 0xBE PUSH6 0xF939701E326E PUSH14 0xA17EC7383B639FB79F40F3386473 PUSH16 0x6C634300081300332F8788117E7EFF1D DUP3 0xE9 0x26 0xEC PUSH26 0x4901D17C78024A50270940304540A733656F0DA6EEF7E35ABE70 0x26 PUSH19 0x9641147F7915573C7E97B47EFA546F5F6E3230 0x26 EXTCODESIZE 0xCB 0x49 0xF6 MSTORE 0x22 0x23 SGT 0xE2 DUP5 MSIZE MSTORE DUP14 SWAP3 SIGNEXTEND PUSH6 0x115C16C04F3E 0xFC DUP3 0xAA 0xED 0xC9 PUSH28 0xE59F3F377C0D3F000000000000000000000000000000000000000000 "},"methodIdentifiers":{"DEFAULT_ADMIN_ROLE()":"a217fddf","OPERATOR_ROLE()":"f5b541a6","addPriceFeed(string,address)":"0dc16e1f","calculateWreckageValue(string,uint256,uint256)":"c7f68cf2","getLatestPrice(string)":"f66a1b71","getRoleAdmin(bytes32)":"248a9ca3","getSupportedAssets()":"e5406dbf","getSystemStats()":"d1ce59a7","grantRole(bytes32,address)":"2f2ff15d","hasRole(bytes32,address)":"91d14854","isPriceFeedHealthy(string)":"242601c0","priceFeeds(string)":"cb8ae86c","processWreckage(string,uint256,uint256)":"a06bed3a","processWreckageUSD(string,uint256)":"3314b4c7","renounceRole(bytes32,address)":"36568abe","revokeRole(bytes32,address)":"d547741f","supportedAssets(uint256)":"c68dbb37","supportsInterface(bytes4)":"01ffc9a7","totalFryMinted()":"8ccae4e2","totalTransactions()":"b9a60038","totalWreckageProcessed()":"879b2758","usdFryToken()":"7739329e"}}}}}