{
  "_format": "hh-sol-artifact-1",
  "contractName": "WreckageProcessorWithOracle",
  "sourceName": "contracts/WreckageProcessorWithOracle.sol",
  "abi": [
    {
      "inputs": [
        {
          "internalType": "address",
          "name": "_usdFryToken",
          "type": "address"
        }
      ],
      "stateMutability": "nonpayable",
      "type": "constructor"
    },
    {
      "anonymous": false,
      "inputs": [
        {
          "indexed": false,
          "internalType": "string",
          "name": "asset",
          "type": "string"
        },
        {
          "indexed": false,
          "internalType": "address",
          "name": "priceFeed",
          "type": "address"
        }
      ],
      "name": "PriceFeedUpdated",
      "type": "event"
    },
    {
      "anonymous": false,
      "inputs": [
        {
          "indexed": true,
          "internalType": "bytes32",
          "name": "role",
          "type": "bytes32"
        },
        {
          "indexed": true,
          "internalType": "bytes32",
          "name": "previousAdminRole",
          "type": "bytes32"
        },
        {
          "indexed": true,
          "internalType": "bytes32",
          "name": "newAdminRole",
          "type": "bytes32"
        }
      ],
      "name": "RoleAdminChanged",
      "type": "event"
    },
    {
      "anonymous": false,
      "inputs": [
        {
          "indexed": true,
          "internalType": "bytes32",
          "name": "role",
          "type": "bytes32"
        },
        {
          "indexed": true,
          "internalType": "address",
          "name": "account",
          "type": "address"
        },
        {
          "indexed": true,
          "internalType": "address",
          "name": "sender",
          "type": "address"
        }
      ],
      "name": "RoleGranted",
      "type": "event"
    },
    {
      "anonymous": false,
      "inputs": [
        {
          "indexed": true,
          "internalType": "bytes32",
          "name": "role",
          "type": "bytes32"
        },
        {
          "indexed": true,
          "internalType": "address",
          "name": "account",
          "type": "address"
        },
        {
          "indexed": true,
          "internalType": "address",
          "name": "sender",
          "type": "address"
        }
      ],
      "name": "RoleRevoked",
      "type": "event"
    },
    {
      "anonymous": false,
      "inputs": [
        {
          "indexed": true,
          "internalType": "address",
          "name": "user",
          "type": "address"
        },
        {
          "indexed": false,
          "internalType": "string",
          "name": "asset",
          "type": "string"
        },
        {
          "indexed": false,
          "internalType": "uint256",
          "name": "amount",
          "type": "uint256"
        },
        {
          "indexed": false,
          "internalType": "uint256",
          "name": "usdValue",
          "type": "uint256"
        },
        {
          "indexed": false,
          "internalType": "uint256",
          "name": "fryMinted",
          "type": "uint256"
        },
        {
          "indexed": false,
          "internalType": "int256",
          "name": "verifiedPrice",
          "type": "int256"
        }
      ],
      "name": "WreckageProcessed",
      "type": "event"
    },
    {
      "inputs": [],
      "name": "DEFAULT_ADMIN_ROLE",
      "outputs": [
        {
          "internalType": "bytes32",
          "name": "",
          "type": "bytes32"
        }
      ],
      "stateMutability": "view",
      "type": "function"
    },
    {
      "inputs": [],
      "name": "OPERATOR_ROLE",
      "outputs": [
        {
          "internalType": "bytes32",
          "name": "",
          "type": "bytes32"
        }
      ],
      "stateMutability": "view",
      "type": "function"
    },
    {
      "inputs": [
        {
          "internalType": "string",
          "name": "asset",
          "type": "string"
        },
        {
          "internalType": "address",
          "name": "feedAddress",
          "type": "address"
        }
      ],
      "name": "addPriceFeed",
      "outputs": [],
      "stateMutability": "nonpayable",
      "type": "function"
    },
    {
      "inputs": [
        {
          "internalType": "string",
          "name": "asset",
          "type": "string"
        },
        {
          "internalType": "uint256",
          "name": "amount",
          "type": "uint256"
        },
        {
          "internalType": "uint256",
          "name": "decimals",
          "type": "uint256"
        }
      ],
      "name": "calculateWreckageValue",
      "outputs": [
        {
          "internalType": "uint256",
          "name": "",
          "type": "uint256"
        }
      ],
      "stateMutability": "view",
      "type": "function"
    },
    {
      "inputs": [
        {
          "internalType": "string",
          "name": "asset",
          "type": "string"
        }
      ],
      "name": "getLatestPrice",
      "outputs": [
        {
          "internalType": "int256",
          "name": "",
          "type": "int256"
        }
      ],
      "stateMutability": "view",
      "type": "function"
    },
    {
      "inputs": [
        {
          "internalType": "bytes32",
          "name": "role",
          "type": "bytes32"
        }
      ],
      "name": "getRoleAdmin",
      "outputs": [
        {
          "internalType": "bytes32",
          "name": "",
          "type": "bytes32"
        }
      ],
      "stateMutability": "view",
      "type": "function"
    },
    {
      "inputs": [],
      "name": "getSupportedAssets",
      "outputs": [
        {
          "internalType": "string[]",
          "name": "",
          "type": "string[]"
        }
      ],
      "stateMutability": "view",
      "type": "function"
    },
    {
      "inputs": [],
      "name": "getSystemStats",
      "outputs": [
        {
          "internalType": "uint256",
          "name": "wreckageProcessed",
          "type": "uint256"
        },
        {
          "internalType": "uint256",
          "name": "fryMinted",
          "type": "uint256"
        },
        {
          "internalType": "uint256",
          "name": "transactions",
          "type": "uint256"
        }
      ],
      "stateMutability": "view",
      "type": "function"
    },
    {
      "inputs": [
        {
          "internalType": "bytes32",
          "name": "role",
          "type": "bytes32"
        },
        {
          "internalType": "address",
          "name": "account",
          "type": "address"
        }
      ],
      "name": "grantRole",
      "outputs": [],
      "stateMutability": "nonpayable",
      "type": "function"
    },
    {
      "inputs": [
        {
          "internalType": "bytes32",
          "name": "role",
          "type": "bytes32"
        },
        {
          "internalType": "address",
          "name": "account",
          "type": "address"
        }
      ],
      "name": "hasRole",
      "outputs": [
        {
          "internalType": "bool",
          "name": "",
          "type": "bool"
        }
      ],
      "stateMutability": "view",
      "type": "function"
    },
    {
      "inputs": [
        {
          "internalType": "string",
          "name": "asset",
          "type": "string"
        }
      ],
      "name": "isPriceFeedHealthy",
      "outputs": [
        {
          "internalType": "bool",
          "name": "",
          "type": "bool"
        }
      ],
      "stateMutability": "view",
      "type": "function"
    },
    {
      "inputs": [
        {
          "internalType": "string",
          "name": "",
          "type": "string"
        }
      ],
      "name": "priceFeeds",
      "outputs": [
        {
          "internalType": "address",
          "name": "",
          "type": "address"
        }
      ],
      "stateMutability": "view",
      "type": "function"
    },
    {
      "inputs": [
        {
          "internalType": "string",
          "name": "asset",
          "type": "string"
        },
        {
          "internalType": "uint256",
          "name": "amount",
          "type": "uint256"
        },
        {
          "internalType": "uint256",
          "name": "decimals",
          "type": "uint256"
        }
      ],
      "name": "processWreckage",
      "outputs": [
        {
          "internalType": "uint256",
          "name": "",
          "type": "uint256"
        }
      ],
      "stateMutability": "nonpayable",
      "type": "function"
    },
    {
      "inputs": [
        {
          "internalType": "string",
          "name": "asset",
          "type": "string"
        },
        {
          "internalType": "uint256",
          "name": "usdAmount",
          "type": "uint256"
        }
      ],
      "name": "processWreckageUSD",
      "outputs": [
        {
          "internalType": "uint256",
          "name": "",
          "type": "uint256"
        }
      ],
      "stateMutability": "nonpayable",
      "type": "function"
    },
    {
      "inputs": [
        {
          "internalType": "bytes32",
          "name": "role",
          "type": "bytes32"
        },
        {
          "internalType": "address",
          "name": "account",
          "type": "address"
        }
      ],
      "name": "renounceRole",
      "outputs": [],
      "stateMutability": "nonpayable",
      "type": "function"
    },
    {
      "inputs": [
        {
          "internalType": "bytes32",
          "name": "role",
          "type": "bytes32"
        },
        {
          "internalType": "address",
          "name": "account",
          "type": "address"
        }
      ],
      "name": "revokeRole",
      "outputs": [],
      "stateMutability": "nonpayable",
      "type": "function"
    },
    {
      "inputs": [
        {
          "internalType": "uint256",
          "name": "",
          "type": "uint256"
        }
      ],
      "name": "supportedAssets",
      "outputs": [
        {
          "internalType": "string",
          "name": "",
          "type": "string"
        }
      ],
      "stateMutability": "view",
      "type": "function"
    },
    {
      "inputs": [
        {
          "internalType": "bytes4",
          "name": "interfaceId",
          "type": "bytes4"
        }
      ],
      "name": "supportsInterface",
      "outputs": [
        {
          "internalType": "bool",
          "name": "",
          "type": "bool"
        }
      ],
      "stateMutability": "view",
      "type": "function"
    },
    {
      "inputs": [],
      "name": "totalFryMinted",
      "outputs": [
        {
          "internalType": "uint256",
          "name": "",
          "type": "uint256"
        }
      ],
      "stateMutability": "view",
      "type": "function"
    },
    {
      "inputs": [],
      "name": "totalTransactions",
      "outputs": [
        {
          "internalType": "uint256",
          "name": "",
          "type": "uint256"
        }
      ],
      "stateMutability": "view",
      "type": "function"
    },
    {
      "inputs": [],
      "name": "totalWreckageProcessed",
      "outputs": [
        {
          "internalType": "uint256",
          "name": "",
          "type": "uint256"
        }
      ],
      "stateMutability": "view",
      "type": "function"
    },
    {
      "inputs": [],
      "name": "usdFryToken",
      "outputs": [
        {
          "internalType": "contract IUSDFRYToken",
          "name": "",
          "type": "address"
        }
      ],
      "stateMutability": "view",
      "type": "function"
    }
  ],
  "bytecode": "0x6080346200067f57601f6200218038819003918201601f19168301916001600160401b0383118484101762000455578084926020946040528339810103126200067f57516001600160a01b038116908190036200067f5760016000908155600280546001600160a01b0319169290921790915533815260008051602062002140833981519152602052604090205460ff16156200063c575b3360009081527f31c1e66639f421f1853aeefe8ad6b62a3b96f3287efe23106923cd924aa025c260205260409020547f97667070c54ef182b0f5858b034beac1b6f3089aa2d3188bb1e8929f4fa9b9299060ff1615620005f8575b50620000fd62000684565b600381526242544360e81b60208201526040516200011f8160208401620006a4565b6005600382015260239020546001600160a01b03161562000481575b6040516020818351620001528183858801620006cc565b81016005815203019020907356a43eb56da12c0dc1d972acb089c06a5def8e69918260018060a01b03198254161790556040519160408352620001a6825180938160408701526020606087019101620006cc565b60208301527f74b9819a3b3ab6f1735c195541c4352dec722e0e22f92198d9f1719d2e89a757918291601f01601f1916810181900360600190a1620001ea62000684565b60038152602081016208aa8960eb1b81526040516200020a8183620006a4565b6005600382015260239020546001600160a01b031615620002b1575b6200028f91606091604051602081845162000243818387620006cc565b8101600581520301902073d30e2101a97dcbaebcbc04f14c3f624e67a35165908160018060a01b03198254161790556040519485936040855251809381604087015286860190620006cc565b6020830152601f01601f19168101030190a1604051611a2e9081620006f28239f35b60065468010000000000000000811015620004555760018101806006558110156200046b57600660005282516000805160206200216083398151915291909101906001600160401b03811162000455578154600181811c911680156200044a575b60208210146200043457601f8111620003e7575b506020601f821160011462000374579181606094926200028f969460009162000368575b508160011b916000199060031b1c19161790555b9150915062000226565b9050840151386200034a565b601f198216908360005260206000209160005b818110620003ce5750926200028f969492600192826060989610620003b4575b5050811b0190556200035e565b86015160001960f88460031b161c191690553880620003a7565b9192602060018192868b01518155019401920162000387565b826000526020600020601f830160051c8101916020841062000429575b601f0160051c01905b8181106200041c575062000326565b600081556001016200040d565b909150819062000404565b634e487b7160e01b600052602260045260246000fd5b90607f169062000312565b634e487b7160e01b600052604160045260246000fd5b634e487b7160e01b600052603260045260246000fd5b60065468010000000000000000811015620004555760018101806006558110156200046b57600660005281516000805160206200216083398151915291909101906001600160401b03811162000455578154600181811c91168015620005ed575b60208210146200043457601f8111620005a0575b50806020601f8211600114620005345760009162000528575b508160011b916000199060031b1c19161790556200013b565b9050830151386200050f565b91508260005260206000206000925b601f198316841062000587576001935082601f198116106200056d575b5050811b0190556200013b565b85015160001960f88460031b161c19169055388062000560565b8581015182556020938401936001909201910162000543565b826000526020600020601f830160051c81019160208410620005e2575b601f0160051c01905b818110620005d55750620004f6565b60008155600101620005c6565b9091508190620005bd565b90607f1690620004e2565b8060005260016020526040600020336000526020526040600020600160ff198254161790553390339060008051602062002120833981519152600080a438620000f2565b3360008181526000805160206200214083398151915260205260408120805460ff191660011790558190600080516020620021208339815191528180a462000097565b600080fd5b60408051919082016001600160401b038111838210176200045557604052565b60005b60038110620006bb57505060036000910152565b8181015183820152602001620006a7565b60005b838110620006e05750506000910152565b8181015183820152602001620006cf56fe608060408181526004918236101561001657600080fd5b600090813560e01c90816301ffc9a714611023575080630dc16e1f14610b75578063242601c014610b30578063248a9ca314610b065780632f2ff15d14610a595780633314b4c7146107ef57806336568abe1461075e5780637739329e14610735578063879b2758146107165780638ccae4e2146106f757806391d14854146106b0578063a06bed3a14610430578063a217fddf14610415578063b9a60038146103f6578063c68dbb3714610392578063c7f68cf214610376578063cb8ae86c1461030e578063d1ce59a7146102de578063d547741f1461029c578063e5406dbf1461019a578063f5b541a61461015b5763f66a1b711461011657600080fd5b346101585760203660031901126101585782359067ffffffffffffffff8211610158575061014c602093610151923691016110cb565b6116a6565b9051908152f35b80fd5b509034610196578160031936011261019657602090517f97667070c54ef182b0f5858b034beac1b6f3089aa2d3188bb1e8929f4fa9b9298152f35b5080fd5b5082346101965781600319360112610196576006549067ffffffffffffffff821161028957508251916020926101d5848460051b01826110a9565b8281526006825283810192827ff652222313e28459528d920b65115c16c04f3efc82aaedc97be59f3f377c0d3f855b83831061026557505050508451938085019181865251809252858501958260051b8601019392955b8287106102395785850386f35b909192938280610255600193603f198a820301865288516112c3565b960192019601959291909261022c565b6001888192610277859b98999b6111fa565b81520192019201919096949396610204565b634e487b7160e01b835260419052602482fd5b509190346102da57806003193601126102da576102d791356102d260016102c1611127565b9383875281602052862001546112e8565b61149a565b80f35b8280fd5b50903461019657816003193601126101965760609060075490600854906009549181519384526020840152820152f35b50346101585760203660031901126101585782359067ffffffffffffffff82116101585750602092610342913691016110cb565b82610355835192838151938492016112a0565b6005908201908152819003830190205490516001600160a01b039091168152f35b5090346101965760209061015161038c3661113d565b9161182b565b5034610158576020366003190112610158578235600654811015610196576103b990611173565b9390936103e4576103e0836103cd866111fa565b90519182916020835260208301906112c3565b0390f35b634e487b7160e01b8252819052602490fd5b5090346101965781600319360112610196576020906009549051908152f35b50903461019657816003193601126101965751908152602090f35b509190346102da576104413661113d565b949161044b6118fc565b6104568215156118ac565b83519581519660209761046c81838b87016112a0565b600590820190815281900388019020546001600160a01b0390811615610677576104a0610498846116a6565b92858561182b565b801561063c57670de0b6b3a7640000899104916002541697875198899163458ecfad60e11b8352339083015283602483015260c06044830152600960c483015268436861696e6c696e6b60b81b60e4830152610100606483015281888a61051c610104840160409060038152621554d160ea1b60208201520190565b656f7261636c6560d01b87858303926003198401608488015260068152015261251c60a485015201925af19687156106325785976105df575b50917f411b9b78af95bf59aea270ea30d2c77853017fe9e32cb1ce7a736cc2a0ea6a76918361058a6001979695600754611510565b60075561059989600854611510565b6008556105a76009546118ed565b6009556105be88519360a0855260a08501906112c3565b948a8401528783015287606083015260808201528033930390a25551908152f35b9096508781813d831161062b575b6105f781836110a9565b810103126106275751957f411b9b78af95bf59aea270ea30d2c77853017fe9e32cb1ce7a736cc2a0ea6a76610555565b8480fd5b503d6105ed565b86513d87823e3d90fd5b865162461bcd60e51b81528089018a9052601560248201527405553442076616c7565206d757374206265203e203605c1b6044820152606490fd5b855162461bcd60e51b81528088018990526013602482015272105cdcd95d081b9bdd081cdd5c1c1bdc9d1959606a1b6044820152606490fd5b5091346102da57816003193601126102da578160209360ff926106d1611127565b90358252600186528282206001600160a01b039091168252855220549151911615158152f35b5090346101965781600319360112610196576020906008549051908152f35b5090346101965781600319360112610196576020906007549051908152f35b50903461019657816003193601126101965760025490516001600160a01b039091168152602090f35b508234610196578260031936011261019657610778611127565b90336001600160a01b0383160361079457906102d7913561149a565b608490602085519162461bcd60e51b8352820152602f60248201527f416363657373436f6e74726f6c3a2063616e206f6e6c792072656e6f756e636560448201526e103937b632b9903337b91039b2b63360891b6064820152fd5b5090346101965760031991818336011261015857833567ffffffffffffffff81116101965761082190369086016110cb565b6024359061082d6118fc565b6108388215156118ac565b8284519582519660209761084f81838b88016112a0565b600590820190815281900388019020546001600160a01b039081166109d5575b90879887989260025416908789519a8b94859363458ecfad60e11b855233818601528a602486015260c0604486015260c48501526344656d6f60e01b60e4850152610100606485015265191a5c9958dd60d21b876108e2610104870160409060038152621554d160ea1b60208201520190565b868103938401608488015260068152015261232860a485015201925af19586156109cb578496610997575b5082917f411b9b78af95bf59aea270ea30d2c77853017fe9e32cb1ce7a736cc2a0ea6a769161094160019695600754611510565b60075561095088600854611510565b60085561095e6009546118ed565b60095561097587519260a0845260a08401906112c3565b93858a8401528783015287606083015260808201528033930390a25551908152f35b9095508681813d83116109c4575b6109af81836110a9565b810103126109c0575194600161090d565b8380fd5b503d6109a5565b85513d86823e3d90fd5b865163f66a1b7160e01b81528981018990528881806109f760248201896112c3565b0381305afa879181610a26575b5091899a91899a9493610a1e575b5091925098975061086f565b945038610a12565b9091508981813d8311610a52575b610a3e81836110a9565b81010312610a4e57519088610a04565b8780fd5b503d610a34565b5091346102da57816003193601126102da573590610a75611127565b908284526001602052610a8d600182862001546112e8565b828452600160209081528185206001600160a01b039093168086529290528084205460ff1615610abb578380f35b82845260016020528084208285526020528320600160ff1982541617905533917f2f8788117e7eff1d82e926ec794901d17c78024a50270940304540a733656f0d8480a43880808380f35b5091346102da5760203660031901126102da57816020936001923581528285522001549051908152f35b50346101585760203660031901126101585782359067ffffffffffffffff82116101585750610b67602093610b6c923691016110cb565b611952565b90519015158152f35b50903461019657806003193601126101965767ffffffffffffffff9083358281116109c057610ba790369086016110cb565b91610bb0611127565b94848052600190602092828452848720338852845260ff858820541615610e70576001600160a01b03978816928315610e365785519887519986818c81838d019e8f91610bfc926112a0565b81016005815203019020541615610c86575b505050610c48827f74b9819a3b3ab6f1735c195541c4352dec722e0e22f92198d9f1719d2e89a757969785518093819289519283916112a0565b81016005815203019020816bffffffffffffffffffffffff60a01b825416179055610c7c83519484869586528501906112c3565b918301520390a180f35b60065468010000000000000000811015610e23578082610ca99201600655611173565b939093610e11578751928311610dfe5750610cc483546111c0565b601f8111610db8575b5084601f8311600114610d315792828087948b9c94610c48977f74b9819a3b3ab6f1735c195541c4352dec722e0e22f92198d9f1719d2e89a7579d93610d26575b501b916000199060031b1c19161790555b9796610c0e565b8c0151925038610d0e565b83895285892091929190601f1983168a5b818110610da3575092610c489592889592827f74b9819a3b3ab6f1735c195541c4352dec722e0e22f92198d9f1719d2e89a7579d9e9610610d8a575b5050811b019055610d1f565b8b015160001960f88460031b161c191690553880610d7e565b8a830151845592850192918801918801610d42565b838952858920601f840160051c810191878510610df4575b601f0160051c019082905b828110610de9575050610ccd565b8a8155018290610ddb565b9091508190610dd0565b634e487b7160e01b895260419052602488fd5b634e487b7160e01b8952889052602488fd5b634e487b7160e01b895260418452602489fd5b855162461bcd60e51b81528084018690526014602482015273496e76616c69642066656564206164647265737360601b6044820152606490fd5b5093509093610e7e33611544565b9181845191610e8c83611077565b60428352878301936060368637835115611010576030855383518210156110105790607860218501536041915b818311610fa557505050610f64576048610f37938593610f4693610f60975196879376020b1b1b2b9b9a1b7b73a3937b61d1030b1b1b7bab73a1604d1b8c860152610f0e8c82519283916037890191016112a0565b8401917001034b99036b4b9b9b4b733903937b6329607d1b6037840152518093868401906112a0565b010360288101855201836110a9565b5193849362461bcd60e51b855284015260248301906112c3565b0390fd5b606485878087519262461bcd60e51b845283015260248201527f537472696e67733a20686578206c656e67746820696e73756666696369656e746044820152fd5b909192600f81166010811015610ffd576f181899199a1a9b1b9c1cb0b131b232b360811b901a610fd58587611533565b53881c928015610fea57600019019190610eb9565b634e487b7160e01b825260118952602482fd5b634e487b7160e01b835260328a52602483fd5b634e487b7160e01b815260328852602490fd5b905083346102da5760203660031901126102da573563ffffffff60e01b81168091036102da5760209250637965db0b60e01b8114908115611066575b5015158152f35b6301ffc9a760e01b1490508361105f565b6080810190811067ffffffffffffffff82111761109357604052565b634e487b7160e01b600052604160045260246000fd5b90601f8019910116810190811067ffffffffffffffff82111761109357604052565b81601f820112156111225780359067ffffffffffffffff82116110935760405192611100601f8401601f1916602001856110a9565b8284526020838301011161112257816000926020809301838601378301015290565b600080fd5b602435906001600160a01b038216820361112257565b6060600319820112611122576004359067ffffffffffffffff821161112257611168916004016110cb565b906024359060443590565b6006548110156111aa5760066000527ff652222313e28459528d920b65115c16c04f3efc82aaedc97be59f3f377c0d3f0190600090565b634e487b7160e01b600052603260045260246000fd5b90600182811c921680156111f0575b60208310146111da57565b634e487b7160e01b600052602260045260246000fd5b91607f16916111cf565b906040519182600082549261120e846111c0565b90818452600194858116908160001461127d575060011461123a575b5050611238925003836110a9565b565b9093915060005260209081600020936000915b8183106112655750506112389350820101388061122a565b8554888401850152948501948794509183019161124d565b91505061123894506020925060ff191682840152151560051b820101388061122a565b60005b8381106112b35750506000910152565b81810151838201526020016112a3565b906020916112dc815180928185528580860191016112a0565b601f01601f1916010190565b6000818152600191602091838352604093848220338352845260ff858320541615611314575050505050565b61131d33611544565b9285519161132a83611077565b60428352858301936060368637835115611486576030855383518210156114865790607860218501536041915b818311611418575050506113d6576048610f609386936113ba936113ab985198899376020b1b1b2b9b9a1b7b73a3937b61d1030b1b1b7bab73a1604d1b8a860152610f0e815180928c6037890191016112a0565b010360288101875201856110a9565b5192839262461bcd60e51b8452600484015260248301906112c3565b60648486519062461bcd60e51b825280600483015260248201527f537472696e67733a20686578206c656e67746820696e73756666696369656e746044820152fd5b909192600f81166010811015611472576f181899199a1a9b1b9c1cb0b131b232b360811b901a6114488587611533565b5360041c92801561145e57600019019190611357565b634e487b7160e01b82526011600452602482fd5b634e487b7160e01b83526032600452602483fd5b634e487b7160e01b81526032600452602490fd5b906000918083526001602052604083209160018060a01b03169182845260205260ff6040842054166114cb57505050565b8083526001602052604083208284526020526040832060ff1981541690557ff6391f5c32d9c69d2a47ea670b442974b53935d1edc7fd64eb21e047a839171b339380a4565b9190820180921161151d57565b634e487b7160e01b600052601160045260246000fd5b9081518110156111aa570160200190565b604051906060820182811067ffffffffffffffff82111761109357604052602a82526020820160403682378251156111aa576030905381516001908110156111aa57607860218401536029905b8082116115e55750506115a15790565b606460405162461bcd60e51b815260206004820152602060248201527f537472696e67733a20686578206c656e67746820696e73756666696369656e746044820152fd5b9091600f8116601081101561163e576f181899199a1a9b1b9c1cb0b131b232b360811b901a6116148486611533565b5360041c918015611629576000190190611591565b60246000634e487b7160e01b81526011600452fd5b60246000634e487b7160e01b81526032600452fd5b519069ffffffffffffffffffff8216820361112257565b1561167157565b60405162461bcd60e51b815260206004820152600d60248201526c496e76616c696420707269636560981b6044820152606490fd5b6040805182516116bb818360208097016112a0565b600590820190815281900383019020546001600160a01b031680156117f0579060a060049392825194858092633fabe5a360e21b82525afa80156117e5576000938491611792575b506117106000851361166a565b801561176057420342811161151d57610e10111561172d57505090565b60649250519062461bcd60e51b82526004820152600d60248201526c141c9a58d9481d1bdbc81bdb19609a1b6044820152fd5b815162461bcd60e51b815260048101849052600b60248201526a5374616c6520707269636560a81b6044820152606490fd5b93905060a0843d82116117dd575b816117ad60a093836110a9565b8101031261015857506117bf83611653565b50818301516117d5608060608601519501611653565b509238611703565b3d91506117a0565b50513d6000823e3d90fd5b815162461bcd60e51b8152600481018490526014602482015273141c9a58d94819995959081b9bdd08199bdd5b9960621b6044820152606490fd5b611837909291926116a6565b9060009261184684841361166a565b828102928184041490151715611898576402540be4009182810292818404149015171561189857604d811161189857600a0a91821561188457500490565b634e487b7160e01b81526012600452602490fd5b634e487b7160e01b83526011600452602483fd5b156118b357565b60405162461bcd60e51b81526020600482015260126024820152710416d6f756e74206d757374206265203e20360741b6044820152606490fd5b600019811461151d5760010190565b60026000541461190d576002600055565b60405162461bcd60e51b815260206004820152601f60248201527f5265656e7472616e637947756172643a207265656e7472616e742063616c6c006044820152606490fd5b60405181519060209161196881838587016112a0565b600590820190815281900382019020546001600160a01b0316156119f157806119ac926040518094819263f66a1b7160e01b835284600484015260248301906112c3565b0381305afa91826119c8575b50506119c357600090565b600190565b813d83116119ea575b6119db81836110a9565b810103126111225738806119b8565b503d6119d1565b505060009056fea2646970667358221220561aebe48d1121e1b7d9afbe65f939701e326e6da17ec7383b639fb79f40f33864736f6c634300081300332f8788117e7eff1d82e926ec794901d17c78024a50270940304540a733656f0da6eef7e35abe7026729641147f7915573c7e97b47efa546f5f6e3230263bcb49f652222313e28459528d920b65115c16c04f3efc82aaedc97be59f3f377c0d3f",
  "linkReferences": {},
  "deployedLinkReferences": {}
}