{
  "_format": "hh-sol-artifact-1",
  "contractName": "ConfidentialPositionVerifier",
  "sourceName": "contracts/ConfidentialPositionVerifier.sol",
  "abi": [
    {
      "anonymous": false,
      "inputs": [
        {
          "indexed": true,
          "internalType": "address",
          "name": "client",
          "type": "address"
        },
        {
          "indexed": false,
          "internalType": "uint256",
          "name": "commitment",
          "type": "uint256"
        },
        {
          "indexed": false,
          "internalType": "uint256",
          "name": "maxCollateral",
          "type": "uint256"
        },
        {
          "indexed": false,
          "internalType": "uint256",
          "name": "timestamp",
          "type": "uint256"
        }
      ],
      "name": "CollateralCommitted",
      "type": "event"
    },
    {
      "anonymous": false,
      "inputs": [
        {
          "indexed": true,
          "internalType": "address",
          "name": "client",
          "type": "address"
        },
        {
          "indexed": false,
          "internalType": "uint256",
          "name": "commitment",
          "type": "uint256"
        },
        {
          "indexed": false,
          "internalType": "uint256",
          "name": "maxPosition",
          "type": "uint256"
        },
        {
          "indexed": false,
          "internalType": "uint256",
          "name": "timestamp",
          "type": "uint256"
        }
      ],
      "name": "PositionCommitted",
      "type": "event"
    },
    {
      "anonymous": false,
      "inputs": [
        {
          "indexed": true,
          "internalType": "address",
          "name": "client",
          "type": "address"
        },
        {
          "indexed": false,
          "internalType": "uint256",
          "name": "commitment",
          "type": "uint256"
        },
        {
          "indexed": false,
          "internalType": "uint256",
          "name": "maxValue",
          "type": "uint256"
        },
        {
          "indexed": false,
          "internalType": "bool",
          "name": "verified",
          "type": "bool"
        }
      ],
      "name": "RangeProofVerified",
      "type": "event"
    },
    {
      "inputs": [],
      "name": "G",
      "outputs": [
        {
          "internalType": "uint256",
          "name": "",
          "type": "uint256"
        }
      ],
      "stateMutability": "view",
      "type": "function"
    },
    {
      "inputs": [],
      "name": "H",
      "outputs": [
        {
          "internalType": "uint256",
          "name": "",
          "type": "uint256"
        }
      ],
      "stateMutability": "view",
      "type": "function"
    },
    {
      "inputs": [],
      "name": "P",
      "outputs": [
        {
          "internalType": "uint256",
          "name": "",
          "type": "uint256"
        }
      ],
      "stateMutability": "view",
      "type": "function"
    },
    {
      "inputs": [
        {
          "internalType": "address[]",
          "name": "clients",
          "type": "address[]"
        }
      ],
      "name": "aggregatePositions",
      "outputs": [
        {
          "internalType": "uint256",
          "name": "aggregated",
          "type": "uint256"
        }
      ],
      "stateMutability": "nonpayable",
      "type": "function"
    },
    {
      "inputs": [
        {
          "internalType": "bytes32",
          "name": "",
          "type": "bytes32"
        }
      ],
      "name": "aggregatedCommitments",
      "outputs": [
        {
          "internalType": "uint256",
          "name": "",
          "type": "uint256"
        }
      ],
      "stateMutability": "view",
      "type": "function"
    },
    {
      "inputs": [
        {
          "internalType": "address",
          "name": "",
          "type": "address"
        }
      ],
      "name": "collateralCommitments",
      "outputs": [
        {
          "internalType": "uint256",
          "name": "commitment",
          "type": "uint256"
        },
        {
          "internalType": "uint256",
          "name": "maxValue",
          "type": "uint256"
        },
        {
          "internalType": "uint256",
          "name": "timestamp",
          "type": "uint256"
        },
        {
          "internalType": "bool",
          "name": "verified",
          "type": "bool"
        }
      ],
      "stateMutability": "view",
      "type": "function"
    },
    {
      "inputs": [
        {
          "internalType": "uint256",
          "name": "commitment",
          "type": "uint256"
        },
        {
          "internalType": "uint256",
          "name": "maxCollateral",
          "type": "uint256"
        },
        {
          "internalType": "bytes",
          "name": "rangeProof",
          "type": "bytes"
        }
      ],
      "name": "commitCollateral",
      "outputs": [],
      "stateMutability": "nonpayable",
      "type": "function"
    },
    {
      "inputs": [
        {
          "internalType": "uint256",
          "name": "commitment",
          "type": "uint256"
        },
        {
          "internalType": "uint256",
          "name": "maxPosition",
          "type": "uint256"
        },
        {
          "internalType": "bytes",
          "name": "rangeProof",
          "type": "bytes"
        }
      ],
      "name": "commitPosition",
      "outputs": [],
      "stateMutability": "nonpayable",
      "type": "function"
    },
    {
      "inputs": [
        {
          "internalType": "address",
          "name": "client",
          "type": "address"
        }
      ],
      "name": "getCollateralCommitment",
      "outputs": [
        {
          "internalType": "uint256",
          "name": "commitment",
          "type": "uint256"
        },
        {
          "internalType": "uint256",
          "name": "maxValue",
          "type": "uint256"
        },
        {
          "internalType": "uint256",
          "name": "timestamp",
          "type": "uint256"
        },
        {
          "internalType": "bool",
          "name": "verified",
          "type": "bool"
        }
      ],
      "stateMutability": "view",
      "type": "function"
    },
    {
      "inputs": [
        {
          "internalType": "address",
          "name": "client",
          "type": "address"
        }
      ],
      "name": "getPositionCommitment",
      "outputs": [
        {
          "internalType": "uint256",
          "name": "commitment",
          "type": "uint256"
        },
        {
          "internalType": "uint256",
          "name": "maxValue",
          "type": "uint256"
        },
        {
          "internalType": "uint256",
          "name": "timestamp",
          "type": "uint256"
        },
        {
          "internalType": "bool",
          "name": "verified",
          "type": "bool"
        }
      ],
      "stateMutability": "view",
      "type": "function"
    },
    {
      "inputs": [
        {
          "internalType": "address",
          "name": "client",
          "type": "address"
        }
      ],
      "name": "hasValidCollateral",
      "outputs": [
        {
          "internalType": "bool",
          "name": "valid",
          "type": "bool"
        }
      ],
      "stateMutability": "view",
      "type": "function"
    },
    {
      "inputs": [
        {
          "internalType": "address",
          "name": "client",
          "type": "address"
        }
      ],
      "name": "hasValidPosition",
      "outputs": [
        {
          "internalType": "bool",
          "name": "valid",
          "type": "bool"
        }
      ],
      "stateMutability": "view",
      "type": "function"
    },
    {
      "inputs": [
        {
          "internalType": "address",
          "name": "",
          "type": "address"
        }
      ],
      "name": "positionCommitments",
      "outputs": [
        {
          "internalType": "uint256",
          "name": "commitment",
          "type": "uint256"
        },
        {
          "internalType": "uint256",
          "name": "maxValue",
          "type": "uint256"
        },
        {
          "internalType": "uint256",
          "name": "timestamp",
          "type": "uint256"
        },
        {
          "internalType": "bool",
          "name": "verified",
          "type": "bool"
        }
      ],
      "stateMutability": "view",
      "type": "function"
    }
  ],
  "bytecode": "0x60808060405234610016576109ea908161001c8239f35b600080fdfe6040608081526004908136101561001557600080fd5b600091823560e01c90816308e56e26146107395781631e00a3e2146106f8578163304d059f146106d05781634fad28761461064057816353f7def514610602578163642d1065146105845781636fecb6231461054957816370a5d8611461050f5781638b8fbd92146104e2578163968ec22314610473578163bbcab44f14610264578163c9c548421461011d575063db0c75bb146100b257600080fd5b34610119576020366003190112610119579081906001600160a01b036100d6610897565b1681526020818152919020805460018201546002830154600390930154945191825292810192909252604082015260ff90911615156060820152608090f35b0390f35b5080fd5b919050346102605761012e36610840565b919294905061013e8515156108ad565b821561022657509061015a6101556001949361096c565b6108ee565b81516101658161093a565b848152600360208201918383528481014281526060820193878552338a5287602052868a20925183555187830155516002820155019051151560ff8019835416911617905581517f5269983a1bce85b553f27d9f91373b4ddc3b44b37312e51f345c31e9f2f70fb73391806101ed42868a846040919493926060820195825260208201520152565b0390a2815193845260208401528201527f21b5018a6c9c5ba781ceb3a1d933a77a542208345c22e8135c32a74140eb012460603392a280f35b606490602085519162461bcd60e51b8352820152601460248201527324b73b30b634b21036b0bc103837b9b4ba34b7b760611b6044820152fd5b8280fd5b9050823461047057602091826003193601126101195780359367ffffffffffffffff928386116104705736602387011215610470578583013584811161011957602496600594368984881b8401011161046c5782156104345760019584905b84821061035a57505084518092898201948b86920190875b81811061032a5750504282525003808352603f01601f19168201968711828810176103185750858596979850845251902081526002865220558152f35b634e487b7160e01b8452604190528783fd5b9193509183356001600160a01b038116908190036103565781528593908c0192908c01916001016102db565b8880fd5b909687821b84018b01356001600160a01b0381169081900361043057865260018a528686209060ff60038951936103908561093a565b8054855260018101548e86015260028101548b86015201541615801560608401526103f65790518b9170014551231950b75fc4402da1732fc9bebe199190099760001981146103e4576001019190506102c3565b50634e487b7160e01b86526011835285fd5b875162461bcd60e51b81528085018c90526015818e015274155b9d995c9a599a59590818dbdb5b5a5d1b595b9d605a1b6044820152606490fd5b8680fd5b845162461bcd60e51b81529081018890526013818a015272139bc818db1a595b9d1cc81c1c9bdd9a591959606a1b6044820152606490fd5b8380fd5b80fd5b505034610119576020366003190112610119579081906001600160a01b03610499610897565b1681526001602052209061011582549160018401549360ff6003600283015492015416915194859485926060929594919560808501968552602085015260408401521515910152565b5050346101195781600319360112610119575170014551231950b75fc4402da1732fc9bebe198152602090f35b505034610119578160031936011261011957602090517e3a672e1fcdf904b3d5e8f053832869521d993a85418f810f359b77c5d628c58152f35b505034610119578160031936011261011957602090517fcaa309bf29ffb85d87c2d14159ea7cb3c64d4ddea4b7a681fd33c256c742ab448152f35b505034610119576020366003190112610119576020916060919081906001600160a01b036105b0610897565b168152600185522081516105c38161093a565b60ff600383549384845260018101548885015260028101548685015201541615159384910152826105f8575b50519015158152f35b15159150386105ef565b505034610119576020366003190112610119576020916060919081906001600160a01b0361062e610897565b1681528085522081516105c38161093a565b505034610119576020366003190112610119579081906001600160a01b03610666610897565b16815280602052209061011560608251936106808561093a565b80549384865260018201549586602082015260ff60036002850154948585850152015416151593849101525194859485926060929594919560808501968552602085015260408401521515910152565b9050346102605760203660031901126102605760209282913581526002845220549051908152f35b505034610119576020366003190112610119579081906001600160a01b0361071e610897565b1681526001602052209061011560608251936106808561093a565b919050346102605761074a36610840565b919294905061075a8515156108ad565b82156108045750906107716101556001949361096c565b815161077c8161093a565b848152600360208201918383528481014281526060820193878552338a5289602052868a20925183555187830155516002820155019051151560ff8019835416911617905581517fbe783f8f3e4682f27ca539505686e887f818d33ba8337684712c5f23a447b8683391806101ed42868a846040919493926060820195825260208201520152565b606490602085519162461bcd60e51b83528201526016602482015275125b9d985b1a59081b585e0818dbdb1b185d195c985b60521b6044820152fd5b90606060031983011261089257600435916024359160443567ffffffffffffffff9283821161089257806023830112156108925781600401359384116108925760248483010111610892576024019190565b600080fd5b600435906001600160a01b038216820361089257565b156108b457565b60405162461bcd60e51b8152602060048201526012602482015271125b9d985b1a590818dbdb5b5a5d1b595b9d60721b6044820152606490fd5b156108f557565b60405162461bcd60e51b815260206004820152601f60248201527f52616e67652070726f6f6620766572696669636174696f6e206661696c6564006044820152606490fd5b6080810190811067ffffffffffffffff82111761095657604052565b634e487b7160e01b600052604160045260246000fd5b60201161097857600190565b60405162461bcd60e51b8152602060048201526014602482015273092dcecc2d8d2c840e0e4dedecc40d8cadccee8d60631b6044820152606490fdfea2646970667358221220c2491040832d1172407a74aa35b5e4d6b57bbad28bf75b43c03c42fc04945ca464736f6c63430008130033",
  "linkReferences": {},
  "deployedLinkReferences": {}
}