{
  "_format": "hh-sol-artifact-1",
  "contractName": "WreckageMatchingPool",
  "sourceName": "contracts/WreckageMatchingPool.sol",
  "abi": [
    {
      "inputs": [
        {
          "internalType": "address",
          "name": "_usdFryToken",
          "type": "address"
        }
      ],
      "stateMutability": "nonpayable",
      "type": "constructor"
    },
    {
      "anonymous": false,
      "inputs": [
        {
          "indexed": true,
          "internalType": "bytes32",
          "name": "positionId",
          "type": "bytes32"
        },
        {
          "indexed": true,
          "internalType": "address",
          "name": "trader",
          "type": "address"
        },
        {
          "indexed": false,
          "internalType": "enum WreckageMatchingPool.PositionType",
          "name": "positionType",
          "type": "uint8"
        },
        {
          "indexed": false,
          "internalType": "string",
          "name": "dex",
          "type": "string"
        },
        {
          "indexed": false,
          "internalType": "string",
          "name": "asset",
          "type": "string"
        },
        {
          "indexed": false,
          "internalType": "uint256",
          "name": "amountUSD",
          "type": "uint256"
        }
      ],
      "name": "PositionSubmitted",
      "type": "event"
    },
    {
      "anonymous": false,
      "inputs": [
        {
          "indexed": true,
          "internalType": "bytes32",
          "name": "matchId",
          "type": "bytes32"
        },
        {
          "indexed": false,
          "internalType": "bytes32",
          "name": "position1Id",
          "type": "bytes32"
        },
        {
          "indexed": false,
          "internalType": "bytes32",
          "name": "position2Id",
          "type": "bytes32"
        },
        {
          "indexed": false,
          "internalType": "uint256",
          "name": "matchedAmount",
          "type": "uint256"
        },
        {
          "indexed": false,
          "internalType": "uint256",
          "name": "fryMinted1",
          "type": "uint256"
        },
        {
          "indexed": false,
          "internalType": "uint256",
          "name": "fryMinted2",
          "type": "uint256"
        }
      ],
      "name": "PositionsMatched",
      "type": "event"
    },
    {
      "anonymous": false,
      "inputs": [
        {
          "indexed": true,
          "internalType": "bytes32",
          "name": "role",
          "type": "bytes32"
        },
        {
          "indexed": true,
          "internalType": "bytes32",
          "name": "previousAdminRole",
          "type": "bytes32"
        },
        {
          "indexed": true,
          "internalType": "bytes32",
          "name": "newAdminRole",
          "type": "bytes32"
        }
      ],
      "name": "RoleAdminChanged",
      "type": "event"
    },
    {
      "anonymous": false,
      "inputs": [
        {
          "indexed": true,
          "internalType": "bytes32",
          "name": "role",
          "type": "bytes32"
        },
        {
          "indexed": true,
          "internalType": "address",
          "name": "account",
          "type": "address"
        },
        {
          "indexed": true,
          "internalType": "address",
          "name": "sender",
          "type": "address"
        }
      ],
      "name": "RoleGranted",
      "type": "event"
    },
    {
      "anonymous": false,
      "inputs": [
        {
          "indexed": true,
          "internalType": "bytes32",
          "name": "role",
          "type": "bytes32"
        },
        {
          "indexed": true,
          "internalType": "address",
          "name": "account",
          "type": "address"
        },
        {
          "indexed": true,
          "internalType": "address",
          "name": "sender",
          "type": "address"
        }
      ],
      "name": "RoleRevoked",
      "type": "event"
    },
    {
      "inputs": [],
      "name": "DEFAULT_ADMIN_ROLE",
      "outputs": [
        {
          "internalType": "bytes32",
          "name": "",
          "type": "bytes32"
        }
      ],
      "stateMutability": "view",
      "type": "function"
    },
    {
      "inputs": [],
      "name": "MATCHER_ROLE",
      "outputs": [
        {
          "internalType": "bytes32",
          "name": "",
          "type": "bytes32"
        }
      ],
      "stateMutability": "view",
      "type": "function"
    },
    {
      "inputs": [
        {
          "internalType": "uint256",
          "name": "",
          "type": "uint256"
        }
      ],
      "name": "allMatchIds",
      "outputs": [
        {
          "internalType": "bytes32",
          "name": "",
          "type": "bytes32"
        }
      ],
      "stateMutability": "view",
      "type": "function"
    },
    {
      "inputs": [
        {
          "internalType": "bytes32",
          "name": "matchId",
          "type": "bytes32"
        }
      ],
      "name": "getMatch",
      "outputs": [
        {
          "components": [
            {
              "internalType": "bytes32",
              "name": "position1Id",
              "type": "bytes32"
            },
            {
              "internalType": "bytes32",
              "name": "position2Id",
              "type": "bytes32"
            },
            {
              "internalType": "uint256",
              "name": "matchedAmount",
              "type": "uint256"
            },
            {
              "internalType": "uint256",
              "name": "fryMinted1",
              "type": "uint256"
            },
            {
              "internalType": "uint256",
              "name": "fryMinted2",
              "type": "uint256"
            },
            {
              "internalType": "uint256",
              "name": "timestamp",
              "type": "uint256"
            }
          ],
          "internalType": "struct WreckageMatchingPool.Match",
          "name": "",
          "type": "tuple"
        }
      ],
      "stateMutability": "view",
      "type": "function"
    },
    {
      "inputs": [
        {
          "internalType": "bytes32",
          "name": "positionId",
          "type": "bytes32"
        }
      ],
      "name": "getPosition",
      "outputs": [
        {
          "components": [
            {
              "internalType": "address",
              "name": "trader",
              "type": "address"
            },
            {
              "internalType": "enum WreckageMatchingPool.PositionType",
              "name": "positionType",
              "type": "uint8"
            },
            {
              "internalType": "string",
              "name": "dex",
              "type": "string"
            },
            {
              "internalType": "string",
              "name": "asset",
              "type": "string"
            },
            {
              "internalType": "uint256",
              "name": "amountUSD",
              "type": "uint256"
            },
            {
              "internalType": "uint256",
              "name": "fundingRate",
              "type": "uint256"
            },
            {
              "internalType": "uint256",
              "name": "timestamp",
              "type": "uint256"
            },
            {
              "internalType": "bool",
              "name": "isMatched",
              "type": "bool"
            },
            {
              "internalType": "bytes32",
              "name": "matchId",
              "type": "bytes32"
            }
          ],
          "internalType": "struct WreckageMatchingPool.WreckagePosition",
          "name": "",
          "type": "tuple"
        }
      ],
      "stateMutability": "view",
      "type": "function"
    },
    {
      "inputs": [
        {
          "internalType": "bytes32",
          "name": "role",
          "type": "bytes32"
        }
      ],
      "name": "getRoleAdmin",
      "outputs": [
        {
          "internalType": "bytes32",
          "name": "",
          "type": "bytes32"
        }
      ],
      "stateMutability": "view",
      "type": "function"
    },
    {
      "inputs": [],
      "name": "getSystemStats",
      "outputs": [
        {
          "internalType": "uint256",
          "name": "positionsSubmitted",
          "type": "uint256"
        },
        {
          "internalType": "uint256",
          "name": "positionsMatched",
          "type": "uint256"
        },
        {
          "internalType": "uint256",
          "name": "matchedVolume",
          "type": "uint256"
        },
        {
          "internalType": "uint256",
          "name": "fryMinted",
          "type": "uint256"
        },
        {
          "internalType": "uint256",
          "name": "matchRate",
          "type": "uint256"
        }
      ],
      "stateMutability": "view",
      "type": "function"
    },
    {
      "inputs": [],
      "name": "getUnmatchedCount",
      "outputs": [
        {
          "internalType": "uint256",
          "name": "",
          "type": "uint256"
        }
      ],
      "stateMutability": "view",
      "type": "function"
    },
    {
      "inputs": [
        {
          "internalType": "bytes32",
          "name": "role",
          "type": "bytes32"
        },
        {
          "internalType": "address",
          "name": "account",
          "type": "address"
        }
      ],
      "name": "grantRole",
      "outputs": [],
      "stateMutability": "nonpayable",
      "type": "function"
    },
    {
      "inputs": [
        {
          "internalType": "bytes32",
          "name": "role",
          "type": "bytes32"
        },
        {
          "internalType": "address",
          "name": "account",
          "type": "address"
        }
      ],
      "name": "hasRole",
      "outputs": [
        {
          "internalType": "bool",
          "name": "",
          "type": "bool"
        }
      ],
      "stateMutability": "view",
      "type": "function"
    },
    {
      "inputs": [
        {
          "internalType": "bytes32",
          "name": "pos1Id",
          "type": "bytes32"
        },
        {
          "internalType": "bytes32",
          "name": "pos2Id",
          "type": "bytes32"
        }
      ],
      "name": "manualMatch",
      "outputs": [],
      "stateMutability": "nonpayable",
      "type": "function"
    },
    {
      "inputs": [
        {
          "internalType": "bytes32",
          "name": "",
          "type": "bytes32"
        }
      ],
      "name": "matches",
      "outputs": [
        {
          "internalType": "bytes32",
          "name": "position1Id",
          "type": "bytes32"
        },
        {
          "internalType": "bytes32",
          "name": "position2Id",
          "type": "bytes32"
        },
        {
          "internalType": "uint256",
          "name": "matchedAmount",
          "type": "uint256"
        },
        {
          "internalType": "uint256",
          "name": "fryMinted1",
          "type": "uint256"
        },
        {
          "internalType": "uint256",
          "name": "fryMinted2",
          "type": "uint256"
        },
        {
          "internalType": "uint256",
          "name": "timestamp",
          "type": "uint256"
        }
      ],
      "stateMutability": "view",
      "type": "function"
    },
    {
      "inputs": [
        {
          "internalType": "bytes32",
          "name": "",
          "type": "bytes32"
        }
      ],
      "name": "positions",
      "outputs": [
        {
          "internalType": "address",
          "name": "trader",
          "type": "address"
        },
        {
          "internalType": "enum WreckageMatchingPool.PositionType",
          "name": "positionType",
          "type": "uint8"
        },
        {
          "internalType": "string",
          "name": "dex",
          "type": "string"
        },
        {
          "internalType": "string",
          "name": "asset",
          "type": "string"
        },
        {
          "internalType": "uint256",
          "name": "amountUSD",
          "type": "uint256"
        },
        {
          "internalType": "uint256",
          "name": "fundingRate",
          "type": "uint256"
        },
        {
          "internalType": "uint256",
          "name": "timestamp",
          "type": "uint256"
        },
        {
          "internalType": "bool",
          "name": "isMatched",
          "type": "bool"
        },
        {
          "internalType": "bytes32",
          "name": "matchId",
          "type": "bytes32"
        }
      ],
      "stateMutability": "view",
      "type": "function"
    },
    {
      "inputs": [
        {
          "internalType": "bytes32",
          "name": "role",
          "type": "bytes32"
        },
        {
          "internalType": "address",
          "name": "account",
          "type": "address"
        }
      ],
      "name": "renounceRole",
      "outputs": [],
      "stateMutability": "nonpayable",
      "type": "function"
    },
    {
      "inputs": [
        {
          "internalType": "bytes32",
          "name": "role",
          "type": "bytes32"
        },
        {
          "internalType": "address",
          "name": "account",
          "type": "address"
        }
      ],
      "name": "revokeRole",
      "outputs": [],
      "stateMutability": "nonpayable",
      "type": "function"
    },
    {
      "inputs": [
        {
          "internalType": "enum WreckageMatchingPool.PositionType",
          "name": "positionType",
          "type": "uint8"
        },
        {
          "internalType": "string",
          "name": "dex",
          "type": "string"
        },
        {
          "internalType": "string",
          "name": "asset",
          "type": "string"
        },
        {
          "internalType": "uint256",
          "name": "amountUSD",
          "type": "uint256"
        },
        {
          "internalType": "uint256",
          "name": "fundingRate",
          "type": "uint256"
        }
      ],
      "name": "submitPosition",
      "outputs": [
        {
          "internalType": "bytes32",
          "name": "",
          "type": "bytes32"
        }
      ],
      "stateMutability": "nonpayable",
      "type": "function"
    },
    {
      "inputs": [
        {
          "internalType": "bytes4",
          "name": "interfaceId",
          "type": "bytes4"
        }
      ],
      "name": "supportsInterface",
      "outputs": [
        {
          "internalType": "bool",
          "name": "",
          "type": "bool"
        }
      ],
      "stateMutability": "view",
      "type": "function"
    },
    {
      "inputs": [],
      "name": "totalFryFromMatching",
      "outputs": [
        {
          "internalType": "uint256",
          "name": "",
          "type": "uint256"
        }
      ],
      "stateMutability": "view",
      "type": "function"
    },
    {
      "inputs": [],
      "name": "totalMatchedVolume",
      "outputs": [
        {
          "internalType": "uint256",
          "name": "",
          "type": "uint256"
        }
      ],
      "stateMutability": "view",
      "type": "function"
    },
    {
      "inputs": [],
      "name": "totalPositionsMatched",
      "outputs": [
        {
          "internalType": "uint256",
          "name": "",
          "type": "uint256"
        }
      ],
      "stateMutability": "view",
      "type": "function"
    },
    {
      "inputs": [],
      "name": "totalPositionsSubmitted",
      "outputs": [
        {
          "internalType": "uint256",
          "name": "",
          "type": "uint256"
        }
      ],
      "stateMutability": "view",
      "type": "function"
    },
    {
      "inputs": [
        {
          "internalType": "uint256",
          "name": "",
          "type": "uint256"
        }
      ],
      "name": "unmatchedPositions",
      "outputs": [
        {
          "internalType": "bytes32",
          "name": "",
          "type": "bytes32"
        }
      ],
      "stateMutability": "view",
      "type": "function"
    },
    {
      "inputs": [],
      "name": "usdFryToken",
      "outputs": [
        {
          "internalType": "contract IUSDFRYToken",
          "name": "",
          "type": "address"
        }
      ],
      "stateMutability": "view",
      "type": "function"
    }
  ],
  "bytecode": "0x6080346200015157601f62001eec38819003918201601f1916830192916001600160401b038411838510176200015657808392604095865283396020928391810103126200015157516001600160a01b03811690819003620001515760016000818155600280546001600160a01b03191690931790925581805280835283822033835283528382205460ff16156200011a575b7fdf91394c13c48ebd5370100f1eb84afe3c6c47a78f9f9f874d5a9ec6afe0ae6b92838352818152848320338452815260ff858420541615620000df575b8451611d5f90816200016d8239f35b83835281815284832090338452528382209060ff19825416179055339160008051602062001ecc833981519152339280a438808080620000d0565b81805280835283822033835283528382208160ff1982541617905533338360008051602062001ecc8339815191528180a462000092565b600080fd5b634e487b7160e01b600052604160045260246000fdfe608080604052600436101561001357600080fd5b60003560e01c90816301ffc9a7146111ee575080631928b3cb14611059578063248a9ca31461102a5780632f2ff15d14610f8557806332117e7114610f6757806334dc19ac14610f3057806336568abe14610eac5780634df36a8914610e8e578063514ea4bf14610daa57806354f276b914610d595780636e1861da14610d3b57806374f75f90146107be5780637739329e1461079557806391d148541461075557806393ebe538146106de5780639fe9ada31461067b578063a217fddf1461065f578063b2194ff514610624578063d1ce59a71461058a578063d547741f14610557578063dfed0e9b14610204578063ee75c027146101e65763fcc6077d1461011c57600080fd5b346101e15760203660031901126101e157600060a060405161013d816113f6565b8281528260208201528260408201528260608201528260808201520152600435600052600460205260c06040600020604051610178816113f6565b8154918282526001810154602083019081526002820154604084019081526003830154916060850192835260a0600560048601549560808801968752015495019485526040519586525160208601525160408501525160608401525160808301525160a0820152f35b600080fd5b346101e15760003660031901126101e1576020600754604051908152f35b346101e15760403660031901126101e1573360009081527f95527b18c05e5568e722a7f58f23333dd43bcc7f1396211f566c2dc691ae58696020908152604090912054602491600191833591600435917fdf91394c13c48ebd5370100f1eb84afe3c6c47a78f9f9f874d5a9ec6afe0ae6b9060ff16156103a05750610287611817565b816000526003815260406000208360005260406000209060ff60068201541661035c5760ff60068301541661031857906102c091611905565b156102d55750906102d091611a2b565b600055005b606490601b866040519262461bcd60e51b845260048401528201527f506f736974696f6e732063616e6e6f74206265206d61746368656400000000006044820152fd5b60405162461bcd60e51b815260048101849052601a818901527f506f736974696f6e203220616c7265616479206d6174636865640000000000006044820152606490fd5b60405162461bcd60e51b815260048101849052601a818901527f506f736974696f6e203120616c7265616479206d6174636865640000000000006044820152606490fd5b859250846103ad336116ed565b91604051906103bb82611412565b604282528482019260603685378251156105425760308453825181101561054257607860218401536041905b8082116104d457505061049257604861048e93610463936104729360405195869376020b1b1b2b9b9a1b7b73a3937b61d1030b1b1b7bab73a1604d1b8a86015261043a815180928c60378901910161124e565b8401917001034b99036b4b9b9b4b733903937b6329607d1b60378401525180938684019061124e565b0103602881018452018261142e565b60405193849362461bcd60e51b85526004850152830190611271565b0390fd5b606485856040519162461bcd60e51b83528160048401528201527f537472696e67733a20686578206c656e67746820696e73756666696369656e746044820152fd5b9091600f8116601081101561052d576f181899199a1a9b1b9c1cb0b131b232b360811b901a61050384866116dc565b5360041c9180156105185760001901906103e7565b87634e487b7160e01b60005260116004526000fd5b88634e487b7160e01b60005260326004526000fd5b86634e487b7160e01b60005260326004526000fd5b346101e15761058861056836611296565b908060005260016020526105836001604060002001546114a7565b611659565b005b346101e15760003660031901126101e157600754600854600954600a548315939291846106185761271094858402958487041484151715610602576105ec578360a09504925b6040519485526020850152604084015260608301526080820152f35b634e487b7160e01b600052601260045260246000fd5b634e487b7160e01b600052601160045260246000fd5b60a094506000926105d0565b346101e15760003660031901126101e15760206040517fdf91394c13c48ebd5370100f1eb84afe3c6c47a78f9f9f874d5a9ec6afe0ae6b8152f35b346101e15760003660031901126101e157602060405160008152f35b346101e15760203660031901126101e157600435600052600460205260c0604060002080549060018101549060028101546003820154906005600484015493015493604051958652602086015260408501526060840152608083015260a0820152f35b346101e15760003660031901126101e157600080600554905b81811061070957602083604051908152f35b610712816112bc565b9054600391821b1c60005260205260ff6006604060002001541615610740575b61073b90611808565b6106f7565b9161074d61073b91611808565b929050610732565b346101e15761076336611296565b90600052600160205260406000209060018060a01b0316600052602052602060ff604060002054166040519015158152f35b346101e15760003660031901126101e1576002546040516001600160a01b039091168152602090f35b346101e15760a03660031901126101e157600260043510156101e15760243567ffffffffffffffff81116101e1576107fa903690600401611450565b60443567ffffffffffffffff81116101e15761081a903690600401611450565b90610823611817565b60643515610d015760843515610cbc576007546040516108a160958260208101943360601b865260043560f81b60348301528651610868816035850160208b0161124e565b820188519061087e826035830160208d0161124e565b01906064356035830152426055830152607582015203607581018452018261142e565b519020906040516108b1816113d9565b3381526108c3600435602083016117fc565b816040820152836060820152606435608082015260843560a08201524260c0820152600060e0820152600061010082015282600052600360205260406000209060018060a01b0381511682549060208301516002811015610ca6576001600160a81b03199092161760a09190911b60ff60a01b16178255604081015180519067ffffffffffffffff8211610af85781906109606001860154611309565b601f8111610c53575b50602090601f8311600114610be157600092610bd6575b50508160011b916000199060031b1c19161760018301555b606081015180519067ffffffffffffffff8211610af8576109bc6002850154611309565b601f8111610b8f575b50602090601f8311600114610b195791806007949261010094600092610b0e575b50508160011b916000199060031b1c19161760028501555b6080810151600385015560a0810151600485015560c081015160058501556006840160e0820151151560ff801983541691161790550151910155600554600160401b811015610af8577f4ce89071aec57672c4088cc029fd720d4f1dd0256ad8d036d6527134335d2d0d610ad3602095610a7f8460018896016005556112bc565b81549060031b9086821b91600019901b1916179055610a9f600754611808565b600755610ac560405195610ab587600435611241565b6080898801526080870190611271565b908582036040870152611271565b9260643560608201528033940390a3610aeb8161186d565b6001600055604051908152f35b634e487b7160e01b600052604160045260246000fd5b0151905089806109e6565b906002850160005260206000209160005b601f1985168110610b77575092600794926001926101009583601f19811610610b5e575b505050811b0160028501556109fe565b015160001960f88460031b161c19169055898080610b4e565b91926020600181928685015181550194019201610b2a565b600285016000526020600020601f840160051c810160208510610bcf575b601f830160051c82018110610bc35750506109c5565b60008155600101610bad565b5080610bad565b015190508780610980565b9250600185016000526020600020906000935b601f1984168510610c38576001945083601f19811610610c1f575b505050811b016001830155610998565b015160001960f88460031b161c19169055878080610c0f565b81810151835560209485019460019093019290910190610bf4565b909150600185016000526020600020601f840160051c810160208510610c9f575b90849392915b601f830160051c82018110610c90575050610969565b60008155859450600101610c7a565b5080610c74565b634e487b7160e01b600052602160045260246000fd5b60405162461bcd60e51b815260206004820152601860248201527f46756e64696e672072617465206d757374206265203e203000000000000000006044820152606490fd5b60405162461bcd60e51b81526020600482015260126024820152710416d6f756e74206d757374206265203e20360741b6044820152606490fd5b346101e15760003660031901126101e1576020600854604051908152f35b346101e15760203660031901126101e1576004356006548110156101e15760209060066000527ff652222313e28459528d920b65115c16c04f3efc82aaedc97be59f3f377c0d3f0154604051908152f35b346101e15760203660031901126101e1576004356000526003602052610e4e6040600020805490604051610dec81610de58160018601611343565b038261142e565b60405191610e0883610e018160028501611343565b038461142e565b6003810154926004820154610e6d600584015492610e5f600760ff600688015416960154966040519a8b9a60018060a01b0381168c5260ff60208d019160a01c16611241565b6101208060408c01528a0190611271565b9088820360608a0152611271565b94608087015260a086015260c0850152151560e08401526101008301520390f35b346101e15760003660031901126101e1576020600954604051908152f35b346101e157610eba36611296565b336001600160a01b03821603610ed35761058891611659565b60405162461bcd60e51b815260206004820152602f60248201527f416363657373436f6e74726f6c3a2063616e206f6e6c792072656e6f756e636560448201526e103937b632b9903337b91039b2b63360891b6064820152608490fd5b346101e15760203660031901126101e1576004356005548110156101e157610f596020916112bc565b90546040519160031b1c8152f35b346101e15760003660031901126101e1576020600a54604051908152f35b346101e157610f9336611296565b816000526001602052610fad6001604060002001546114a7565b81600052600160205260406000209060018060a01b0316908160005260205260ff6040600020541615610fdc57005b8160005260016020526040600020816000526020526040600020600160ff1982541617905533917f2f8788117e7eff1d82e926ec794901d17c78024a50270940304540a733656f0d600080a4005b346101e15760203660031901126101e15760043560005260016020526020600160406000200154604051908152f35b346101e1576020806003193601126101e15760405190611078826113d9565b600082526000818301526060604083015260608083015260006080830152600060a0830152600060c0830152600060e083015260006101008093015260043560005260038152604060002091604051926110d1846113d9565b838154928160018060a01b039384861682526110f660ff8884019760a01c16876117fc565b604051946111128661110b8160018601611343565b038761142e565b604083019586526111cb60405196611138886111318160028801611343565b038961142e565b6060850197885261119e600385015499608087019a8b528b60048701549560a0890196875289600760058a01549960c08c019a8b5260e060ff6006830154169c019b15158c5201549b019a8b526040519e8f9e8f525116908d01525160408c0190611241565b51966111b8610120988960608d01526101408c0190611271565b90518a8203601f190160808c0152611271565b965160a08901525160c08801525160e08701525115159085015251908301520390f35b346101e15760203660031901126101e1576004359063ffffffff60e01b82168092036101e157602091637965db0b60e01b8114908115611230575b5015158152f35b6301ffc9a760e01b14905083611229565b906002821015610ca65752565b60005b8381106112615750506000910152565b8181015183820152602001611251565b9060209161128a8151809281855285808601910161124e565b601f01601f1916010190565b60409060031901126101e157600435906024356001600160a01b03811681036101e15790565b6005548110156112f35760056000527f036b6384b5eca791c62761152d0c79bb0604c104a5fb6f4eb0703f3154bb3db00190600090565b634e487b7160e01b600052603260045260246000fd5b90600182811c92168015611339575b602083101461132357565b634e487b7160e01b600052602260045260246000fd5b91607f1691611318565b906000929180549161135483611309565b9182825260019384811690816000146113b65750600114611376575b50505050565b90919394506000526020928360002092846000945b8386106113a2575050505001019038808080611370565b80548587018301529401938590820161138b565b9294505050602093945060ff191683830152151560051b01019038808080611370565b610120810190811067ffffffffffffffff821117610af857604052565b60c0810190811067ffffffffffffffff821117610af857604052565b6080810190811067ffffffffffffffff821117610af857604052565b90601f8019910116810190811067ffffffffffffffff821117610af857604052565b81601f820112156101e15780359067ffffffffffffffff8211610af85760405192611485601f8401601f19166020018561142e565b828452602083830101116101e157816000926020809301838601378301015290565b6000818152600191602091838352604093848220338352845260ff8583205416156114d3575050505050565b6114dc336116ed565b928551916114e983611412565b60428352858301936060368637835115611645576030855383518210156116455790607860218501536041915b8183116115d75750505061159557604861048e9386936115799361156a985198899376020b1b1b2b9b9a1b7b73a3937b61d1030b1b1b7bab73a1604d1b8a86015261043a815180928c60378901910161124e565b0103602881018752018561142e565b5192839262461bcd60e51b845260048401526024830190611271565b60648486519062461bcd60e51b825280600483015260248201527f537472696e67733a20686578206c656e67746820696e73756666696369656e746044820152fd5b909192600f81166010811015611631576f181899199a1a9b1b9c1cb0b131b232b360811b901a61160785876116dc565b5360041c92801561161d57600019019190611516565b634e487b7160e01b82526011600452602482fd5b634e487b7160e01b83526032600452602483fd5b634e487b7160e01b81526032600452602490fd5b906000918083526001602052604083209160018060a01b03169182845260205260ff60408420541661168a57505050565b8083526001602052604083208284526020526040832060ff1981541690557ff6391f5c32d9c69d2a47ea670b442974b53935d1edc7fd64eb21e047a839171b339380a4565b9190820180921161060257565b9081518110156112f3570160200190565b604051906060820182811067ffffffffffffffff821117610af857604052602a82526020820160403682378251156112f3576030905381516001908110156112f357607860218401536029905b80821161178e57505061174a5790565b606460405162461bcd60e51b815260206004820152602060248201527f537472696e67733a20686578206c656e67746820696e73756666696369656e746044820152fd5b9091600f811660108110156117e7576f181899199a1a9b1b9c1cb0b131b232b360811b901a6117bd84866116dc565b5360041c9180156117d257600019019061173a565b60246000634e487b7160e01b81526011600452fd5b60246000634e487b7160e01b81526032600452fd5b6002821015610ca65752565b60001981146106025760010190565b600260005414611828576002600055565b60405162461bcd60e51b815260206004820152601f60248201527f5265656e7472616e637947756172643a207265656e7472616e742063616c6c006044820152606490fd5b6000818152600391602091838352604080822091805b6005548110156118fc57611896816112bc565b905490881b1c8581146118f25780835287875283832060ff6006820154166118e7576118c29086611905565b6118d557506118d090611808565b611883565b9550505050506118e59250611a2b565b565b50506118d090611808565b506118d090611808565b50505050505050565b60ff815460a01c1660ff835460a01c16906002821015610ca6576002811015610ca657146119bc5760405161194181610de58160028601611343565b6020815191012060405161195c81610de58160028801611343565b60208151910120036119bc5760039081015491015490818110156119b65780915b808211156119ae5750905b6078810290808204607814901517156106025760649004106119a957600190565b600090565b905090611988565b8161197d565b5050600090565b93926119f16080916127109460a094600180871b03168852602088015260c0604088015260c0870190611343565b604086820380606089015260048352630aaa688960e31b60208401520182870152600360408201526207032760ec1b606082015201930152565b9081600052600360205260406000208160005260406000209260038201546003850154808210600014611d215750915b600254815460405163458ecfad60e11b81529160209183916001600160a01b039081169183916000918391611a9b9160018b01918d9116600485016119c3565b03925af1908115611ce357600091611cef575b5060018060a01b03600254169160208560018060a01b0389541694600160008b611af0604051998a968795869463458ecfad60e11b86520191600485016119c3565b03925af1928315611ce357600093611caf575b5060405196602088018581528760408a01524260608a01526060895288608081011067ffffffffffffffff60808b011117610af857608089016040528851902097611b50608082016113f6565b85608082015260058960a083018a815260c084018a815260e08501908882526101008601928a845261012087019442865260005260046020526080604060002097015187555160018701555160028601555160038501555160048401555191015560065490600160401b821015610af85760018201806006558210156112f35788928360079360066000527ff652222313e28459528d920b65115c16c04f3efc82aaedc97be59f3f377c0d3f01558383600683019260ff1993600185825416179055015560016006830191825416179055015560085460028101809111610602576008558360011b9380850460021481151715610602577f6566df240955b8c0c5dcbc15956c9efe60ff1586d4a0a020d84bf9f5f5f0823095611c7760a0966009546116cf565b600955611c8f611c8785856116cf565b600a546116cf565b600a556040519485526020850152604084015260608301526080820152a2565b9092506020813d602011611cdb575b81611ccb6020938361142e565b810103126101e157519138611b03565b3d9150611cbe565b6040513d6000823e3d90fd5b90506020813d602011611d19575b81611d0a6020938361142e565b810103126101e1575138611aae565b3d9150611cfd565b905091611a5b56fea2646970667358221220e8b5cc93f0d746b95843b3fb75f888ffd81cf0cfbee0fde58ca37ded0abe58fe64736f6c634300081300332f8788117e7eff1d82e926ec794901d17c78024a50270940304540a733656f0d",
  "linkReferences": {},
  "deployedLinkReferences": {}
}