{
  "_format": "hh-sol-artifact-1",
  "contractName": "AgentBVerifier",
  "sourceName": "contracts/AgentBVerifier.sol",
  "abi": [
    {
      "anonymous": false,
      "inputs": [
        {
          "indexed": true,
          "internalType": "bytes32",
          "name": "proofId",
          "type": "bytes32"
        },
        {
          "indexed": true,
          "internalType": "address",
          "name": "client",
          "type": "address"
        },
        {
          "indexed": false,
          "internalType": "string",
          "name": "reason",
          "type": "string"
        }
      ],
      "name": "ProofRejected",
      "type": "event"
    },
    {
      "anonymous": false,
      "inputs": [
        {
          "indexed": true,
          "internalType": "bytes32",
          "name": "proofId",
          "type": "bytes32"
        },
        {
          "indexed": true,
          "internalType": "address",
          "name": "client",
          "type": "address"
        },
        {
          "indexed": false,
          "internalType": "uint256",
          "name": "threshold",
          "type": "uint256"
        },
        {
          "indexed": false,
          "internalType": "uint256",
          "name": "timestamp",
          "type": "uint256"
        }
      ],
      "name": "ProofVerified",
      "type": "event"
    },
    {
      "inputs": [],
      "name": "MAX_THRESHOLD",
      "outputs": [
        {
          "internalType": "uint256",
          "name": "",
          "type": "uint256"
        }
      ],
      "stateMutability": "view",
      "type": "function"
    },
    {
      "inputs": [],
      "name": "MIN_SAMPLES",
      "outputs": [
        {
          "internalType": "uint256",
          "name": "",
          "type": "uint256"
        }
      ],
      "stateMutability": "view",
      "type": "function"
    },
    {
      "inputs": [],
      "name": "REPUTATION_DECAY_PERIOD",
      "outputs": [
        {
          "internalType": "uint256",
          "name": "",
          "type": "uint256"
        }
      ],
      "stateMutability": "view",
      "type": "function"
    },
    {
      "inputs": [
        {
          "internalType": "address",
          "name": "client",
          "type": "address"
        }
      ],
      "name": "calculateFRYAlphaWeight",
      "outputs": [
        {
          "internalType": "uint256",
          "name": "weight",
          "type": "uint256"
        }
      ],
      "stateMutability": "view",
      "type": "function"
    },
    {
      "inputs": [
        {
          "internalType": "address",
          "name": "",
          "type": "address"
        }
      ],
      "name": "clientReputation",
      "outputs": [
        {
          "internalType": "uint256",
          "name": "proofsSubmitted",
          "type": "uint256"
        },
        {
          "internalType": "uint256",
          "name": "proofsVerified",
          "type": "uint256"
        },
        {
          "internalType": "uint256",
          "name": "totalSamples",
          "type": "uint256"
        },
        {
          "internalType": "uint256",
          "name": "lastProofTimestamp",
          "type": "uint256"
        },
        {
          "internalType": "uint256",
          "name": "reputationScore",
          "type": "uint256"
        }
      ],
      "stateMutability": "view",
      "type": "function"
    },
    {
      "inputs": [
        {
          "internalType": "address",
          "name": "client",
          "type": "address"
        }
      ],
      "name": "getClientReputation",
      "outputs": [
        {
          "components": [
            {
              "internalType": "uint256",
              "name": "proofsSubmitted",
              "type": "uint256"
            },
            {
              "internalType": "uint256",
              "name": "proofsVerified",
              "type": "uint256"
            },
            {
              "internalType": "uint256",
              "name": "totalSamples",
              "type": "uint256"
            },
            {
              "internalType": "uint256",
              "name": "lastProofTimestamp",
              "type": "uint256"
            },
            {
              "internalType": "uint256",
              "name": "reputationScore",
              "type": "uint256"
            }
          ],
          "internalType": "struct AgentBVerifier.ClientReputation",
          "name": "reputation",
          "type": "tuple"
        }
      ],
      "stateMutability": "view",
      "type": "function"
    },
    {
      "inputs": [
        {
          "internalType": "bytes32",
          "name": "proofId",
          "type": "bytes32"
        }
      ],
      "name": "isProofVerified",
      "outputs": [
        {
          "internalType": "bool",
          "name": "verified",
          "type": "bool"
        }
      ],
      "stateMutability": "view",
      "type": "function"
    },
    {
      "inputs": [
        {
          "internalType": "bytes32",
          "name": "",
          "type": "bytes32"
        }
      ],
      "name": "verifiedProofs",
      "outputs": [
        {
          "internalType": "bool",
          "name": "",
          "type": "bool"
        }
      ],
      "stateMutability": "view",
      "type": "function"
    },
    {
      "inputs": [
        {
          "internalType": "bytes",
          "name": "proof",
          "type": "bytes"
        },
        {
          "internalType": "uint256[3]",
          "name": "publicInputs",
          "type": "uint256[3]"
        }
      ],
      "name": "verifyAccuracyProof",
      "outputs": [
        {
          "internalType": "bool",
          "name": "success",
          "type": "bool"
        }
      ],
      "stateMutability": "nonpayable",
      "type": "function"
    }
  ],
  "bytecode": "0x6080806040523461001657610657908161001c8239f35b600080fdfe608060408181526004908136101561001657600080fd5b600092833560e01c90816308af5431146104c857508063176d80c4146103e75780631efb3ba41461041457806342c8fd00146103e75780636be279861461016a5780638257886d1461014c578063bf1858ee14610111578063da150e8f146100f15763f5bbb3211461008757600080fd5b346100ed5760203660031901126100ed5781356001600160a01b038116908190036100e95783829160a0955280602052208054926001820154926002830154916003840154930154938151958652602086015284015260608301526080820152f35b8380fd5b8280fd5b83823461010d578160031936011261010d576020905160648152f35b5080fd5b5090346100ed5760203660031901126100ed5735916001600160a01b03831683036101495750610142602092610548565b9051908152f35b80fd5b83823461010d578160031936011261010d576020905162278d008152f35b5082346101495760803660031901126101495767ffffffffffffffff9280358481116100ed57366023820112156100ed5780820135918583116100e957602491828436920101116100e957366084116100e95781359360648035906101f487116103b35780821061037d578751956020998a88013360601b81528960348a015260443560548a01524260748a01526074895260a08901918983109083111761036b57818b52885190209788865260018c5260ff8b8720541661033257505060c0116102fc575084825260018852868220600160ff19825416179055338252818852868220936102598554610516565b92838655600186019261026c8454610516565b80945561027e6002880191825461053b565b9055426003870155612710928381029381850414901517156102ec5783156102dc57505004910155825191825242848301527f059b05c502b9e9cf45d5a7bfd25185aa1fac82e2b71552ec6429b98a84b4b675833393a35160018152f35b634e487b7160e01b815260128552fd5b634e487b7160e01b815260118552fd5b875162461bcd60e51b81528085018a905260148187015273092dcecc2d8d2c840e0e4dedecc40d8cadccee8d60631b6044820152fd5b9075141c9bdbd988185b1c9958591e481d995c9a599a595960521b60e485938e62461bcd60e51b855260a4820152601660c48201520152fd5b634e487b7160e01b8652604187528786fd5b875162461bcd60e51b815260208186015260148187015273496e73756666696369656e742073616d706c657360601b6044820152fd5b875162461bcd60e51b8152602081860152601281870152710a8d0e4cae6d0ded8c840e8dede40d0d2ced60731b6044820152fd5b5090346100ed5760203660031901126100ed578160209360ff923581526001855220541690519015158152f35b50346100ed5760203660031901126100ed5781356001600160a01b038116908190036100e95783829160a0956080845161044d816104e4565b8281528260208201528286820152826060820152015281528060205220815191610476836104e4565b8154938484526001830154602085019081526080600285015492848701938452600386015495606088019687520154950194855282519586525160208601525190840152516060830152516080820152f35b84903461010d578160031936011261010d57806101f460209252f35b60a0810190811067ffffffffffffffff82111761050057604052565b634e487b7160e01b600052604160045260246000fd5b60001981146105255760010190565b634e487b7160e01b600052601160045260246000fd5b9190820180921161052557565b9060009160018060a01b031682528160205260806040832060405161056c816104e4565b8154808252600183015460208301526002830154918260408201526004600385015494856060840152015494859101521561061757612710101561061057610bb8915b84914203944286116105fc575062093a806105df9495106105f2575b61ffff6105da9293169061053b565b61053b565b614e208082116105ed575090565b905090565b6107d091506105cb565b634e487b7160e01b81526011600452602490fd5b83916105af565b506127109350505056fea2646970667358221220b5f613cec568c36550ee9a4e5b4d994703626a0cc7c844baa1146748f6c1370f64736f6c63430008130033",
  "linkReferences": {},
  "deployedLinkReferences": {}
}