{"contracts/LiquidityRailsRouter.sol":{"LiquidityRailsRouter":{"abi":[{"inputs":[{"internalType":"address","name":"_usdFryToken","type":"address"}],"stateMutability":"nonpayable","type":"constructor"},{"anonymous":false,"inputs":[{"indexed":true,"internalType":"bytes32","name":"role","type":"bytes32"},{"indexed":true,"internalType":"bytes32","name":"previousAdminRole","type":"bytes32"},{"indexed":true,"internalType":"bytes32","name":"newAdminRole","type":"bytes32"}],"name":"RoleAdminChanged","type":"event"},{"anonymous":false,"inputs":[{"indexed":true,"internalType":"bytes32","name":"role","type":"bytes32"},{"indexed":true,"internalType":"address","name":"account","type":"address"},{"indexed":true,"internalType":"address","name":"sender","type":"address"}],"name":"RoleGranted","type":"event"},{"anonymous":false,"inputs":[{"indexed":true,"internalType":"bytes32","name":"role","type":"bytes32"},{"indexed":true,"internalType":"address","name":"account","type":"address"},{"indexed":true,"internalType":"address","name":"sender","type":"address"}],"name":"RoleRevoked","type":"event"},{"anonymous":false,"inputs":[{"indexed":true,"internalType":"bytes32","name":"routeId","type":"bytes32"},{"indexed":true,"internalType":"address","name":"user","type":"address"},{"indexed":false,"internalType":"uint256","name":"amountUSD","type":"uint256"},{"indexed":false,"internalType":"uint256","name":"fryMinted","type":"uint256"},{"indexed":false,"internalType":"uint256","name":"numHops","type":"uint256"},{"indexed":false,"internalType":"uint256","name":"totalCostBps","type":"uint256"}],"name":"RouteExecuted","type":"event"},{"anonymous":false,"inputs":[{"indexed":true,"internalType":"bytes32","name":"venueId","type":"bytes32"},{"indexed":false,"internalType":"string","name":"name","type":"string"},{"indexed":false,"internalType":"string","name":"stablecoin","type":"string"}],"name":"VenueAdded","type":"event"},{"anonymous":false,"inputs":[{"indexed":true,"internalType":"bytes32","name":"venueId","type":"bytes32"}],"name":"VenueDeactivated","type":"event"},{"anonymous":false,"inputs":[{"indexed":true,"internalType":"bytes32","name":"venueId","type":"bytes32"},{"indexed":false,"internalType":"uint256","name":"liquidity","type":"uint256"},{"indexed":false,"internalType":"uint256","name":"costBps","type":"uint256"}],"name":"VenueUpdated","type":"event"},{"inputs":[],"name":"DEFAULT_ADMIN_ROLE","outputs":[{"internalType":"bytes32","name":"","type":"bytes32"}],"stateMutability":"view","type":"function"},{"inputs":[],"name":"OPERATOR_ROLE","outputs":[{"internalType":"bytes32","name":"","type":"bytes32"}],"stateMutability":"view","type":"function"},{"inputs":[{"internalType":"string","name":"name","type":"string"},{"internalType":"string","name":"stablecoin","type":"string"},{"internalType":"uint256","name":"liquidityUSD","type":"uint256"},{"internalType":"uint256","name":"costBps","type":"uint256"}],"name":"addVenue","outputs":[],"stateMutability":"nonpayable","type":"function"},{"inputs":[{"internalType":"uint256","name":"","type":"uint256"}],"name":"allRouteIds","outputs":[{"internalType":"bytes32","name":"","type":"bytes32"}],"stateMutability":"view","type":"function"},{"inputs":[{"internalType":"bytes32","name":"venueId","type":"bytes32"}],"name":"deactivateVenue","outputs":[],"stateMutability":"nonpayable","type":"function"},{"inputs":[],"name":"getActiveVenues","outputs":[{"internalType":"bytes32[]","name":"","type":"bytes32[]"}],"stateMutability":"view","type":"function"},{"inputs":[{"internalType":"bytes32","name":"role","type":"bytes32"}],"name":"getRoleAdmin","outputs":[{"internalType":"bytes32","name":"","type":"bytes32"}],"stateMutability":"view","type":"function"},{"inputs":[{"internalType":"bytes32","name":"routeId","type":"bytes32"}],"name":"getRoute","outputs":[{"components":[{"internalType":"bytes32[]","name":"venueIds","type":"bytes32[]"},{"internalType":"uint256","name":"totalCostBps","type":"uint256"},{"internalType":"uint256","name":"fryMinted","type":"uint256"},{"internalType":"uint256","name":"timestamp","type":"uint256"}],"internalType":"struct LiquidityRailsRouter.Route","name":"","type":"tuple"}],"stateMutability":"view","type":"function"},{"inputs":[],"name":"getSystemStats","outputs":[{"internalType":"uint256","name":"wreckageRouted","type":"uint256"},{"internalType":"uint256","name":"fryMinted","type":"uint256"},{"internalType":"uint256","name":"routesExecuted","type":"uint256"},{"internalType":"uint256","name":"activeVenues","type":"uint256"}],"stateMutability":"view","type":"function"},{"inputs":[{"internalType":"bytes32","name":"venueId","type":"bytes32"}],"name":"getVenue","outputs":[{"components":[{"internalType":"string","name":"name","type":"string"},{"internalType":"string","name":"stablecoin","type":"string"},{"internalType":"uint256","name":"liquidityUSD","type":"uint256"},{"internalType":"uint256","name":"costBps","type":"uint256"},{"internalType":"bool","name":"isActive","type":"bool"}],"internalType":"struct LiquidityRailsRouter.Venue","name":"","type":"tuple"}],"stateMutability":"view","type":"function"},{"inputs":[{"internalType":"bytes32","name":"role","type":"bytes32"},{"internalType":"address","name":"account","type":"address"}],"name":"grantRole","outputs":[],"stateMutability":"nonpayable","type":"function"},{"inputs":[{"internalType":"bytes32","name":"role","type":"bytes32"},{"internalType":"address","name":"account","type":"address"}],"name":"hasRole","outputs":[{"internalType":"bool","name":"","type":"bool"}],"stateMutability":"view","type":"function"},{"inputs":[{"internalType":"bytes32","name":"role","type":"bytes32"},{"internalType":"address","name":"account","type":"address"}],"name":"renounceRole","outputs":[],"stateMutability":"nonpayable","type":"function"},{"inputs":[{"internalType":"bytes32","name":"role","type":"bytes32"},{"internalType":"address","name":"account","type":"address"}],"name":"revokeRole","outputs":[],"stateMutability":"nonpayable","type":"function"},{"inputs":[{"internalType":"uint256","name":"amountUSD","type":"uint256"},{"internalType":"uint256","name":"maxHops","type":"uint256"}],"name":"routeWreckage","outputs":[{"internalType":"uint256","name":"","type":"uint256"}],"stateMutability":"nonpayable","type":"function"},{"inputs":[{"internalType":"bytes32","name":"","type":"bytes32"}],"name":"routes","outputs":[{"internalType":"uint256","name":"totalCostBps","type":"uint256"},{"internalType":"uint256","name":"fryMinted","type":"uint256"},{"internalType":"uint256","name":"timestamp","type":"uint256"}],"stateMutability":"view","type":"function"},{"inputs":[{"internalType":"bytes4","name":"interfaceId","type":"bytes4"}],"name":"supportsInterface","outputs":[{"internalType":"bool","name":"","type":"bool"}],"stateMutability":"view","type":"function"},{"inputs":[],"name":"totalFryMinted","outputs":[{"internalType":"uint256","name":"","type":"uint256"}],"stateMutability":"view","type":"function"},{"inputs":[],"name":"totalRoutesExecuted","outputs":[{"internalType":"uint256","name":"","type":"uint256"}],"stateMutability":"view","type":"function"},{"inputs":[],"name":"totalWreckageRouted","outputs":[{"internalType":"uint256","name":"","type":"uint256"}],"stateMutability":"view","type":"function"},{"inputs":[{"internalType":"bytes32","name":"venueId","type":"bytes32"},{"internalType":"uint256","name":"liquidityUSD","type":"uint256"},{"internalType":"uint256","name":"costBps","type":"uint256"}],"name":"updateVenue","outputs":[],"stateMutability":"nonpayable","type":"function"},{"inputs":[],"name":"usdFryToken","outputs":[{"internalType":"contract IUSDFRYToken","name":"","type":"address"}],"stateMutability":"view","type":"function"},{"inputs":[{"internalType":"uint256","name":"","type":"uint256"}],"name":"venueIds","outputs":[{"internalType":"bytes32","name":"","type":"bytes32"}],"stateMutability":"view","type":"function"},{"inputs":[{"internalType":"bytes32","name":"","type":"bytes32"}],"name":"venues","outputs":[{"internalType":"string","name":"name","type":"string"},{"internalType":"string","name":"stablecoin","type":"string"},{"internalType":"uint256","name":"liquidityUSD","type":"uint256"},{"internalType":"uint256","name":"costBps","type":"uint256"},{"internalType":"bool","name":"isActive","type":"bool"}],"stateMutability":"view","type":"function"}],"evm":{"bytecode":{"linkReferences":{},"object":"608080604052346200098b576020816200298b8038038091620000238285620009c8565b8339810103126200098b57516001600160a01b038116908190036200098b5760016000908155600280546001600160a01b031916929092179091553381526000805160206200294b833981519152602052604090205460ff161562000948575b3360009081527f31c1e66639f421f1853aeefe8ad6b62a3b96f3287efe23106923cd924aa025c260205260409020547f97667070c54ef182b0f5858b034beac1b6f3089aa2d3188bb1e8929f4fa9b9299060ff161562000904575b50604051620000ed81620009ac565b600b815260208101906a121e5c195c9b1a5c5d5a5960aa1b825262000149604051926200011a84620009ac565b600484526200016a602080860192630aaa688960e31b84526040519384918383019687918951928391620009ec565b82016200015d8951809386840190620009ec565b01038084520182620009c8565b519020916040516200017c8162000990565b8281528160208201526a7c13bc4b2c133c5600000060408201526007606082015260016080820152836000526003602052604060002090805180519060018060401b0382116200058157835490600182811c92168015620008f9575b60208310146200066e5781601f849311620008a4575b50602090601f8311600114620008335760009262000827575b50508160011b916000199060031b1c19161782555b60208101518051906001600160401b03821162000581576001840154600181811c911680156200081c575b60208210146200066e57601f8111620007d0575b50602090601f83116001146200076c579282600493608093620002c5979660009262000597575b50508160011b916000199060031b1c19161760018501555b60408101516002850155606081015160038501550151151591019060ff801983541691151516179055565b6004549168010000000000000000831015620005815760018301806004558310156200056b57620003366200032792856000805160206200296b8339815191529560046000526020600020015560405193849360408552604085019062000a11565b90838203602085015262000a11565b0390a26040516200034781620009ac565b6005815260208101906420b9ba32b960d91b825262000149604051926200036e84620009ac565b600484526200039d602080860192632aa9a22360e11b84526040519384918383019687918951928391620009ec565b51902091604051620003af8162000990565b8281528160208201526a3e09de2596099e2b00000060408201526009606082015260016080820152836000526003602052604060002090805180519060018060401b0382116200058157835490600182811c9216801562000761575b60208310146200066e5781601f8493116200070c575b50602090601f83116001146200069b576000926200068f575b50508160011b916000199060031b1c19161782555b60208101518051906001600160401b03821162000581576001840154600181811c9116801562000684575b60208210146200066e57601f811162000622575b50602090601f8311600114620005a3579282600493608093620004f69796600092620005975750508160011b916000199060031b1c191617600185015560408101516002850155606081015160038501550151151591019060ff801983541691151516179055565b6004549168010000000000000000831015620005815760018301806004558310156200056b57620005586200032792856000805160206200296b8339815191529560046000526020600020015560405193849360408552604085019062000a11565b0390a2604051611ef2908162000a398239f35b634e487b7160e01b600052603260045260246000fd5b634e487b7160e01b600052604160045260246000fd5b01519050388062000282565b906001850160005260206000209160005b601f198516811062000609575083608093620004f6979693600193600497601f19811610620005ef575b505050811b0160018501556200029a565b015160001960f88460031b161c19169055388080620005de565b91926020600181928685015181550194019201620005b4565b600185016000526020600020601f840160051c81016020851062000666575b601f830160051c82018110620006595750506200048e565b6000815560010162000641565b508062000641565b634e487b7160e01b600052602260045260246000fd5b90607f16906200047a565b0151905038806200043a565b9250846000526020600020906000935b601f1984168510620006f0576001945083601f19811610620006d6575b505050811b0182556200044f565b015160001960f88460031b161c19169055388080620006c8565b81810151835560209485019460019093019290910190620006ab565b909150846000526020600020601f840160051c81016020851062000759575b90849392915b601f830160051c820181106200074957505062000421565b6000815585945060010162000731565b50806200072b565b91607f16916200040b565b906001850160005260206000209160005b601f1985168110620007b7575083608093620002c5979693600193600497601f19811610620005ef57505050811b0160018501556200029a565b919260206001819286850151815501940192016200077d565b600185016000526020600020601f840160051c81016020851062000814575b601f830160051c82018110620008075750506200025b565b60008155600101620007ef565b5080620007ef565b90607f169062000247565b01519050388062000207565b9250846000526020600020906000935b601f198416851062000888576001945083601f198116106200086e575b505050811b0182556200021c565b015160001960f88460031b161c1916905538808062000860565b8181015183556020948501946001909301929091019062000843565b909150846000526020600020601f840160051c810160208510620008f1575b90849392915b601f830160051c82018110620008e1575050620001ee565b60008155859450600101620008c9565b5080620008c3565b91607f1691620001d8565b8060005260016020526040600020336000526020526040600020600160ff19825416179055339033906000805160206200292b833981519152600080a438620000de565b3360008181526000805160206200294b83398151915260205260408120805460ff1916600117905581906000805160206200292b8339815191528180a462000083565b600080fd5b60a081019081106001600160401b038211176200058157604052565b604081019081106001600160401b038211176200058157604052565b601f909101601f19168101906001600160401b038211908210176200058157604052565b60005b83811062000a005750506000910152565b8181015183820152602001620009ef565b9060209162000a2c81518092818552858086019101620009ec565b601f01601f191601019056fe608080604052600436101561001357600080fd5b60003560e01c90816301ffc9a71461173e57508063066e9481146116f85780631077a3f91461160c578063248a9ca3146115dd5780632a4c22f6146115a65780632f2ff15d1461150157806336568abe1461147d5780633e00159614610d295780633f8d217b14610cd8578063441c842314610cba57806357ea3e7d14610c5e578063752a1fc314610c405780637739329e14610c175780637a5a6cdc146109485780638ccae4e21461092a57806391d14854146108ea578063a1db3d9914610511578063a217fddf146104f5578063a518822f1461046c578063b471eb671461032c578063d1ce59a714610287578063d547741f14610254578063e9207600146101675763f5b541a61461012757600080fd5b346101625760003660031901126101625760206040517f97667070c54ef182b0f5858b034beac1b6f3089aa2d3188bb1e8929f4fa9b9298152f35b600080fd5b3461016257602080600319360112610162576000606060405161018981611851565b81815282848201528260408201520152600435600052600581526040600020604051906101b582611851565b604051928381835495868152019483600052826000209060005b818110610240575050506101e7816080960382611887565b835260018201549181840192835261022960036002830154926040870193845201549260608601938452604051968796828852519187015260a08601906119de565b925160408501525160608401525160808301520390f35b8254885296840196600192830192016101cf565b346101625761028561026536611810565b90806000526001602052610280600160406000200154611bde565b611ce7565b005b3461016257600036600319011261016257600754600854906009546000906000600454905b8181106102e1575050906102dd91604051948594859094939260609260808301968352602083015260408201520152565b0390f35b6102ea816117d9565b9054600391821b1c60005260205260ff60046040600020015416610317575b61031290611e96565b6102ac565b9261032461031291611e96565b939050610309565b3461016257600036600319011261016257600080600454905b818110610421575061035682611ea5565b916103646040519384611887565b808352610373601f1991611ea5565b019060209136838501376000805b82821061039f575050506102dd6040519282849384528301906119de565b6103a8826117d9565b9054600391821b1c60005280855260ff600460406000200154166103d8575b50906103d290611e96565b90610381565b6103e1836117d9565b9054911b1c855182101561040b578161040591866103d29460051b89010152611e96565b906103c7565b634e487b7160e01b600052603260045260246000fd5b61042a816117d9565b9054600391821b1c60005260205260ff60046040600020015416610457575b61045290611e96565b610345565b9161046461045291611e96565b929050610449565b346101625760203660031901126101625760043560005260036020526104d1604060002061049981611938565b906104a660018201611938565b6002820154916104df60ff60046003840154930154169260405196879660a0885260a08801906117b4565b9086820360208801526117b4565b9260408501526060840152151560808301520390f35b3461016257600036600319011261016257602060405160008152f35b34610162576080366003190112610162576004356001600160401b038111610162576105419036906004016118a8565b6024356001600160401b038111610162576105609036906004016118a8565b90610569611a12565b60405160208101906105a660208285516105868187858a01611791565b810187519061059a82858301868c01611791565b01038084520182611887565b519020916040516105b681611836565b8281528160208201526044356040820152606435606082015260016080820152836000526003602052604060002081518051906001600160401b03821161074657819061060384546118fe565b601f811161089a575b50602090601f831160011461082e57600092610823575b50508160011b916000199060031b1c19161781555b60208201518051906001600160401b0382116107465761065b60018401546118fe565b601f81116107dc575b50602090601f83116001146107675791806080949260049460009261075c575b50508160011b916000199060031b1c19161760018201555b604084015160028201556060840151600382015501910151151560ff8019835416911617905560045491600160401b831015610746576107416107339261070a8560017fa747564db1669e731bdd24ee999cb174e702ca54b1ef5f7d530164d95ce4c63597016004556117d9565b81549060031b9088821b91600019901b19161790556040519384936040855260408501906117b4565b9083820360208501526117b4565b0390a2005b634e487b7160e01b600052604160045260246000fd5b015190508980610684565b906001840160005260206000209160005b601f19851681106107c45750926080949260019260049583601f198116106107ab575b505050811b01600182015561069c565b015160001960f88460031b161c1916905589808061079b565b91926020600181928685015181550194019201610778565b600184016000526020600020601f840160051c81016020851061081c575b601f830160051c82018110610810575050610664565b600081556001016107fa565b50806107fa565b015190508780610623565b9250836000526020600020906000935b601f198416851061087f576001945083601f19811610610866575b505050811b018155610638565b015160001960f88460031b161c19169055878080610859565b8181015183556020948501946001909301929091019061083e565b909150836000526020600020601f840160051c8101602085106108e3575b90849392915b601f830160051c820181106108d457505061060c565b600081558594506001016108be565b50806108b8565b34610162576108f836611810565b90600052600160205260406000209060018060a01b0316600052602052602060ff604060002054166040519015158152f35b34610162576000366003190112610162576020600854604051908152f35b34610162576060366003190112610162573360009081527f31c1e66639f421f1853aeefe8ad6b62a3b96f3287efe23106923cd924aa025c260209081526040909120546004359160248035926044359291907f97667070c54ef182b0f5858b034beac1b6f3089aa2d3188bb1e8929f4fa9b9299060019060ff1615610a61575050846000526003825260ff6004604060002001541615610a2b5750916040917fea41880a457f621d2bed30aa88ab375f092a03920520d6614ac4f6cb1258f3129385600052600381528160038560002085600282015501558351928352820152a2005b9060106064926040519262461bcd60e51b845260048401528201526f56656e7565206e6f742061637469766560801b6044820152fd5b610a6d93929333611d7b565b9160405190610a7b82611851565b60428252848201926060368537825115610c0257603084538251811015610c0257607860218401536041905b808211610b94575050610b52576048610b4e93610b2393610b329360405195869376020b1b1b2b9b9a1b7b73a3937b61d1030b1b1b7bab73a1604d1b8a860152610afa815180928c603789019101611791565b8401917001034b99036b4b9b9b4b733903937b6329607d1b603784015251809386840190611791565b01036028810184520182611887565b60405193849362461bcd60e51b855260048501528301906117b4565b0390fd5b606485856040519162461bcd60e51b83528160048401528201527f537472696e67733a20686578206c656e67746820696e73756666696369656e746044820152fd5b9091600f81166010811015610bed576f181899199a1a9b1b9c1cb0b131b232b360811b901a610bc38486611d6a565b5360041c918015610bd8576000190190610aa7565b87634e487b7160e01b60005260116004526000fd5b88634e487b7160e01b60005260326004526000fd5b86634e487b7160e01b60005260326004526000fd5b34610162576000366003190112610162576002546040516001600160a01b039091168152602090f35b34610162576000366003190112610162576020600954604051908152f35b3461016257602036600319011261016257600435610c7a611a12565b806000526003602052600460406000200160ff1981541690557f155bfd8c6d15ed679d9d97cacd610c856b9729fbe7a0470696b49431d9b1ce8d600080a2005b34610162576000366003190112610162576020600754604051908152f35b34610162576020366003190112610162576004356006548110156101625760209060066000527ff652222313e28459528d920b65115c16c04f3efc82aaedc97be59f3f377c0d3f0154604051908152f35b3461016257604036600319011261016257602435600260005414611438576002600055600435156113fe57801515806113f3575b156113bb57600454606091600019919060005b8281106112e65750600110611151575b5081511561111b57612710908181101561110d578082039182116110f7576020610e89925b84516001036110d457604051610dba8161186c565b60048152636261736560e01b83820152905b610dd586611e89565b5160005260038352610e776000604081209360405193610df485611836565b610dfd86611938565b855260ff6004610e0f60018901611938565b97888a890152600281015460408901526003810154606089015201541615156080860152610e9b60018060a01b03600254169551926040519a8b988997889663458ecfad60e11b8852336004890152600435602489015260c0604489015260c48801906117b4565b868103600319016064880152906117b4565b848103600319016084860152906117b4565b9060a483015203925af19182156110c857600092611094575b5060065460405160208101913360601b83526004356034830152426054830152607482015260748152610ee681611836565b519020604051610ef581611851565b84815282602082015283604082015242606082015281600052600560205260406000209080518051906001600160401b03821161074657600160401b821161074657835482855580831061106a575b5060200183600052602060002060005b838110611056575050505060608160206003930151600185015560408101516002850155015191015560065493600160401b85101561074657600185018060065585101561040b576110467fd01b75cd243bfe91b79845b65b6d03ec6fbb7fe2e536e0f085ee7d891a91eb9e918360209760066000527ff652222313e28459528d920b65115c16c04f3efc82aaedc97be59f3f377c0d3f0155610ffb600435600754611d5d565b60075561100a86600854611d5d565b600855611018600954611e96565b6009555193604051918291339688600435859094939260609260808301968352602083015260408201520152565b0390a36001600055604051908152f35b600190602084519401938184015501610f54565b846000526020600020908382015b8183018110611088575050610f44565b60008155600101611078565b9091506020813d6020116110c0575b816110b060209383611887565b8101031261016257519083610eb4565b3d91506110a3565b6040513d6000823e3d90fd5b6040516110e08161186c565b60058152647261696c7360d81b8382015290610dcc565b634e487b7160e01b600052601160045260246000fd5b610e89915060206000610da5565b60405162461bcd60e51b815260206004820152600e60248201526d139bc81c9bdd5d1948199bdd5b9960921b6044820152606490fd5b60005b8181106111615750610d80565b60005b82811061117a575061117590611e96565b611154565b8082146112dd5761118a826117d9565b9054611195836117d9565b91905490808460031b1c600052600360205260ff8060046040600020015416159081156112c1575b5061129557808460031b1c60005260043560011c6002604060002001541080156112a2575b61129557808460031b1c600052611213600360406000200154838560031b1c60005260036040600020015490611d5d565b60011c888110611231575b505050505061122c90611e96565b611164565b91949398509196509560405191606083018381106001600160401b0382111761074657604052600283526040366020850137829860031b1c61127283611e89565b5281516001101561040b5761122c9360409160031b1c910152908680808061121e565b5050505061122c90611e96565b50818360031b1c60005260043560011c600260406000200154106111e2565b9050828460031b1c60005260046040600020015416158a6111bd565b61122c90611e96565b6112ef816117d9565b9054600391821b1c80600052602090828252604060002060806040519461131586611836565b61131e83611938565b865260019561132e878501611938565b8682015260ff600460028601549384604085015286015495866060850152015416159081159384910152916113af575b5061136b5787811061137d575b5050505061137890611e96565b610d70565b6040519850965061137893929091906113958961186c565b885236818901376113a587611e89565b529086808061136b565b9050600435118a61135e565b60405162461bcd60e51b815260206004820152601060248201526f496e76616c6964206d617820686f707360801b6044820152606490fd5b506003811115610d5d565b60405162461bcd60e51b81526020600482015260126024820152710416d6f756e74206d757374206265203e20360741b6044820152606490fd5b60405162461bcd60e51b815260206004820152601f60248201527f5265656e7472616e637947756172643a207265656e7472616e742063616c6c006044820152606490fd5b346101625761148b36611810565b336001600160a01b038216036114a45761028591611ce7565b60405162461bcd60e51b815260206004820152602f60248201527f416363657373436f6e74726f6c3a2063616e206f6e6c792072656e6f756e636560448201526e103937b632b9903337b91039b2b63360891b6064820152608490fd5b346101625761150f36611810565b816000526001602052611529600160406000200154611bde565b81600052600160205260406000209060018060a01b0316908160005260205260ff604060002054161561155857005b8160005260016020526040600020816000526020526040600020600160ff1982541617905533917f2f8788117e7eff1d82e926ec794901d17c78024a50270940304540a733656f0d600080a4005b3461016257602036600319011261016257600435600454811015610162576115cf6020916117d9565b90546040519160031b1c8152f35b346101625760203660031901126101625760043560005260016020526020600160406000200154604051908152f35b34610162576020806003193601126101625760a0906000608060405161163181611836565b6060815260608482015282604082015282606082015201526004356000526003815260406000206040519161166583611836565b61166e82611938565b835261167c60018301611938565b918184019283526116df600282015493604086019485526116cc60ff600460038601549560608a0196875201541694608088019515158652604051988998828a52519189015260c08801906117b4565b9051868203601f190160408801526117b4565b9251606085015251608084015251151560a08301520390f35b3461016257602036600319011261016257600435600052600560205260606040600020600181015490600360028201549101549060405192835260208301526040820152f35b34610162576020366003190112610162576004359063ffffffff60e01b821680920361016257602091637965db0b60e01b8114908115611780575b5015158152f35b6301ffc9a760e01b14905083611779565b60005b8381106117a45750506000910152565b8181015183820152602001611794565b906020916117cd81518092818552858086019101611791565b601f01601f1916010190565b60045481101561040b5760046000527f8a35acfbc15ff81a39ae7d344fd709f28e8600b4aa8c65c6b64bfe7fe36bd19b0190600090565b604090600319011261016257600435906024356001600160a01b03811681036101625790565b60a081019081106001600160401b0382111761074657604052565b608081019081106001600160401b0382111761074657604052565b604081019081106001600160401b0382111761074657604052565b90601f801991011681019081106001600160401b0382111761074657604052565b81601f82011215610162578035906001600160401b03821161074657604051926118dc601f8401601f191660200185611887565b8284526020838301011161016257816000926020809301838601378301015290565b90600182811c9216801561192e575b602083101461191857565b634e487b7160e01b600052602260045260246000fd5b91607f169161190d565b906040519182600082549261194c846118fe565b9081845260019485811690816000146119bb5750600114611978575b505061197692500383611887565b565b9093915060005260209081600020936000915b8183106119a357505061197693508201013880611968565b8554888401850152948501948794509183019161198b565b91505061197694506020925060ff191682840152151560051b8201013880611968565b90815180825260208080930193019160005b8281106119fe575050505090565b8351855293810193928101926001016119f0565b3360009081527fa6eef7e35abe7026729641147f7915573c7e97b47efa546f5f6e3230263bcb496020908152604080832054909260019160ff1615611a575750505050565b611a6033611d7b565b9181855191611a6e83611851565b60428352858301936060368637835115611bca57603085538351821015611bca5790607860218501536041915b818311611b5c57505050611b1a576048610b4e938693611afe93611aef985198899376020b1b1b2b9b9a1b7b73a3937b61d1030b1b1b7bab73a1604d1b8a860152610afa815180928c603789019101611791565b01036028810187520185611887565b5192839262461bcd60e51b8452600484015260248301906117b4565b60648486519062461bcd60e51b825280600483015260248201527f537472696e67733a20686578206c656e67746820696e73756666696369656e746044820152fd5b909192600f81166010811015611bb6576f181899199a1a9b1b9c1cb0b131b232b360811b901a611b8c8587611d6a565b5360041c928015611ba257600019019190611a9b565b634e487b7160e01b82526011600452602482fd5b634e487b7160e01b83526032600452602483fd5b634e487b7160e01b81526032600452602490fd5b6000818152600191602091838352604093848220338352845260ff858320541615611c0a575050505050565b611c1333611d7b565b92855191611c2083611851565b60428352858301936060368637835115611bca57603085538351821015611bca5790607860218501536041915b818311611ca157505050611b1a576048610b4e938693611afe93611aef985198899376020b1b1b2b9b9a1b7b73a3937b61d1030b1b1b7bab73a1604d1b8a860152610afa815180928c603789019101611791565b909192600f81166010811015611bb6576f181899199a1a9b1b9c1cb0b131b232b360811b901a611cd18587611d6a565b5360041c928015611ba257600019019190611c4d565b906000918083526001602052604083209160018060a01b03169182845260205260ff604084205416611d1857505050565b8083526001602052604083208284526020526040832060ff1981541690557ff6391f5c32d9c69d2a47ea670b442974b53935d1edc7fd64eb21e047a839171b339380a4565b919082018092116110f757565b90815181101561040b570160200190565b60405190606082018281106001600160401b0382111761074657604052602a825260208201604036823782511561040b5760309053815160019081101561040b57607860218401536029905b808211611e1b575050611dd75790565b606460405162461bcd60e51b815260206004820152602060248201527f537472696e67733a20686578206c656e67746820696e73756666696369656e746044820152fd5b9091600f81166010811015611e74576f181899199a1a9b1b9c1cb0b131b232b360811b901a611e4a8486611d6a565b5360041c918015611e5f576000190190611dc7565b60246000634e487b7160e01b81526011600452fd5b60246000634e487b7160e01b81526032600452fd5b80511561040b5760200190565b60001981146110f75760010190565b6001600160401b0381116107465760051b6020019056fea2646970667358221220bebf9385f3c791269b3490bb112cc9209aa4273923cecbe76d914407c5b5b59864736f6c634300081300332f8788117e7eff1d82e926ec794901d17c78024a50270940304540a733656f0da6eef7e35abe7026729641147f7915573c7e97b47efa546f5f6e3230263bcb49a747564db1669e731bdd24ee999cb174e702ca54b1ef5f7d530164d95ce4c635","opcodes":"PUSH1 0x80 DUP1 PUSH1 0x40 MSTORE CALLVALUE PUSH3 0x98B JUMPI PUSH1 0x20 DUP2 PUSH3 0x298B DUP1 CODESIZE SUB DUP1 SWAP2 PUSH3 0x23 DUP3 DUP6 PUSH3 0x9C8 JUMP JUMPDEST DUP4 CODECOPY DUP2 ADD SUB SLT PUSH3 0x98B JUMPI MLOAD PUSH1 0x1 PUSH1 0x1 PUSH1 0xA0 SHL SUB DUP2 AND SWAP1 DUP2 SWAP1 SUB PUSH3 0x98B JUMPI PUSH1 0x1 PUSH1 0x0 SWAP1 DUP2 SSTORE PUSH1 0x2 DUP1 SLOAD PUSH1 0x1 PUSH1 0x1 PUSH1 0xA0 SHL SUB NOT AND SWAP3 SWAP1 SWAP3 OR SWAP1 SWAP2 SSTORE CALLER DUP2 MSTORE PUSH1 0x0 DUP1 MLOAD PUSH1 0x20 PUSH3 0x294B DUP4 CODECOPY DUP2 MLOAD SWAP2 MSTORE PUSH1 0x20 MSTORE PUSH1 0x40 SWAP1 KECCAK256 SLOAD PUSH1 0xFF AND ISZERO PUSH3 0x948 JUMPI JUMPDEST CALLER PUSH1 0x0 SWAP1 DUP2 MSTORE PUSH32 0x31C1E66639F421F1853AEEFE8AD6B62A3B96F3287EFE23106923CD924AA025C2 PUSH1 0x20 MSTORE PUSH1 0x40 SWAP1 KECCAK256 SLOAD PUSH32 0x97667070C54EF182B0F5858B034BEAC1B6F3089AA2D3188BB1E8929F4FA9B929 SWAP1 PUSH1 0xFF AND ISZERO PUSH3 0x904 JUMPI JUMPDEST POP PUSH1 0x40 MLOAD PUSH3 0xED DUP2 PUSH3 0x9AC JUMP JUMPDEST PUSH1 0xB DUP2 MSTORE PUSH1 0x20 DUP2 ADD SWAP1 PUSH11 0x121E5C195C9B1A5C5D5A59 PUSH1 0xAA SHL DUP3 MSTORE PUSH3 0x149 PUSH1 0x40 MLOAD SWAP3 PUSH3 0x11A DUP5 PUSH3 0x9AC JUMP JUMPDEST PUSH1 0x4 DUP5 MSTORE PUSH3 0x16A PUSH1 0x20 DUP1 DUP7 ADD SWAP3 PUSH4 0xAAA6889 PUSH1 0xE3 SHL DUP5 MSTORE PUSH1 0x40 MLOAD SWAP4 DUP5 SWAP2 DUP4 DUP4 ADD SWAP7 DUP8 SWAP2 DUP10 MLOAD SWAP3 DUP4 SWAP2 PUSH3 0x9EC JUMP JUMPDEST DUP3 ADD PUSH3 0x15D DUP10 MLOAD DUP1 SWAP4 DUP7 DUP5 ADD SWAP1 PUSH3 0x9EC JUMP JUMPDEST ADD SUB DUP1 DUP5 MSTORE ADD DUP3 PUSH3 0x9C8 JUMP JUMPDEST MLOAD SWAP1 KECCAK256 SWAP2 PUSH1 0x40 MLOAD PUSH3 0x17C DUP2 PUSH3 0x990 JUMP JUMPDEST DUP3 DUP2 MSTORE DUP2 PUSH1 0x20 DUP3 ADD MSTORE PUSH11 0x7C13BC4B2C133C56000000 PUSH1 0x40 DUP3 ADD MSTORE PUSH1 0x7 PUSH1 0x60 DUP3 ADD MSTORE PUSH1 0x1 PUSH1 0x80 DUP3 ADD MSTORE DUP4 PUSH1 0x0 MSTORE PUSH1 0x3 PUSH1 0x20 MSTORE PUSH1 0x40 PUSH1 0x0 KECCAK256 SWAP1 DUP1 MLOAD DUP1 MLOAD SWAP1 PUSH1 0x1 DUP1 PUSH1 0x40 SHL SUB DUP3 GT PUSH3 0x581 JUMPI DUP4 SLOAD SWAP1 PUSH1 0x1 DUP3 DUP2 SHR SWAP3 AND DUP1 ISZERO PUSH3 0x8F9 JUMPI JUMPDEST PUSH1 0x20 DUP4 LT EQ PUSH3 0x66E JUMPI DUP2 PUSH1 0x1F DUP5 SWAP4 GT PUSH3 0x8A4 JUMPI JUMPDEST POP PUSH1 0x20 SWAP1 PUSH1 0x1F DUP4 GT PUSH1 0x1 EQ PUSH3 0x833 JUMPI PUSH1 0x0 SWAP3 PUSH3 0x827 JUMPI JUMPDEST POP POP DUP2 PUSH1 0x1 SHL SWAP2 PUSH1 0x0 NOT SWAP1 PUSH1 0x3 SHL SHR NOT AND OR DUP3 SSTORE JUMPDEST PUSH1 0x20 DUP2 ADD MLOAD DUP1 MLOAD SWAP1 PUSH1 0x1 PUSH1 0x1 PUSH1 0x40 SHL SUB DUP3 GT PUSH3 0x581 JUMPI PUSH1 0x1 DUP5 ADD SLOAD PUSH1 0x1 DUP2 DUP2 SHR SWAP2 AND DUP1 ISZERO PUSH3 0x81C JUMPI JUMPDEST PUSH1 0x20 DUP3 LT EQ PUSH3 0x66E JUMPI PUSH1 0x1F DUP2 GT PUSH3 0x7D0 JUMPI JUMPDEST POP PUSH1 0x20 SWAP1 PUSH1 0x1F DUP4 GT PUSH1 0x1 EQ PUSH3 0x76C JUMPI SWAP3 DUP3 PUSH1 0x4 SWAP4 PUSH1 0x80 SWAP4 PUSH3 0x2C5 SWAP8 SWAP7 PUSH1 0x0 SWAP3 PUSH3 0x597 JUMPI JUMPDEST POP POP DUP2 PUSH1 0x1 SHL SWAP2 PUSH1 0x0 NOT SWAP1 PUSH1 0x3 SHL SHR NOT AND OR PUSH1 0x1 DUP6 ADD SSTORE JUMPDEST PUSH1 0x40 DUP2 ADD MLOAD PUSH1 0x2 DUP6 ADD SSTORE PUSH1 0x60 DUP2 ADD MLOAD PUSH1 0x3 DUP6 ADD SSTORE ADD MLOAD ISZERO ISZERO SWAP2 ADD SWAP1 PUSH1 0xFF DUP1 NOT DUP4 SLOAD AND SWAP2 ISZERO ISZERO AND OR SWAP1 SSTORE JUMP JUMPDEST PUSH1 0x4 SLOAD SWAP2 PUSH9 0x10000000000000000 DUP4 LT ISZERO PUSH3 0x581 JUMPI PUSH1 0x1 DUP4 ADD DUP1 PUSH1 0x4 SSTORE DUP4 LT ISZERO PUSH3 0x56B JUMPI PUSH3 0x336 PUSH3 0x327 SWAP3 DUP6 PUSH1 0x0 DUP1 MLOAD PUSH1 0x20 PUSH3 0x296B DUP4 CODECOPY DUP2 MLOAD SWAP2 MSTORE SWAP6 PUSH1 0x4 PUSH1 0x0 MSTORE PUSH1 0x20 PUSH1 0x0 KECCAK256 ADD SSTORE PUSH1 0x40 MLOAD SWAP4 DUP5 SWAP4 PUSH1 0x40 DUP6 MSTORE PUSH1 0x40 DUP6 ADD SWAP1 PUSH3 0xA11 JUMP JUMPDEST SWAP1 DUP4 DUP3 SUB PUSH1 0x20 DUP6 ADD MSTORE PUSH3 0xA11 JUMP JUMPDEST SUB SWAP1 LOG2 PUSH1 0x40 MLOAD PUSH3 0x347 DUP2 PUSH3 0x9AC JUMP JUMPDEST PUSH1 0x5 DUP2 MSTORE PUSH1 0x20 DUP2 ADD SWAP1 PUSH5 0x20B9BA32B9 PUSH1 0xD9 SHL DUP3 MSTORE PUSH3 0x149 PUSH1 0x40 MLOAD SWAP3 PUSH3 0x36E DUP5 PUSH3 0x9AC JUMP JUMPDEST PUSH1 0x4 DUP5 MSTORE PUSH3 0x39D PUSH1 0x20 DUP1 DUP7 ADD SWAP3 PUSH4 0x2AA9A223 PUSH1 0xE1 SHL DUP5 MSTORE PUSH1 0x40 MLOAD SWAP4 DUP5 SWAP2 DUP4 DUP4 ADD SWAP7 DUP8 SWAP2 DUP10 MLOAD SWAP3 DUP4 SWAP2 PUSH3 0x9EC JUMP JUMPDEST MLOAD SWAP1 KECCAK256 SWAP2 PUSH1 0x40 MLOAD PUSH3 0x3AF DUP2 PUSH3 0x990 JUMP JUMPDEST DUP3 DUP2 MSTORE DUP2 PUSH1 0x20 DUP3 ADD MSTORE PUSH11 0x3E09DE2596099E2B000000 PUSH1 0x40 DUP3 ADD MSTORE PUSH1 0x9 PUSH1 0x60 DUP3 ADD MSTORE PUSH1 0x1 PUSH1 0x80 DUP3 ADD MSTORE DUP4 PUSH1 0x0 MSTORE PUSH1 0x3 PUSH1 0x20 MSTORE PUSH1 0x40 PUSH1 0x0 KECCAK256 SWAP1 DUP1 MLOAD DUP1 MLOAD SWAP1 PUSH1 0x1 DUP1 PUSH1 0x40 SHL SUB DUP3 GT PUSH3 0x581 JUMPI DUP4 SLOAD SWAP1 PUSH1 0x1 DUP3 DUP2 SHR SWAP3 AND DUP1 ISZERO PUSH3 0x761 JUMPI JUMPDEST PUSH1 0x20 DUP4 LT EQ PUSH3 0x66E JUMPI DUP2 PUSH1 0x1F DUP5 SWAP4 GT PUSH3 0x70C JUMPI JUMPDEST POP PUSH1 0x20 SWAP1 PUSH1 0x1F DUP4 GT PUSH1 0x1 EQ PUSH3 0x69B JUMPI PUSH1 0x0 SWAP3 PUSH3 0x68F JUMPI JUMPDEST POP POP DUP2 PUSH1 0x1 SHL SWAP2 PUSH1 0x0 NOT SWAP1 PUSH1 0x3 SHL SHR NOT AND OR DUP3 SSTORE JUMPDEST PUSH1 0x20 DUP2 ADD MLOAD DUP1 MLOAD SWAP1 PUSH1 0x1 PUSH1 0x1 PUSH1 0x40 SHL SUB DUP3 GT PUSH3 0x581 JUMPI PUSH1 0x1 DUP5 ADD SLOAD PUSH1 0x1 DUP2 DUP2 SHR SWAP2 AND DUP1 ISZERO PUSH3 0x684 JUMPI JUMPDEST PUSH1 0x20 DUP3 LT EQ PUSH3 0x66E JUMPI PUSH1 0x1F DUP2 GT PUSH3 0x622 JUMPI JUMPDEST POP PUSH1 0x20 SWAP1 PUSH1 0x1F DUP4 GT PUSH1 0x1 EQ PUSH3 0x5A3 JUMPI SWAP3 DUP3 PUSH1 0x4 SWAP4 PUSH1 0x80 SWAP4 PUSH3 0x4F6 SWAP8 SWAP7 PUSH1 0x0 SWAP3 PUSH3 0x597 JUMPI POP POP DUP2 PUSH1 0x1 SHL SWAP2 PUSH1 0x0 NOT SWAP1 PUSH1 0x3 SHL SHR NOT AND OR PUSH1 0x1 DUP6 ADD SSTORE PUSH1 0x40 DUP2 ADD MLOAD PUSH1 0x2 DUP6 ADD SSTORE PUSH1 0x60 DUP2 ADD MLOAD PUSH1 0x3 DUP6 ADD SSTORE ADD MLOAD ISZERO ISZERO SWAP2 ADD SWAP1 PUSH1 0xFF DUP1 NOT DUP4 SLOAD AND SWAP2 ISZERO ISZERO AND OR SWAP1 SSTORE JUMP JUMPDEST PUSH1 0x4 SLOAD SWAP2 PUSH9 0x10000000000000000 DUP4 LT ISZERO PUSH3 0x581 JUMPI PUSH1 0x1 DUP4 ADD DUP1 PUSH1 0x4 SSTORE DUP4 LT ISZERO PUSH3 0x56B JUMPI PUSH3 0x558 PUSH3 0x327 SWAP3 DUP6 PUSH1 0x0 DUP1 MLOAD PUSH1 0x20 PUSH3 0x296B DUP4 CODECOPY DUP2 MLOAD SWAP2 MSTORE SWAP6 PUSH1 0x4 PUSH1 0x0 MSTORE PUSH1 0x20 PUSH1 0x0 KECCAK256 ADD SSTORE PUSH1 0x40 MLOAD SWAP4 DUP5 SWAP4 PUSH1 0x40 DUP6 MSTORE PUSH1 0x40 DUP6 ADD SWAP1 PUSH3 0xA11 JUMP JUMPDEST SUB SWAP1 LOG2 PUSH1 0x40 MLOAD PUSH2 0x1EF2 SWAP1 DUP2 PUSH3 0xA39 DUP3 CODECOPY RETURN JUMPDEST PUSH4 0x4E487B71 PUSH1 0xE0 SHL PUSH1 0x0 MSTORE PUSH1 0x32 PUSH1 0x4 MSTORE PUSH1 0x24 PUSH1 0x0 REVERT JUMPDEST PUSH4 0x4E487B71 PUSH1 0xE0 SHL PUSH1 0x0 MSTORE PUSH1 0x41 PUSH1 0x4 MSTORE PUSH1 0x24 PUSH1 0x0 REVERT JUMPDEST ADD MLOAD SWAP1 POP CODESIZE DUP1 PUSH3 0x282 JUMP JUMPDEST SWAP1 PUSH1 0x1 DUP6 ADD PUSH1 0x0 MSTORE PUSH1 0x20 PUSH1 0x0 KECCAK256 SWAP2 PUSH1 0x0 JUMPDEST PUSH1 0x1F NOT DUP6 AND DUP2 LT PUSH3 0x609 JUMPI POP DUP4 PUSH1 0x80 SWAP4 PUSH3 0x4F6 SWAP8 SWAP7 SWAP4 PUSH1 0x1 SWAP4 PUSH1 0x4 SWAP8 PUSH1 0x1F NOT DUP2 AND LT PUSH3 0x5EF JUMPI JUMPDEST POP POP POP DUP2 SHL ADD PUSH1 0x1 DUP6 ADD SSTORE PUSH3 0x29A JUMP JUMPDEST ADD MLOAD PUSH1 0x0 NOT PUSH1 0xF8 DUP5 PUSH1 0x3 SHL AND SHR NOT AND SWAP1 SSTORE CODESIZE DUP1 DUP1 PUSH3 0x5DE JUMP JUMPDEST SWAP2 SWAP3 PUSH1 0x20 PUSH1 0x1 DUP2 SWAP3 DUP7 DUP6 ADD MLOAD DUP2 SSTORE ADD SWAP5 ADD SWAP3 ADD PUSH3 0x5B4 JUMP JUMPDEST PUSH1 0x1 DUP6 ADD PUSH1 0x0 MSTORE PUSH1 0x20 PUSH1 0x0 KECCAK256 PUSH1 0x1F DUP5 ADD PUSH1 0x5 SHR DUP2 ADD PUSH1 0x20 DUP6 LT PUSH3 0x666 JUMPI JUMPDEST PUSH1 0x1F DUP4 ADD PUSH1 0x5 SHR DUP3 ADD DUP2 LT PUSH3 0x659 JUMPI POP POP PUSH3 0x48E JUMP JUMPDEST PUSH1 0x0 DUP2 SSTORE PUSH1 0x1 ADD PUSH3 0x641 JUMP JUMPDEST POP DUP1 PUSH3 0x641 JUMP JUMPDEST PUSH4 0x4E487B71 PUSH1 0xE0 SHL PUSH1 0x0 MSTORE PUSH1 0x22 PUSH1 0x4 MSTORE PUSH1 0x24 PUSH1 0x0 REVERT JUMPDEST SWAP1 PUSH1 0x7F AND SWAP1 PUSH3 0x47A JUMP JUMPDEST ADD MLOAD SWAP1 POP CODESIZE DUP1 PUSH3 0x43A JUMP JUMPDEST SWAP3 POP DUP5 PUSH1 0x0 MSTORE PUSH1 0x20 PUSH1 0x0 KECCAK256 SWAP1 PUSH1 0x0 SWAP4 JUMPDEST PUSH1 0x1F NOT DUP5 AND DUP6 LT PUSH3 0x6F0 JUMPI PUSH1 0x1 SWAP5 POP DUP4 PUSH1 0x1F NOT DUP2 AND LT PUSH3 0x6D6 JUMPI JUMPDEST POP POP POP DUP2 SHL ADD DUP3 SSTORE PUSH3 0x44F JUMP JUMPDEST ADD MLOAD PUSH1 0x0 NOT PUSH1 0xF8 DUP5 PUSH1 0x3 SHL AND SHR NOT AND SWAP1 SSTORE CODESIZE DUP1 DUP1 PUSH3 0x6C8 JUMP JUMPDEST DUP2 DUP2 ADD MLOAD DUP4 SSTORE PUSH1 0x20 SWAP5 DUP6 ADD SWAP5 PUSH1 0x1 SWAP1 SWAP4 ADD SWAP3 SWAP1 SWAP2 ADD SWAP1 PUSH3 0x6AB JUMP JUMPDEST SWAP1 SWAP2 POP DUP5 PUSH1 0x0 MSTORE PUSH1 0x20 PUSH1 0x0 KECCAK256 PUSH1 0x1F DUP5 ADD PUSH1 0x5 SHR DUP2 ADD PUSH1 0x20 DUP6 LT PUSH3 0x759 JUMPI JUMPDEST SWAP1 DUP5 SWAP4 SWAP3 SWAP2 JUMPDEST PUSH1 0x1F DUP4 ADD PUSH1 0x5 SHR DUP3 ADD DUP2 LT PUSH3 0x749 JUMPI POP POP PUSH3 0x421 JUMP JUMPDEST PUSH1 0x0 DUP2 SSTORE DUP6 SWAP5 POP PUSH1 0x1 ADD PUSH3 0x731 JUMP JUMPDEST POP DUP1 PUSH3 0x72B JUMP JUMPDEST SWAP2 PUSH1 0x7F AND SWAP2 PUSH3 0x40B JUMP JUMPDEST SWAP1 PUSH1 0x1 DUP6 ADD PUSH1 0x0 MSTORE PUSH1 0x20 PUSH1 0x0 KECCAK256 SWAP2 PUSH1 0x0 JUMPDEST PUSH1 0x1F NOT DUP6 AND DUP2 LT PUSH3 0x7B7 JUMPI POP DUP4 PUSH1 0x80 SWAP4 PUSH3 0x2C5 SWAP8 SWAP7 SWAP4 PUSH1 0x1 SWAP4 PUSH1 0x4 SWAP8 PUSH1 0x1F NOT DUP2 AND LT PUSH3 0x5EF JUMPI POP POP POP DUP2 SHL ADD PUSH1 0x1 DUP6 ADD SSTORE PUSH3 0x29A JUMP JUMPDEST SWAP2 SWAP3 PUSH1 0x20 PUSH1 0x1 DUP2 SWAP3 DUP7 DUP6 ADD MLOAD DUP2 SSTORE ADD SWAP5 ADD SWAP3 ADD PUSH3 0x77D JUMP JUMPDEST PUSH1 0x1 DUP6 ADD PUSH1 0x0 MSTORE PUSH1 0x20 PUSH1 0x0 KECCAK256 PUSH1 0x1F DUP5 ADD PUSH1 0x5 SHR DUP2 ADD PUSH1 0x20 DUP6 LT PUSH3 0x814 JUMPI JUMPDEST PUSH1 0x1F DUP4 ADD PUSH1 0x5 SHR DUP3 ADD DUP2 LT PUSH3 0x807 JUMPI POP POP PUSH3 0x25B JUMP JUMPDEST PUSH1 0x0 DUP2 SSTORE PUSH1 0x1 ADD PUSH3 0x7EF JUMP JUMPDEST POP DUP1 PUSH3 0x7EF JUMP JUMPDEST SWAP1 PUSH1 0x7F AND SWAP1 PUSH3 0x247 JUMP JUMPDEST ADD MLOAD SWAP1 POP CODESIZE DUP1 PUSH3 0x207 JUMP JUMPDEST SWAP3 POP DUP5 PUSH1 0x0 MSTORE PUSH1 0x20 PUSH1 0x0 KECCAK256 SWAP1 PUSH1 0x0 SWAP4 JUMPDEST PUSH1 0x1F NOT DUP5 AND DUP6 LT PUSH3 0x888 JUMPI PUSH1 0x1 SWAP5 POP DUP4 PUSH1 0x1F NOT DUP2 AND LT PUSH3 0x86E JUMPI JUMPDEST POP POP POP DUP2 SHL ADD DUP3 SSTORE PUSH3 0x21C JUMP JUMPDEST ADD MLOAD PUSH1 0x0 NOT PUSH1 0xF8 DUP5 PUSH1 0x3 SHL AND SHR NOT AND SWAP1 SSTORE CODESIZE DUP1 DUP1 PUSH3 0x860 JUMP JUMPDEST DUP2 DUP2 ADD MLOAD DUP4 SSTORE PUSH1 0x20 SWAP5 DUP6 ADD SWAP5 PUSH1 0x1 SWAP1 SWAP4 ADD SWAP3 SWAP1 SWAP2 ADD SWAP1 PUSH3 0x843 JUMP JUMPDEST SWAP1 SWAP2 POP DUP5 PUSH1 0x0 MSTORE PUSH1 0x20 PUSH1 0x0 KECCAK256 PUSH1 0x1F DUP5 ADD PUSH1 0x5 SHR DUP2 ADD PUSH1 0x20 DUP6 LT PUSH3 0x8F1 JUMPI JUMPDEST SWAP1 DUP5 SWAP4 SWAP3 SWAP2 JUMPDEST PUSH1 0x1F DUP4 ADD PUSH1 0x5 SHR DUP3 ADD DUP2 LT PUSH3 0x8E1 JUMPI POP POP PUSH3 0x1EE JUMP JUMPDEST PUSH1 0x0 DUP2 SSTORE DUP6 SWAP5 POP PUSH1 0x1 ADD PUSH3 0x8C9 JUMP JUMPDEST POP DUP1 PUSH3 0x8C3 JUMP JUMPDEST SWAP2 PUSH1 0x7F AND SWAP2 PUSH3 0x1D8 JUMP JUMPDEST DUP1 PUSH1 0x0 MSTORE PUSH1 0x1 PUSH1 0x20 MSTORE PUSH1 0x40 PUSH1 0x0 KECCAK256 CALLER PUSH1 0x0 MSTORE PUSH1 0x20 MSTORE PUSH1 0x40 PUSH1 0x0 KECCAK256 PUSH1 0x1 PUSH1 0xFF NOT DUP3 SLOAD AND OR SWAP1 SSTORE CALLER SWAP1 CALLER SWAP1 PUSH1 0x0 DUP1 MLOAD PUSH1 0x20 PUSH3 0x292B DUP4 CODECOPY DUP2 MLOAD SWAP2 MSTORE PUSH1 0x0 DUP1 LOG4 CODESIZE PUSH3 0xDE JUMP JUMPDEST CALLER PUSH1 0x0 DUP2 DUP2 MSTORE PUSH1 0x0 DUP1 MLOAD PUSH1 0x20 PUSH3 0x294B DUP4 CODECOPY DUP2 MLOAD SWAP2 MSTORE PUSH1 0x20 MSTORE PUSH1 0x40 DUP2 KECCAK256 DUP1 SLOAD PUSH1 0xFF NOT AND PUSH1 0x1 OR SWAP1 SSTORE DUP2 SWAP1 PUSH1 0x0 DUP1 MLOAD PUSH1 0x20 PUSH3 0x292B DUP4 CODECOPY DUP2 MLOAD SWAP2 MSTORE DUP2 DUP1 LOG4 PUSH3 0x83 JUMP JUMPDEST PUSH1 0x0 DUP1 REVERT JUMPDEST PUSH1 0xA0 DUP2 ADD SWAP1 DUP2 LT PUSH1 0x1 PUSH1 0x1 PUSH1 0x40 SHL SUB DUP3 GT OR PUSH3 0x581 JUMPI PUSH1 0x40 MSTORE JUMP JUMPDEST PUSH1 0x40 DUP2 ADD SWAP1 DUP2 LT PUSH1 0x1 PUSH1 0x1 PUSH1 0x40 SHL SUB DUP3 GT OR PUSH3 0x581 JUMPI PUSH1 0x40 MSTORE JUMP JUMPDEST PUSH1 0x1F SWAP1 SWAP2 ADD PUSH1 0x1F NOT AND DUP2 ADD SWAP1 PUSH1 0x1 PUSH1 0x1 PUSH1 0x40 SHL SUB DUP3 GT SWAP1 DUP3 LT OR PUSH3 0x581 JUMPI PUSH1 0x40 MSTORE JUMP JUMPDEST PUSH1 0x0 JUMPDEST DUP4 DUP2 LT PUSH3 0xA00 JUMPI POP POP PUSH1 0x0 SWAP2 ADD MSTORE JUMP JUMPDEST DUP2 DUP2 ADD MLOAD DUP4 DUP3 ADD MSTORE PUSH1 0x20 ADD PUSH3 0x9EF JUMP JUMPDEST SWAP1 PUSH1 0x20 SWAP2 PUSH3 0xA2C DUP2 MLOAD DUP1 SWAP3 DUP2 DUP6 MSTORE DUP6 DUP1 DUP7 ADD SWAP2 ADD PUSH3 0x9EC JUMP JUMPDEST PUSH1 0x1F ADD PUSH1 0x1F NOT AND ADD ADD SWAP1 JUMP INVALID PUSH1 0x80 DUP1 PUSH1 0x40 MSTORE PUSH1 0x4 CALLDATASIZE LT ISZERO PUSH2 0x13 JUMPI PUSH1 0x0 DUP1 REVERT JUMPDEST PUSH1 0x0 CALLDATALOAD PUSH1 0xE0 SHR SWAP1 DUP2 PUSH4 0x1FFC9A7 EQ PUSH2 0x173E JUMPI POP DUP1 PUSH4 0x66E9481 EQ PUSH2 0x16F8 JUMPI DUP1 PUSH4 0x1077A3F9 EQ PUSH2 0x160C JUMPI DUP1 PUSH4 0x248A9CA3 EQ PUSH2 0x15DD JUMPI DUP1 PUSH4 0x2A4C22F6 EQ PUSH2 0x15A6 JUMPI DUP1 PUSH4 0x2F2FF15D EQ PUSH2 0x1501 JUMPI DUP1 PUSH4 0x36568ABE EQ PUSH2 0x147D JUMPI DUP1 PUSH4 0x3E001596 EQ PUSH2 0xD29 JUMPI DUP1 PUSH4 0x3F8D217B EQ PUSH2 0xCD8 JUMPI DUP1 PUSH4 0x441C8423 EQ PUSH2 0xCBA JUMPI DUP1 PUSH4 0x57EA3E7D EQ PUSH2 0xC5E JUMPI DUP1 PUSH4 0x752A1FC3 EQ PUSH2 0xC40 JUMPI DUP1 PUSH4 0x7739329E EQ PUSH2 0xC17 JUMPI DUP1 PUSH4 0x7A5A6CDC EQ PUSH2 0x948 JUMPI DUP1 PUSH4 0x8CCAE4E2 EQ PUSH2 0x92A JUMPI DUP1 PUSH4 0x91D14854 EQ PUSH2 0x8EA JUMPI DUP1 PUSH4 0xA1DB3D99 EQ PUSH2 0x511 JUMPI DUP1 PUSH4 0xA217FDDF EQ PUSH2 0x4F5 JUMPI DUP1 PUSH4 0xA518822F EQ PUSH2 0x46C JUMPI DUP1 PUSH4 0xB471EB67 EQ PUSH2 0x32C JUMPI DUP1 PUSH4 0xD1CE59A7 EQ PUSH2 0x287 JUMPI DUP1 PUSH4 0xD547741F EQ PUSH2 0x254 JUMPI DUP1 PUSH4 0xE9207600 EQ PUSH2 0x167 JUMPI PUSH4 0xF5B541A6 EQ PUSH2 0x127 JUMPI PUSH1 0x0 DUP1 REVERT JUMPDEST CALLVALUE PUSH2 0x162 JUMPI PUSH1 0x0 CALLDATASIZE PUSH1 0x3 NOT ADD SLT PUSH2 0x162 JUMPI PUSH1 0x20 PUSH1 0x40 MLOAD PUSH32 0x97667070C54EF182B0F5858B034BEAC1B6F3089AA2D3188BB1E8929F4FA9B929 DUP2 MSTORE RETURN JUMPDEST PUSH1 0x0 DUP1 REVERT JUMPDEST CALLVALUE PUSH2 0x162 JUMPI PUSH1 0x20 DUP1 PUSH1 0x3 NOT CALLDATASIZE ADD SLT PUSH2 0x162 JUMPI PUSH1 0x0 PUSH1 0x60 PUSH1 0x40 MLOAD PUSH2 0x189 DUP2 PUSH2 0x1851 JUMP JUMPDEST DUP2 DUP2 MSTORE DUP3 DUP5 DUP3 ADD MSTORE DUP3 PUSH1 0x40 DUP3 ADD MSTORE ADD MSTORE PUSH1 0x4 CALLDATALOAD PUSH1 0x0 MSTORE PUSH1 0x5 DUP2 MSTORE PUSH1 0x40 PUSH1 0x0 KECCAK256 PUSH1 0x40 MLOAD SWAP1 PUSH2 0x1B5 DUP3 PUSH2 0x1851 JUMP JUMPDEST PUSH1 0x40 MLOAD SWAP3 DUP4 DUP2 DUP4 SLOAD SWAP6 DUP7 DUP2 MSTORE ADD SWAP5 DUP4 PUSH1 0x0 MSTORE DUP3 PUSH1 0x0 KECCAK256 SWAP1 PUSH1 0x0 JUMPDEST DUP2 DUP2 LT PUSH2 0x240 JUMPI POP POP POP PUSH2 0x1E7 DUP2 PUSH1 0x80 SWAP7 SUB DUP3 PUSH2 0x1887 JUMP JUMPDEST DUP4 MSTORE PUSH1 0x1 DUP3 ADD SLOAD SWAP2 DUP2 DUP5 ADD SWAP3 DUP4 MSTORE PUSH2 0x229 PUSH1 0x3 PUSH1 0x2 DUP4 ADD SLOAD SWAP3 PUSH1 0x40 DUP8 ADD SWAP4 DUP5 MSTORE ADD SLOAD SWAP3 PUSH1 0x60 DUP7 ADD SWAP4 DUP5 MSTORE PUSH1 0x40 MLOAD SWAP7 DUP8 SWAP7 DUP3 DUP9 MSTORE MLOAD SWAP2 DUP8 ADD MSTORE PUSH1 0xA0 DUP7 ADD SWAP1 PUSH2 0x19DE JUMP JUMPDEST SWAP3 MLOAD PUSH1 0x40 DUP6 ADD MSTORE MLOAD PUSH1 0x60 DUP5 ADD MSTORE MLOAD PUSH1 0x80 DUP4 ADD MSTORE SUB SWAP1 RETURN JUMPDEST DUP3 SLOAD DUP9 MSTORE SWAP7 DUP5 ADD SWAP7 PUSH1 0x1 SWAP3 DUP4 ADD SWAP3 ADD PUSH2 0x1CF JUMP JUMPDEST CALLVALUE PUSH2 0x162 JUMPI PUSH2 0x285 PUSH2 0x265 CALLDATASIZE PUSH2 0x1810 JUMP JUMPDEST SWAP1 DUP1 PUSH1 0x0 MSTORE PUSH1 0x1 PUSH1 0x20 MSTORE PUSH2 0x280 PUSH1 0x1 PUSH1 0x40 PUSH1 0x0 KECCAK256 ADD SLOAD PUSH2 0x1BDE JUMP JUMPDEST PUSH2 0x1CE7 JUMP JUMPDEST STOP JUMPDEST CALLVALUE PUSH2 0x162 JUMPI PUSH1 0x0 CALLDATASIZE PUSH1 0x3 NOT ADD SLT PUSH2 0x162 JUMPI PUSH1 0x7 SLOAD PUSH1 0x8 SLOAD SWAP1 PUSH1 0x9 SLOAD PUSH1 0x0 SWAP1 PUSH1 0x0 PUSH1 0x4 SLOAD SWAP1 JUMPDEST DUP2 DUP2 LT PUSH2 0x2E1 JUMPI POP POP SWAP1 PUSH2 0x2DD SWAP2 PUSH1 0x40 MLOAD SWAP5 DUP6 SWAP5 DUP6 SWAP1 SWAP5 SWAP4 SWAP3 PUSH1 0x60 SWAP3 PUSH1 0x80 DUP4 ADD SWAP7 DUP4 MSTORE PUSH1 0x20 DUP4 ADD MSTORE PUSH1 0x40 DUP3 ADD MSTORE ADD MSTORE JUMP JUMPDEST SUB SWAP1 RETURN JUMPDEST PUSH2 0x2EA DUP2 PUSH2 0x17D9 JUMP JUMPDEST SWAP1 SLOAD PUSH1 0x3 SWAP2 DUP3 SHL SHR PUSH1 0x0 MSTORE PUSH1 0x20 MSTORE PUSH1 0xFF PUSH1 0x4 PUSH1 0x40 PUSH1 0x0 KECCAK256 ADD SLOAD AND PUSH2 0x317 JUMPI JUMPDEST PUSH2 0x312 SWAP1 PUSH2 0x1E96 JUMP JUMPDEST PUSH2 0x2AC JUMP JUMPDEST SWAP3 PUSH2 0x324 PUSH2 0x312 SWAP2 PUSH2 0x1E96 JUMP JUMPDEST SWAP4 SWAP1 POP PUSH2 0x309 JUMP JUMPDEST CALLVALUE PUSH2 0x162 JUMPI PUSH1 0x0 CALLDATASIZE PUSH1 0x3 NOT ADD SLT PUSH2 0x162 JUMPI PUSH1 0x0 DUP1 PUSH1 0x4 SLOAD SWAP1 JUMPDEST DUP2 DUP2 LT PUSH2 0x421 JUMPI POP PUSH2 0x356 DUP3 PUSH2 0x1EA5 JUMP JUMPDEST SWAP2 PUSH2 0x364 PUSH1 0x40 MLOAD SWAP4 DUP5 PUSH2 0x1887 JUMP JUMPDEST DUP1 DUP4 MSTORE PUSH2 0x373 PUSH1 0x1F NOT SWAP2 PUSH2 0x1EA5 JUMP JUMPDEST ADD SWAP1 PUSH1 0x20 SWAP2 CALLDATASIZE DUP4 DUP6 ADD CALLDATACOPY PUSH1 0x0 DUP1 JUMPDEST DUP3 DUP3 LT PUSH2 0x39F JUMPI POP POP POP PUSH2 0x2DD PUSH1 0x40 MLOAD SWAP3 DUP3 DUP5 SWAP4 DUP5 MSTORE DUP4 ADD SWAP1 PUSH2 0x19DE JUMP JUMPDEST PUSH2 0x3A8 DUP3 PUSH2 0x17D9 JUMP JUMPDEST SWAP1 SLOAD PUSH1 0x3 SWAP2 DUP3 SHL SHR PUSH1 0x0 MSTORE DUP1 DUP6 MSTORE PUSH1 0xFF PUSH1 0x4 PUSH1 0x40 PUSH1 0x0 KECCAK256 ADD SLOAD AND PUSH2 0x3D8 JUMPI JUMPDEST POP SWAP1 PUSH2 0x3D2 SWAP1 PUSH2 0x1E96 JUMP JUMPDEST SWAP1 PUSH2 0x381 JUMP JUMPDEST PUSH2 0x3E1 DUP4 PUSH2 0x17D9 JUMP JUMPDEST SWAP1 SLOAD SWAP2 SHL SHR DUP6 MLOAD DUP3 LT ISZERO PUSH2 0x40B JUMPI DUP2 PUSH2 0x405 SWAP2 DUP7 PUSH2 0x3D2 SWAP5 PUSH1 0x5 SHL DUP10 ADD ADD MSTORE PUSH2 0x1E96 JUMP JUMPDEST SWAP1 PUSH2 0x3C7 JUMP JUMPDEST PUSH4 0x4E487B71 PUSH1 0xE0 SHL PUSH1 0x0 MSTORE PUSH1 0x32 PUSH1 0x4 MSTORE PUSH1 0x24 PUSH1 0x0 REVERT JUMPDEST PUSH2 0x42A DUP2 PUSH2 0x17D9 JUMP JUMPDEST SWAP1 SLOAD PUSH1 0x3 SWAP2 DUP3 SHL SHR PUSH1 0x0 MSTORE PUSH1 0x20 MSTORE PUSH1 0xFF PUSH1 0x4 PUSH1 0x40 PUSH1 0x0 KECCAK256 ADD SLOAD AND PUSH2 0x457 JUMPI JUMPDEST PUSH2 0x452 SWAP1 PUSH2 0x1E96 JUMP JUMPDEST PUSH2 0x345 JUMP JUMPDEST SWAP2 PUSH2 0x464 PUSH2 0x452 SWAP2 PUSH2 0x1E96 JUMP JUMPDEST SWAP3 SWAP1 POP PUSH2 0x449 JUMP JUMPDEST CALLVALUE PUSH2 0x162 JUMPI PUSH1 0x20 CALLDATASIZE PUSH1 0x3 NOT ADD SLT PUSH2 0x162 JUMPI PUSH1 0x4 CALLDATALOAD PUSH1 0x0 MSTORE PUSH1 0x3 PUSH1 0x20 MSTORE PUSH2 0x4D1 PUSH1 0x40 PUSH1 0x0 KECCAK256 PUSH2 0x499 DUP2 PUSH2 0x1938 JUMP JUMPDEST SWAP1 PUSH2 0x4A6 PUSH1 0x1 DUP3 ADD PUSH2 0x1938 JUMP JUMPDEST PUSH1 0x2 DUP3 ADD SLOAD SWAP2 PUSH2 0x4DF PUSH1 0xFF PUSH1 0x4 PUSH1 0x3 DUP5 ADD SLOAD SWAP4 ADD SLOAD AND SWAP3 PUSH1 0x40 MLOAD SWAP7 DUP8 SWAP7 PUSH1 0xA0 DUP9 MSTORE PUSH1 0xA0 DUP9 ADD SWAP1 PUSH2 0x17B4 JUMP JUMPDEST SWAP1 DUP7 DUP3 SUB PUSH1 0x20 DUP9 ADD MSTORE PUSH2 0x17B4 JUMP JUMPDEST SWAP3 PUSH1 0x40 DUP6 ADD MSTORE PUSH1 0x60 DUP5 ADD MSTORE ISZERO ISZERO PUSH1 0x80 DUP4 ADD MSTORE SUB SWAP1 RETURN JUMPDEST CALLVALUE PUSH2 0x162 JUMPI PUSH1 0x0 CALLDATASIZE PUSH1 0x3 NOT ADD SLT PUSH2 0x162 JUMPI PUSH1 0x20 PUSH1 0x40 MLOAD PUSH1 0x0 DUP2 MSTORE RETURN JUMPDEST CALLVALUE PUSH2 0x162 JUMPI PUSH1 0x80 CALLDATASIZE PUSH1 0x3 NOT ADD SLT PUSH2 0x162 JUMPI PUSH1 0x4 CALLDATALOAD PUSH1 0x1 PUSH1 0x1 PUSH1 0x40 SHL SUB DUP2 GT PUSH2 0x162 JUMPI PUSH2 0x541 SWAP1 CALLDATASIZE SWAP1 PUSH1 0x4 ADD PUSH2 0x18A8 JUMP JUMPDEST PUSH1 0x24 CALLDATALOAD PUSH1 0x1 PUSH1 0x1 PUSH1 0x40 SHL SUB DUP2 GT PUSH2 0x162 JUMPI PUSH2 0x560 SWAP1 CALLDATASIZE SWAP1 PUSH1 0x4 ADD PUSH2 0x18A8 JUMP JUMPDEST SWAP1 PUSH2 0x569 PUSH2 0x1A12 JUMP JUMPDEST PUSH1 0x40 MLOAD PUSH1 0x20 DUP2 ADD SWAP1 PUSH2 0x5A6 PUSH1 0x20 DUP3 DUP6 MLOAD PUSH2 0x586 DUP2 DUP8 DUP6 DUP11 ADD PUSH2 0x1791 JUMP JUMPDEST DUP2 ADD DUP8 MLOAD SWAP1 PUSH2 0x59A DUP3 DUP6 DUP4 ADD DUP7 DUP13 ADD PUSH2 0x1791 JUMP JUMPDEST ADD SUB DUP1 DUP5 MSTORE ADD DUP3 PUSH2 0x1887 JUMP JUMPDEST MLOAD SWAP1 KECCAK256 SWAP2 PUSH1 0x40 MLOAD PUSH2 0x5B6 DUP2 PUSH2 0x1836 JUMP JUMPDEST DUP3 DUP2 MSTORE DUP2 PUSH1 0x20 DUP3 ADD MSTORE PUSH1 0x44 CALLDATALOAD PUSH1 0x40 DUP3 ADD MSTORE PUSH1 0x64 CALLDATALOAD PUSH1 0x60 DUP3 ADD MSTORE PUSH1 0x1 PUSH1 0x80 DUP3 ADD MSTORE DUP4 PUSH1 0x0 MSTORE PUSH1 0x3 PUSH1 0x20 MSTORE PUSH1 0x40 PUSH1 0x0 KECCAK256 DUP2 MLOAD DUP1 MLOAD SWAP1 PUSH1 0x1 PUSH1 0x1 PUSH1 0x40 SHL SUB DUP3 GT PUSH2 0x746 JUMPI DUP2 SWAP1 PUSH2 0x603 DUP5 SLOAD PUSH2 0x18FE JUMP JUMPDEST PUSH1 0x1F DUP2 GT PUSH2 0x89A JUMPI JUMPDEST POP PUSH1 0x20 SWAP1 PUSH1 0x1F DUP4 GT PUSH1 0x1 EQ PUSH2 0x82E JUMPI PUSH1 0x0 SWAP3 PUSH2 0x823 JUMPI JUMPDEST POP POP DUP2 PUSH1 0x1 SHL SWAP2 PUSH1 0x0 NOT SWAP1 PUSH1 0x3 SHL SHR NOT AND OR DUP2 SSTORE JUMPDEST PUSH1 0x20 DUP3 ADD MLOAD DUP1 MLOAD SWAP1 PUSH1 0x1 PUSH1 0x1 PUSH1 0x40 SHL SUB DUP3 GT PUSH2 0x746 JUMPI PUSH2 0x65B PUSH1 0x1 DUP5 ADD SLOAD PUSH2 0x18FE JUMP JUMPDEST PUSH1 0x1F DUP2 GT PUSH2 0x7DC JUMPI JUMPDEST POP PUSH1 0x20 SWAP1 PUSH1 0x1F DUP4 GT PUSH1 0x1 EQ PUSH2 0x767 JUMPI SWAP2 DUP1 PUSH1 0x80 SWAP5 SWAP3 PUSH1 0x4 SWAP5 PUSH1 0x0 SWAP3 PUSH2 0x75C JUMPI JUMPDEST POP POP DUP2 PUSH1 0x1 SHL SWAP2 PUSH1 0x0 NOT SWAP1 PUSH1 0x3 SHL SHR NOT AND OR PUSH1 0x1 DUP3 ADD SSTORE JUMPDEST PUSH1 0x40 DUP5 ADD MLOAD PUSH1 0x2 DUP3 ADD SSTORE PUSH1 0x60 DUP5 ADD MLOAD PUSH1 0x3 DUP3 ADD SSTORE ADD SWAP2 ADD MLOAD ISZERO ISZERO PUSH1 0xFF DUP1 NOT DUP4 SLOAD AND SWAP2 AND OR SWAP1 SSTORE PUSH1 0x4 SLOAD SWAP2 PUSH1 0x1 PUSH1 0x40 SHL DUP4 LT ISZERO PUSH2 0x746 JUMPI PUSH2 0x741 PUSH2 0x733 SWAP3 PUSH2 0x70A DUP6 PUSH1 0x1 PUSH32 0xA747564DB1669E731BDD24EE999CB174E702CA54B1EF5F7D530164D95CE4C635 SWAP8 ADD PUSH1 0x4 SSTORE PUSH2 0x17D9 JUMP JUMPDEST DUP2 SLOAD SWAP1 PUSH1 0x3 SHL SWAP1 DUP9 DUP3 SHL SWAP2 PUSH1 0x0 NOT SWAP1 SHL NOT AND OR SWAP1 SSTORE PUSH1 0x40 MLOAD SWAP4 DUP5 SWAP4 PUSH1 0x40 DUP6 MSTORE PUSH1 0x40 DUP6 ADD SWAP1 PUSH2 0x17B4 JUMP JUMPDEST SWAP1 DUP4 DUP3 SUB PUSH1 0x20 DUP6 ADD MSTORE PUSH2 0x17B4 JUMP JUMPDEST SUB SWAP1 LOG2 STOP JUMPDEST PUSH4 0x4E487B71 PUSH1 0xE0 SHL PUSH1 0x0 MSTORE PUSH1 0x41 PUSH1 0x4 MSTORE PUSH1 0x24 PUSH1 0x0 REVERT JUMPDEST ADD MLOAD SWAP1 POP DUP10 DUP1 PUSH2 0x684 JUMP JUMPDEST SWAP1 PUSH1 0x1 DUP5 ADD PUSH1 0x0 MSTORE PUSH1 0x20 PUSH1 0x0 KECCAK256 SWAP2 PUSH1 0x0 JUMPDEST PUSH1 0x1F NOT DUP6 AND DUP2 LT PUSH2 0x7C4 JUMPI POP SWAP3 PUSH1 0x80 SWAP5 SWAP3 PUSH1 0x1 SWAP3 PUSH1 0x4 SWAP6 DUP4 PUSH1 0x1F NOT DUP2 AND LT PUSH2 0x7AB JUMPI JUMPDEST POP POP POP DUP2 SHL ADD PUSH1 0x1 DUP3 ADD SSTORE PUSH2 0x69C JUMP JUMPDEST ADD MLOAD PUSH1 0x0 NOT PUSH1 0xF8 DUP5 PUSH1 0x3 SHL AND SHR NOT AND SWAP1 SSTORE DUP10 DUP1 DUP1 PUSH2 0x79B JUMP JUMPDEST SWAP2 SWAP3 PUSH1 0x20 PUSH1 0x1 DUP2 SWAP3 DUP7 DUP6 ADD MLOAD DUP2 SSTORE ADD SWAP5 ADD SWAP3 ADD PUSH2 0x778 JUMP JUMPDEST PUSH1 0x1 DUP5 ADD PUSH1 0x0 MSTORE PUSH1 0x20 PUSH1 0x0 KECCAK256 PUSH1 0x1F DUP5 ADD PUSH1 0x5 SHR DUP2 ADD PUSH1 0x20 DUP6 LT PUSH2 0x81C JUMPI JUMPDEST PUSH1 0x1F DUP4 ADD PUSH1 0x5 SHR DUP3 ADD DUP2 LT PUSH2 0x810 JUMPI POP POP PUSH2 0x664 JUMP JUMPDEST PUSH1 0x0 DUP2 SSTORE PUSH1 0x1 ADD PUSH2 0x7FA JUMP JUMPDEST POP DUP1 PUSH2 0x7FA JUMP JUMPDEST ADD MLOAD SWAP1 POP DUP8 DUP1 PUSH2 0x623 JUMP JUMPDEST SWAP3 POP DUP4 PUSH1 0x0 MSTORE PUSH1 0x20 PUSH1 0x0 KECCAK256 SWAP1 PUSH1 0x0 SWAP4 JUMPDEST PUSH1 0x1F NOT DUP5 AND DUP6 LT PUSH2 0x87F JUMPI PUSH1 0x1 SWAP5 POP DUP4 PUSH1 0x1F NOT DUP2 AND LT PUSH2 0x866 JUMPI JUMPDEST POP POP POP DUP2 SHL ADD DUP2 SSTORE PUSH2 0x638 JUMP JUMPDEST ADD MLOAD PUSH1 0x0 NOT PUSH1 0xF8 DUP5 PUSH1 0x3 SHL AND SHR NOT AND SWAP1 SSTORE DUP8 DUP1 DUP1 PUSH2 0x859 JUMP JUMPDEST DUP2 DUP2 ADD MLOAD DUP4 SSTORE PUSH1 0x20 SWAP5 DUP6 ADD SWAP5 PUSH1 0x1 SWAP1 SWAP4 ADD SWAP3 SWAP1 SWAP2 ADD SWAP1 PUSH2 0x83E JUMP JUMPDEST SWAP1 SWAP2 POP DUP4 PUSH1 0x0 MSTORE PUSH1 0x20 PUSH1 0x0 KECCAK256 PUSH1 0x1F DUP5 ADD PUSH1 0x5 SHR DUP2 ADD PUSH1 0x20 DUP6 LT PUSH2 0x8E3 JUMPI JUMPDEST SWAP1 DUP5 SWAP4 SWAP3 SWAP2 JUMPDEST PUSH1 0x1F DUP4 ADD PUSH1 0x5 SHR DUP3 ADD DUP2 LT PUSH2 0x8D4 JUMPI POP POP PUSH2 0x60C JUMP JUMPDEST PUSH1 0x0 DUP2 SSTORE DUP6 SWAP5 POP PUSH1 0x1 ADD PUSH2 0x8BE JUMP JUMPDEST POP DUP1 PUSH2 0x8B8 JUMP JUMPDEST CALLVALUE PUSH2 0x162 JUMPI PUSH2 0x8F8 CALLDATASIZE PUSH2 0x1810 JUMP JUMPDEST SWAP1 PUSH1 0x0 MSTORE PUSH1 0x1 PUSH1 0x20 MSTORE PUSH1 0x40 PUSH1 0x0 KECCAK256 SWAP1 PUSH1 0x1 DUP1 PUSH1 0xA0 SHL SUB AND PUSH1 0x0 MSTORE PUSH1 0x20 MSTORE PUSH1 0x20 PUSH1 0xFF PUSH1 0x40 PUSH1 0x0 KECCAK256 SLOAD AND PUSH1 0x40 MLOAD SWAP1 ISZERO ISZERO DUP2 MSTORE RETURN JUMPDEST CALLVALUE PUSH2 0x162 JUMPI PUSH1 0x0 CALLDATASIZE PUSH1 0x3 NOT ADD SLT PUSH2 0x162 JUMPI PUSH1 0x20 PUSH1 0x8 SLOAD PUSH1 0x40 MLOAD SWAP1 DUP2 MSTORE RETURN JUMPDEST CALLVALUE PUSH2 0x162 JUMPI PUSH1 0x60 CALLDATASIZE PUSH1 0x3 NOT ADD SLT PUSH2 0x162 JUMPI CALLER PUSH1 0x0 SWAP1 DUP2 MSTORE PUSH32 0x31C1E66639F421F1853AEEFE8AD6B62A3B96F3287EFE23106923CD924AA025C2 PUSH1 0x20 SWAP1 DUP2 MSTORE PUSH1 0x40 SWAP1 SWAP2 KECCAK256 SLOAD PUSH1 0x4 CALLDATALOAD SWAP2 PUSH1 0x24 DUP1 CALLDATALOAD SWAP3 PUSH1 0x44 CALLDATALOAD SWAP3 SWAP2 SWAP1 PUSH32 0x97667070C54EF182B0F5858B034BEAC1B6F3089AA2D3188BB1E8929F4FA9B929 SWAP1 PUSH1 0x1 SWAP1 PUSH1 0xFF AND ISZERO PUSH2 0xA61 JUMPI POP POP DUP5 PUSH1 0x0 MSTORE PUSH1 0x3 DUP3 MSTORE PUSH1 0xFF PUSH1 0x4 PUSH1 0x40 PUSH1 0x0 KECCAK256 ADD SLOAD AND ISZERO PUSH2 0xA2B JUMPI POP SWAP2 PUSH1 0x40 SWAP2 PUSH32 0xEA41880A457F621D2BED30AA88AB375F092A03920520D6614AC4F6CB1258F312 SWAP4 DUP6 PUSH1 0x0 MSTORE PUSH1 0x3 DUP2 MSTORE DUP2 PUSH1 0x3 DUP6 PUSH1 0x0 KECCAK256 DUP6 PUSH1 0x2 DUP3 ADD SSTORE ADD SSTORE DUP4 MLOAD SWAP3 DUP4 MSTORE DUP3 ADD MSTORE LOG2 STOP JUMPDEST SWAP1 PUSH1 0x10 PUSH1 0x64 SWAP3 PUSH1 0x40 MLOAD SWAP3 PUSH3 0x461BCD PUSH1 0xE5 SHL DUP5 MSTORE PUSH1 0x4 DUP5 ADD MSTORE DUP3 ADD MSTORE PUSH16 0x56656E7565206E6F7420616374697665 PUSH1 0x80 SHL PUSH1 0x44 DUP3 ADD MSTORE REVERT JUMPDEST PUSH2 0xA6D SWAP4 SWAP3 SWAP4 CALLER PUSH2 0x1D7B JUMP JUMPDEST SWAP2 PUSH1 0x40 MLOAD SWAP1 PUSH2 0xA7B DUP3 PUSH2 0x1851 JUMP JUMPDEST PUSH1 0x42 DUP3 MSTORE DUP5 DUP3 ADD SWAP3 PUSH1 0x60 CALLDATASIZE DUP6 CALLDATACOPY DUP3 MLOAD ISZERO PUSH2 0xC02 JUMPI PUSH1 0x30 DUP5 MSTORE8 DUP3 MLOAD DUP2 LT ISZERO PUSH2 0xC02 JUMPI PUSH1 0x78 PUSH1 0x21 DUP5 ADD MSTORE8 PUSH1 0x41 SWAP1 JUMPDEST DUP1 DUP3 GT PUSH2 0xB94 JUMPI POP POP PUSH2 0xB52 JUMPI PUSH1 0x48 PUSH2 0xB4E SWAP4 PUSH2 0xB23 SWAP4 PUSH2 0xB32 SWAP4 PUSH1 0x40 MLOAD SWAP6 DUP7 SWAP4 PUSH23 0x20B1B1B2B9B9A1B7B73A3937B61D1030B1B1B7BAB73A1 PUSH1 0x4D SHL DUP11 DUP7 ADD MSTORE PUSH2 0xAFA DUP2 MLOAD DUP1 SWAP3 DUP13 PUSH1 0x37 DUP10 ADD SWAP2 ADD PUSH2 0x1791 JUMP JUMPDEST DUP5 ADD SWAP2 PUSH17 0x1034B99036B4B9B9B4B733903937B6329 PUSH1 0x7D SHL PUSH1 0x37 DUP5 ADD MSTORE MLOAD DUP1 SWAP4 DUP7 DUP5 ADD SWAP1 PUSH2 0x1791 JUMP JUMPDEST ADD SUB PUSH1 0x28 DUP2 ADD DUP5 MSTORE ADD DUP3 PUSH2 0x1887 JUMP JUMPDEST PUSH1 0x40 MLOAD SWAP4 DUP5 SWAP4 PUSH3 0x461BCD PUSH1 0xE5 SHL DUP6 MSTORE PUSH1 0x4 DUP6 ADD MSTORE DUP4 ADD SWAP1 PUSH2 0x17B4 JUMP JUMPDEST SUB SWAP1 REVERT JUMPDEST PUSH1 0x64 DUP6 DUP6 PUSH1 0x40 MLOAD SWAP2 PUSH3 0x461BCD PUSH1 0xE5 SHL DUP4 MSTORE DUP2 PUSH1 0x4 DUP5 ADD MSTORE DUP3 ADD MSTORE PUSH32 0x537472696E67733A20686578206C656E67746820696E73756666696369656E74 PUSH1 0x44 DUP3 ADD MSTORE REVERT JUMPDEST SWAP1 SWAP2 PUSH1 0xF DUP2 AND PUSH1 0x10 DUP2 LT ISZERO PUSH2 0xBED JUMPI PUSH16 0x181899199A1A9B1B9C1CB0B131B232B3 PUSH1 0x81 SHL SWAP1 BYTE PUSH2 0xBC3 DUP5 DUP7 PUSH2 0x1D6A JUMP JUMPDEST MSTORE8 PUSH1 0x4 SHR SWAP2 DUP1 ISZERO PUSH2 0xBD8 JUMPI PUSH1 0x0 NOT ADD SWAP1 PUSH2 0xAA7 JUMP JUMPDEST DUP8 PUSH4 0x4E487B71 PUSH1 0xE0 SHL PUSH1 0x0 MSTORE PUSH1 0x11 PUSH1 0x4 MSTORE PUSH1 0x0 REVERT JUMPDEST DUP9 PUSH4 0x4E487B71 PUSH1 0xE0 SHL PUSH1 0x0 MSTORE PUSH1 0x32 PUSH1 0x4 MSTORE PUSH1 0x0 REVERT JUMPDEST DUP7 PUSH4 0x4E487B71 PUSH1 0xE0 SHL PUSH1 0x0 MSTORE PUSH1 0x32 PUSH1 0x4 MSTORE PUSH1 0x0 REVERT JUMPDEST CALLVALUE PUSH2 0x162 JUMPI PUSH1 0x0 CALLDATASIZE PUSH1 0x3 NOT ADD SLT PUSH2 0x162 JUMPI PUSH1 0x2 SLOAD PUSH1 0x40 MLOAD PUSH1 0x1 PUSH1 0x1 PUSH1 0xA0 SHL SUB SWAP1 SWAP2 AND DUP2 MSTORE PUSH1 0x20 SWAP1 RETURN JUMPDEST CALLVALUE PUSH2 0x162 JUMPI PUSH1 0x0 CALLDATASIZE PUSH1 0x3 NOT ADD SLT PUSH2 0x162 JUMPI PUSH1 0x20 PUSH1 0x9 SLOAD PUSH1 0x40 MLOAD SWAP1 DUP2 MSTORE RETURN JUMPDEST CALLVALUE PUSH2 0x162 JUMPI PUSH1 0x20 CALLDATASIZE PUSH1 0x3 NOT ADD SLT PUSH2 0x162 JUMPI PUSH1 0x4 CALLDATALOAD PUSH2 0xC7A PUSH2 0x1A12 JUMP JUMPDEST DUP1 PUSH1 0x0 MSTORE PUSH1 0x3 PUSH1 0x20 MSTORE PUSH1 0x4 PUSH1 0x40 PUSH1 0x0 KECCAK256 ADD PUSH1 0xFF NOT DUP2 SLOAD AND SWAP1 SSTORE PUSH32 0x155BFD8C6D15ED679D9D97CACD610C856B9729FBE7A0470696B49431D9B1CE8D PUSH1 0x0 DUP1 LOG2 STOP JUMPDEST CALLVALUE PUSH2 0x162 JUMPI PUSH1 0x0 CALLDATASIZE PUSH1 0x3 NOT ADD SLT PUSH2 0x162 JUMPI PUSH1 0x20 PUSH1 0x7 SLOAD PUSH1 0x40 MLOAD SWAP1 DUP2 MSTORE RETURN JUMPDEST CALLVALUE PUSH2 0x162 JUMPI PUSH1 0x20 CALLDATASIZE PUSH1 0x3 NOT ADD SLT PUSH2 0x162 JUMPI PUSH1 0x4 CALLDATALOAD PUSH1 0x6 SLOAD DUP2 LT ISZERO PUSH2 0x162 JUMPI PUSH1 0x20 SWAP1 PUSH1 0x6 PUSH1 0x0 MSTORE PUSH32 0xF652222313E28459528D920B65115C16C04F3EFC82AAEDC97BE59F3F377C0D3F ADD SLOAD PUSH1 0x40 MLOAD SWAP1 DUP2 MSTORE RETURN JUMPDEST CALLVALUE PUSH2 0x162 JUMPI PUSH1 0x40 CALLDATASIZE PUSH1 0x3 NOT ADD SLT PUSH2 0x162 JUMPI PUSH1 0x24 CALLDATALOAD PUSH1 0x2 PUSH1 0x0 SLOAD EQ PUSH2 0x1438 JUMPI PUSH1 0x2 PUSH1 0x0 SSTORE PUSH1 0x4 CALLDATALOAD ISZERO PUSH2 0x13FE JUMPI DUP1 ISZERO ISZERO DUP1 PUSH2 0x13F3 JUMPI JUMPDEST ISZERO PUSH2 0x13BB JUMPI PUSH1 0x4 SLOAD PUSH1 0x60 SWAP2 PUSH1 0x0 NOT SWAP2 SWAP1 PUSH1 0x0 JUMPDEST DUP3 DUP2 LT PUSH2 0x12E6 JUMPI POP PUSH1 0x1 LT PUSH2 0x1151 JUMPI JUMPDEST POP DUP2 MLOAD ISZERO PUSH2 0x111B JUMPI PUSH2 0x2710 SWAP1 DUP2 DUP2 LT ISZERO PUSH2 0x110D JUMPI DUP1 DUP3 SUB SWAP2 DUP3 GT PUSH2 0x10F7 JUMPI PUSH1 0x20 PUSH2 0xE89 SWAP3 JUMPDEST DUP5 MLOAD PUSH1 0x1 SUB PUSH2 0x10D4 JUMPI PUSH1 0x40 MLOAD PUSH2 0xDBA DUP2 PUSH2 0x186C JUMP JUMPDEST PUSH1 0x4 DUP2 MSTORE PUSH4 0x62617365 PUSH1 0xE0 SHL DUP4 DUP3 ADD MSTORE SWAP1 JUMPDEST PUSH2 0xDD5 DUP7 PUSH2 0x1E89 JUMP JUMPDEST MLOAD PUSH1 0x0 MSTORE PUSH1 0x3 DUP4 MSTORE PUSH2 0xE77 PUSH1 0x0 PUSH1 0x40 DUP2 KECCAK256 SWAP4 PUSH1 0x40 MLOAD SWAP4 PUSH2 0xDF4 DUP6 PUSH2 0x1836 JUMP JUMPDEST PUSH2 0xDFD DUP7 PUSH2 0x1938 JUMP JUMPDEST DUP6 MSTORE PUSH1 0xFF PUSH1 0x4 PUSH2 0xE0F PUSH1 0x1 DUP10 ADD PUSH2 0x1938 JUMP JUMPDEST SWAP8 DUP9 DUP11 DUP10 ADD MSTORE PUSH1 0x2 DUP2 ADD SLOAD PUSH1 0x40 DUP10 ADD MSTORE PUSH1 0x3 DUP2 ADD SLOAD PUSH1 0x60 DUP10 ADD MSTORE ADD SLOAD AND ISZERO ISZERO PUSH1 0x80 DUP7 ADD MSTORE PUSH2 0xE9B PUSH1 0x1 DUP1 PUSH1 0xA0 SHL SUB PUSH1 0x2 SLOAD AND SWAP6 MLOAD SWAP3 PUSH1 0x40 MLOAD SWAP11 DUP12 SWAP9 DUP10 SWAP8 DUP9 SWAP7 PUSH4 0x458ECFAD PUSH1 0xE1 SHL DUP9 MSTORE CALLER PUSH1 0x4 DUP10 ADD MSTORE PUSH1 0x4 CALLDATALOAD PUSH1 0x24 DUP10 ADD MSTORE PUSH1 0xC0 PUSH1 0x44 DUP10 ADD MSTORE PUSH1 0xC4 DUP9 ADD SWAP1 PUSH2 0x17B4 JUMP JUMPDEST DUP7 DUP2 SUB PUSH1 0x3 NOT ADD PUSH1 0x64 DUP9 ADD MSTORE SWAP1 PUSH2 0x17B4 JUMP JUMPDEST DUP5 DUP2 SUB PUSH1 0x3 NOT ADD PUSH1 0x84 DUP7 ADD MSTORE SWAP1 PUSH2 0x17B4 JUMP JUMPDEST SWAP1 PUSH1 0xA4 DUP4 ADD MSTORE SUB SWAP3 GAS CALL SWAP2 DUP3 ISZERO PUSH2 0x10C8 JUMPI PUSH1 0x0 SWAP3 PUSH2 0x1094 JUMPI JUMPDEST POP PUSH1 0x6 SLOAD PUSH1 0x40 MLOAD PUSH1 0x20 DUP2 ADD SWAP2 CALLER PUSH1 0x60 SHL DUP4 MSTORE PUSH1 0x4 CALLDATALOAD PUSH1 0x34 DUP4 ADD MSTORE TIMESTAMP PUSH1 0x54 DUP4 ADD MSTORE PUSH1 0x74 DUP3 ADD MSTORE PUSH1 0x74 DUP2 MSTORE PUSH2 0xEE6 DUP2 PUSH2 0x1836 JUMP JUMPDEST MLOAD SWAP1 KECCAK256 PUSH1 0x40 MLOAD PUSH2 0xEF5 DUP2 PUSH2 0x1851 JUMP JUMPDEST DUP5 DUP2 MSTORE DUP3 PUSH1 0x20 DUP3 ADD MSTORE DUP4 PUSH1 0x40 DUP3 ADD MSTORE TIMESTAMP PUSH1 0x60 DUP3 ADD MSTORE DUP2 PUSH1 0x0 MSTORE PUSH1 0x5 PUSH1 0x20 MSTORE PUSH1 0x40 PUSH1 0x0 KECCAK256 SWAP1 DUP1 MLOAD DUP1 MLOAD SWAP1 PUSH1 0x1 PUSH1 0x1 PUSH1 0x40 SHL SUB DUP3 GT PUSH2 0x746 JUMPI PUSH1 0x1 PUSH1 0x40 SHL DUP3 GT PUSH2 0x746 JUMPI DUP4 SLOAD DUP3 DUP6 SSTORE DUP1 DUP4 LT PUSH2 0x106A JUMPI JUMPDEST POP PUSH1 0x20 ADD DUP4 PUSH1 0x0 MSTORE PUSH1 0x20 PUSH1 0x0 KECCAK256 PUSH1 0x0 JUMPDEST DUP4 DUP2 LT PUSH2 0x1056 JUMPI POP POP POP POP PUSH1 0x60 DUP2 PUSH1 0x20 PUSH1 0x3 SWAP4 ADD MLOAD PUSH1 0x1 DUP6 ADD SSTORE PUSH1 0x40 DUP2 ADD MLOAD PUSH1 0x2 DUP6 ADD SSTORE ADD MLOAD SWAP2 ADD SSTORE PUSH1 0x6 SLOAD SWAP4 PUSH1 0x1 PUSH1 0x40 SHL DUP6 LT ISZERO PUSH2 0x746 JUMPI PUSH1 0x1 DUP6 ADD DUP1 PUSH1 0x6 SSTORE DUP6 LT ISZERO PUSH2 0x40B JUMPI PUSH2 0x1046 PUSH32 0xD01B75CD243BFE91B79845B65B6D03EC6FBB7FE2E536E0F085EE7D891A91EB9E SWAP2 DUP4 PUSH1 0x20 SWAP8 PUSH1 0x6 PUSH1 0x0 MSTORE PUSH32 0xF652222313E28459528D920B65115C16C04F3EFC82AAEDC97BE59F3F377C0D3F ADD SSTORE PUSH2 0xFFB PUSH1 0x4 CALLDATALOAD PUSH1 0x7 SLOAD PUSH2 0x1D5D JUMP JUMPDEST PUSH1 0x7 SSTORE PUSH2 0x100A DUP7 PUSH1 0x8 SLOAD PUSH2 0x1D5D JUMP JUMPDEST PUSH1 0x8 SSTORE PUSH2 0x1018 PUSH1 0x9 SLOAD PUSH2 0x1E96 JUMP JUMPDEST PUSH1 0x9 SSTORE MLOAD SWAP4 PUSH1 0x40 MLOAD SWAP2 DUP3 SWAP2 CALLER SWAP7 DUP9 PUSH1 0x4 CALLDATALOAD DUP6 SWAP1 SWAP5 SWAP4 SWAP3 PUSH1 0x60 SWAP3 PUSH1 0x80 DUP4 ADD SWAP7 DUP4 MSTORE PUSH1 0x20 DUP4 ADD MSTORE PUSH1 0x40 DUP3 ADD MSTORE ADD MSTORE JUMP JUMPDEST SUB SWAP1 LOG3 PUSH1 0x1 PUSH1 0x0 SSTORE PUSH1 0x40 MLOAD SWAP1 DUP2 MSTORE RETURN JUMPDEST PUSH1 0x1 SWAP1 PUSH1 0x20 DUP5 MLOAD SWAP5 ADD SWAP4 DUP2 DUP5 ADD SSTORE ADD PUSH2 0xF54 JUMP JUMPDEST DUP5 PUSH1 0x0 MSTORE PUSH1 0x20 PUSH1 0x0 KECCAK256 SWAP1 DUP4 DUP3 ADD JUMPDEST DUP2 DUP4 ADD DUP2 LT PUSH2 0x1088 JUMPI POP POP PUSH2 0xF44 JUMP JUMPDEST PUSH1 0x0 DUP2 SSTORE PUSH1 0x1 ADD PUSH2 0x1078 JUMP JUMPDEST SWAP1 SWAP2 POP PUSH1 0x20 DUP2 RETURNDATASIZE PUSH1 0x20 GT PUSH2 0x10C0 JUMPI JUMPDEST DUP2 PUSH2 0x10B0 PUSH1 0x20 SWAP4 DUP4 PUSH2 0x1887 JUMP JUMPDEST DUP2 ADD SUB SLT PUSH2 0x162 JUMPI MLOAD SWAP1 DUP4 PUSH2 0xEB4 JUMP JUMPDEST RETURNDATASIZE SWAP2 POP PUSH2 0x10A3 JUMP JUMPDEST PUSH1 0x40 MLOAD RETURNDATASIZE PUSH1 0x0 DUP3 RETURNDATACOPY RETURNDATASIZE SWAP1 REVERT JUMPDEST PUSH1 0x40 MLOAD PUSH2 0x10E0 DUP2 PUSH2 0x186C JUMP JUMPDEST PUSH1 0x5 DUP2 MSTORE PUSH5 0x7261696C73 PUSH1 0xD8 SHL DUP4 DUP3 ADD MSTORE SWAP1 PUSH2 0xDCC JUMP JUMPDEST PUSH4 0x4E487B71 PUSH1 0xE0 SHL PUSH1 0x0 MSTORE PUSH1 0x11 PUSH1 0x4 MSTORE PUSH1 0x24 PUSH1 0x0 REVERT JUMPDEST PUSH2 0xE89 SWAP2 POP PUSH1 0x20 PUSH1 0x0 PUSH2 0xDA5 JUMP JUMPDEST PUSH1 0x40 MLOAD PUSH3 0x461BCD PUSH1 0xE5 SHL DUP2 MSTORE PUSH1 0x20 PUSH1 0x4 DUP3 ADD MSTORE PUSH1 0xE PUSH1 0x24 DUP3 ADD MSTORE PUSH14 0x139BC81C9BDD5D1948199BDD5B99 PUSH1 0x92 SHL PUSH1 0x44 DUP3 ADD MSTORE PUSH1 0x64 SWAP1 REVERT JUMPDEST PUSH1 0x0 JUMPDEST DUP2 DUP2 LT PUSH2 0x1161 JUMPI POP PUSH2 0xD80 JUMP JUMPDEST PUSH1 0x0 JUMPDEST DUP3 DUP2 LT PUSH2 0x117A JUMPI POP PUSH2 0x1175 SWAP1 PUSH2 0x1E96 JUMP JUMPDEST PUSH2 0x1154 JUMP JUMPDEST DUP1 DUP3 EQ PUSH2 0x12DD JUMPI PUSH2 0x118A DUP3 PUSH2 0x17D9 JUMP JUMPDEST SWAP1 SLOAD PUSH2 0x1195 DUP4 PUSH2 0x17D9 JUMP JUMPDEST SWAP2 SWAP1 SLOAD SWAP1 DUP1 DUP5 PUSH1 0x3 SHL SHR PUSH1 0x0 MSTORE PUSH1 0x3 PUSH1 0x20 MSTORE PUSH1 0xFF DUP1 PUSH1 0x4 PUSH1 0x40 PUSH1 0x0 KECCAK256 ADD SLOAD AND ISZERO SWAP1 DUP2 ISZERO PUSH2 0x12C1 JUMPI JUMPDEST POP PUSH2 0x1295 JUMPI DUP1 DUP5 PUSH1 0x3 SHL SHR PUSH1 0x0 MSTORE PUSH1 0x4 CALLDATALOAD PUSH1 0x1 SHR PUSH1 0x2 PUSH1 0x40 PUSH1 0x0 KECCAK256 ADD SLOAD LT DUP1 ISZERO PUSH2 0x12A2 JUMPI JUMPDEST PUSH2 0x1295 JUMPI DUP1 DUP5 PUSH1 0x3 SHL SHR PUSH1 0x0 MSTORE PUSH2 0x1213 PUSH1 0x3 PUSH1 0x40 PUSH1 0x0 KECCAK256 ADD SLOAD DUP4 DUP6 PUSH1 0x3 SHL SHR PUSH1 0x0 MSTORE PUSH1 0x3 PUSH1 0x40 PUSH1 0x0 KECCAK256 ADD SLOAD SWAP1 PUSH2 0x1D5D JUMP JUMPDEST PUSH1 0x1 SHR DUP9 DUP2 LT PUSH2 0x1231 JUMPI JUMPDEST POP POP POP POP POP PUSH2 0x122C SWAP1 PUSH2 0x1E96 JUMP JUMPDEST PUSH2 0x1164 JUMP JUMPDEST SWAP2 SWAP5 SWAP4 SWAP9 POP SWAP2 SWAP7 POP SWAP6 PUSH1 0x40 MLOAD SWAP2 PUSH1 0x60 DUP4 ADD DUP4 DUP2 LT PUSH1 0x1 PUSH1 0x1 PUSH1 0x40 SHL SUB DUP3 GT OR PUSH2 0x746 JUMPI PUSH1 0x40 MSTORE PUSH1 0x2 DUP4 MSTORE PUSH1 0x40 CALLDATASIZE PUSH1 0x20 DUP6 ADD CALLDATACOPY DUP3 SWAP9 PUSH1 0x3 SHL SHR PUSH2 0x1272 DUP4 PUSH2 0x1E89 JUMP JUMPDEST MSTORE DUP2 MLOAD PUSH1 0x1 LT ISZERO PUSH2 0x40B JUMPI PUSH2 0x122C SWAP4 PUSH1 0x40 SWAP2 PUSH1 0x3 SHL SHR SWAP2 ADD MSTORE SWAP1 DUP7 DUP1 DUP1 DUP1 PUSH2 0x121E JUMP JUMPDEST POP POP POP POP PUSH2 0x122C SWAP1 PUSH2 0x1E96 JUMP JUMPDEST POP DUP2 DUP4 PUSH1 0x3 SHL SHR PUSH1 0x0 MSTORE PUSH1 0x4 CALLDATALOAD PUSH1 0x1 SHR PUSH1 0x2 PUSH1 0x40 PUSH1 0x0 KECCAK256 ADD SLOAD LT PUSH2 0x11E2 JUMP JUMPDEST SWAP1 POP DUP3 DUP5 PUSH1 0x3 SHL SHR PUSH1 0x0 MSTORE PUSH1 0x4 PUSH1 0x40 PUSH1 0x0 KECCAK256 ADD SLOAD AND ISZERO DUP11 PUSH2 0x11BD JUMP JUMPDEST PUSH2 0x122C SWAP1 PUSH2 0x1E96 JUMP JUMPDEST PUSH2 0x12EF DUP2 PUSH2 0x17D9 JUMP JUMPDEST SWAP1 SLOAD PUSH1 0x3 SWAP2 DUP3 SHL SHR DUP1 PUSH1 0x0 MSTORE PUSH1 0x20 SWAP1 DUP3 DUP3 MSTORE PUSH1 0x40 PUSH1 0x0 KECCAK256 PUSH1 0x80 PUSH1 0x40 MLOAD SWAP5 PUSH2 0x1315 DUP7 PUSH2 0x1836 JUMP JUMPDEST PUSH2 0x131E DUP4 PUSH2 0x1938 JUMP JUMPDEST DUP7 MSTORE PUSH1 0x1 SWAP6 PUSH2 0x132E DUP8 DUP6 ADD PUSH2 0x1938 JUMP JUMPDEST DUP7 DUP3 ADD MSTORE PUSH1 0xFF PUSH1 0x4 PUSH1 0x2 DUP7 ADD SLOAD SWAP4 DUP5 PUSH1 0x40 DUP6 ADD MSTORE DUP7 ADD SLOAD SWAP6 DUP7 PUSH1 0x60 DUP6 ADD MSTORE ADD SLOAD AND ISZERO SWAP1 DUP2 ISZERO SWAP4 DUP5 SWAP2 ADD MSTORE SWAP2 PUSH2 0x13AF JUMPI JUMPDEST POP PUSH2 0x136B JUMPI DUP8 DUP2 LT PUSH2 0x137D JUMPI JUMPDEST POP POP POP POP PUSH2 0x1378 SWAP1 PUSH2 0x1E96 JUMP JUMPDEST PUSH2 0xD70 JUMP JUMPDEST PUSH1 0x40 MLOAD SWAP9 POP SWAP7 POP PUSH2 0x1378 SWAP4 SWAP3 SWAP1 SWAP2 SWAP1 PUSH2 0x1395 DUP10 PUSH2 0x186C JUMP JUMPDEST DUP9 MSTORE CALLDATASIZE DUP2 DUP10 ADD CALLDATACOPY PUSH2 0x13A5 DUP8 PUSH2 0x1E89 JUMP JUMPDEST MSTORE SWAP1 DUP7 DUP1 DUP1 PUSH2 0x136B JUMP JUMPDEST SWAP1 POP PUSH1 0x4 CALLDATALOAD GT DUP11 PUSH2 0x135E JUMP JUMPDEST PUSH1 0x40 MLOAD PUSH3 0x461BCD PUSH1 0xE5 SHL DUP2 MSTORE PUSH1 0x20 PUSH1 0x4 DUP3 ADD MSTORE PUSH1 0x10 PUSH1 0x24 DUP3 ADD MSTORE PUSH16 0x496E76616C6964206D617820686F7073 PUSH1 0x80 SHL PUSH1 0x44 DUP3 ADD MSTORE PUSH1 0x64 SWAP1 REVERT JUMPDEST POP PUSH1 0x3 DUP2 GT ISZERO PUSH2 0xD5D JUMP JUMPDEST PUSH1 0x40 MLOAD PUSH3 0x461BCD PUSH1 0xE5 SHL DUP2 MSTORE PUSH1 0x20 PUSH1 0x4 DUP3 ADD MSTORE PUSH1 0x12 PUSH1 0x24 DUP3 ADD MSTORE PUSH18 0x416D6F756E74206D757374206265203E203 PUSH1 0x74 SHL PUSH1 0x44 DUP3 ADD MSTORE PUSH1 0x64 SWAP1 REVERT JUMPDEST PUSH1 0x40 MLOAD PUSH3 0x461BCD PUSH1 0xE5 SHL DUP2 MSTORE PUSH1 0x20 PUSH1 0x4 DUP3 ADD MSTORE PUSH1 0x1F PUSH1 0x24 DUP3 ADD MSTORE PUSH32 0x5265656E7472616E637947756172643A207265656E7472616E742063616C6C00 PUSH1 0x44 DUP3 ADD MSTORE PUSH1 0x64 SWAP1 REVERT JUMPDEST CALLVALUE PUSH2 0x162 JUMPI PUSH2 0x148B CALLDATASIZE PUSH2 0x1810 JUMP JUMPDEST CALLER PUSH1 0x1 PUSH1 0x1 PUSH1 0xA0 SHL SUB DUP3 AND SUB PUSH2 0x14A4 JUMPI PUSH2 0x285 SWAP2 PUSH2 0x1CE7 JUMP JUMPDEST PUSH1 0x40 MLOAD PUSH3 0x461BCD PUSH1 0xE5 SHL DUP2 MSTORE PUSH1 0x20 PUSH1 0x4 DUP3 ADD MSTORE PUSH1 0x2F PUSH1 0x24 DUP3 ADD MSTORE PUSH32 0x416363657373436F6E74726F6C3A2063616E206F6E6C792072656E6F756E6365 PUSH1 0x44 DUP3 ADD MSTORE PUSH15 0x103937B632B9903337B91039B2B633 PUSH1 0x89 SHL PUSH1 0x64 DUP3 ADD MSTORE PUSH1 0x84 SWAP1 REVERT JUMPDEST CALLVALUE PUSH2 0x162 JUMPI PUSH2 0x150F CALLDATASIZE PUSH2 0x1810 JUMP JUMPDEST DUP2 PUSH1 0x0 MSTORE PUSH1 0x1 PUSH1 0x20 MSTORE PUSH2 0x1529 PUSH1 0x1 PUSH1 0x40 PUSH1 0x0 KECCAK256 ADD SLOAD PUSH2 0x1BDE JUMP JUMPDEST DUP2 PUSH1 0x0 MSTORE PUSH1 0x1 PUSH1 0x20 MSTORE PUSH1 0x40 PUSH1 0x0 KECCAK256 SWAP1 PUSH1 0x1 DUP1 PUSH1 0xA0 SHL SUB AND SWAP1 DUP2 PUSH1 0x0 MSTORE PUSH1 0x20 MSTORE PUSH1 0xFF PUSH1 0x40 PUSH1 0x0 KECCAK256 SLOAD AND ISZERO PUSH2 0x1558 JUMPI STOP JUMPDEST DUP2 PUSH1 0x0 MSTORE PUSH1 0x1 PUSH1 0x20 MSTORE PUSH1 0x40 PUSH1 0x0 KECCAK256 DUP2 PUSH1 0x0 MSTORE PUSH1 0x20 MSTORE PUSH1 0x40 PUSH1 0x0 KECCAK256 PUSH1 0x1 PUSH1 0xFF NOT DUP3 SLOAD AND OR SWAP1 SSTORE CALLER SWAP2 PUSH32 0x2F8788117E7EFF1D82E926EC794901D17C78024A50270940304540A733656F0D PUSH1 0x0 DUP1 LOG4 STOP JUMPDEST CALLVALUE PUSH2 0x162 JUMPI PUSH1 0x20 CALLDATASIZE PUSH1 0x3 NOT ADD SLT PUSH2 0x162 JUMPI PUSH1 0x4 CALLDATALOAD PUSH1 0x4 SLOAD DUP2 LT ISZERO PUSH2 0x162 JUMPI PUSH2 0x15CF PUSH1 0x20 SWAP2 PUSH2 0x17D9 JUMP JUMPDEST SWAP1 SLOAD PUSH1 0x40 MLOAD SWAP2 PUSH1 0x3 SHL SHR DUP2 MSTORE RETURN JUMPDEST CALLVALUE PUSH2 0x162 JUMPI PUSH1 0x20 CALLDATASIZE PUSH1 0x3 NOT ADD SLT PUSH2 0x162 JUMPI PUSH1 0x4 CALLDATALOAD PUSH1 0x0 MSTORE PUSH1 0x1 PUSH1 0x20 MSTORE PUSH1 0x20 PUSH1 0x1 PUSH1 0x40 PUSH1 0x0 KECCAK256 ADD SLOAD PUSH1 0x40 MLOAD SWAP1 DUP2 MSTORE RETURN JUMPDEST CALLVALUE PUSH2 0x162 JUMPI PUSH1 0x20 DUP1 PUSH1 0x3 NOT CALLDATASIZE ADD SLT PUSH2 0x162 JUMPI PUSH1 0xA0 SWAP1 PUSH1 0x0 PUSH1 0x80 PUSH1 0x40 MLOAD PUSH2 0x1631 DUP2 PUSH2 0x1836 JUMP JUMPDEST PUSH1 0x60 DUP2 MSTORE PUSH1 0x60 DUP5 DUP3 ADD MSTORE DUP3 PUSH1 0x40 DUP3 ADD MSTORE DUP3 PUSH1 0x60 DUP3 ADD MSTORE ADD MSTORE PUSH1 0x4 CALLDATALOAD PUSH1 0x0 MSTORE PUSH1 0x3 DUP2 MSTORE PUSH1 0x40 PUSH1 0x0 KECCAK256 PUSH1 0x40 MLOAD SWAP2 PUSH2 0x1665 DUP4 PUSH2 0x1836 JUMP JUMPDEST PUSH2 0x166E DUP3 PUSH2 0x1938 JUMP JUMPDEST DUP4 MSTORE PUSH2 0x167C PUSH1 0x1 DUP4 ADD PUSH2 0x1938 JUMP JUMPDEST SWAP2 DUP2 DUP5 ADD SWAP3 DUP4 MSTORE PUSH2 0x16DF PUSH1 0x2 DUP3 ADD SLOAD SWAP4 PUSH1 0x40 DUP7 ADD SWAP5 DUP6 MSTORE PUSH2 0x16CC PUSH1 0xFF PUSH1 0x4 PUSH1 0x3 DUP7 ADD SLOAD SWAP6 PUSH1 0x60 DUP11 ADD SWAP7 DUP8 MSTORE ADD SLOAD AND SWAP5 PUSH1 0x80 DUP9 ADD SWAP6 ISZERO ISZERO DUP7 MSTORE PUSH1 0x40 MLOAD SWAP9 DUP10 SWAP9 DUP3 DUP11 MSTORE MLOAD SWAP2 DUP10 ADD MSTORE PUSH1 0xC0 DUP9 ADD SWAP1 PUSH2 0x17B4 JUMP JUMPDEST SWAP1 MLOAD DUP7 DUP3 SUB PUSH1 0x1F NOT ADD PUSH1 0x40 DUP9 ADD MSTORE PUSH2 0x17B4 JUMP JUMPDEST SWAP3 MLOAD PUSH1 0x60 DUP6 ADD MSTORE MLOAD PUSH1 0x80 DUP5 ADD MSTORE MLOAD ISZERO ISZERO PUSH1 0xA0 DUP4 ADD MSTORE SUB SWAP1 RETURN JUMPDEST CALLVALUE PUSH2 0x162 JUMPI PUSH1 0x20 CALLDATASIZE PUSH1 0x3 NOT ADD SLT PUSH2 0x162 JUMPI PUSH1 0x4 CALLDATALOAD PUSH1 0x0 MSTORE PUSH1 0x5 PUSH1 0x20 MSTORE PUSH1 0x60 PUSH1 0x40 PUSH1 0x0 KECCAK256 PUSH1 0x1 DUP2 ADD SLOAD SWAP1 PUSH1 0x3 PUSH1 0x2 DUP3 ADD SLOAD SWAP2 ADD SLOAD SWAP1 PUSH1 0x40 MLOAD SWAP3 DUP4 MSTORE PUSH1 0x20 DUP4 ADD MSTORE PUSH1 0x40 DUP3 ADD MSTORE RETURN JUMPDEST CALLVALUE PUSH2 0x162 JUMPI PUSH1 0x20 CALLDATASIZE PUSH1 0x3 NOT ADD SLT PUSH2 0x162 JUMPI PUSH1 0x4 CALLDATALOAD SWAP1 PUSH4 0xFFFFFFFF PUSH1 0xE0 SHL DUP3 AND DUP1 SWAP3 SUB PUSH2 0x162 JUMPI PUSH1 0x20 SWAP2 PUSH4 0x7965DB0B PUSH1 0xE0 SHL DUP2 EQ SWAP1 DUP2 ISZERO PUSH2 0x1780 JUMPI JUMPDEST POP ISZERO ISZERO DUP2 MSTORE RETURN JUMPDEST PUSH4 0x1FFC9A7 PUSH1 0xE0 SHL EQ SWAP1 POP DUP4 PUSH2 0x1779 JUMP JUMPDEST PUSH1 0x0 JUMPDEST DUP4 DUP2 LT PUSH2 0x17A4 JUMPI POP POP PUSH1 0x0 SWAP2 ADD MSTORE JUMP JUMPDEST DUP2 DUP2 ADD MLOAD DUP4 DUP3 ADD MSTORE PUSH1 0x20 ADD PUSH2 0x1794 JUMP JUMPDEST SWAP1 PUSH1 0x20 SWAP2 PUSH2 0x17CD DUP2 MLOAD DUP1 SWAP3 DUP2 DUP6 MSTORE DUP6 DUP1 DUP7 ADD SWAP2 ADD PUSH2 0x1791 JUMP JUMPDEST PUSH1 0x1F ADD PUSH1 0x1F NOT AND ADD ADD SWAP1 JUMP JUMPDEST PUSH1 0x4 SLOAD DUP2 LT ISZERO PUSH2 0x40B JUMPI PUSH1 0x4 PUSH1 0x0 MSTORE PUSH32 0x8A35ACFBC15FF81A39AE7D344FD709F28E8600B4AA8C65C6B64BFE7FE36BD19B ADD SWAP1 PUSH1 0x0 SWAP1 JUMP JUMPDEST PUSH1 0x40 SWAP1 PUSH1 0x3 NOT ADD SLT PUSH2 0x162 JUMPI PUSH1 0x4 CALLDATALOAD SWAP1 PUSH1 0x24 CALLDATALOAD PUSH1 0x1 PUSH1 0x1 PUSH1 0xA0 SHL SUB DUP2 AND DUP2 SUB PUSH2 0x162 JUMPI SWAP1 JUMP JUMPDEST PUSH1 0xA0 DUP2 ADD SWAP1 DUP2 LT PUSH1 0x1 PUSH1 0x1 PUSH1 0x40 SHL SUB DUP3 GT OR PUSH2 0x746 JUMPI PUSH1 0x40 MSTORE JUMP JUMPDEST PUSH1 0x80 DUP2 ADD SWAP1 DUP2 LT PUSH1 0x1 PUSH1 0x1 PUSH1 0x40 SHL SUB DUP3 GT OR PUSH2 0x746 JUMPI PUSH1 0x40 MSTORE JUMP JUMPDEST PUSH1 0x40 DUP2 ADD SWAP1 DUP2 LT PUSH1 0x1 PUSH1 0x1 PUSH1 0x40 SHL SUB DUP3 GT OR PUSH2 0x746 JUMPI PUSH1 0x40 MSTORE JUMP JUMPDEST SWAP1 PUSH1 0x1F DUP1 NOT SWAP2 ADD AND DUP2 ADD SWAP1 DUP2 LT PUSH1 0x1 PUSH1 0x1 PUSH1 0x40 SHL SUB DUP3 GT OR PUSH2 0x746 JUMPI PUSH1 0x40 MSTORE JUMP JUMPDEST DUP2 PUSH1 0x1F DUP3 ADD SLT ISZERO PUSH2 0x162 JUMPI DUP1 CALLDATALOAD SWAP1 PUSH1 0x1 PUSH1 0x1 PUSH1 0x40 SHL SUB DUP3 GT PUSH2 0x746 JUMPI PUSH1 0x40 MLOAD SWAP3 PUSH2 0x18DC PUSH1 0x1F DUP5 ADD PUSH1 0x1F NOT AND PUSH1 0x20 ADD DUP6 PUSH2 0x1887 JUMP JUMPDEST DUP3 DUP5 MSTORE PUSH1 0x20 DUP4 DUP4 ADD ADD GT PUSH2 0x162 JUMPI DUP2 PUSH1 0x0 SWAP3 PUSH1 0x20 DUP1 SWAP4 ADD DUP4 DUP7 ADD CALLDATACOPY DUP4 ADD ADD MSTORE SWAP1 JUMP JUMPDEST SWAP1 PUSH1 0x1 DUP3 DUP2 SHR SWAP3 AND DUP1 ISZERO PUSH2 0x192E JUMPI JUMPDEST PUSH1 0x20 DUP4 LT EQ PUSH2 0x1918 JUMPI JUMP JUMPDEST PUSH4 0x4E487B71 PUSH1 0xE0 SHL PUSH1 0x0 MSTORE PUSH1 0x22 PUSH1 0x4 MSTORE PUSH1 0x24 PUSH1 0x0 REVERT JUMPDEST SWAP2 PUSH1 0x7F AND SWAP2 PUSH2 0x190D JUMP JUMPDEST SWAP1 PUSH1 0x40 MLOAD SWAP2 DUP3 PUSH1 0x0 DUP3 SLOAD SWAP3 PUSH2 0x194C DUP5 PUSH2 0x18FE JUMP JUMPDEST SWAP1 DUP2 DUP5 MSTORE PUSH1 0x1 SWAP5 DUP6 DUP2 AND SWAP1 DUP2 PUSH1 0x0 EQ PUSH2 0x19BB JUMPI POP PUSH1 0x1 EQ PUSH2 0x1978 JUMPI JUMPDEST POP POP PUSH2 0x1976 SWAP3 POP SUB DUP4 PUSH2 0x1887 JUMP JUMPDEST JUMP JUMPDEST SWAP1 SWAP4 SWAP2 POP PUSH1 0x0 MSTORE PUSH1 0x20 SWAP1 DUP2 PUSH1 0x0 KECCAK256 SWAP4 PUSH1 0x0 SWAP2 JUMPDEST DUP2 DUP4 LT PUSH2 0x19A3 JUMPI POP POP PUSH2 0x1976 SWAP4 POP DUP3 ADD ADD CODESIZE DUP1 PUSH2 0x1968 JUMP JUMPDEST DUP6 SLOAD DUP9 DUP5 ADD DUP6 ADD MSTORE SWAP5 DUP6 ADD SWAP5 DUP8 SWAP5 POP SWAP2 DUP4 ADD SWAP2 PUSH2 0x198B JUMP JUMPDEST SWAP2 POP POP PUSH2 0x1976 SWAP5 POP PUSH1 0x20 SWAP3 POP PUSH1 0xFF NOT AND DUP3 DUP5 ADD MSTORE ISZERO ISZERO PUSH1 0x5 SHL DUP3 ADD ADD CODESIZE DUP1 PUSH2 0x1968 JUMP JUMPDEST SWAP1 DUP2 MLOAD DUP1 DUP3 MSTORE PUSH1 0x20 DUP1 DUP1 SWAP4 ADD SWAP4 ADD SWAP2 PUSH1 0x0 JUMPDEST DUP3 DUP2 LT PUSH2 0x19FE JUMPI POP POP POP POP SWAP1 JUMP JUMPDEST DUP4 MLOAD DUP6 MSTORE SWAP4 DUP2 ADD SWAP4 SWAP3 DUP2 ADD SWAP3 PUSH1 0x1 ADD PUSH2 0x19F0 JUMP JUMPDEST CALLER PUSH1 0x0 SWAP1 DUP2 MSTORE PUSH32 0xA6EEF7E35ABE7026729641147F7915573C7E97B47EFA546F5F6E3230263BCB49 PUSH1 0x20 SWAP1 DUP2 MSTORE PUSH1 0x40 DUP1 DUP4 KECCAK256 SLOAD SWAP1 SWAP3 PUSH1 0x1 SWAP2 PUSH1 0xFF AND ISZERO PUSH2 0x1A57 JUMPI POP POP POP POP JUMP JUMPDEST PUSH2 0x1A60 CALLER PUSH2 0x1D7B JUMP JUMPDEST SWAP2 DUP2 DUP6 MLOAD SWAP2 PUSH2 0x1A6E DUP4 PUSH2 0x1851 JUMP JUMPDEST PUSH1 0x42 DUP4 MSTORE DUP6 DUP4 ADD SWAP4 PUSH1 0x60 CALLDATASIZE DUP7 CALLDATACOPY DUP4 MLOAD ISZERO PUSH2 0x1BCA JUMPI PUSH1 0x30 DUP6 MSTORE8 DUP4 MLOAD DUP3 LT ISZERO PUSH2 0x1BCA JUMPI SWAP1 PUSH1 0x78 PUSH1 0x21 DUP6 ADD MSTORE8 PUSH1 0x41 SWAP2 JUMPDEST DUP2 DUP4 GT PUSH2 0x1B5C JUMPI POP POP POP PUSH2 0x1B1A JUMPI PUSH1 0x48 PUSH2 0xB4E SWAP4 DUP7 SWAP4 PUSH2 0x1AFE SWAP4 PUSH2 0x1AEF SWAP9 MLOAD SWAP9 DUP10 SWAP4 PUSH23 0x20B1B1B2B9B9A1B7B73A3937B61D1030B1B1B7BAB73A1 PUSH1 0x4D SHL DUP11 DUP7 ADD MSTORE PUSH2 0xAFA DUP2 MLOAD DUP1 SWAP3 DUP13 PUSH1 0x37 DUP10 ADD SWAP2 ADD PUSH2 0x1791 JUMP JUMPDEST ADD SUB PUSH1 0x28 DUP2 ADD DUP8 MSTORE ADD DUP6 PUSH2 0x1887 JUMP JUMPDEST MLOAD SWAP3 DUP4 SWAP3 PUSH3 0x461BCD PUSH1 0xE5 SHL DUP5 MSTORE PUSH1 0x4 DUP5 ADD MSTORE PUSH1 0x24 DUP4 ADD SWAP1 PUSH2 0x17B4 JUMP JUMPDEST PUSH1 0x64 DUP5 DUP7 MLOAD SWAP1 PUSH3 0x461BCD PUSH1 0xE5 SHL DUP3 MSTORE DUP1 PUSH1 0x4 DUP4 ADD MSTORE PUSH1 0x24 DUP3 ADD MSTORE PUSH32 0x537472696E67733A20686578206C656E67746820696E73756666696369656E74 PUSH1 0x44 DUP3 ADD MSTORE REVERT JUMPDEST SWAP1 SWAP2 SWAP3 PUSH1 0xF DUP2 AND PUSH1 0x10 DUP2 LT ISZERO PUSH2 0x1BB6 JUMPI PUSH16 0x181899199A1A9B1B9C1CB0B131B232B3 PUSH1 0x81 SHL SWAP1 BYTE PUSH2 0x1B8C DUP6 DUP8 PUSH2 0x1D6A JUMP JUMPDEST MSTORE8 PUSH1 0x4 SHR SWAP3 DUP1 ISZERO PUSH2 0x1BA2 JUMPI PUSH1 0x0 NOT ADD SWAP2 SWAP1 PUSH2 0x1A9B JUMP JUMPDEST PUSH4 0x4E487B71 PUSH1 0xE0 SHL DUP3 MSTORE PUSH1 0x11 PUSH1 0x4 MSTORE PUSH1 0x24 DUP3 REVERT JUMPDEST PUSH4 0x4E487B71 PUSH1 0xE0 SHL DUP4 MSTORE PUSH1 0x32 PUSH1 0x4 MSTORE PUSH1 0x24 DUP4 REVERT JUMPDEST PUSH4 0x4E487B71 PUSH1 0xE0 SHL DUP2 MSTORE PUSH1 0x32 PUSH1 0x4 MSTORE PUSH1 0x24 SWAP1 REVERT JUMPDEST PUSH1 0x0 DUP2 DUP2 MSTORE PUSH1 0x1 SWAP2 PUSH1 0x20 SWAP2 DUP4 DUP4 MSTORE PUSH1 0x40 SWAP4 DUP5 DUP3 KECCAK256 CALLER DUP4 MSTORE DUP5 MSTORE PUSH1 0xFF DUP6 DUP4 KECCAK256 SLOAD AND ISZERO PUSH2 0x1C0A JUMPI POP POP POP POP POP JUMP JUMPDEST PUSH2 0x1C13 CALLER PUSH2 0x1D7B JUMP JUMPDEST SWAP3 DUP6 MLOAD SWAP2 PUSH2 0x1C20 DUP4 PUSH2 0x1851 JUMP JUMPDEST PUSH1 0x42 DUP4 MSTORE DUP6 DUP4 ADD SWAP4 PUSH1 0x60 CALLDATASIZE DUP7 CALLDATACOPY DUP4 MLOAD ISZERO PUSH2 0x1BCA JUMPI PUSH1 0x30 DUP6 MSTORE8 DUP4 MLOAD DUP3 LT ISZERO PUSH2 0x1BCA JUMPI SWAP1 PUSH1 0x78 PUSH1 0x21 DUP6 ADD MSTORE8 PUSH1 0x41 SWAP2 JUMPDEST DUP2 DUP4 GT PUSH2 0x1CA1 JUMPI POP POP POP PUSH2 0x1B1A JUMPI PUSH1 0x48 PUSH2 0xB4E SWAP4 DUP7 SWAP4 PUSH2 0x1AFE SWAP4 PUSH2 0x1AEF SWAP9 MLOAD SWAP9 DUP10 SWAP4 PUSH23 0x20B1B1B2B9B9A1B7B73A3937B61D1030B1B1B7BAB73A1 PUSH1 0x4D SHL DUP11 DUP7 ADD MSTORE PUSH2 0xAFA DUP2 MLOAD DUP1 SWAP3 DUP13 PUSH1 0x37 DUP10 ADD SWAP2 ADD PUSH2 0x1791 JUMP JUMPDEST SWAP1 SWAP2 SWAP3 PUSH1 0xF DUP2 AND PUSH1 0x10 DUP2 LT ISZERO PUSH2 0x1BB6 JUMPI PUSH16 0x181899199A1A9B1B9C1CB0B131B232B3 PUSH1 0x81 SHL SWAP1 BYTE PUSH2 0x1CD1 DUP6 DUP8 PUSH2 0x1D6A JUMP JUMPDEST MSTORE8 PUSH1 0x4 SHR SWAP3 DUP1 ISZERO PUSH2 0x1BA2 JUMPI PUSH1 0x0 NOT ADD SWAP2 SWAP1 PUSH2 0x1C4D JUMP JUMPDEST SWAP1 PUSH1 0x0 SWAP2 DUP1 DUP4 MSTORE PUSH1 0x1 PUSH1 0x20 MSTORE PUSH1 0x40 DUP4 KECCAK256 SWAP2 PUSH1 0x1 DUP1 PUSH1 0xA0 SHL SUB AND SWAP2 DUP3 DUP5 MSTORE PUSH1 0x20 MSTORE PUSH1 0xFF PUSH1 0x40 DUP5 KECCAK256 SLOAD AND PUSH2 0x1D18 JUMPI POP POP POP JUMP JUMPDEST DUP1 DUP4 MSTORE PUSH1 0x1 PUSH1 0x20 MSTORE PUSH1 0x40 DUP4 KECCAK256 DUP3 DUP5 MSTORE PUSH1 0x20 MSTORE PUSH1 0x40 DUP4 KECCAK256 PUSH1 0xFF NOT DUP2 SLOAD AND SWAP1 SSTORE PUSH32 0xF6391F5C32D9C69D2A47EA670B442974B53935D1EDC7FD64EB21E047A839171B CALLER SWAP4 DUP1 LOG4 JUMP JUMPDEST SWAP2 SWAP1 DUP3 ADD DUP1 SWAP3 GT PUSH2 0x10F7 JUMPI JUMP JUMPDEST SWAP1 DUP2 MLOAD DUP2 LT ISZERO PUSH2 0x40B JUMPI ADD PUSH1 0x20 ADD SWAP1 JUMP JUMPDEST PUSH1 0x40 MLOAD SWAP1 PUSH1 0x60 DUP3 ADD DUP3 DUP2 LT PUSH1 0x1 PUSH1 0x1 PUSH1 0x40 SHL SUB DUP3 GT OR PUSH2 0x746 JUMPI PUSH1 0x40 MSTORE PUSH1 0x2A DUP3 MSTORE PUSH1 0x20 DUP3 ADD PUSH1 0x40 CALLDATASIZE DUP3 CALLDATACOPY DUP3 MLOAD ISZERO PUSH2 0x40B JUMPI PUSH1 0x30 SWAP1 MSTORE8 DUP2 MLOAD PUSH1 0x1 SWAP1 DUP2 LT ISZERO PUSH2 0x40B JUMPI PUSH1 0x78 PUSH1 0x21 DUP5 ADD MSTORE8 PUSH1 0x29 SWAP1 JUMPDEST DUP1 DUP3 GT PUSH2 0x1E1B JUMPI POP POP PUSH2 0x1DD7 JUMPI SWAP1 JUMP JUMPDEST PUSH1 0x64 PUSH1 0x40 MLOAD PUSH3 0x461BCD PUSH1 0xE5 SHL DUP2 MSTORE PUSH1 0x20 PUSH1 0x4 DUP3 ADD MSTORE PUSH1 0x20 PUSH1 0x24 DUP3 ADD MSTORE PUSH32 0x537472696E67733A20686578206C656E67746820696E73756666696369656E74 PUSH1 0x44 DUP3 ADD MSTORE REVERT JUMPDEST SWAP1 SWAP2 PUSH1 0xF DUP2 AND PUSH1 0x10 DUP2 LT ISZERO PUSH2 0x1E74 JUMPI PUSH16 0x181899199A1A9B1B9C1CB0B131B232B3 PUSH1 0x81 SHL SWAP1 BYTE PUSH2 0x1E4A DUP5 DUP7 PUSH2 0x1D6A JUMP JUMPDEST MSTORE8 PUSH1 0x4 SHR SWAP2 DUP1 ISZERO PUSH2 0x1E5F JUMPI PUSH1 0x0 NOT ADD SWAP1 PUSH2 0x1DC7 JUMP JUMPDEST PUSH1 0x24 PUSH1 0x0 PUSH4 0x4E487B71 PUSH1 0xE0 SHL DUP2 MSTORE PUSH1 0x11 PUSH1 0x4 MSTORE REVERT JUMPDEST PUSH1 0x24 PUSH1 0x0 PUSH4 0x4E487B71 PUSH1 0xE0 SHL DUP2 MSTORE PUSH1 0x32 PUSH1 0x4 MSTORE REVERT JUMPDEST DUP1 MLOAD ISZERO PUSH2 0x40B JUMPI PUSH1 0x20 ADD SWAP1 JUMP JUMPDEST PUSH1 0x0 NOT DUP2 EQ PUSH2 0x10F7 JUMPI PUSH1 0x1 ADD SWAP1 JUMP JUMPDEST PUSH1 0x1 PUSH1 0x1 PUSH1 0x40 SHL SUB DUP2 GT PUSH2 0x746 JUMPI PUSH1 0x5 SHL PUSH1 0x20 ADD SWAP1 JUMP INVALID LOG2 PUSH5 0x6970667358 0x22 SLT KECCAK256 0xBE 0xBF SWAP4 DUP6 RETURN 0xC7 SWAP2 0x26 SWAP12 CALLVALUE SWAP1 0xBB GT 0x2C 0xC9 KECCAK256 SWAP11 LOG4 0x27 CODECOPY 0x23 0xCE 0xCB 0xE7 PUSH14 0x914407C5B5B59864736F6C634300 ADDMOD SGT STOP CALLER 0x2F DUP8 DUP9 GT PUSH31 0x7EFF1D82E926EC794901D17C78024A50270940304540A733656F0DA6EEF7E3 GAS 0xBE PUSH17 0x26729641147F7915573C7E97B47EFA546F 0x5F PUSH15 0x3230263BCB49A747564DB1669E731B 0xDD 0x24 0xEE SWAP10 SWAP13 0xB1 PUSH21 0xE702CA54B1EF5F7D530164D95CE4C6350000000000 "},"methodIdentifiers":{"DEFAULT_ADMIN_ROLE()":"a217fddf","OPERATOR_ROLE()":"f5b541a6","addVenue(string,string,uint256,uint256)":"a1db3d99","allRouteIds(uint256)":"3f8d217b","deactivateVenue(bytes32)":"57ea3e7d","getActiveVenues()":"b471eb67","getRoleAdmin(bytes32)":"248a9ca3","getRoute(bytes32)":"e9207600","getSystemStats()":"d1ce59a7","getVenue(bytes32)":"1077a3f9","grantRole(bytes32,address)":"2f2ff15d","hasRole(bytes32,address)":"91d14854","renounceRole(bytes32,address)":"36568abe","revokeRole(bytes32,address)":"d547741f","routeWreckage(uint256,uint256)":"3e001596","routes(bytes32)":"066e9481","supportsInterface(bytes4)":"01ffc9a7","totalFryMinted()":"8ccae4e2","totalRoutesExecuted()":"752a1fc3","totalWreckageRouted()":"441c8423","updateVenue(bytes32,uint256,uint256)":"7a5a6cdc","usdFryToken()":"7739329e","venueIds(uint256)":"2a4c22f6","venues(bytes32)":"a518822f"}}}}}