{"contracts/ConfidentialPositionVerifier.sol":{"ConfidentialPositionVerifier":{"abi":[{"anonymous":false,"inputs":[{"indexed":true,"internalType":"address","name":"client","type":"address"},{"indexed":false,"internalType":"uint256","name":"commitment","type":"uint256"},{"indexed":false,"internalType":"uint256","name":"maxCollateral","type":"uint256"},{"indexed":false,"internalType":"uint256","name":"timestamp","type":"uint256"}],"name":"CollateralCommitted","type":"event"},{"anonymous":false,"inputs":[{"indexed":true,"internalType":"address","name":"client","type":"address"},{"indexed":false,"internalType":"uint256","name":"commitment","type":"uint256"},{"indexed":false,"internalType":"uint256","name":"maxPosition","type":"uint256"},{"indexed":false,"internalType":"uint256","name":"timestamp","type":"uint256"}],"name":"PositionCommitted","type":"event"},{"anonymous":false,"inputs":[{"indexed":true,"internalType":"address","name":"client","type":"address"},{"indexed":false,"internalType":"uint256","name":"commitment","type":"uint256"},{"indexed":false,"internalType":"uint256","name":"maxValue","type":"uint256"},{"indexed":false,"internalType":"bool","name":"verified","type":"bool"}],"name":"RangeProofVerified","type":"event"},{"inputs":[],"name":"G","outputs":[{"internalType":"uint256","name":"","type":"uint256"}],"stateMutability":"view","type":"function"},{"inputs":[],"name":"H","outputs":[{"internalType":"uint256","name":"","type":"uint256"}],"stateMutability":"view","type":"function"},{"inputs":[],"name":"P","outputs":[{"internalType":"uint256","name":"","type":"uint256"}],"stateMutability":"view","type":"function"},{"inputs":[{"internalType":"address[]","name":"clients","type":"address[]"}],"name":"aggregatePositions","outputs":[{"internalType":"uint256","name":"aggregated","type":"uint256"}],"stateMutability":"nonpayable","type":"function"},{"inputs":[{"internalType":"bytes32","name":"","type":"bytes32"}],"name":"aggregatedCommitments","outputs":[{"internalType":"uint256","name":"","type":"uint256"}],"stateMutability":"view","type":"function"},{"inputs":[{"internalType":"address","name":"","type":"address"}],"name":"collateralCommitments","outputs":[{"internalType":"uint256","name":"commitment","type":"uint256"},{"internalType":"uint256","name":"maxValue","type":"uint256"},{"internalType":"uint256","name":"timestamp","type":"uint256"},{"internalType":"bool","name":"verified","type":"bool"}],"stateMutability":"view","type":"function"},{"inputs":[{"internalType":"uint256","name":"commitment","type":"uint256"},{"internalType":"uint256","name":"maxCollateral","type":"uint256"},{"internalType":"bytes","name":"rangeProof","type":"bytes"}],"name":"commitCollateral","outputs":[],"stateMutability":"nonpayable","type":"function"},{"inputs":[{"internalType":"uint256","name":"commitment","type":"uint256"},{"internalType":"uint256","name":"maxPosition","type":"uint256"},{"internalType":"bytes","name":"rangeProof","type":"bytes"}],"name":"commitPosition","outputs":[],"stateMutability":"nonpayable","type":"function"},{"inputs":[{"internalType":"address","name":"client","type":"address"}],"name":"getCollateralCommitment","outputs":[{"internalType":"uint256","name":"commitment","type":"uint256"},{"internalType":"uint256","name":"maxValue","type":"uint256"},{"internalType":"uint256","name":"timestamp","type":"uint256"},{"internalType":"bool","name":"verified","type":"bool"}],"stateMutability":"view","type":"function"},{"inputs":[{"internalType":"address","name":"client","type":"address"}],"name":"getPositionCommitment","outputs":[{"internalType":"uint256","name":"commitment","type":"uint256"},{"internalType":"uint256","name":"maxValue","type":"uint256"},{"internalType":"uint256","name":"timestamp","type":"uint256"},{"internalType":"bool","name":"verified","type":"bool"}],"stateMutability":"view","type":"function"},{"inputs":[{"internalType":"address","name":"client","type":"address"}],"name":"hasValidCollateral","outputs":[{"internalType":"bool","name":"valid","type":"bool"}],"stateMutability":"view","type":"function"},{"inputs":[{"internalType":"address","name":"client","type":"address"}],"name":"hasValidPosition","outputs":[{"internalType":"bool","name":"valid","type":"bool"}],"stateMutability":"view","type":"function"},{"inputs":[{"internalType":"address","name":"","type":"address"}],"name":"positionCommitments","outputs":[{"internalType":"uint256","name":"commitment","type":"uint256"},{"internalType":"uint256","name":"maxValue","type":"uint256"},{"internalType":"uint256","name":"timestamp","type":"uint256"},{"internalType":"bool","name":"verified","type":"bool"}],"stateMutability":"view","type":"function"}],"evm":{"bytecode":{"linkReferences":{},"object":"60808060405234610016576109ea908161001c8239f35b600080fdfe6040608081526004908136101561001557600080fd5b600091823560e01c90816308e56e26146107395781631e00a3e2146106f8578163304d059f146106d05781634fad28761461064057816353f7def514610602578163642d1065146105845781636fecb6231461054957816370a5d8611461050f5781638b8fbd92146104e2578163968ec22314610473578163bbcab44f14610264578163c9c548421461011d575063db0c75bb146100b257600080fd5b34610119576020366003190112610119579081906001600160a01b036100d6610897565b1681526020818152919020805460018201546002830154600390930154945191825292810192909252604082015260ff90911615156060820152608090f35b0390f35b5080fd5b919050346102605761012e36610840565b919294905061013e8515156108ad565b821561022657509061015a6101556001949361096c565b6108ee565b81516101658161093a565b848152600360208201918383528481014281526060820193878552338a5287602052868a20925183555187830155516002820155019051151560ff8019835416911617905581517f5269983a1bce85b553f27d9f91373b4ddc3b44b37312e51f345c31e9f2f70fb73391806101ed42868a846040919493926060820195825260208201520152565b0390a2815193845260208401528201527f21b5018a6c9c5ba781ceb3a1d933a77a542208345c22e8135c32a74140eb012460603392a280f35b606490602085519162461bcd60e51b8352820152601460248201527324b73b30b634b21036b0bc103837b9b4ba34b7b760611b6044820152fd5b8280fd5b9050823461047057602091826003193601126101195780359367ffffffffffffffff928386116104705736602387011215610470578583013584811161011957602496600594368984881b8401011161046c5782156104345760019584905b84821061035a57505084518092898201948b86920190875b81811061032a5750504282525003808352603f01601f19168201968711828810176103185750858596979850845251902081526002865220558152f35b634e487b7160e01b8452604190528783fd5b9193509183356001600160a01b038116908190036103565781528593908c0192908c01916001016102db565b8880fd5b909687821b84018b01356001600160a01b0381169081900361043057865260018a528686209060ff60038951936103908561093a565b8054855260018101548e86015260028101548b86015201541615801560608401526103f65790518b9170014551231950b75fc4402da1732fc9bebe199190099760001981146103e4576001019190506102c3565b50634e487b7160e01b86526011835285fd5b875162461bcd60e51b81528085018c90526015818e015274155b9d995c9a599a59590818dbdb5b5a5d1b595b9d605a1b6044820152606490fd5b8680fd5b845162461bcd60e51b81529081018890526013818a015272139bc818db1a595b9d1cc81c1c9bdd9a591959606a1b6044820152606490fd5b8380fd5b80fd5b505034610119576020366003190112610119579081906001600160a01b03610499610897565b1681526001602052209061011582549160018401549360ff6003600283015492015416915194859485926060929594919560808501968552602085015260408401521515910152565b5050346101195781600319360112610119575170014551231950b75fc4402da1732fc9bebe198152602090f35b505034610119578160031936011261011957602090517e3a672e1fcdf904b3d5e8f053832869521d993a85418f810f359b77c5d628c58152f35b505034610119578160031936011261011957602090517fcaa309bf29ffb85d87c2d14159ea7cb3c64d4ddea4b7a681fd33c256c742ab448152f35b505034610119576020366003190112610119576020916060919081906001600160a01b036105b0610897565b168152600185522081516105c38161093a565b60ff600383549384845260018101548885015260028101548685015201541615159384910152826105f8575b50519015158152f35b15159150386105ef565b505034610119576020366003190112610119576020916060919081906001600160a01b0361062e610897565b1681528085522081516105c38161093a565b505034610119576020366003190112610119579081906001600160a01b03610666610897565b16815280602052209061011560608251936106808561093a565b80549384865260018201549586602082015260ff60036002850154948585850152015416151593849101525194859485926060929594919560808501968552602085015260408401521515910152565b9050346102605760203660031901126102605760209282913581526002845220549051908152f35b505034610119576020366003190112610119579081906001600160a01b0361071e610897565b1681526001602052209061011560608251936106808561093a565b919050346102605761074a36610840565b919294905061075a8515156108ad565b82156108045750906107716101556001949361096c565b815161077c8161093a565b848152600360208201918383528481014281526060820193878552338a5289602052868a20925183555187830155516002820155019051151560ff8019835416911617905581517fbe783f8f3e4682f27ca539505686e887f818d33ba8337684712c5f23a447b8683391806101ed42868a846040919493926060820195825260208201520152565b606490602085519162461bcd60e51b83528201526016602482015275125b9d985b1a59081b585e0818dbdb1b185d195c985b60521b6044820152fd5b90606060031983011261089257600435916024359160443567ffffffffffffffff9283821161089257806023830112156108925781600401359384116108925760248483010111610892576024019190565b600080fd5b600435906001600160a01b038216820361089257565b156108b457565b60405162461bcd60e51b8152602060048201526012602482015271125b9d985b1a590818dbdb5b5a5d1b595b9d60721b6044820152606490fd5b156108f557565b60405162461bcd60e51b815260206004820152601f60248201527f52616e67652070726f6f6620766572696669636174696f6e206661696c6564006044820152606490fd5b6080810190811067ffffffffffffffff82111761095657604052565b634e487b7160e01b600052604160045260246000fd5b60201161097857600190565b60405162461bcd60e51b8152602060048201526014602482015273092dcecc2d8d2c840e0e4dedecc40d8cadccee8d60631b6044820152606490fdfea2646970667358221220c2491040832d1172407a74aa35b5e4d6b57bbad28bf75b43c03c42fc04945ca464736f6c63430008130033","opcodes":"PUSH1 0x80 DUP1 PUSH1 0x40 MSTORE CALLVALUE PUSH2 0x16 JUMPI PUSH2 0x9EA SWAP1 DUP2 PUSH2 0x1C DUP3 CODECOPY RETURN JUMPDEST PUSH1 0x0 DUP1 REVERT INVALID PUSH1 0x40 PUSH1 0x80 DUP2 MSTORE PUSH1 0x4 SWAP1 DUP2 CALLDATASIZE LT ISZERO PUSH2 0x15 JUMPI PUSH1 0x0 DUP1 REVERT JUMPDEST PUSH1 0x0 SWAP2 DUP3 CALLDATALOAD PUSH1 0xE0 SHR SWAP1 DUP2 PUSH4 0x8E56E26 EQ PUSH2 0x739 JUMPI DUP2 PUSH4 0x1E00A3E2 EQ PUSH2 0x6F8 JUMPI DUP2 PUSH4 0x304D059F EQ PUSH2 0x6D0 JUMPI DUP2 PUSH4 0x4FAD2876 EQ PUSH2 0x640 JUMPI DUP2 PUSH4 0x53F7DEF5 EQ PUSH2 0x602 JUMPI DUP2 PUSH4 0x642D1065 EQ PUSH2 0x584 JUMPI DUP2 PUSH4 0x6FECB623 EQ PUSH2 0x549 JUMPI DUP2 PUSH4 0x70A5D861 EQ PUSH2 0x50F JUMPI DUP2 PUSH4 0x8B8FBD92 EQ PUSH2 0x4E2 JUMPI DUP2 PUSH4 0x968EC223 EQ PUSH2 0x473 JUMPI DUP2 PUSH4 0xBBCAB44F EQ PUSH2 0x264 JUMPI DUP2 PUSH4 0xC9C54842 EQ PUSH2 0x11D JUMPI POP PUSH4 0xDB0C75BB EQ PUSH2 0xB2 JUMPI PUSH1 0x0 DUP1 REVERT JUMPDEST CALLVALUE PUSH2 0x119 JUMPI PUSH1 0x20 CALLDATASIZE PUSH1 0x3 NOT ADD SLT PUSH2 0x119 JUMPI SWAP1 DUP2 SWAP1 PUSH1 0x1 PUSH1 0x1 PUSH1 0xA0 SHL SUB PUSH2 0xD6 PUSH2 0x897 JUMP JUMPDEST AND DUP2 MSTORE PUSH1 0x20 DUP2 DUP2 MSTORE SWAP2 SWAP1 KECCAK256 DUP1 SLOAD PUSH1 0x1 DUP3 ADD SLOAD PUSH1 0x2 DUP4 ADD SLOAD PUSH1 0x3 SWAP1 SWAP4 ADD SLOAD SWAP5 MLOAD SWAP2 DUP3 MSTORE SWAP3 DUP2 ADD SWAP3 SWAP1 SWAP3 MSTORE PUSH1 0x40 DUP3 ADD MSTORE PUSH1 0xFF SWAP1 SWAP2 AND ISZERO ISZERO PUSH1 0x60 DUP3 ADD MSTORE PUSH1 0x80 SWAP1 RETURN JUMPDEST SUB SWAP1 RETURN JUMPDEST POP DUP1 REVERT JUMPDEST SWAP2 SWAP1 POP CALLVALUE PUSH2 0x260 JUMPI PUSH2 0x12E CALLDATASIZE PUSH2 0x840 JUMP JUMPDEST SWAP2 SWAP3 SWAP5 SWAP1 POP PUSH2 0x13E DUP6 ISZERO ISZERO PUSH2 0x8AD JUMP JUMPDEST DUP3 ISZERO PUSH2 0x226 JUMPI POP SWAP1 PUSH2 0x15A PUSH2 0x155 PUSH1 0x1 SWAP5 SWAP4 PUSH2 0x96C JUMP JUMPDEST PUSH2 0x8EE JUMP JUMPDEST DUP2 MLOAD PUSH2 0x165 DUP2 PUSH2 0x93A JUMP JUMPDEST DUP5 DUP2 MSTORE PUSH1 0x3 PUSH1 0x20 DUP3 ADD SWAP2 DUP4 DUP4 MSTORE DUP5 DUP2 ADD TIMESTAMP DUP2 MSTORE PUSH1 0x60 DUP3 ADD SWAP4 DUP8 DUP6 MSTORE CALLER DUP11 MSTORE DUP8 PUSH1 0x20 MSTORE DUP7 DUP11 KECCAK256 SWAP3 MLOAD DUP4 SSTORE MLOAD DUP8 DUP4 ADD SSTORE MLOAD PUSH1 0x2 DUP3 ADD SSTORE ADD SWAP1 MLOAD ISZERO ISZERO PUSH1 0xFF DUP1 NOT DUP4 SLOAD AND SWAP2 AND OR SWAP1 SSTORE DUP2 MLOAD PUSH32 0x5269983A1BCE85B553F27D9F91373B4DDC3B44B37312E51F345C31E9F2F70FB7 CALLER SWAP2 DUP1 PUSH2 0x1ED TIMESTAMP DUP7 DUP11 DUP5 PUSH1 0x40 SWAP2 SWAP5 SWAP4 SWAP3 PUSH1 0x60 DUP3 ADD SWAP6 DUP3 MSTORE PUSH1 0x20 DUP3 ADD MSTORE ADD MSTORE JUMP JUMPDEST SUB SWAP1 LOG2 DUP2 MLOAD SWAP4 DUP5 MSTORE PUSH1 0x20 DUP5 ADD MSTORE DUP3 ADD MSTORE PUSH32 0x21B5018A6C9C5BA781CEB3A1D933A77A542208345C22E8135C32A74140EB0124 PUSH1 0x60 CALLER SWAP3 LOG2 DUP1 RETURN JUMPDEST PUSH1 0x64 SWAP1 PUSH1 0x20 DUP6 MLOAD SWAP2 PUSH3 0x461BCD PUSH1 0xE5 SHL DUP4 MSTORE DUP3 ADD MSTORE PUSH1 0x14 PUSH1 0x24 DUP3 ADD MSTORE PUSH20 0x24B73B30B634B21036B0BC103837B9B4BA34B7B7 PUSH1 0x61 SHL PUSH1 0x44 DUP3 ADD MSTORE REVERT JUMPDEST DUP3 DUP1 REVERT JUMPDEST SWAP1 POP DUP3 CALLVALUE PUSH2 0x470 JUMPI PUSH1 0x20 SWAP2 DUP3 PUSH1 0x3 NOT CALLDATASIZE ADD SLT PUSH2 0x119 JUMPI DUP1 CALLDATALOAD SWAP4 PUSH8 0xFFFFFFFFFFFFFFFF SWAP3 DUP4 DUP7 GT PUSH2 0x470 JUMPI CALLDATASIZE PUSH1 0x23 DUP8 ADD SLT ISZERO PUSH2 0x470 JUMPI DUP6 DUP4 ADD CALLDATALOAD DUP5 DUP2 GT PUSH2 0x119 JUMPI PUSH1 0x24 SWAP7 PUSH1 0x5 SWAP5 CALLDATASIZE DUP10 DUP5 DUP9 SHL DUP5 ADD ADD GT PUSH2 0x46C JUMPI DUP3 ISZERO PUSH2 0x434 JUMPI PUSH1 0x1 SWAP6 DUP5 SWAP1 JUMPDEST DUP5 DUP3 LT PUSH2 0x35A JUMPI POP POP DUP5 MLOAD DUP1 SWAP3 DUP10 DUP3 ADD SWAP5 DUP12 DUP7 SWAP3 ADD SWAP1 DUP8 JUMPDEST DUP2 DUP2 LT PUSH2 0x32A JUMPI POP POP TIMESTAMP DUP3 MSTORE POP SUB DUP1 DUP4 MSTORE PUSH1 0x3F ADD PUSH1 0x1F NOT AND DUP3 ADD SWAP7 DUP8 GT DUP3 DUP9 LT OR PUSH2 0x318 JUMPI POP DUP6 DUP6 SWAP7 SWAP8 SWAP9 POP DUP5 MSTORE MLOAD SWAP1 KECCAK256 DUP2 MSTORE PUSH1 0x2 DUP7 MSTORE KECCAK256 SSTORE DUP2 MSTORE RETURN JUMPDEST PUSH4 0x4E487B71 PUSH1 0xE0 SHL DUP5 MSTORE PUSH1 0x41 SWAP1 MSTORE DUP8 DUP4 REVERT JUMPDEST SWAP2 SWAP4 POP SWAP2 DUP4 CALLDATALOAD PUSH1 0x1 PUSH1 0x1 PUSH1 0xA0 SHL SUB DUP2 AND SWAP1 DUP2 SWAP1 SUB PUSH2 0x356 JUMPI DUP2 MSTORE DUP6 SWAP4 SWAP1 DUP13 ADD SWAP3 SWAP1 DUP13 ADD SWAP2 PUSH1 0x1 ADD PUSH2 0x2DB JUMP JUMPDEST DUP9 DUP1 REVERT JUMPDEST SWAP1 SWAP7 DUP8 DUP3 SHL DUP5 ADD DUP12 ADD CALLDATALOAD PUSH1 0x1 PUSH1 0x1 PUSH1 0xA0 SHL SUB DUP2 AND SWAP1 DUP2 SWAP1 SUB PUSH2 0x430 JUMPI DUP7 MSTORE PUSH1 0x1 DUP11 MSTORE DUP7 DUP7 KECCAK256 SWAP1 PUSH1 0xFF PUSH1 0x3 DUP10 MLOAD SWAP4 PUSH2 0x390 DUP6 PUSH2 0x93A JUMP JUMPDEST DUP1 SLOAD DUP6 MSTORE PUSH1 0x1 DUP2 ADD SLOAD DUP15 DUP7 ADD MSTORE PUSH1 0x2 DUP2 ADD SLOAD DUP12 DUP7 ADD MSTORE ADD SLOAD AND ISZERO DUP1 ISZERO PUSH1 0x60 DUP5 ADD MSTORE PUSH2 0x3F6 JUMPI SWAP1 MLOAD DUP12 SWAP2 PUSH17 0x14551231950B75FC4402DA1732FC9BEBE NOT SWAP2 SWAP1 MULMOD SWAP8 PUSH1 0x0 NOT DUP2 EQ PUSH2 0x3E4 JUMPI PUSH1 0x1 ADD SWAP2 SWAP1 POP PUSH2 0x2C3 JUMP JUMPDEST POP PUSH4 0x4E487B71 PUSH1 0xE0 SHL DUP7 MSTORE PUSH1 0x11 DUP4 MSTORE DUP6 REVERT JUMPDEST DUP8 MLOAD PUSH3 0x461BCD PUSH1 0xE5 SHL DUP2 MSTORE DUP1 DUP6 ADD DUP13 SWAP1 MSTORE PUSH1 0x15 DUP2 DUP15 ADD MSTORE PUSH21 0x155B9D995C9A599A59590818DBDB5B5A5D1B595B9D PUSH1 0x5A SHL PUSH1 0x44 DUP3 ADD MSTORE PUSH1 0x64 SWAP1 REVERT JUMPDEST DUP7 DUP1 REVERT JUMPDEST DUP5 MLOAD PUSH3 0x461BCD PUSH1 0xE5 SHL DUP2 MSTORE SWAP1 DUP2 ADD DUP9 SWAP1 MSTORE PUSH1 0x13 DUP2 DUP11 ADD MSTORE PUSH19 0x139BC818DB1A595B9D1CC81C1C9BDD9A591959 PUSH1 0x6A SHL PUSH1 0x44 DUP3 ADD MSTORE PUSH1 0x64 SWAP1 REVERT JUMPDEST DUP4 DUP1 REVERT JUMPDEST DUP1 REVERT JUMPDEST POP POP CALLVALUE PUSH2 0x119 JUMPI PUSH1 0x20 CALLDATASIZE PUSH1 0x3 NOT ADD SLT PUSH2 0x119 JUMPI SWAP1 DUP2 SWAP1 PUSH1 0x1 PUSH1 0x1 PUSH1 0xA0 SHL SUB PUSH2 0x499 PUSH2 0x897 JUMP JUMPDEST AND DUP2 MSTORE PUSH1 0x1 PUSH1 0x20 MSTORE KECCAK256 SWAP1 PUSH2 0x115 DUP3 SLOAD SWAP2 PUSH1 0x1 DUP5 ADD SLOAD SWAP4 PUSH1 0xFF PUSH1 0x3 PUSH1 0x2 DUP4 ADD SLOAD SWAP3 ADD SLOAD AND SWAP2 MLOAD SWAP5 DUP6 SWAP5 DUP6 SWAP3 PUSH1 0x60 SWAP3 SWAP6 SWAP5 SWAP2 SWAP6 PUSH1 0x80 DUP6 ADD SWAP7 DUP6 MSTORE PUSH1 0x20 DUP6 ADD MSTORE PUSH1 0x40 DUP5 ADD MSTORE ISZERO ISZERO SWAP2 ADD MSTORE JUMP JUMPDEST POP POP CALLVALUE PUSH2 0x119 JUMPI DUP2 PUSH1 0x3 NOT CALLDATASIZE ADD SLT PUSH2 0x119 JUMPI MLOAD PUSH17 0x14551231950B75FC4402DA1732FC9BEBE NOT DUP2 MSTORE PUSH1 0x20 SWAP1 RETURN JUMPDEST POP POP CALLVALUE PUSH2 0x119 JUMPI DUP2 PUSH1 0x3 NOT CALLDATASIZE ADD SLT PUSH2 0x119 JUMPI PUSH1 0x20 SWAP1 MLOAD PUSH31 0x3A672E1FCDF904B3D5E8F053832869521D993A85418F810F359B77C5D628C5 DUP2 MSTORE RETURN JUMPDEST POP POP CALLVALUE PUSH2 0x119 JUMPI DUP2 PUSH1 0x3 NOT CALLDATASIZE ADD SLT PUSH2 0x119 JUMPI PUSH1 0x20 SWAP1 MLOAD PUSH32 0xCAA309BF29FFB85D87C2D14159EA7CB3C64D4DDEA4B7A681FD33C256C742AB44 DUP2 MSTORE RETURN JUMPDEST POP POP CALLVALUE PUSH2 0x119 JUMPI PUSH1 0x20 CALLDATASIZE PUSH1 0x3 NOT ADD SLT PUSH2 0x119 JUMPI PUSH1 0x20 SWAP2 PUSH1 0x60 SWAP2 SWAP1 DUP2 SWAP1 PUSH1 0x1 PUSH1 0x1 PUSH1 0xA0 SHL SUB PUSH2 0x5B0 PUSH2 0x897 JUMP JUMPDEST AND DUP2 MSTORE PUSH1 0x1 DUP6 MSTORE KECCAK256 DUP2 MLOAD PUSH2 0x5C3 DUP2 PUSH2 0x93A JUMP JUMPDEST PUSH1 0xFF PUSH1 0x3 DUP4 SLOAD SWAP4 DUP5 DUP5 MSTORE PUSH1 0x1 DUP2 ADD SLOAD DUP9 DUP6 ADD MSTORE PUSH1 0x2 DUP2 ADD SLOAD DUP7 DUP6 ADD MSTORE ADD SLOAD AND ISZERO ISZERO SWAP4 DUP5 SWAP2 ADD MSTORE DUP3 PUSH2 0x5F8 JUMPI JUMPDEST POP MLOAD SWAP1 ISZERO ISZERO DUP2 MSTORE RETURN JUMPDEST ISZERO ISZERO SWAP2 POP CODESIZE PUSH2 0x5EF JUMP JUMPDEST POP POP CALLVALUE PUSH2 0x119 JUMPI PUSH1 0x20 CALLDATASIZE PUSH1 0x3 NOT ADD SLT PUSH2 0x119 JUMPI PUSH1 0x20 SWAP2 PUSH1 0x60 SWAP2 SWAP1 DUP2 SWAP1 PUSH1 0x1 PUSH1 0x1 PUSH1 0xA0 SHL SUB PUSH2 0x62E PUSH2 0x897 JUMP JUMPDEST AND DUP2 MSTORE DUP1 DUP6 MSTORE KECCAK256 DUP2 MLOAD PUSH2 0x5C3 DUP2 PUSH2 0x93A JUMP JUMPDEST POP POP CALLVALUE PUSH2 0x119 JUMPI PUSH1 0x20 CALLDATASIZE PUSH1 0x3 NOT ADD SLT PUSH2 0x119 JUMPI SWAP1 DUP2 SWAP1 PUSH1 0x1 PUSH1 0x1 PUSH1 0xA0 SHL SUB PUSH2 0x666 PUSH2 0x897 JUMP JUMPDEST AND DUP2 MSTORE DUP1 PUSH1 0x20 MSTORE KECCAK256 SWAP1 PUSH2 0x115 PUSH1 0x60 DUP3 MLOAD SWAP4 PUSH2 0x680 DUP6 PUSH2 0x93A JUMP JUMPDEST DUP1 SLOAD SWAP4 DUP5 DUP7 MSTORE PUSH1 0x1 DUP3 ADD SLOAD SWAP6 DUP7 PUSH1 0x20 DUP3 ADD MSTORE PUSH1 0xFF PUSH1 0x3 PUSH1 0x2 DUP6 ADD SLOAD SWAP5 DUP6 DUP6 DUP6 ADD MSTORE ADD SLOAD AND ISZERO ISZERO SWAP4 DUP5 SWAP2 ADD MSTORE MLOAD SWAP5 DUP6 SWAP5 DUP6 SWAP3 PUSH1 0x60 SWAP3 SWAP6 SWAP5 SWAP2 SWAP6 PUSH1 0x80 DUP6 ADD SWAP7 DUP6 MSTORE PUSH1 0x20 DUP6 ADD MSTORE PUSH1 0x40 DUP5 ADD MSTORE ISZERO ISZERO SWAP2 ADD MSTORE JUMP JUMPDEST SWAP1 POP CALLVALUE PUSH2 0x260 JUMPI PUSH1 0x20 CALLDATASIZE PUSH1 0x3 NOT ADD SLT PUSH2 0x260 JUMPI PUSH1 0x20 SWAP3 DUP3 SWAP2 CALLDATALOAD DUP2 MSTORE PUSH1 0x2 DUP5 MSTORE KECCAK256 SLOAD SWAP1 MLOAD SWAP1 DUP2 MSTORE RETURN JUMPDEST POP POP CALLVALUE PUSH2 0x119 JUMPI PUSH1 0x20 CALLDATASIZE PUSH1 0x3 NOT ADD SLT PUSH2 0x119 JUMPI SWAP1 DUP2 SWAP1 PUSH1 0x1 PUSH1 0x1 PUSH1 0xA0 SHL SUB PUSH2 0x71E PUSH2 0x897 JUMP JUMPDEST AND DUP2 MSTORE PUSH1 0x1 PUSH1 0x20 MSTORE KECCAK256 SWAP1 PUSH2 0x115 PUSH1 0x60 DUP3 MLOAD SWAP4 PUSH2 0x680 DUP6 PUSH2 0x93A JUMP JUMPDEST SWAP2 SWAP1 POP CALLVALUE PUSH2 0x260 JUMPI PUSH2 0x74A CALLDATASIZE PUSH2 0x840 JUMP JUMPDEST SWAP2 SWAP3 SWAP5 SWAP1 POP PUSH2 0x75A DUP6 ISZERO ISZERO PUSH2 0x8AD JUMP JUMPDEST DUP3 ISZERO PUSH2 0x804 JUMPI POP SWAP1 PUSH2 0x771 PUSH2 0x155 PUSH1 0x1 SWAP5 SWAP4 PUSH2 0x96C JUMP JUMPDEST DUP2 MLOAD PUSH2 0x77C DUP2 PUSH2 0x93A JUMP JUMPDEST DUP5 DUP2 MSTORE PUSH1 0x3 PUSH1 0x20 DUP3 ADD SWAP2 DUP4 DUP4 MSTORE DUP5 DUP2 ADD TIMESTAMP DUP2 MSTORE PUSH1 0x60 DUP3 ADD SWAP4 DUP8 DUP6 MSTORE CALLER DUP11 MSTORE DUP10 PUSH1 0x20 MSTORE DUP7 DUP11 KECCAK256 SWAP3 MLOAD DUP4 SSTORE MLOAD DUP8 DUP4 ADD SSTORE MLOAD PUSH1 0x2 DUP3 ADD SSTORE ADD SWAP1 MLOAD ISZERO ISZERO PUSH1 0xFF DUP1 NOT DUP4 SLOAD AND SWAP2 AND OR SWAP1 SSTORE DUP2 MLOAD PUSH32 0xBE783F8F3E4682F27CA539505686E887F818D33BA8337684712C5F23A447B868 CALLER SWAP2 DUP1 PUSH2 0x1ED TIMESTAMP DUP7 DUP11 DUP5 PUSH1 0x40 SWAP2 SWAP5 SWAP4 SWAP3 PUSH1 0x60 DUP3 ADD SWAP6 DUP3 MSTORE PUSH1 0x20 DUP3 ADD MSTORE ADD MSTORE JUMP JUMPDEST PUSH1 0x64 SWAP1 PUSH1 0x20 DUP6 MLOAD SWAP2 PUSH3 0x461BCD PUSH1 0xE5 SHL DUP4 MSTORE DUP3 ADD MSTORE PUSH1 0x16 PUSH1 0x24 DUP3 ADD MSTORE PUSH22 0x125B9D985B1A59081B585E0818DBDB1B185D195C985B PUSH1 0x52 SHL PUSH1 0x44 DUP3 ADD MSTORE REVERT JUMPDEST SWAP1 PUSH1 0x60 PUSH1 0x3 NOT DUP4 ADD SLT PUSH2 0x892 JUMPI PUSH1 0x4 CALLDATALOAD SWAP2 PUSH1 0x24 CALLDATALOAD SWAP2 PUSH1 0x44 CALLDATALOAD PUSH8 0xFFFFFFFFFFFFFFFF SWAP3 DUP4 DUP3 GT PUSH2 0x892 JUMPI DUP1 PUSH1 0x23 DUP4 ADD SLT ISZERO PUSH2 0x892 JUMPI DUP2 PUSH1 0x4 ADD CALLDATALOAD SWAP4 DUP5 GT PUSH2 0x892 JUMPI PUSH1 0x24 DUP5 DUP4 ADD ADD GT PUSH2 0x892 JUMPI PUSH1 0x24 ADD SWAP2 SWAP1 JUMP JUMPDEST PUSH1 0x0 DUP1 REVERT JUMPDEST PUSH1 0x4 CALLDATALOAD SWAP1 PUSH1 0x1 PUSH1 0x1 PUSH1 0xA0 SHL SUB DUP3 AND DUP3 SUB PUSH2 0x892 JUMPI JUMP JUMPDEST ISZERO PUSH2 0x8B4 JUMPI JUMP JUMPDEST PUSH1 0x40 MLOAD PUSH3 0x461BCD PUSH1 0xE5 SHL DUP2 MSTORE PUSH1 0x20 PUSH1 0x4 DUP3 ADD MSTORE PUSH1 0x12 PUSH1 0x24 DUP3 ADD MSTORE PUSH18 0x125B9D985B1A590818DBDB5B5A5D1B595B9D PUSH1 0x72 SHL PUSH1 0x44 DUP3 ADD MSTORE PUSH1 0x64 SWAP1 REVERT JUMPDEST ISZERO PUSH2 0x8F5 JUMPI JUMP JUMPDEST PUSH1 0x40 MLOAD PUSH3 0x461BCD PUSH1 0xE5 SHL DUP2 MSTORE PUSH1 0x20 PUSH1 0x4 DUP3 ADD MSTORE PUSH1 0x1F PUSH1 0x24 DUP3 ADD MSTORE PUSH32 0x52616E67652070726F6F6620766572696669636174696F6E206661696C656400 PUSH1 0x44 DUP3 ADD MSTORE PUSH1 0x64 SWAP1 REVERT JUMPDEST PUSH1 0x80 DUP2 ADD SWAP1 DUP2 LT PUSH8 0xFFFFFFFFFFFFFFFF DUP3 GT OR PUSH2 0x956 JUMPI PUSH1 0x40 MSTORE JUMP JUMPDEST PUSH4 0x4E487B71 PUSH1 0xE0 SHL PUSH1 0x0 MSTORE PUSH1 0x41 PUSH1 0x4 MSTORE PUSH1 0x24 PUSH1 0x0 REVERT JUMPDEST PUSH1 0x20 GT PUSH2 0x978 JUMPI PUSH1 0x1 SWAP1 JUMP JUMPDEST PUSH1 0x40 MLOAD PUSH3 0x461BCD PUSH1 0xE5 SHL DUP2 MSTORE PUSH1 0x20 PUSH1 0x4 DUP3 ADD MSTORE PUSH1 0x14 PUSH1 0x24 DUP3 ADD MSTORE PUSH20 0x92DCECC2D8D2C840E0E4DEDECC40D8CADCCEE8D PUSH1 0x63 SHL PUSH1 0x44 DUP3 ADD MSTORE PUSH1 0x64 SWAP1 REVERT INVALID LOG2 PUSH5 0x6970667358 0x22 SLT KECCAK256 0xC2 0x49 LT BLOCKHASH DUP4 0x2D GT PUSH19 0x407A74AA35B5E4D6B57BBAD28BF75B43C03C42 0xFC DIV SWAP5 0x5C LOG4 PUSH5 0x736F6C6343 STOP ADDMOD SGT STOP CALLER "},"methodIdentifiers":{"G()":"6fecb623","H()":"70a5d861","P()":"8b8fbd92","aggregatePositions(address[])":"bbcab44f","aggregatedCommitments(bytes32)":"304d059f","collateralCommitments(address)":"db0c75bb","commitCollateral(uint256,uint256,bytes)":"08e56e26","commitPosition(uint256,uint256,bytes)":"c9c54842","getCollateralCommitment(address)":"4fad2876","getPositionCommitment(address)":"1e00a3e2","hasValidCollateral(address)":"53f7def5","hasValidPosition(address)":"642d1065","positionCommitments(address)":"968ec223"}}}}}