{"contracts/WreckageMatchingPool.sol":{"WreckageMatchingPool":{"abi":[{"inputs":[{"internalType":"address","name":"_usdFryToken","type":"address"}],"stateMutability":"nonpayable","type":"constructor"},{"anonymous":false,"inputs":[{"indexed":true,"internalType":"bytes32","name":"positionId","type":"bytes32"},{"indexed":true,"internalType":"address","name":"trader","type":"address"},{"indexed":false,"internalType":"enum WreckageMatchingPool.PositionType","name":"positionType","type":"uint8"},{"indexed":false,"internalType":"string","name":"dex","type":"string"},{"indexed":false,"internalType":"string","name":"asset","type":"string"},{"indexed":false,"internalType":"uint256","name":"amountUSD","type":"uint256"}],"name":"PositionSubmitted","type":"event"},{"anonymous":false,"inputs":[{"indexed":true,"internalType":"bytes32","name":"matchId","type":"bytes32"},{"indexed":false,"internalType":"bytes32","name":"position1Id","type":"bytes32"},{"indexed":false,"internalType":"bytes32","name":"position2Id","type":"bytes32"},{"indexed":false,"internalType":"uint256","name":"matchedAmount","type":"uint256"},{"indexed":false,"internalType":"uint256","name":"fryMinted1","type":"uint256"},{"indexed":false,"internalType":"uint256","name":"fryMinted2","type":"uint256"}],"name":"PositionsMatched","type":"event"},{"anonymous":false,"inputs":[{"indexed":true,"internalType":"bytes32","name":"role","type":"bytes32"},{"indexed":true,"internalType":"bytes32","name":"previousAdminRole","type":"bytes32"},{"indexed":true,"internalType":"bytes32","name":"newAdminRole","type":"bytes32"}],"name":"RoleAdminChanged","type":"event"},{"anonymous":false,"inputs":[{"indexed":true,"internalType":"bytes32","name":"role","type":"bytes32"},{"indexed":true,"internalType":"address","name":"account","type":"address"},{"indexed":true,"internalType":"address","name":"sender","type":"address"}],"name":"RoleGranted","type":"event"},{"anonymous":false,"inputs":[{"indexed":true,"internalType":"bytes32","name":"role","type":"bytes32"},{"indexed":true,"internalType":"address","name":"account","type":"address"},{"indexed":true,"internalType":"address","name":"sender","type":"address"}],"name":"RoleRevoked","type":"event"},{"inputs":[],"name":"DEFAULT_ADMIN_ROLE","outputs":[{"internalType":"bytes32","name":"","type":"bytes32"}],"stateMutability":"view","type":"function"},{"inputs":[],"name":"MATCHER_ROLE","outputs":[{"internalType":"bytes32","name":"","type":"bytes32"}],"stateMutability":"view","type":"function"},{"inputs":[{"internalType":"uint256","name":"","type":"uint256"}],"name":"allMatchIds","outputs":[{"internalType":"bytes32","name":"","type":"bytes32"}],"stateMutability":"view","type":"function"},{"inputs":[{"internalType":"bytes32","name":"matchId","type":"bytes32"}],"name":"getMatch","outputs":[{"components":[{"internalType":"bytes32","name":"position1Id","type":"bytes32"},{"internalType":"bytes32","name":"position2Id","type":"bytes32"},{"internalType":"uint256","name":"matchedAmount","type":"uint256"},{"internalType":"uint256","name":"fryMinted1","type":"uint256"},{"internalType":"uint256","name":"fryMinted2","type":"uint256"},{"internalType":"uint256","name":"timestamp","type":"uint256"}],"internalType":"struct WreckageMatchingPool.Match","name":"","type":"tuple"}],"stateMutability":"view","type":"function"},{"inputs":[{"internalType":"bytes32","name":"positionId","type":"bytes32"}],"name":"getPosition","outputs":[{"components":[{"internalType":"address","name":"trader","type":"address"},{"internalType":"enum WreckageMatchingPool.PositionType","name":"positionType","type":"uint8"},{"internalType":"string","name":"dex","type":"string"},{"internalType":"string","name":"asset","type":"string"},{"internalType":"uint256","name":"amountUSD","type":"uint256"},{"internalType":"uint256","name":"fundingRate","type":"uint256"},{"internalType":"uint256","name":"timestamp","type":"uint256"},{"internalType":"bool","name":"isMatched","type":"bool"},{"internalType":"bytes32","name":"matchId","type":"bytes32"}],"internalType":"struct WreckageMatchingPool.WreckagePosition","name":"","type":"tuple"}],"stateMutability":"view","type":"function"},{"inputs":[{"internalType":"bytes32","name":"role","type":"bytes32"}],"name":"getRoleAdmin","outputs":[{"internalType":"bytes32","name":"","type":"bytes32"}],"stateMutability":"view","type":"function"},{"inputs":[],"name":"getSystemStats","outputs":[{"internalType":"uint256","name":"positionsSubmitted","type":"uint256"},{"internalType":"uint256","name":"positionsMatched","type":"uint256"},{"internalType":"uint256","name":"matchedVolume","type":"uint256"},{"internalType":"uint256","name":"fryMinted","type":"uint256"},{"internalType":"uint256","name":"matchRate","type":"uint256"}],"stateMutability":"view","type":"function"},{"inputs":[],"name":"getUnmatchedCount","outputs":[{"internalType":"uint256","name":"","type":"uint256"}],"stateMutability":"view","type":"function"},{"inputs":[{"internalType":"bytes32","name":"role","type":"bytes32"},{"internalType":"address","name":"account","type":"address"}],"name":"grantRole","outputs":[],"stateMutability":"nonpayable","type":"function"},{"inputs":[{"internalType":"bytes32","name":"role","type":"bytes32"},{"internalType":"address","name":"account","type":"address"}],"name":"hasRole","outputs":[{"internalType":"bool","name":"","type":"bool"}],"stateMutability":"view","type":"function"},{"inputs":[{"internalType":"bytes32","name":"pos1Id","type":"bytes32"},{"internalType":"bytes32","name":"pos2Id","type":"bytes32"}],"name":"manualMatch","outputs":[],"stateMutability":"nonpayable","type":"function"},{"inputs":[{"internalType":"bytes32","name":"","type":"bytes32"}],"name":"matches","outputs":[{"internalType":"bytes32","name":"position1Id","type":"bytes32"},{"internalType":"bytes32","name":"position2Id","type":"bytes32"},{"internalType":"uint256","name":"matchedAmount","type":"uint256"},{"internalType":"uint256","name":"fryMinted1","type":"uint256"},{"internalType":"uint256","name":"fryMinted2","type":"uint256"},{"internalType":"uint256","name":"timestamp","type":"uint256"}],"stateMutability":"view","type":"function"},{"inputs":[{"internalType":"bytes32","name":"","type":"bytes32"}],"name":"positions","outputs":[{"internalType":"address","name":"trader","type":"address"},{"internalType":"enum WreckageMatchingPool.PositionType","name":"positionType","type":"uint8"},{"internalType":"string","name":"dex","type":"string"},{"internalType":"string","name":"asset","type":"string"},{"internalType":"uint256","name":"amountUSD","type":"uint256"},{"internalType":"uint256","name":"fundingRate","type":"uint256"},{"internalType":"uint256","name":"timestamp","type":"uint256"},{"internalType":"bool","name":"isMatched","type":"bool"},{"internalType":"bytes32","name":"matchId","type":"bytes32"}],"stateMutability":"view","type":"function"},{"inputs":[{"internalType":"bytes32","name":"role","type":"bytes32"},{"internalType":"address","name":"account","type":"address"}],"name":"renounceRole","outputs":[],"stateMutability":"nonpayable","type":"function"},{"inputs":[{"internalType":"bytes32","name":"role","type":"bytes32"},{"internalType":"address","name":"account","type":"address"}],"name":"revokeRole","outputs":[],"stateMutability":"nonpayable","type":"function"},{"inputs":[{"internalType":"enum WreckageMatchingPool.PositionType","name":"positionType","type":"uint8"},{"internalType":"string","name":"dex","type":"string"},{"internalType":"string","name":"asset","type":"string"},{"internalType":"uint256","name":"amountUSD","type":"uint256"},{"internalType":"uint256","name":"fundingRate","type":"uint256"}],"name":"submitPosition","outputs":[{"internalType":"bytes32","name":"","type":"bytes32"}],"stateMutability":"nonpayable","type":"function"},{"inputs":[{"internalType":"bytes4","name":"interfaceId","type":"bytes4"}],"name":"supportsInterface","outputs":[{"internalType":"bool","name":"","type":"bool"}],"stateMutability":"view","type":"function"},{"inputs":[],"name":"totalFryFromMatching","outputs":[{"internalType":"uint256","name":"","type":"uint256"}],"stateMutability":"view","type":"function"},{"inputs":[],"name":"totalMatchedVolume","outputs":[{"internalType":"uint256","name":"","type":"uint256"}],"stateMutability":"view","type":"function"},{"inputs":[],"name":"totalPositionsMatched","outputs":[{"internalType":"uint256","name":"","type":"uint256"}],"stateMutability":"view","type":"function"},{"inputs":[],"name":"totalPositionsSubmitted","outputs":[{"internalType":"uint256","name":"","type":"uint256"}],"stateMutability":"view","type":"function"},{"inputs":[{"internalType":"uint256","name":"","type":"uint256"}],"name":"unmatchedPositions","outputs":[{"internalType":"bytes32","name":"","type":"bytes32"}],"stateMutability":"view","type":"function"},{"inputs":[],"name":"usdFryToken","outputs":[{"internalType":"contract IUSDFRYToken","name":"","type":"address"}],"stateMutability":"view","type":"function"}],"evm":{"bytecode":{"linkReferences":{},"object":"6080346200015157601f62001eec38819003918201601f1916830192916001600160401b038411838510176200015657808392604095865283396020928391810103126200015157516001600160a01b03811690819003620001515760016000818155600280546001600160a01b03191690931790925581805280835283822033835283528382205460ff16156200011a575b7fdf91394c13c48ebd5370100f1eb84afe3c6c47a78f9f9f874d5a9ec6afe0ae6b92838352818152848320338452815260ff858420541615620000df575b8451611d5f90816200016d8239f35b83835281815284832090338452528382209060ff19825416179055339160008051602062001ecc833981519152339280a438808080620000d0565b81805280835283822033835283528382208160ff1982541617905533338360008051602062001ecc8339815191528180a462000092565b600080fd5b634e487b7160e01b600052604160045260246000fdfe608080604052600436101561001357600080fd5b60003560e01c90816301ffc9a7146111ee575080631928b3cb14611059578063248a9ca31461102a5780632f2ff15d14610f8557806332117e7114610f6757806334dc19ac14610f3057806336568abe14610eac5780634df36a8914610e8e578063514ea4bf14610daa57806354f276b914610d595780636e1861da14610d3b57806374f75f90146107be5780637739329e1461079557806391d148541461075557806393ebe538146106de5780639fe9ada31461067b578063a217fddf1461065f578063b2194ff514610624578063d1ce59a71461058a578063d547741f14610557578063dfed0e9b14610204578063ee75c027146101e65763fcc6077d1461011c57600080fd5b346101e15760203660031901126101e157600060a060405161013d816113f6565b8281528260208201528260408201528260608201528260808201520152600435600052600460205260c06040600020604051610178816113f6565b8154918282526001810154602083019081526002820154604084019081526003830154916060850192835260a0600560048601549560808801968752015495019485526040519586525160208601525160408501525160608401525160808301525160a0820152f35b600080fd5b346101e15760003660031901126101e1576020600754604051908152f35b346101e15760403660031901126101e1573360009081527f95527b18c05e5568e722a7f58f23333dd43bcc7f1396211f566c2dc691ae58696020908152604090912054602491600191833591600435917fdf91394c13c48ebd5370100f1eb84afe3c6c47a78f9f9f874d5a9ec6afe0ae6b9060ff16156103a05750610287611817565b816000526003815260406000208360005260406000209060ff60068201541661035c5760ff60068301541661031857906102c091611905565b156102d55750906102d091611a2b565b600055005b606490601b866040519262461bcd60e51b845260048401528201527f506f736974696f6e732063616e6e6f74206265206d61746368656400000000006044820152fd5b60405162461bcd60e51b815260048101849052601a818901527f506f736974696f6e203220616c7265616479206d6174636865640000000000006044820152606490fd5b60405162461bcd60e51b815260048101849052601a818901527f506f736974696f6e203120616c7265616479206d6174636865640000000000006044820152606490fd5b859250846103ad336116ed565b91604051906103bb82611412565b604282528482019260603685378251156105425760308453825181101561054257607860218401536041905b8082116104d457505061049257604861048e93610463936104729360405195869376020b1b1b2b9b9a1b7b73a3937b61d1030b1b1b7bab73a1604d1b8a86015261043a815180928c60378901910161124e565b8401917001034b99036b4b9b9b4b733903937b6329607d1b60378401525180938684019061124e565b0103602881018452018261142e565b60405193849362461bcd60e51b85526004850152830190611271565b0390fd5b606485856040519162461bcd60e51b83528160048401528201527f537472696e67733a20686578206c656e67746820696e73756666696369656e746044820152fd5b9091600f8116601081101561052d576f181899199a1a9b1b9c1cb0b131b232b360811b901a61050384866116dc565b5360041c9180156105185760001901906103e7565b87634e487b7160e01b60005260116004526000fd5b88634e487b7160e01b60005260326004526000fd5b86634e487b7160e01b60005260326004526000fd5b346101e15761058861056836611296565b908060005260016020526105836001604060002001546114a7565b611659565b005b346101e15760003660031901126101e157600754600854600954600a548315939291846106185761271094858402958487041484151715610602576105ec578360a09504925b6040519485526020850152604084015260608301526080820152f35b634e487b7160e01b600052601260045260246000fd5b634e487b7160e01b600052601160045260246000fd5b60a094506000926105d0565b346101e15760003660031901126101e15760206040517fdf91394c13c48ebd5370100f1eb84afe3c6c47a78f9f9f874d5a9ec6afe0ae6b8152f35b346101e15760003660031901126101e157602060405160008152f35b346101e15760203660031901126101e157600435600052600460205260c0604060002080549060018101549060028101546003820154906005600484015493015493604051958652602086015260408501526060840152608083015260a0820152f35b346101e15760003660031901126101e157600080600554905b81811061070957602083604051908152f35b610712816112bc565b9054600391821b1c60005260205260ff6006604060002001541615610740575b61073b90611808565b6106f7565b9161074d61073b91611808565b929050610732565b346101e15761076336611296565b90600052600160205260406000209060018060a01b0316600052602052602060ff604060002054166040519015158152f35b346101e15760003660031901126101e1576002546040516001600160a01b039091168152602090f35b346101e15760a03660031901126101e157600260043510156101e15760243567ffffffffffffffff81116101e1576107fa903690600401611450565b60443567ffffffffffffffff81116101e15761081a903690600401611450565b90610823611817565b60643515610d015760843515610cbc576007546040516108a160958260208101943360601b865260043560f81b60348301528651610868816035850160208b0161124e565b820188519061087e826035830160208d0161124e565b01906064356035830152426055830152607582015203607581018452018261142e565b519020906040516108b1816113d9565b3381526108c3600435602083016117fc565b816040820152836060820152606435608082015260843560a08201524260c0820152600060e0820152600061010082015282600052600360205260406000209060018060a01b0381511682549060208301516002811015610ca6576001600160a81b03199092161760a09190911b60ff60a01b16178255604081015180519067ffffffffffffffff8211610af85781906109606001860154611309565b601f8111610c53575b50602090601f8311600114610be157600092610bd6575b50508160011b916000199060031b1c19161760018301555b606081015180519067ffffffffffffffff8211610af8576109bc6002850154611309565b601f8111610b8f575b50602090601f8311600114610b195791806007949261010094600092610b0e575b50508160011b916000199060031b1c19161760028501555b6080810151600385015560a0810151600485015560c081015160058501556006840160e0820151151560ff801983541691161790550151910155600554600160401b811015610af8577f4ce89071aec57672c4088cc029fd720d4f1dd0256ad8d036d6527134335d2d0d610ad3602095610a7f8460018896016005556112bc565b81549060031b9086821b91600019901b1916179055610a9f600754611808565b600755610ac560405195610ab587600435611241565b6080898801526080870190611271565b908582036040870152611271565b9260643560608201528033940390a3610aeb8161186d565b6001600055604051908152f35b634e487b7160e01b600052604160045260246000fd5b0151905089806109e6565b906002850160005260206000209160005b601f1985168110610b77575092600794926001926101009583601f19811610610b5e575b505050811b0160028501556109fe565b015160001960f88460031b161c19169055898080610b4e565b91926020600181928685015181550194019201610b2a565b600285016000526020600020601f840160051c810160208510610bcf575b601f830160051c82018110610bc35750506109c5565b60008155600101610bad565b5080610bad565b015190508780610980565b9250600185016000526020600020906000935b601f1984168510610c38576001945083601f19811610610c1f575b505050811b016001830155610998565b015160001960f88460031b161c19169055878080610c0f565b81810151835560209485019460019093019290910190610bf4565b909150600185016000526020600020601f840160051c810160208510610c9f575b90849392915b601f830160051c82018110610c90575050610969565b60008155859450600101610c7a565b5080610c74565b634e487b7160e01b600052602160045260246000fd5b60405162461bcd60e51b815260206004820152601860248201527f46756e64696e672072617465206d757374206265203e203000000000000000006044820152606490fd5b60405162461bcd60e51b81526020600482015260126024820152710416d6f756e74206d757374206265203e20360741b6044820152606490fd5b346101e15760003660031901126101e1576020600854604051908152f35b346101e15760203660031901126101e1576004356006548110156101e15760209060066000527ff652222313e28459528d920b65115c16c04f3efc82aaedc97be59f3f377c0d3f0154604051908152f35b346101e15760203660031901126101e1576004356000526003602052610e4e6040600020805490604051610dec81610de58160018601611343565b038261142e565b60405191610e0883610e018160028501611343565b038461142e565b6003810154926004820154610e6d600584015492610e5f600760ff600688015416960154966040519a8b9a60018060a01b0381168c5260ff60208d019160a01c16611241565b6101208060408c01528a0190611271565b9088820360608a0152611271565b94608087015260a086015260c0850152151560e08401526101008301520390f35b346101e15760003660031901126101e1576020600954604051908152f35b346101e157610eba36611296565b336001600160a01b03821603610ed35761058891611659565b60405162461bcd60e51b815260206004820152602f60248201527f416363657373436f6e74726f6c3a2063616e206f6e6c792072656e6f756e636560448201526e103937b632b9903337b91039b2b63360891b6064820152608490fd5b346101e15760203660031901126101e1576004356005548110156101e157610f596020916112bc565b90546040519160031b1c8152f35b346101e15760003660031901126101e1576020600a54604051908152f35b346101e157610f9336611296565b816000526001602052610fad6001604060002001546114a7565b81600052600160205260406000209060018060a01b0316908160005260205260ff6040600020541615610fdc57005b8160005260016020526040600020816000526020526040600020600160ff1982541617905533917f2f8788117e7eff1d82e926ec794901d17c78024a50270940304540a733656f0d600080a4005b346101e15760203660031901126101e15760043560005260016020526020600160406000200154604051908152f35b346101e1576020806003193601126101e15760405190611078826113d9565b600082526000818301526060604083015260608083015260006080830152600060a0830152600060c0830152600060e083015260006101008093015260043560005260038152604060002091604051926110d1846113d9565b838154928160018060a01b039384861682526110f660ff8884019760a01c16876117fc565b604051946111128661110b8160018601611343565b038761142e565b604083019586526111cb60405196611138886111318160028801611343565b038961142e565b6060850197885261119e600385015499608087019a8b528b60048701549560a0890196875289600760058a01549960c08c019a8b5260e060ff6006830154169c019b15158c5201549b019a8b526040519e8f9e8f525116908d01525160408c0190611241565b51966111b8610120988960608d01526101408c0190611271565b90518a8203601f190160808c0152611271565b965160a08901525160c08801525160e08701525115159085015251908301520390f35b346101e15760203660031901126101e1576004359063ffffffff60e01b82168092036101e157602091637965db0b60e01b8114908115611230575b5015158152f35b6301ffc9a760e01b14905083611229565b906002821015610ca65752565b60005b8381106112615750506000910152565b8181015183820152602001611251565b9060209161128a8151809281855285808601910161124e565b601f01601f1916010190565b60409060031901126101e157600435906024356001600160a01b03811681036101e15790565b6005548110156112f35760056000527f036b6384b5eca791c62761152d0c79bb0604c104a5fb6f4eb0703f3154bb3db00190600090565b634e487b7160e01b600052603260045260246000fd5b90600182811c92168015611339575b602083101461132357565b634e487b7160e01b600052602260045260246000fd5b91607f1691611318565b906000929180549161135483611309565b9182825260019384811690816000146113b65750600114611376575b50505050565b90919394506000526020928360002092846000945b8386106113a2575050505001019038808080611370565b80548587018301529401938590820161138b565b9294505050602093945060ff191683830152151560051b01019038808080611370565b610120810190811067ffffffffffffffff821117610af857604052565b60c0810190811067ffffffffffffffff821117610af857604052565b6080810190811067ffffffffffffffff821117610af857604052565b90601f8019910116810190811067ffffffffffffffff821117610af857604052565b81601f820112156101e15780359067ffffffffffffffff8211610af85760405192611485601f8401601f19166020018561142e565b828452602083830101116101e157816000926020809301838601378301015290565b6000818152600191602091838352604093848220338352845260ff8583205416156114d3575050505050565b6114dc336116ed565b928551916114e983611412565b60428352858301936060368637835115611645576030855383518210156116455790607860218501536041915b8183116115d75750505061159557604861048e9386936115799361156a985198899376020b1b1b2b9b9a1b7b73a3937b61d1030b1b1b7bab73a1604d1b8a86015261043a815180928c60378901910161124e565b0103602881018752018561142e565b5192839262461bcd60e51b845260048401526024830190611271565b60648486519062461bcd60e51b825280600483015260248201527f537472696e67733a20686578206c656e67746820696e73756666696369656e746044820152fd5b909192600f81166010811015611631576f181899199a1a9b1b9c1cb0b131b232b360811b901a61160785876116dc565b5360041c92801561161d57600019019190611516565b634e487b7160e01b82526011600452602482fd5b634e487b7160e01b83526032600452602483fd5b634e487b7160e01b81526032600452602490fd5b906000918083526001602052604083209160018060a01b03169182845260205260ff60408420541661168a57505050565b8083526001602052604083208284526020526040832060ff1981541690557ff6391f5c32d9c69d2a47ea670b442974b53935d1edc7fd64eb21e047a839171b339380a4565b9190820180921161060257565b9081518110156112f3570160200190565b604051906060820182811067ffffffffffffffff821117610af857604052602a82526020820160403682378251156112f3576030905381516001908110156112f357607860218401536029905b80821161178e57505061174a5790565b606460405162461bcd60e51b815260206004820152602060248201527f537472696e67733a20686578206c656e67746820696e73756666696369656e746044820152fd5b9091600f811660108110156117e7576f181899199a1a9b1b9c1cb0b131b232b360811b901a6117bd84866116dc565b5360041c9180156117d257600019019061173a565b60246000634e487b7160e01b81526011600452fd5b60246000634e487b7160e01b81526032600452fd5b6002821015610ca65752565b60001981146106025760010190565b600260005414611828576002600055565b60405162461bcd60e51b815260206004820152601f60248201527f5265656e7472616e637947756172643a207265656e7472616e742063616c6c006044820152606490fd5b6000818152600391602091838352604080822091805b6005548110156118fc57611896816112bc565b905490881b1c8581146118f25780835287875283832060ff6006820154166118e7576118c29086611905565b6118d557506118d090611808565b611883565b9550505050506118e59250611a2b565b565b50506118d090611808565b506118d090611808565b50505050505050565b60ff815460a01c1660ff835460a01c16906002821015610ca6576002811015610ca657146119bc5760405161194181610de58160028601611343565b6020815191012060405161195c81610de58160028801611343565b60208151910120036119bc5760039081015491015490818110156119b65780915b808211156119ae5750905b6078810290808204607814901517156106025760649004106119a957600190565b600090565b905090611988565b8161197d565b5050600090565b93926119f16080916127109460a094600180871b03168852602088015260c0604088015260c0870190611343565b604086820380606089015260048352630aaa688960e31b60208401520182870152600360408201526207032760ec1b606082015201930152565b9081600052600360205260406000208160005260406000209260038201546003850154808210600014611d215750915b600254815460405163458ecfad60e11b81529160209183916001600160a01b039081169183916000918391611a9b9160018b01918d9116600485016119c3565b03925af1908115611ce357600091611cef575b5060018060a01b03600254169160208560018060a01b0389541694600160008b611af0604051998a968795869463458ecfad60e11b86520191600485016119c3565b03925af1928315611ce357600093611caf575b5060405196602088018581528760408a01524260608a01526060895288608081011067ffffffffffffffff60808b011117610af857608089016040528851902097611b50608082016113f6565b85608082015260058960a083018a815260c084018a815260e08501908882526101008601928a845261012087019442865260005260046020526080604060002097015187555160018701555160028601555160038501555160048401555191015560065490600160401b821015610af85760018201806006558210156112f35788928360079360066000527ff652222313e28459528d920b65115c16c04f3efc82aaedc97be59f3f377c0d3f01558383600683019260ff1993600185825416179055015560016006830191825416179055015560085460028101809111610602576008558360011b9380850460021481151715610602577f6566df240955b8c0c5dcbc15956c9efe60ff1586d4a0a020d84bf9f5f5f0823095611c7760a0966009546116cf565b600955611c8f611c8785856116cf565b600a546116cf565b600a556040519485526020850152604084015260608301526080820152a2565b9092506020813d602011611cdb575b81611ccb6020938361142e565b810103126101e157519138611b03565b3d9150611cbe565b6040513d6000823e3d90fd5b90506020813d602011611d19575b81611d0a6020938361142e565b810103126101e1575138611aae565b3d9150611cfd565b905091611a5b56fea2646970667358221220e8b5cc93f0d746b95843b3fb75f888ffd81cf0cfbee0fde58ca37ded0abe58fe64736f6c634300081300332f8788117e7eff1d82e926ec794901d17c78024a50270940304540a733656f0d","opcodes":"PUSH1 0x80 CALLVALUE PUSH3 0x151 JUMPI PUSH1 0x1F PUSH3 0x1EEC CODESIZE DUP2 SWAP1 SUB SWAP2 DUP3 ADD PUSH1 0x1F NOT AND DUP4 ADD SWAP3 SWAP2 PUSH1 0x1 PUSH1 0x1 PUSH1 0x40 SHL SUB DUP5 GT DUP4 DUP6 LT OR PUSH3 0x156 JUMPI DUP1 DUP4 SWAP3 PUSH1 0x40 SWAP6 DUP7 MSTORE DUP4 CODECOPY PUSH1 0x20 SWAP3 DUP4 SWAP2 DUP2 ADD SUB SLT PUSH3 0x151 JUMPI MLOAD PUSH1 0x1 PUSH1 0x1 PUSH1 0xA0 SHL SUB DUP2 AND SWAP1 DUP2 SWAP1 SUB PUSH3 0x151 JUMPI PUSH1 0x1 PUSH1 0x0 DUP2 DUP2 SSTORE PUSH1 0x2 DUP1 SLOAD PUSH1 0x1 PUSH1 0x1 PUSH1 0xA0 SHL SUB NOT AND SWAP1 SWAP4 OR SWAP1 SWAP3 SSTORE DUP2 DUP1 MSTORE DUP1 DUP4 MSTORE DUP4 DUP3 KECCAK256 CALLER DUP4 MSTORE DUP4 MSTORE DUP4 DUP3 KECCAK256 SLOAD PUSH1 0xFF AND ISZERO PUSH3 0x11A JUMPI JUMPDEST PUSH32 0xDF91394C13C48EBD5370100F1EB84AFE3C6C47A78F9F9F874D5A9EC6AFE0AE6B SWAP3 DUP4 DUP4 MSTORE DUP2 DUP2 MSTORE DUP5 DUP4 KECCAK256 CALLER DUP5 MSTORE DUP2 MSTORE PUSH1 0xFF DUP6 DUP5 KECCAK256 SLOAD AND ISZERO PUSH3 0xDF JUMPI JUMPDEST DUP5 MLOAD PUSH2 0x1D5F SWAP1 DUP2 PUSH3 0x16D DUP3 CODECOPY RETURN JUMPDEST DUP4 DUP4 MSTORE DUP2 DUP2 MSTORE DUP5 DUP4 KECCAK256 SWAP1 CALLER DUP5 MSTORE MSTORE DUP4 DUP3 KECCAK256 SWAP1 PUSH1 0xFF NOT DUP3 SLOAD AND OR SWAP1 SSTORE CALLER SWAP2 PUSH1 0x0 DUP1 MLOAD PUSH1 0x20 PUSH3 0x1ECC DUP4 CODECOPY DUP2 MLOAD SWAP2 MSTORE CALLER SWAP3 DUP1 LOG4 CODESIZE DUP1 DUP1 DUP1 PUSH3 0xD0 JUMP JUMPDEST DUP2 DUP1 MSTORE DUP1 DUP4 MSTORE DUP4 DUP3 KECCAK256 CALLER DUP4 MSTORE DUP4 MSTORE DUP4 DUP3 KECCAK256 DUP2 PUSH1 0xFF NOT DUP3 SLOAD AND OR SWAP1 SSTORE CALLER CALLER DUP4 PUSH1 0x0 DUP1 MLOAD PUSH1 0x20 PUSH3 0x1ECC DUP4 CODECOPY DUP2 MLOAD SWAP2 MSTORE DUP2 DUP1 LOG4 PUSH3 0x92 JUMP JUMPDEST PUSH1 0x0 DUP1 REVERT JUMPDEST PUSH4 0x4E487B71 PUSH1 0xE0 SHL PUSH1 0x0 MSTORE PUSH1 0x41 PUSH1 0x4 MSTORE PUSH1 0x24 PUSH1 0x0 REVERT INVALID PUSH1 0x80 DUP1 PUSH1 0x40 MSTORE PUSH1 0x4 CALLDATASIZE LT ISZERO PUSH2 0x13 JUMPI PUSH1 0x0 DUP1 REVERT JUMPDEST PUSH1 0x0 CALLDATALOAD PUSH1 0xE0 SHR SWAP1 DUP2 PUSH4 0x1FFC9A7 EQ PUSH2 0x11EE JUMPI POP DUP1 PUSH4 0x1928B3CB EQ PUSH2 0x1059 JUMPI DUP1 PUSH4 0x248A9CA3 EQ PUSH2 0x102A JUMPI DUP1 PUSH4 0x2F2FF15D EQ PUSH2 0xF85 JUMPI DUP1 PUSH4 0x32117E71 EQ PUSH2 0xF67 JUMPI DUP1 PUSH4 0x34DC19AC EQ PUSH2 0xF30 JUMPI DUP1 PUSH4 0x36568ABE EQ PUSH2 0xEAC JUMPI DUP1 PUSH4 0x4DF36A89 EQ PUSH2 0xE8E JUMPI DUP1 PUSH4 0x514EA4BF EQ PUSH2 0xDAA JUMPI DUP1 PUSH4 0x54F276B9 EQ PUSH2 0xD59 JUMPI DUP1 PUSH4 0x6E1861DA EQ PUSH2 0xD3B JUMPI DUP1 PUSH4 0x74F75F90 EQ PUSH2 0x7BE JUMPI DUP1 PUSH4 0x7739329E EQ PUSH2 0x795 JUMPI DUP1 PUSH4 0x91D14854 EQ PUSH2 0x755 JUMPI DUP1 PUSH4 0x93EBE538 EQ PUSH2 0x6DE JUMPI DUP1 PUSH4 0x9FE9ADA3 EQ PUSH2 0x67B JUMPI DUP1 PUSH4 0xA217FDDF EQ PUSH2 0x65F JUMPI DUP1 PUSH4 0xB2194FF5 EQ PUSH2 0x624 JUMPI DUP1 PUSH4 0xD1CE59A7 EQ PUSH2 0x58A JUMPI DUP1 PUSH4 0xD547741F EQ PUSH2 0x557 JUMPI DUP1 PUSH4 0xDFED0E9B EQ PUSH2 0x204 JUMPI DUP1 PUSH4 0xEE75C027 EQ PUSH2 0x1E6 JUMPI PUSH4 0xFCC6077D EQ PUSH2 0x11C JUMPI PUSH1 0x0 DUP1 REVERT JUMPDEST CALLVALUE PUSH2 0x1E1 JUMPI PUSH1 0x20 CALLDATASIZE PUSH1 0x3 NOT ADD SLT PUSH2 0x1E1 JUMPI PUSH1 0x0 PUSH1 0xA0 PUSH1 0x40 MLOAD PUSH2 0x13D DUP2 PUSH2 0x13F6 JUMP JUMPDEST DUP3 DUP2 MSTORE DUP3 PUSH1 0x20 DUP3 ADD MSTORE DUP3 PUSH1 0x40 DUP3 ADD MSTORE DUP3 PUSH1 0x60 DUP3 ADD MSTORE DUP3 PUSH1 0x80 DUP3 ADD MSTORE ADD MSTORE PUSH1 0x4 CALLDATALOAD PUSH1 0x0 MSTORE PUSH1 0x4 PUSH1 0x20 MSTORE PUSH1 0xC0 PUSH1 0x40 PUSH1 0x0 KECCAK256 PUSH1 0x40 MLOAD PUSH2 0x178 DUP2 PUSH2 0x13F6 JUMP JUMPDEST DUP2 SLOAD SWAP2 DUP3 DUP3 MSTORE PUSH1 0x1 DUP2 ADD SLOAD PUSH1 0x20 DUP4 ADD SWAP1 DUP2 MSTORE PUSH1 0x2 DUP3 ADD SLOAD PUSH1 0x40 DUP5 ADD SWAP1 DUP2 MSTORE PUSH1 0x3 DUP4 ADD SLOAD SWAP2 PUSH1 0x60 DUP6 ADD SWAP3 DUP4 MSTORE PUSH1 0xA0 PUSH1 0x5 PUSH1 0x4 DUP7 ADD SLOAD SWAP6 PUSH1 0x80 DUP9 ADD SWAP7 DUP8 MSTORE ADD SLOAD SWAP6 ADD SWAP5 DUP6 MSTORE PUSH1 0x40 MLOAD SWAP6 DUP7 MSTORE MLOAD PUSH1 0x20 DUP7 ADD MSTORE MLOAD PUSH1 0x40 DUP6 ADD MSTORE MLOAD PUSH1 0x60 DUP5 ADD MSTORE MLOAD PUSH1 0x80 DUP4 ADD MSTORE MLOAD PUSH1 0xA0 DUP3 ADD MSTORE RETURN JUMPDEST PUSH1 0x0 DUP1 REVERT JUMPDEST CALLVALUE PUSH2 0x1E1 JUMPI PUSH1 0x0 CALLDATASIZE PUSH1 0x3 NOT ADD SLT PUSH2 0x1E1 JUMPI PUSH1 0x20 PUSH1 0x7 SLOAD PUSH1 0x40 MLOAD SWAP1 DUP2 MSTORE RETURN JUMPDEST CALLVALUE PUSH2 0x1E1 JUMPI PUSH1 0x40 CALLDATASIZE PUSH1 0x3 NOT ADD SLT PUSH2 0x1E1 JUMPI CALLER PUSH1 0x0 SWAP1 DUP2 MSTORE PUSH32 0x95527B18C05E5568E722A7F58F23333DD43BCC7F1396211F566C2DC691AE5869 PUSH1 0x20 SWAP1 DUP2 MSTORE PUSH1 0x40 SWAP1 SWAP2 KECCAK256 SLOAD PUSH1 0x24 SWAP2 PUSH1 0x1 SWAP2 DUP4 CALLDATALOAD SWAP2 PUSH1 0x4 CALLDATALOAD SWAP2 PUSH32 0xDF91394C13C48EBD5370100F1EB84AFE3C6C47A78F9F9F874D5A9EC6AFE0AE6B SWAP1 PUSH1 0xFF AND ISZERO PUSH2 0x3A0 JUMPI POP PUSH2 0x287 PUSH2 0x1817 JUMP JUMPDEST DUP2 PUSH1 0x0 MSTORE PUSH1 0x3 DUP2 MSTORE PUSH1 0x40 PUSH1 0x0 KECCAK256 DUP4 PUSH1 0x0 MSTORE PUSH1 0x40 PUSH1 0x0 KECCAK256 SWAP1 PUSH1 0xFF PUSH1 0x6 DUP3 ADD SLOAD AND PUSH2 0x35C JUMPI PUSH1 0xFF PUSH1 0x6 DUP4 ADD SLOAD AND PUSH2 0x318 JUMPI SWAP1 PUSH2 0x2C0 SWAP2 PUSH2 0x1905 JUMP JUMPDEST ISZERO PUSH2 0x2D5 JUMPI POP SWAP1 PUSH2 0x2D0 SWAP2 PUSH2 0x1A2B JUMP JUMPDEST PUSH1 0x0 SSTORE STOP JUMPDEST PUSH1 0x64 SWAP1 PUSH1 0x1B DUP7 PUSH1 0x40 MLOAD SWAP3 PUSH3 0x461BCD PUSH1 0xE5 SHL DUP5 MSTORE PUSH1 0x4 DUP5 ADD MSTORE DUP3 ADD MSTORE PUSH32 0x506F736974696F6E732063616E6E6F74206265206D6174636865640000000000 PUSH1 0x44 DUP3 ADD MSTORE REVERT JUMPDEST PUSH1 0x40 MLOAD PUSH3 0x461BCD PUSH1 0xE5 SHL DUP2 MSTORE PUSH1 0x4 DUP2 ADD DUP5 SWAP1 MSTORE PUSH1 0x1A DUP2 DUP10 ADD MSTORE PUSH32 0x506F736974696F6E203220616C7265616479206D617463686564000000000000 PUSH1 0x44 DUP3 ADD MSTORE PUSH1 0x64 SWAP1 REVERT JUMPDEST PUSH1 0x40 MLOAD PUSH3 0x461BCD PUSH1 0xE5 SHL DUP2 MSTORE PUSH1 0x4 DUP2 ADD DUP5 SWAP1 MSTORE PUSH1 0x1A DUP2 DUP10 ADD MSTORE PUSH32 0x506F736974696F6E203120616C7265616479206D617463686564000000000000 PUSH1 0x44 DUP3 ADD MSTORE PUSH1 0x64 SWAP1 REVERT JUMPDEST DUP6 SWAP3 POP DUP5 PUSH2 0x3AD CALLER PUSH2 0x16ED JUMP JUMPDEST SWAP2 PUSH1 0x40 MLOAD SWAP1 PUSH2 0x3BB DUP3 PUSH2 0x1412 JUMP JUMPDEST PUSH1 0x42 DUP3 MSTORE DUP5 DUP3 ADD SWAP3 PUSH1 0x60 CALLDATASIZE DUP6 CALLDATACOPY DUP3 MLOAD ISZERO PUSH2 0x542 JUMPI PUSH1 0x30 DUP5 MSTORE8 DUP3 MLOAD DUP2 LT ISZERO PUSH2 0x542 JUMPI PUSH1 0x78 PUSH1 0x21 DUP5 ADD MSTORE8 PUSH1 0x41 SWAP1 JUMPDEST DUP1 DUP3 GT PUSH2 0x4D4 JUMPI POP POP PUSH2 0x492 JUMPI PUSH1 0x48 PUSH2 0x48E SWAP4 PUSH2 0x463 SWAP4 PUSH2 0x472 SWAP4 PUSH1 0x40 MLOAD SWAP6 DUP7 SWAP4 PUSH23 0x20B1B1B2B9B9A1B7B73A3937B61D1030B1B1B7BAB73A1 PUSH1 0x4D SHL DUP11 DUP7 ADD MSTORE PUSH2 0x43A DUP2 MLOAD DUP1 SWAP3 DUP13 PUSH1 0x37 DUP10 ADD SWAP2 ADD PUSH2 0x124E JUMP JUMPDEST DUP5 ADD SWAP2 PUSH17 0x1034B99036B4B9B9B4B733903937B6329 PUSH1 0x7D SHL PUSH1 0x37 DUP5 ADD MSTORE MLOAD DUP1 SWAP4 DUP7 DUP5 ADD SWAP1 PUSH2 0x124E JUMP JUMPDEST ADD SUB PUSH1 0x28 DUP2 ADD DUP5 MSTORE ADD DUP3 PUSH2 0x142E JUMP JUMPDEST PUSH1 0x40 MLOAD SWAP4 DUP5 SWAP4 PUSH3 0x461BCD PUSH1 0xE5 SHL DUP6 MSTORE PUSH1 0x4 DUP6 ADD MSTORE DUP4 ADD SWAP1 PUSH2 0x1271 JUMP JUMPDEST SUB SWAP1 REVERT JUMPDEST PUSH1 0x64 DUP6 DUP6 PUSH1 0x40 MLOAD SWAP2 PUSH3 0x461BCD PUSH1 0xE5 SHL DUP4 MSTORE DUP2 PUSH1 0x4 DUP5 ADD MSTORE DUP3 ADD MSTORE PUSH32 0x537472696E67733A20686578206C656E67746820696E73756666696369656E74 PUSH1 0x44 DUP3 ADD MSTORE REVERT JUMPDEST SWAP1 SWAP2 PUSH1 0xF DUP2 AND PUSH1 0x10 DUP2 LT ISZERO PUSH2 0x52D JUMPI PUSH16 0x181899199A1A9B1B9C1CB0B131B232B3 PUSH1 0x81 SHL SWAP1 BYTE PUSH2 0x503 DUP5 DUP7 PUSH2 0x16DC JUMP JUMPDEST MSTORE8 PUSH1 0x4 SHR SWAP2 DUP1 ISZERO PUSH2 0x518 JUMPI PUSH1 0x0 NOT ADD SWAP1 PUSH2 0x3E7 JUMP JUMPDEST DUP8 PUSH4 0x4E487B71 PUSH1 0xE0 SHL PUSH1 0x0 MSTORE PUSH1 0x11 PUSH1 0x4 MSTORE PUSH1 0x0 REVERT JUMPDEST DUP9 PUSH4 0x4E487B71 PUSH1 0xE0 SHL PUSH1 0x0 MSTORE PUSH1 0x32 PUSH1 0x4 MSTORE PUSH1 0x0 REVERT JUMPDEST DUP7 PUSH4 0x4E487B71 PUSH1 0xE0 SHL PUSH1 0x0 MSTORE PUSH1 0x32 PUSH1 0x4 MSTORE PUSH1 0x0 REVERT JUMPDEST CALLVALUE PUSH2 0x1E1 JUMPI PUSH2 0x588 PUSH2 0x568 CALLDATASIZE PUSH2 0x1296 JUMP JUMPDEST SWAP1 DUP1 PUSH1 0x0 MSTORE PUSH1 0x1 PUSH1 0x20 MSTORE PUSH2 0x583 PUSH1 0x1 PUSH1 0x40 PUSH1 0x0 KECCAK256 ADD SLOAD PUSH2 0x14A7 JUMP JUMPDEST PUSH2 0x1659 JUMP JUMPDEST STOP JUMPDEST CALLVALUE PUSH2 0x1E1 JUMPI PUSH1 0x0 CALLDATASIZE PUSH1 0x3 NOT ADD SLT PUSH2 0x1E1 JUMPI PUSH1 0x7 SLOAD PUSH1 0x8 SLOAD PUSH1 0x9 SLOAD PUSH1 0xA SLOAD DUP4 ISZERO SWAP4 SWAP3 SWAP2 DUP5 PUSH2 0x618 JUMPI PUSH2 0x2710 SWAP5 DUP6 DUP5 MUL SWAP6 DUP5 DUP8 DIV EQ DUP5 ISZERO OR ISZERO PUSH2 0x602 JUMPI PUSH2 0x5EC JUMPI DUP4 PUSH1 0xA0 SWAP6 DIV SWAP3 JUMPDEST PUSH1 0x40 MLOAD SWAP5 DUP6 MSTORE PUSH1 0x20 DUP6 ADD MSTORE PUSH1 0x40 DUP5 ADD MSTORE PUSH1 0x60 DUP4 ADD MSTORE PUSH1 0x80 DUP3 ADD MSTORE RETURN JUMPDEST PUSH4 0x4E487B71 PUSH1 0xE0 SHL PUSH1 0x0 MSTORE PUSH1 0x12 PUSH1 0x4 MSTORE PUSH1 0x24 PUSH1 0x0 REVERT JUMPDEST PUSH4 0x4E487B71 PUSH1 0xE0 SHL PUSH1 0x0 MSTORE PUSH1 0x11 PUSH1 0x4 MSTORE PUSH1 0x24 PUSH1 0x0 REVERT JUMPDEST PUSH1 0xA0 SWAP5 POP PUSH1 0x0 SWAP3 PUSH2 0x5D0 JUMP JUMPDEST CALLVALUE PUSH2 0x1E1 JUMPI PUSH1 0x0 CALLDATASIZE PUSH1 0x3 NOT ADD SLT PUSH2 0x1E1 JUMPI PUSH1 0x20 PUSH1 0x40 MLOAD PUSH32 0xDF91394C13C48EBD5370100F1EB84AFE3C6C47A78F9F9F874D5A9EC6AFE0AE6B DUP2 MSTORE RETURN JUMPDEST CALLVALUE PUSH2 0x1E1 JUMPI PUSH1 0x0 CALLDATASIZE PUSH1 0x3 NOT ADD SLT PUSH2 0x1E1 JUMPI PUSH1 0x20 PUSH1 0x40 MLOAD PUSH1 0x0 DUP2 MSTORE RETURN JUMPDEST CALLVALUE PUSH2 0x1E1 JUMPI PUSH1 0x20 CALLDATASIZE PUSH1 0x3 NOT ADD SLT PUSH2 0x1E1 JUMPI PUSH1 0x4 CALLDATALOAD PUSH1 0x0 MSTORE PUSH1 0x4 PUSH1 0x20 MSTORE PUSH1 0xC0 PUSH1 0x40 PUSH1 0x0 KECCAK256 DUP1 SLOAD SWAP1 PUSH1 0x1 DUP2 ADD SLOAD SWAP1 PUSH1 0x2 DUP2 ADD SLOAD PUSH1 0x3 DUP3 ADD SLOAD SWAP1 PUSH1 0x5 PUSH1 0x4 DUP5 ADD SLOAD SWAP4 ADD SLOAD SWAP4 PUSH1 0x40 MLOAD SWAP6 DUP7 MSTORE PUSH1 0x20 DUP7 ADD MSTORE PUSH1 0x40 DUP6 ADD MSTORE PUSH1 0x60 DUP5 ADD MSTORE PUSH1 0x80 DUP4 ADD MSTORE PUSH1 0xA0 DUP3 ADD MSTORE RETURN JUMPDEST CALLVALUE PUSH2 0x1E1 JUMPI PUSH1 0x0 CALLDATASIZE PUSH1 0x3 NOT ADD SLT PUSH2 0x1E1 JUMPI PUSH1 0x0 DUP1 PUSH1 0x5 SLOAD SWAP1 JUMPDEST DUP2 DUP2 LT PUSH2 0x709 JUMPI PUSH1 0x20 DUP4 PUSH1 0x40 MLOAD SWAP1 DUP2 MSTORE RETURN JUMPDEST PUSH2 0x712 DUP2 PUSH2 0x12BC JUMP JUMPDEST SWAP1 SLOAD PUSH1 0x3 SWAP2 DUP3 SHL SHR PUSH1 0x0 MSTORE PUSH1 0x20 MSTORE PUSH1 0xFF PUSH1 0x6 PUSH1 0x40 PUSH1 0x0 KECCAK256 ADD SLOAD AND ISZERO PUSH2 0x740 JUMPI JUMPDEST PUSH2 0x73B SWAP1 PUSH2 0x1808 JUMP JUMPDEST PUSH2 0x6F7 JUMP JUMPDEST SWAP2 PUSH2 0x74D PUSH2 0x73B SWAP2 PUSH2 0x1808 JUMP JUMPDEST SWAP3 SWAP1 POP PUSH2 0x732 JUMP JUMPDEST CALLVALUE PUSH2 0x1E1 JUMPI PUSH2 0x763 CALLDATASIZE PUSH2 0x1296 JUMP JUMPDEST SWAP1 PUSH1 0x0 MSTORE PUSH1 0x1 PUSH1 0x20 MSTORE PUSH1 0x40 PUSH1 0x0 KECCAK256 SWAP1 PUSH1 0x1 DUP1 PUSH1 0xA0 SHL SUB AND PUSH1 0x0 MSTORE PUSH1 0x20 MSTORE PUSH1 0x20 PUSH1 0xFF PUSH1 0x40 PUSH1 0x0 KECCAK256 SLOAD AND PUSH1 0x40 MLOAD SWAP1 ISZERO ISZERO DUP2 MSTORE RETURN JUMPDEST CALLVALUE PUSH2 0x1E1 JUMPI PUSH1 0x0 CALLDATASIZE PUSH1 0x3 NOT ADD SLT PUSH2 0x1E1 JUMPI PUSH1 0x2 SLOAD PUSH1 0x40 MLOAD PUSH1 0x1 PUSH1 0x1 PUSH1 0xA0 SHL SUB SWAP1 SWAP2 AND DUP2 MSTORE PUSH1 0x20 SWAP1 RETURN JUMPDEST CALLVALUE PUSH2 0x1E1 JUMPI PUSH1 0xA0 CALLDATASIZE PUSH1 0x3 NOT ADD SLT PUSH2 0x1E1 JUMPI PUSH1 0x2 PUSH1 0x4 CALLDATALOAD LT ISZERO PUSH2 0x1E1 JUMPI PUSH1 0x24 CALLDATALOAD PUSH8 0xFFFFFFFFFFFFFFFF DUP2 GT PUSH2 0x1E1 JUMPI PUSH2 0x7FA SWAP1 CALLDATASIZE SWAP1 PUSH1 0x4 ADD PUSH2 0x1450 JUMP JUMPDEST PUSH1 0x44 CALLDATALOAD PUSH8 0xFFFFFFFFFFFFFFFF DUP2 GT PUSH2 0x1E1 JUMPI PUSH2 0x81A SWAP1 CALLDATASIZE SWAP1 PUSH1 0x4 ADD PUSH2 0x1450 JUMP JUMPDEST SWAP1 PUSH2 0x823 PUSH2 0x1817 JUMP JUMPDEST PUSH1 0x64 CALLDATALOAD ISZERO PUSH2 0xD01 JUMPI PUSH1 0x84 CALLDATALOAD ISZERO PUSH2 0xCBC JUMPI PUSH1 0x7 SLOAD PUSH1 0x40 MLOAD PUSH2 0x8A1 PUSH1 0x95 DUP3 PUSH1 0x20 DUP2 ADD SWAP5 CALLER PUSH1 0x60 SHL DUP7 MSTORE PUSH1 0x4 CALLDATALOAD PUSH1 0xF8 SHL PUSH1 0x34 DUP4 ADD MSTORE DUP7 MLOAD PUSH2 0x868 DUP2 PUSH1 0x35 DUP6 ADD PUSH1 0x20 DUP12 ADD PUSH2 0x124E JUMP JUMPDEST DUP3 ADD DUP9 MLOAD SWAP1 PUSH2 0x87E DUP3 PUSH1 0x35 DUP4 ADD PUSH1 0x20 DUP14 ADD PUSH2 0x124E JUMP JUMPDEST ADD SWAP1 PUSH1 0x64 CALLDATALOAD PUSH1 0x35 DUP4 ADD MSTORE TIMESTAMP PUSH1 0x55 DUP4 ADD MSTORE PUSH1 0x75 DUP3 ADD MSTORE SUB PUSH1 0x75 DUP2 ADD DUP5 MSTORE ADD DUP3 PUSH2 0x142E JUMP JUMPDEST MLOAD SWAP1 KECCAK256 SWAP1 PUSH1 0x40 MLOAD PUSH2 0x8B1 DUP2 PUSH2 0x13D9 JUMP JUMPDEST CALLER DUP2 MSTORE PUSH2 0x8C3 PUSH1 0x4 CALLDATALOAD PUSH1 0x20 DUP4 ADD PUSH2 0x17FC JUMP JUMPDEST DUP2 PUSH1 0x40 DUP3 ADD MSTORE DUP4 PUSH1 0x60 DUP3 ADD MSTORE PUSH1 0x64 CALLDATALOAD PUSH1 0x80 DUP3 ADD MSTORE PUSH1 0x84 CALLDATALOAD PUSH1 0xA0 DUP3 ADD MSTORE TIMESTAMP PUSH1 0xC0 DUP3 ADD MSTORE PUSH1 0x0 PUSH1 0xE0 DUP3 ADD MSTORE PUSH1 0x0 PUSH2 0x100 DUP3 ADD MSTORE DUP3 PUSH1 0x0 MSTORE PUSH1 0x3 PUSH1 0x20 MSTORE PUSH1 0x40 PUSH1 0x0 KECCAK256 SWAP1 PUSH1 0x1 DUP1 PUSH1 0xA0 SHL SUB DUP2 MLOAD AND DUP3 SLOAD SWAP1 PUSH1 0x20 DUP4 ADD MLOAD PUSH1 0x2 DUP2 LT ISZERO PUSH2 0xCA6 JUMPI PUSH1 0x1 PUSH1 0x1 PUSH1 0xA8 SHL SUB NOT SWAP1 SWAP3 AND OR PUSH1 0xA0 SWAP2 SWAP1 SWAP2 SHL PUSH1 0xFF PUSH1 0xA0 SHL AND OR DUP3 SSTORE PUSH1 0x40 DUP2 ADD MLOAD DUP1 MLOAD SWAP1 PUSH8 0xFFFFFFFFFFFFFFFF DUP3 GT PUSH2 0xAF8 JUMPI DUP2 SWAP1 PUSH2 0x960 PUSH1 0x1 DUP7 ADD SLOAD PUSH2 0x1309 JUMP JUMPDEST PUSH1 0x1F DUP2 GT PUSH2 0xC53 JUMPI JUMPDEST POP PUSH1 0x20 SWAP1 PUSH1 0x1F DUP4 GT PUSH1 0x1 EQ PUSH2 0xBE1 JUMPI PUSH1 0x0 SWAP3 PUSH2 0xBD6 JUMPI JUMPDEST POP POP DUP2 PUSH1 0x1 SHL SWAP2 PUSH1 0x0 NOT SWAP1 PUSH1 0x3 SHL SHR NOT AND OR PUSH1 0x1 DUP4 ADD SSTORE JUMPDEST PUSH1 0x60 DUP2 ADD MLOAD DUP1 MLOAD SWAP1 PUSH8 0xFFFFFFFFFFFFFFFF DUP3 GT PUSH2 0xAF8 JUMPI PUSH2 0x9BC PUSH1 0x2 DUP6 ADD SLOAD PUSH2 0x1309 JUMP JUMPDEST PUSH1 0x1F DUP2 GT PUSH2 0xB8F JUMPI JUMPDEST POP PUSH1 0x20 SWAP1 PUSH1 0x1F DUP4 GT PUSH1 0x1 EQ PUSH2 0xB19 JUMPI SWAP2 DUP1 PUSH1 0x7 SWAP5 SWAP3 PUSH2 0x100 SWAP5 PUSH1 0x0 SWAP3 PUSH2 0xB0E JUMPI JUMPDEST POP POP DUP2 PUSH1 0x1 SHL SWAP2 PUSH1 0x0 NOT SWAP1 PUSH1 0x3 SHL SHR NOT AND OR PUSH1 0x2 DUP6 ADD SSTORE JUMPDEST PUSH1 0x80 DUP2 ADD MLOAD PUSH1 0x3 DUP6 ADD SSTORE PUSH1 0xA0 DUP2 ADD MLOAD PUSH1 0x4 DUP6 ADD SSTORE PUSH1 0xC0 DUP2 ADD MLOAD PUSH1 0x5 DUP6 ADD SSTORE PUSH1 0x6 DUP5 ADD PUSH1 0xE0 DUP3 ADD MLOAD ISZERO ISZERO PUSH1 0xFF DUP1 NOT DUP4 SLOAD AND SWAP2 AND OR SWAP1 SSTORE ADD MLOAD SWAP2 ADD SSTORE PUSH1 0x5 SLOAD PUSH1 0x1 PUSH1 0x40 SHL DUP2 LT ISZERO PUSH2 0xAF8 JUMPI PUSH32 0x4CE89071AEC57672C4088CC029FD720D4F1DD0256AD8D036D6527134335D2D0D PUSH2 0xAD3 PUSH1 0x20 SWAP6 PUSH2 0xA7F DUP5 PUSH1 0x1 DUP9 SWAP7 ADD PUSH1 0x5 SSTORE PUSH2 0x12BC JUMP JUMPDEST DUP2 SLOAD SWAP1 PUSH1 0x3 SHL SWAP1 DUP7 DUP3 SHL SWAP2 PUSH1 0x0 NOT SWAP1 SHL NOT AND OR SWAP1 SSTORE PUSH2 0xA9F PUSH1 0x7 SLOAD PUSH2 0x1808 JUMP JUMPDEST PUSH1 0x7 SSTORE PUSH2 0xAC5 PUSH1 0x40 MLOAD SWAP6 PUSH2 0xAB5 DUP8 PUSH1 0x4 CALLDATALOAD PUSH2 0x1241 JUMP JUMPDEST PUSH1 0x80 DUP10 DUP9 ADD MSTORE PUSH1 0x80 DUP8 ADD SWAP1 PUSH2 0x1271 JUMP JUMPDEST SWAP1 DUP6 DUP3 SUB PUSH1 0x40 DUP8 ADD MSTORE PUSH2 0x1271 JUMP JUMPDEST SWAP3 PUSH1 0x64 CALLDATALOAD PUSH1 0x60 DUP3 ADD MSTORE DUP1 CALLER SWAP5 SUB SWAP1 LOG3 PUSH2 0xAEB DUP2 PUSH2 0x186D JUMP JUMPDEST PUSH1 0x1 PUSH1 0x0 SSTORE PUSH1 0x40 MLOAD SWAP1 DUP2 MSTORE RETURN JUMPDEST PUSH4 0x4E487B71 PUSH1 0xE0 SHL PUSH1 0x0 MSTORE PUSH1 0x41 PUSH1 0x4 MSTORE PUSH1 0x24 PUSH1 0x0 REVERT JUMPDEST ADD MLOAD SWAP1 POP DUP10 DUP1 PUSH2 0x9E6 JUMP JUMPDEST SWAP1 PUSH1 0x2 DUP6 ADD PUSH1 0x0 MSTORE PUSH1 0x20 PUSH1 0x0 KECCAK256 SWAP2 PUSH1 0x0 JUMPDEST PUSH1 0x1F NOT DUP6 AND DUP2 LT PUSH2 0xB77 JUMPI POP SWAP3 PUSH1 0x7 SWAP5 SWAP3 PUSH1 0x1 SWAP3 PUSH2 0x100 SWAP6 DUP4 PUSH1 0x1F NOT DUP2 AND LT PUSH2 0xB5E JUMPI JUMPDEST POP POP POP DUP2 SHL ADD PUSH1 0x2 DUP6 ADD SSTORE PUSH2 0x9FE JUMP JUMPDEST ADD MLOAD PUSH1 0x0 NOT PUSH1 0xF8 DUP5 PUSH1 0x3 SHL AND SHR NOT AND SWAP1 SSTORE DUP10 DUP1 DUP1 PUSH2 0xB4E JUMP JUMPDEST SWAP2 SWAP3 PUSH1 0x20 PUSH1 0x1 DUP2 SWAP3 DUP7 DUP6 ADD MLOAD DUP2 SSTORE ADD SWAP5 ADD SWAP3 ADD PUSH2 0xB2A JUMP JUMPDEST PUSH1 0x2 DUP6 ADD PUSH1 0x0 MSTORE PUSH1 0x20 PUSH1 0x0 KECCAK256 PUSH1 0x1F DUP5 ADD PUSH1 0x5 SHR DUP2 ADD PUSH1 0x20 DUP6 LT PUSH2 0xBCF JUMPI JUMPDEST PUSH1 0x1F DUP4 ADD PUSH1 0x5 SHR DUP3 ADD DUP2 LT PUSH2 0xBC3 JUMPI POP POP PUSH2 0x9C5 JUMP JUMPDEST PUSH1 0x0 DUP2 SSTORE PUSH1 0x1 ADD PUSH2 0xBAD JUMP JUMPDEST POP DUP1 PUSH2 0xBAD JUMP JUMPDEST ADD MLOAD SWAP1 POP DUP8 DUP1 PUSH2 0x980 JUMP JUMPDEST SWAP3 POP PUSH1 0x1 DUP6 ADD PUSH1 0x0 MSTORE PUSH1 0x20 PUSH1 0x0 KECCAK256 SWAP1 PUSH1 0x0 SWAP4 JUMPDEST PUSH1 0x1F NOT DUP5 AND DUP6 LT PUSH2 0xC38 JUMPI PUSH1 0x1 SWAP5 POP DUP4 PUSH1 0x1F NOT DUP2 AND LT PUSH2 0xC1F JUMPI JUMPDEST POP POP POP DUP2 SHL ADD PUSH1 0x1 DUP4 ADD SSTORE PUSH2 0x998 JUMP JUMPDEST ADD MLOAD PUSH1 0x0 NOT PUSH1 0xF8 DUP5 PUSH1 0x3 SHL AND SHR NOT AND SWAP1 SSTORE DUP8 DUP1 DUP1 PUSH2 0xC0F JUMP JUMPDEST DUP2 DUP2 ADD MLOAD DUP4 SSTORE PUSH1 0x20 SWAP5 DUP6 ADD SWAP5 PUSH1 0x1 SWAP1 SWAP4 ADD SWAP3 SWAP1 SWAP2 ADD SWAP1 PUSH2 0xBF4 JUMP JUMPDEST SWAP1 SWAP2 POP PUSH1 0x1 DUP6 ADD PUSH1 0x0 MSTORE PUSH1 0x20 PUSH1 0x0 KECCAK256 PUSH1 0x1F DUP5 ADD PUSH1 0x5 SHR DUP2 ADD PUSH1 0x20 DUP6 LT PUSH2 0xC9F JUMPI JUMPDEST SWAP1 DUP5 SWAP4 SWAP3 SWAP2 JUMPDEST PUSH1 0x1F DUP4 ADD PUSH1 0x5 SHR DUP3 ADD DUP2 LT PUSH2 0xC90 JUMPI POP POP PUSH2 0x969 JUMP JUMPDEST PUSH1 0x0 DUP2 SSTORE DUP6 SWAP5 POP PUSH1 0x1 ADD PUSH2 0xC7A JUMP JUMPDEST POP DUP1 PUSH2 0xC74 JUMP JUMPDEST PUSH4 0x4E487B71 PUSH1 0xE0 SHL PUSH1 0x0 MSTORE PUSH1 0x21 PUSH1 0x4 MSTORE PUSH1 0x24 PUSH1 0x0 REVERT JUMPDEST PUSH1 0x40 MLOAD PUSH3 0x461BCD PUSH1 0xE5 SHL DUP2 MSTORE PUSH1 0x20 PUSH1 0x4 DUP3 ADD MSTORE PUSH1 0x18 PUSH1 0x24 DUP3 ADD MSTORE PUSH32 0x46756E64696E672072617465206D757374206265203E20300000000000000000 PUSH1 0x44 DUP3 ADD MSTORE PUSH1 0x64 SWAP1 REVERT JUMPDEST PUSH1 0x40 MLOAD PUSH3 0x461BCD PUSH1 0xE5 SHL DUP2 MSTORE PUSH1 0x20 PUSH1 0x4 DUP3 ADD MSTORE PUSH1 0x12 PUSH1 0x24 DUP3 ADD MSTORE PUSH18 0x416D6F756E74206D757374206265203E203 PUSH1 0x74 SHL PUSH1 0x44 DUP3 ADD MSTORE PUSH1 0x64 SWAP1 REVERT JUMPDEST CALLVALUE PUSH2 0x1E1 JUMPI PUSH1 0x0 CALLDATASIZE PUSH1 0x3 NOT ADD SLT PUSH2 0x1E1 JUMPI PUSH1 0x20 PUSH1 0x8 SLOAD PUSH1 0x40 MLOAD SWAP1 DUP2 MSTORE RETURN JUMPDEST CALLVALUE PUSH2 0x1E1 JUMPI PUSH1 0x20 CALLDATASIZE PUSH1 0x3 NOT ADD SLT PUSH2 0x1E1 JUMPI PUSH1 0x4 CALLDATALOAD PUSH1 0x6 SLOAD DUP2 LT ISZERO PUSH2 0x1E1 JUMPI PUSH1 0x20 SWAP1 PUSH1 0x6 PUSH1 0x0 MSTORE PUSH32 0xF652222313E28459528D920B65115C16C04F3EFC82AAEDC97BE59F3F377C0D3F ADD SLOAD PUSH1 0x40 MLOAD SWAP1 DUP2 MSTORE RETURN JUMPDEST CALLVALUE PUSH2 0x1E1 JUMPI PUSH1 0x20 CALLDATASIZE PUSH1 0x3 NOT ADD SLT PUSH2 0x1E1 JUMPI PUSH1 0x4 CALLDATALOAD PUSH1 0x0 MSTORE PUSH1 0x3 PUSH1 0x20 MSTORE PUSH2 0xE4E PUSH1 0x40 PUSH1 0x0 KECCAK256 DUP1 SLOAD SWAP1 PUSH1 0x40 MLOAD PUSH2 0xDEC DUP2 PUSH2 0xDE5 DUP2 PUSH1 0x1 DUP7 ADD PUSH2 0x1343 JUMP JUMPDEST SUB DUP3 PUSH2 0x142E JUMP JUMPDEST PUSH1 0x40 MLOAD SWAP2 PUSH2 0xE08 DUP4 PUSH2 0xE01 DUP2 PUSH1 0x2 DUP6 ADD PUSH2 0x1343 JUMP JUMPDEST SUB DUP5 PUSH2 0x142E JUMP JUMPDEST PUSH1 0x3 DUP2 ADD SLOAD SWAP3 PUSH1 0x4 DUP3 ADD SLOAD PUSH2 0xE6D PUSH1 0x5 DUP5 ADD SLOAD SWAP3 PUSH2 0xE5F PUSH1 0x7 PUSH1 0xFF PUSH1 0x6 DUP9 ADD SLOAD AND SWAP7 ADD SLOAD SWAP7 PUSH1 0x40 MLOAD SWAP11 DUP12 SWAP11 PUSH1 0x1 DUP1 PUSH1 0xA0 SHL SUB DUP2 AND DUP13 MSTORE PUSH1 0xFF PUSH1 0x20 DUP14 ADD SWAP2 PUSH1 0xA0 SHR AND PUSH2 0x1241 JUMP JUMPDEST PUSH2 0x120 DUP1 PUSH1 0x40 DUP13 ADD MSTORE DUP11 ADD SWAP1 PUSH2 0x1271 JUMP JUMPDEST SWAP1 DUP9 DUP3 SUB PUSH1 0x60 DUP11 ADD MSTORE PUSH2 0x1271 JUMP JUMPDEST SWAP5 PUSH1 0x80 DUP8 ADD MSTORE PUSH1 0xA0 DUP7 ADD MSTORE PUSH1 0xC0 DUP6 ADD MSTORE ISZERO ISZERO PUSH1 0xE0 DUP5 ADD MSTORE PUSH2 0x100 DUP4 ADD MSTORE SUB SWAP1 RETURN JUMPDEST CALLVALUE PUSH2 0x1E1 JUMPI PUSH1 0x0 CALLDATASIZE PUSH1 0x3 NOT ADD SLT PUSH2 0x1E1 JUMPI PUSH1 0x20 PUSH1 0x9 SLOAD PUSH1 0x40 MLOAD SWAP1 DUP2 MSTORE RETURN JUMPDEST CALLVALUE PUSH2 0x1E1 JUMPI PUSH2 0xEBA CALLDATASIZE PUSH2 0x1296 JUMP JUMPDEST CALLER PUSH1 0x1 PUSH1 0x1 PUSH1 0xA0 SHL SUB DUP3 AND SUB PUSH2 0xED3 JUMPI PUSH2 0x588 SWAP2 PUSH2 0x1659 JUMP JUMPDEST PUSH1 0x40 MLOAD PUSH3 0x461BCD PUSH1 0xE5 SHL DUP2 MSTORE PUSH1 0x20 PUSH1 0x4 DUP3 ADD MSTORE PUSH1 0x2F PUSH1 0x24 DUP3 ADD MSTORE PUSH32 0x416363657373436F6E74726F6C3A2063616E206F6E6C792072656E6F756E6365 PUSH1 0x44 DUP3 ADD MSTORE PUSH15 0x103937B632B9903337B91039B2B633 PUSH1 0x89 SHL PUSH1 0x64 DUP3 ADD MSTORE PUSH1 0x84 SWAP1 REVERT JUMPDEST CALLVALUE PUSH2 0x1E1 JUMPI PUSH1 0x20 CALLDATASIZE PUSH1 0x3 NOT ADD SLT PUSH2 0x1E1 JUMPI PUSH1 0x4 CALLDATALOAD PUSH1 0x5 SLOAD DUP2 LT ISZERO PUSH2 0x1E1 JUMPI PUSH2 0xF59 PUSH1 0x20 SWAP2 PUSH2 0x12BC JUMP JUMPDEST SWAP1 SLOAD PUSH1 0x40 MLOAD SWAP2 PUSH1 0x3 SHL SHR DUP2 MSTORE RETURN JUMPDEST CALLVALUE PUSH2 0x1E1 JUMPI PUSH1 0x0 CALLDATASIZE PUSH1 0x3 NOT ADD SLT PUSH2 0x1E1 JUMPI PUSH1 0x20 PUSH1 0xA SLOAD PUSH1 0x40 MLOAD SWAP1 DUP2 MSTORE RETURN JUMPDEST CALLVALUE PUSH2 0x1E1 JUMPI PUSH2 0xF93 CALLDATASIZE PUSH2 0x1296 JUMP JUMPDEST DUP2 PUSH1 0x0 MSTORE PUSH1 0x1 PUSH1 0x20 MSTORE PUSH2 0xFAD PUSH1 0x1 PUSH1 0x40 PUSH1 0x0 KECCAK256 ADD SLOAD PUSH2 0x14A7 JUMP JUMPDEST DUP2 PUSH1 0x0 MSTORE PUSH1 0x1 PUSH1 0x20 MSTORE PUSH1 0x40 PUSH1 0x0 KECCAK256 SWAP1 PUSH1 0x1 DUP1 PUSH1 0xA0 SHL SUB AND SWAP1 DUP2 PUSH1 0x0 MSTORE PUSH1 0x20 MSTORE PUSH1 0xFF PUSH1 0x40 PUSH1 0x0 KECCAK256 SLOAD AND ISZERO PUSH2 0xFDC JUMPI STOP JUMPDEST DUP2 PUSH1 0x0 MSTORE PUSH1 0x1 PUSH1 0x20 MSTORE PUSH1 0x40 PUSH1 0x0 KECCAK256 DUP2 PUSH1 0x0 MSTORE PUSH1 0x20 MSTORE PUSH1 0x40 PUSH1 0x0 KECCAK256 PUSH1 0x1 PUSH1 0xFF NOT DUP3 SLOAD AND OR SWAP1 SSTORE CALLER SWAP2 PUSH32 0x2F8788117E7EFF1D82E926EC794901D17C78024A50270940304540A733656F0D PUSH1 0x0 DUP1 LOG4 STOP JUMPDEST CALLVALUE PUSH2 0x1E1 JUMPI PUSH1 0x20 CALLDATASIZE PUSH1 0x3 NOT ADD SLT PUSH2 0x1E1 JUMPI PUSH1 0x4 CALLDATALOAD PUSH1 0x0 MSTORE PUSH1 0x1 PUSH1 0x20 MSTORE PUSH1 0x20 PUSH1 0x1 PUSH1 0x40 PUSH1 0x0 KECCAK256 ADD SLOAD PUSH1 0x40 MLOAD SWAP1 DUP2 MSTORE RETURN JUMPDEST CALLVALUE PUSH2 0x1E1 JUMPI PUSH1 0x20 DUP1 PUSH1 0x3 NOT CALLDATASIZE ADD SLT PUSH2 0x1E1 JUMPI PUSH1 0x40 MLOAD SWAP1 PUSH2 0x1078 DUP3 PUSH2 0x13D9 JUMP JUMPDEST PUSH1 0x0 DUP3 MSTORE PUSH1 0x0 DUP2 DUP4 ADD MSTORE PUSH1 0x60 PUSH1 0x40 DUP4 ADD MSTORE PUSH1 0x60 DUP1 DUP4 ADD MSTORE PUSH1 0x0 PUSH1 0x80 DUP4 ADD MSTORE PUSH1 0x0 PUSH1 0xA0 DUP4 ADD MSTORE PUSH1 0x0 PUSH1 0xC0 DUP4 ADD MSTORE PUSH1 0x0 PUSH1 0xE0 DUP4 ADD MSTORE PUSH1 0x0 PUSH2 0x100 DUP1 SWAP4 ADD MSTORE PUSH1 0x4 CALLDATALOAD PUSH1 0x0 MSTORE PUSH1 0x3 DUP2 MSTORE PUSH1 0x40 PUSH1 0x0 KECCAK256 SWAP2 PUSH1 0x40 MLOAD SWAP3 PUSH2 0x10D1 DUP5 PUSH2 0x13D9 JUMP JUMPDEST DUP4 DUP2 SLOAD SWAP3 DUP2 PUSH1 0x1 DUP1 PUSH1 0xA0 SHL SUB SWAP4 DUP5 DUP7 AND DUP3 MSTORE PUSH2 0x10F6 PUSH1 0xFF DUP9 DUP5 ADD SWAP8 PUSH1 0xA0 SHR AND DUP8 PUSH2 0x17FC JUMP JUMPDEST PUSH1 0x40 MLOAD SWAP5 PUSH2 0x1112 DUP7 PUSH2 0x110B DUP2 PUSH1 0x1 DUP7 ADD PUSH2 0x1343 JUMP JUMPDEST SUB DUP8 PUSH2 0x142E JUMP JUMPDEST PUSH1 0x40 DUP4 ADD SWAP6 DUP7 MSTORE PUSH2 0x11CB PUSH1 0x40 MLOAD SWAP7 PUSH2 0x1138 DUP9 PUSH2 0x1131 DUP2 PUSH1 0x2 DUP9 ADD PUSH2 0x1343 JUMP JUMPDEST SUB DUP10 PUSH2 0x142E JUMP JUMPDEST PUSH1 0x60 DUP6 ADD SWAP8 DUP9 MSTORE PUSH2 0x119E PUSH1 0x3 DUP6 ADD SLOAD SWAP10 PUSH1 0x80 DUP8 ADD SWAP11 DUP12 MSTORE DUP12 PUSH1 0x4 DUP8 ADD SLOAD SWAP6 PUSH1 0xA0 DUP10 ADD SWAP7 DUP8 MSTORE DUP10 PUSH1 0x7 PUSH1 0x5 DUP11 ADD SLOAD SWAP10 PUSH1 0xC0 DUP13 ADD SWAP11 DUP12 MSTORE PUSH1 0xE0 PUSH1 0xFF PUSH1 0x6 DUP4 ADD SLOAD AND SWAP13 ADD SWAP12 ISZERO ISZERO DUP13 MSTORE ADD SLOAD SWAP12 ADD SWAP11 DUP12 MSTORE PUSH1 0x40 MLOAD SWAP15 DUP16 SWAP15 DUP16 MSTORE MLOAD AND SWAP1 DUP14 ADD MSTORE MLOAD PUSH1 0x40 DUP13 ADD SWAP1 PUSH2 0x1241 JUMP JUMPDEST MLOAD SWAP7 PUSH2 0x11B8 PUSH2 0x120 SWAP9 DUP10 PUSH1 0x60 DUP14 ADD MSTORE PUSH2 0x140 DUP13 ADD SWAP1 PUSH2 0x1271 JUMP JUMPDEST SWAP1 MLOAD DUP11 DUP3 SUB PUSH1 0x1F NOT ADD PUSH1 0x80 DUP13 ADD MSTORE PUSH2 0x1271 JUMP JUMPDEST SWAP7 MLOAD PUSH1 0xA0 DUP10 ADD MSTORE MLOAD PUSH1 0xC0 DUP9 ADD MSTORE MLOAD PUSH1 0xE0 DUP8 ADD MSTORE MLOAD ISZERO ISZERO SWAP1 DUP6 ADD MSTORE MLOAD SWAP1 DUP4 ADD MSTORE SUB SWAP1 RETURN JUMPDEST CALLVALUE PUSH2 0x1E1 JUMPI PUSH1 0x20 CALLDATASIZE PUSH1 0x3 NOT ADD SLT PUSH2 0x1E1 JUMPI PUSH1 0x4 CALLDATALOAD SWAP1 PUSH4 0xFFFFFFFF PUSH1 0xE0 SHL DUP3 AND DUP1 SWAP3 SUB PUSH2 0x1E1 JUMPI PUSH1 0x20 SWAP2 PUSH4 0x7965DB0B PUSH1 0xE0 SHL DUP2 EQ SWAP1 DUP2 ISZERO PUSH2 0x1230 JUMPI JUMPDEST POP ISZERO ISZERO DUP2 MSTORE RETURN JUMPDEST PUSH4 0x1FFC9A7 PUSH1 0xE0 SHL EQ SWAP1 POP DUP4 PUSH2 0x1229 JUMP JUMPDEST SWAP1 PUSH1 0x2 DUP3 LT ISZERO PUSH2 0xCA6 JUMPI MSTORE JUMP JUMPDEST PUSH1 0x0 JUMPDEST DUP4 DUP2 LT PUSH2 0x1261 JUMPI POP POP PUSH1 0x0 SWAP2 ADD MSTORE JUMP JUMPDEST DUP2 DUP2 ADD MLOAD DUP4 DUP3 ADD MSTORE PUSH1 0x20 ADD PUSH2 0x1251 JUMP JUMPDEST SWAP1 PUSH1 0x20 SWAP2 PUSH2 0x128A DUP2 MLOAD DUP1 SWAP3 DUP2 DUP6 MSTORE DUP6 DUP1 DUP7 ADD SWAP2 ADD PUSH2 0x124E JUMP JUMPDEST PUSH1 0x1F ADD PUSH1 0x1F NOT AND ADD ADD SWAP1 JUMP JUMPDEST PUSH1 0x40 SWAP1 PUSH1 0x3 NOT ADD SLT PUSH2 0x1E1 JUMPI PUSH1 0x4 CALLDATALOAD SWAP1 PUSH1 0x24 CALLDATALOAD PUSH1 0x1 PUSH1 0x1 PUSH1 0xA0 SHL SUB DUP2 AND DUP2 SUB PUSH2 0x1E1 JUMPI SWAP1 JUMP JUMPDEST PUSH1 0x5 SLOAD DUP2 LT ISZERO PUSH2 0x12F3 JUMPI PUSH1 0x5 PUSH1 0x0 MSTORE PUSH32 0x36B6384B5ECA791C62761152D0C79BB0604C104A5FB6F4EB0703F3154BB3DB0 ADD SWAP1 PUSH1 0x0 SWAP1 JUMP JUMPDEST PUSH4 0x4E487B71 PUSH1 0xE0 SHL PUSH1 0x0 MSTORE PUSH1 0x32 PUSH1 0x4 MSTORE PUSH1 0x24 PUSH1 0x0 REVERT JUMPDEST SWAP1 PUSH1 0x1 DUP3 DUP2 SHR SWAP3 AND DUP1 ISZERO PUSH2 0x1339 JUMPI JUMPDEST PUSH1 0x20 DUP4 LT EQ PUSH2 0x1323 JUMPI JUMP JUMPDEST PUSH4 0x4E487B71 PUSH1 0xE0 SHL PUSH1 0x0 MSTORE PUSH1 0x22 PUSH1 0x4 MSTORE PUSH1 0x24 PUSH1 0x0 REVERT JUMPDEST SWAP2 PUSH1 0x7F AND SWAP2 PUSH2 0x1318 JUMP JUMPDEST SWAP1 PUSH1 0x0 SWAP3 SWAP2 DUP1 SLOAD SWAP2 PUSH2 0x1354 DUP4 PUSH2 0x1309 JUMP JUMPDEST SWAP2 DUP3 DUP3 MSTORE PUSH1 0x1 SWAP4 DUP5 DUP2 AND SWAP1 DUP2 PUSH1 0x0 EQ PUSH2 0x13B6 JUMPI POP PUSH1 0x1 EQ PUSH2 0x1376 JUMPI JUMPDEST POP POP POP POP JUMP JUMPDEST SWAP1 SWAP2 SWAP4 SWAP5 POP PUSH1 0x0 MSTORE PUSH1 0x20 SWAP3 DUP4 PUSH1 0x0 KECCAK256 SWAP3 DUP5 PUSH1 0x0 SWAP5 JUMPDEST DUP4 DUP7 LT PUSH2 0x13A2 JUMPI POP POP POP POP ADD ADD SWAP1 CODESIZE DUP1 DUP1 DUP1 PUSH2 0x1370 JUMP JUMPDEST DUP1 SLOAD DUP6 DUP8 ADD DUP4 ADD MSTORE SWAP5 ADD SWAP4 DUP6 SWAP1 DUP3 ADD PUSH2 0x138B JUMP JUMPDEST SWAP3 SWAP5 POP POP POP PUSH1 0x20 SWAP4 SWAP5 POP PUSH1 0xFF NOT AND DUP4 DUP4 ADD MSTORE ISZERO ISZERO PUSH1 0x5 SHL ADD ADD SWAP1 CODESIZE DUP1 DUP1 DUP1 PUSH2 0x1370 JUMP JUMPDEST PUSH2 0x120 DUP2 ADD SWAP1 DUP2 LT PUSH8 0xFFFFFFFFFFFFFFFF DUP3 GT OR PUSH2 0xAF8 JUMPI PUSH1 0x40 MSTORE JUMP JUMPDEST PUSH1 0xC0 DUP2 ADD SWAP1 DUP2 LT PUSH8 0xFFFFFFFFFFFFFFFF DUP3 GT OR PUSH2 0xAF8 JUMPI PUSH1 0x40 MSTORE JUMP JUMPDEST PUSH1 0x80 DUP2 ADD SWAP1 DUP2 LT PUSH8 0xFFFFFFFFFFFFFFFF DUP3 GT OR PUSH2 0xAF8 JUMPI PUSH1 0x40 MSTORE JUMP JUMPDEST SWAP1 PUSH1 0x1F DUP1 NOT SWAP2 ADD AND DUP2 ADD SWAP1 DUP2 LT PUSH8 0xFFFFFFFFFFFFFFFF DUP3 GT OR PUSH2 0xAF8 JUMPI PUSH1 0x40 MSTORE JUMP JUMPDEST DUP2 PUSH1 0x1F DUP3 ADD SLT ISZERO PUSH2 0x1E1 JUMPI DUP1 CALLDATALOAD SWAP1 PUSH8 0xFFFFFFFFFFFFFFFF DUP3 GT PUSH2 0xAF8 JUMPI PUSH1 0x40 MLOAD SWAP3 PUSH2 0x1485 PUSH1 0x1F DUP5 ADD PUSH1 0x1F NOT AND PUSH1 0x20 ADD DUP6 PUSH2 0x142E JUMP JUMPDEST DUP3 DUP5 MSTORE PUSH1 0x20 DUP4 DUP4 ADD ADD GT PUSH2 0x1E1 JUMPI DUP2 PUSH1 0x0 SWAP3 PUSH1 0x20 DUP1 SWAP4 ADD DUP4 DUP7 ADD CALLDATACOPY DUP4 ADD ADD MSTORE SWAP1 JUMP JUMPDEST PUSH1 0x0 DUP2 DUP2 MSTORE PUSH1 0x1 SWAP2 PUSH1 0x20 SWAP2 DUP4 DUP4 MSTORE PUSH1 0x40 SWAP4 DUP5 DUP3 KECCAK256 CALLER DUP4 MSTORE DUP5 MSTORE PUSH1 0xFF DUP6 DUP4 KECCAK256 SLOAD AND ISZERO PUSH2 0x14D3 JUMPI POP POP POP POP POP JUMP JUMPDEST PUSH2 0x14DC CALLER PUSH2 0x16ED JUMP JUMPDEST SWAP3 DUP6 MLOAD SWAP2 PUSH2 0x14E9 DUP4 PUSH2 0x1412 JUMP JUMPDEST PUSH1 0x42 DUP4 MSTORE DUP6 DUP4 ADD SWAP4 PUSH1 0x60 CALLDATASIZE DUP7 CALLDATACOPY DUP4 MLOAD ISZERO PUSH2 0x1645 JUMPI PUSH1 0x30 DUP6 MSTORE8 DUP4 MLOAD DUP3 LT ISZERO PUSH2 0x1645 JUMPI SWAP1 PUSH1 0x78 PUSH1 0x21 DUP6 ADD MSTORE8 PUSH1 0x41 SWAP2 JUMPDEST DUP2 DUP4 GT PUSH2 0x15D7 JUMPI POP POP POP PUSH2 0x1595 JUMPI PUSH1 0x48 PUSH2 0x48E SWAP4 DUP7 SWAP4 PUSH2 0x1579 SWAP4 PUSH2 0x156A SWAP9 MLOAD SWAP9 DUP10 SWAP4 PUSH23 0x20B1B1B2B9B9A1B7B73A3937B61D1030B1B1B7BAB73A1 PUSH1 0x4D SHL DUP11 DUP7 ADD MSTORE PUSH2 0x43A DUP2 MLOAD DUP1 SWAP3 DUP13 PUSH1 0x37 DUP10 ADD SWAP2 ADD PUSH2 0x124E JUMP JUMPDEST ADD SUB PUSH1 0x28 DUP2 ADD DUP8 MSTORE ADD DUP6 PUSH2 0x142E JUMP JUMPDEST MLOAD SWAP3 DUP4 SWAP3 PUSH3 0x461BCD PUSH1 0xE5 SHL DUP5 MSTORE PUSH1 0x4 DUP5 ADD MSTORE PUSH1 0x24 DUP4 ADD SWAP1 PUSH2 0x1271 JUMP JUMPDEST PUSH1 0x64 DUP5 DUP7 MLOAD SWAP1 PUSH3 0x461BCD PUSH1 0xE5 SHL DUP3 MSTORE DUP1 PUSH1 0x4 DUP4 ADD MSTORE PUSH1 0x24 DUP3 ADD MSTORE PUSH32 0x537472696E67733A20686578206C656E67746820696E73756666696369656E74 PUSH1 0x44 DUP3 ADD MSTORE REVERT JUMPDEST SWAP1 SWAP2 SWAP3 PUSH1 0xF DUP2 AND PUSH1 0x10 DUP2 LT ISZERO PUSH2 0x1631 JUMPI PUSH16 0x181899199A1A9B1B9C1CB0B131B232B3 PUSH1 0x81 SHL SWAP1 BYTE PUSH2 0x1607 DUP6 DUP8 PUSH2 0x16DC JUMP JUMPDEST MSTORE8 PUSH1 0x4 SHR SWAP3 DUP1 ISZERO PUSH2 0x161D JUMPI PUSH1 0x0 NOT ADD SWAP2 SWAP1 PUSH2 0x1516 JUMP JUMPDEST PUSH4 0x4E487B71 PUSH1 0xE0 SHL DUP3 MSTORE PUSH1 0x11 PUSH1 0x4 MSTORE PUSH1 0x24 DUP3 REVERT JUMPDEST PUSH4 0x4E487B71 PUSH1 0xE0 SHL DUP4 MSTORE PUSH1 0x32 PUSH1 0x4 MSTORE PUSH1 0x24 DUP4 REVERT JUMPDEST PUSH4 0x4E487B71 PUSH1 0xE0 SHL DUP2 MSTORE PUSH1 0x32 PUSH1 0x4 MSTORE PUSH1 0x24 SWAP1 REVERT JUMPDEST SWAP1 PUSH1 0x0 SWAP2 DUP1 DUP4 MSTORE PUSH1 0x1 PUSH1 0x20 MSTORE PUSH1 0x40 DUP4 KECCAK256 SWAP2 PUSH1 0x1 DUP1 PUSH1 0xA0 SHL SUB AND SWAP2 DUP3 DUP5 MSTORE PUSH1 0x20 MSTORE PUSH1 0xFF PUSH1 0x40 DUP5 KECCAK256 SLOAD AND PUSH2 0x168A JUMPI POP POP POP JUMP JUMPDEST DUP1 DUP4 MSTORE PUSH1 0x1 PUSH1 0x20 MSTORE PUSH1 0x40 DUP4 KECCAK256 DUP3 DUP5 MSTORE PUSH1 0x20 MSTORE PUSH1 0x40 DUP4 KECCAK256 PUSH1 0xFF NOT DUP2 SLOAD AND SWAP1 SSTORE PUSH32 0xF6391F5C32D9C69D2A47EA670B442974B53935D1EDC7FD64EB21E047A839171B CALLER SWAP4 DUP1 LOG4 JUMP JUMPDEST SWAP2 SWAP1 DUP3 ADD DUP1 SWAP3 GT PUSH2 0x602 JUMPI JUMP JUMPDEST SWAP1 DUP2 MLOAD DUP2 LT ISZERO PUSH2 0x12F3 JUMPI ADD PUSH1 0x20 ADD SWAP1 JUMP JUMPDEST PUSH1 0x40 MLOAD SWAP1 PUSH1 0x60 DUP3 ADD DUP3 DUP2 LT PUSH8 0xFFFFFFFFFFFFFFFF DUP3 GT OR PUSH2 0xAF8 JUMPI PUSH1 0x40 MSTORE PUSH1 0x2A DUP3 MSTORE PUSH1 0x20 DUP3 ADD PUSH1 0x40 CALLDATASIZE DUP3 CALLDATACOPY DUP3 MLOAD ISZERO PUSH2 0x12F3 JUMPI PUSH1 0x30 SWAP1 MSTORE8 DUP2 MLOAD PUSH1 0x1 SWAP1 DUP2 LT ISZERO PUSH2 0x12F3 JUMPI PUSH1 0x78 PUSH1 0x21 DUP5 ADD MSTORE8 PUSH1 0x29 SWAP1 JUMPDEST DUP1 DUP3 GT PUSH2 0x178E JUMPI POP POP PUSH2 0x174A JUMPI SWAP1 JUMP JUMPDEST PUSH1 0x64 PUSH1 0x40 MLOAD PUSH3 0x461BCD PUSH1 0xE5 SHL DUP2 MSTORE PUSH1 0x20 PUSH1 0x4 DUP3 ADD MSTORE PUSH1 0x20 PUSH1 0x24 DUP3 ADD MSTORE PUSH32 0x537472696E67733A20686578206C656E67746820696E73756666696369656E74 PUSH1 0x44 DUP3 ADD MSTORE REVERT JUMPDEST SWAP1 SWAP2 PUSH1 0xF DUP2 AND PUSH1 0x10 DUP2 LT ISZERO PUSH2 0x17E7 JUMPI PUSH16 0x181899199A1A9B1B9C1CB0B131B232B3 PUSH1 0x81 SHL SWAP1 BYTE PUSH2 0x17BD DUP5 DUP7 PUSH2 0x16DC JUMP JUMPDEST MSTORE8 PUSH1 0x4 SHR SWAP2 DUP1 ISZERO PUSH2 0x17D2 JUMPI PUSH1 0x0 NOT ADD SWAP1 PUSH2 0x173A JUMP JUMPDEST PUSH1 0x24 PUSH1 0x0 PUSH4 0x4E487B71 PUSH1 0xE0 SHL DUP2 MSTORE PUSH1 0x11 PUSH1 0x4 MSTORE REVERT JUMPDEST PUSH1 0x24 PUSH1 0x0 PUSH4 0x4E487B71 PUSH1 0xE0 SHL DUP2 MSTORE PUSH1 0x32 PUSH1 0x4 MSTORE REVERT JUMPDEST PUSH1 0x2 DUP3 LT ISZERO PUSH2 0xCA6 JUMPI MSTORE JUMP JUMPDEST PUSH1 0x0 NOT DUP2 EQ PUSH2 0x602 JUMPI PUSH1 0x1 ADD SWAP1 JUMP JUMPDEST PUSH1 0x2 PUSH1 0x0 SLOAD EQ PUSH2 0x1828 JUMPI PUSH1 0x2 PUSH1 0x0 SSTORE JUMP JUMPDEST PUSH1 0x40 MLOAD PUSH3 0x461BCD PUSH1 0xE5 SHL DUP2 MSTORE PUSH1 0x20 PUSH1 0x4 DUP3 ADD MSTORE PUSH1 0x1F PUSH1 0x24 DUP3 ADD MSTORE PUSH32 0x5265656E7472616E637947756172643A207265656E7472616E742063616C6C00 PUSH1 0x44 DUP3 ADD MSTORE PUSH1 0x64 SWAP1 REVERT JUMPDEST PUSH1 0x0 DUP2 DUP2 MSTORE PUSH1 0x3 SWAP2 PUSH1 0x20 SWAP2 DUP4 DUP4 MSTORE PUSH1 0x40 DUP1 DUP3 KECCAK256 SWAP2 DUP1 JUMPDEST PUSH1 0x5 SLOAD DUP2 LT ISZERO PUSH2 0x18FC JUMPI PUSH2 0x1896 DUP2 PUSH2 0x12BC JUMP JUMPDEST SWAP1 SLOAD SWAP1 DUP9 SHL SHR DUP6 DUP2 EQ PUSH2 0x18F2 JUMPI DUP1 DUP4 MSTORE DUP8 DUP8 MSTORE DUP4 DUP4 KECCAK256 PUSH1 0xFF PUSH1 0x6 DUP3 ADD SLOAD AND PUSH2 0x18E7 JUMPI PUSH2 0x18C2 SWAP1 DUP7 PUSH2 0x1905 JUMP JUMPDEST PUSH2 0x18D5 JUMPI POP PUSH2 0x18D0 SWAP1 PUSH2 0x1808 JUMP JUMPDEST PUSH2 0x1883 JUMP JUMPDEST SWAP6 POP POP POP POP POP PUSH2 0x18E5 SWAP3 POP PUSH2 0x1A2B JUMP JUMPDEST JUMP JUMPDEST POP POP PUSH2 0x18D0 SWAP1 PUSH2 0x1808 JUMP JUMPDEST POP PUSH2 0x18D0 SWAP1 PUSH2 0x1808 JUMP JUMPDEST POP POP POP POP POP POP POP JUMP JUMPDEST PUSH1 0xFF DUP2 SLOAD PUSH1 0xA0 SHR AND PUSH1 0xFF DUP4 SLOAD PUSH1 0xA0 SHR AND SWAP1 PUSH1 0x2 DUP3 LT ISZERO PUSH2 0xCA6 JUMPI PUSH1 0x2 DUP2 LT ISZERO PUSH2 0xCA6 JUMPI EQ PUSH2 0x19BC JUMPI PUSH1 0x40 MLOAD PUSH2 0x1941 DUP2 PUSH2 0xDE5 DUP2 PUSH1 0x2 DUP7 ADD PUSH2 0x1343 JUMP JUMPDEST PUSH1 0x20 DUP2 MLOAD SWAP2 ADD KECCAK256 PUSH1 0x40 MLOAD PUSH2 0x195C DUP2 PUSH2 0xDE5 DUP2 PUSH1 0x2 DUP9 ADD PUSH2 0x1343 JUMP JUMPDEST PUSH1 0x20 DUP2 MLOAD SWAP2 ADD KECCAK256 SUB PUSH2 0x19BC JUMPI PUSH1 0x3 SWAP1 DUP2 ADD SLOAD SWAP2 ADD SLOAD SWAP1 DUP2 DUP2 LT ISZERO PUSH2 0x19B6 JUMPI DUP1 SWAP2 JUMPDEST DUP1 DUP3 GT ISZERO PUSH2 0x19AE JUMPI POP SWAP1 JUMPDEST PUSH1 0x78 DUP2 MUL SWAP1 DUP1 DUP3 DIV PUSH1 0x78 EQ SWAP1 ISZERO OR ISZERO PUSH2 0x602 JUMPI PUSH1 0x64 SWAP1 DIV LT PUSH2 0x19A9 JUMPI PUSH1 0x1 SWAP1 JUMP JUMPDEST PUSH1 0x0 SWAP1 JUMP JUMPDEST SWAP1 POP SWAP1 PUSH2 0x1988 JUMP JUMPDEST DUP2 PUSH2 0x197D JUMP JUMPDEST POP POP PUSH1 0x0 SWAP1 JUMP JUMPDEST SWAP4 SWAP3 PUSH2 0x19F1 PUSH1 0x80 SWAP2 PUSH2 0x2710 SWAP5 PUSH1 0xA0 SWAP5 PUSH1 0x1 DUP1 DUP8 SHL SUB AND DUP9 MSTORE PUSH1 0x20 DUP9 ADD MSTORE PUSH1 0xC0 PUSH1 0x40 DUP9 ADD MSTORE PUSH1 0xC0 DUP8 ADD SWAP1 PUSH2 0x1343 JUMP JUMPDEST PUSH1 0x40 DUP7 DUP3 SUB DUP1 PUSH1 0x60 DUP10 ADD MSTORE PUSH1 0x4 DUP4 MSTORE PUSH4 0xAAA6889 PUSH1 0xE3 SHL PUSH1 0x20 DUP5 ADD MSTORE ADD DUP3 DUP8 ADD MSTORE PUSH1 0x3 PUSH1 0x40 DUP3 ADD MSTORE PUSH3 0x70327 PUSH1 0xEC SHL PUSH1 0x60 DUP3 ADD MSTORE ADD SWAP4 ADD MSTORE JUMP JUMPDEST SWAP1 DUP2 PUSH1 0x0 MSTORE PUSH1 0x3 PUSH1 0x20 MSTORE PUSH1 0x40 PUSH1 0x0 KECCAK256 DUP2 PUSH1 0x0 MSTORE PUSH1 0x40 PUSH1 0x0 KECCAK256 SWAP3 PUSH1 0x3 DUP3 ADD SLOAD PUSH1 0x3 DUP6 ADD SLOAD DUP1 DUP3 LT PUSH1 0x0 EQ PUSH2 0x1D21 JUMPI POP SWAP2 JUMPDEST PUSH1 0x2 SLOAD DUP2 SLOAD PUSH1 0x40 MLOAD PUSH4 0x458ECFAD PUSH1 0xE1 SHL DUP2 MSTORE SWAP2 PUSH1 0x20 SWAP2 DUP4 SWAP2 PUSH1 0x1 PUSH1 0x1 PUSH1 0xA0 SHL SUB SWAP1 DUP2 AND SWAP2 DUP4 SWAP2 PUSH1 0x0 SWAP2 DUP4 SWAP2 PUSH2 0x1A9B SWAP2 PUSH1 0x1 DUP12 ADD SWAP2 DUP14 SWAP2 AND PUSH1 0x4 DUP6 ADD PUSH2 0x19C3 JUMP JUMPDEST SUB SWAP3 GAS CALL SWAP1 DUP2 ISZERO PUSH2 0x1CE3 JUMPI PUSH1 0x0 SWAP2 PUSH2 0x1CEF JUMPI JUMPDEST POP PUSH1 0x1 DUP1 PUSH1 0xA0 SHL SUB PUSH1 0x2 SLOAD AND SWAP2 PUSH1 0x20 DUP6 PUSH1 0x1 DUP1 PUSH1 0xA0 SHL SUB DUP10 SLOAD AND SWAP5 PUSH1 0x1 PUSH1 0x0 DUP12 PUSH2 0x1AF0 PUSH1 0x40 MLOAD SWAP10 DUP11 SWAP7 DUP8 SWAP6 DUP7 SWAP5 PUSH4 0x458ECFAD PUSH1 0xE1 SHL DUP7 MSTORE ADD SWAP2 PUSH1 0x4 DUP6 ADD PUSH2 0x19C3 JUMP JUMPDEST SUB SWAP3 GAS CALL SWAP3 DUP4 ISZERO PUSH2 0x1CE3 JUMPI PUSH1 0x0 SWAP4 PUSH2 0x1CAF JUMPI JUMPDEST POP PUSH1 0x40 MLOAD SWAP7 PUSH1 0x20 DUP9 ADD DUP6 DUP2 MSTORE DUP8 PUSH1 0x40 DUP11 ADD MSTORE TIMESTAMP PUSH1 0x60 DUP11 ADD MSTORE PUSH1 0x60 DUP10 MSTORE DUP9 PUSH1 0x80 DUP2 ADD LT PUSH8 0xFFFFFFFFFFFFFFFF PUSH1 0x80 DUP12 ADD GT OR PUSH2 0xAF8 JUMPI PUSH1 0x80 DUP10 ADD PUSH1 0x40 MSTORE DUP9 MLOAD SWAP1 KECCAK256 SWAP8 PUSH2 0x1B50 PUSH1 0x80 DUP3 ADD PUSH2 0x13F6 JUMP JUMPDEST DUP6 PUSH1 0x80 DUP3 ADD MSTORE PUSH1 0x5 DUP10 PUSH1 0xA0 DUP4 ADD DUP11 DUP2 MSTORE PUSH1 0xC0 DUP5 ADD DUP11 DUP2 MSTORE PUSH1 0xE0 DUP6 ADD SWAP1 DUP9 DUP3 MSTORE PUSH2 0x100 DUP7 ADD SWAP3 DUP11 DUP5 MSTORE PUSH2 0x120 DUP8 ADD SWAP5 TIMESTAMP DUP7 MSTORE PUSH1 0x0 MSTORE PUSH1 0x4 PUSH1 0x20 MSTORE PUSH1 0x80 PUSH1 0x40 PUSH1 0x0 KECCAK256 SWAP8 ADD MLOAD DUP8 SSTORE MLOAD PUSH1 0x1 DUP8 ADD SSTORE MLOAD PUSH1 0x2 DUP7 ADD SSTORE MLOAD PUSH1 0x3 DUP6 ADD SSTORE MLOAD PUSH1 0x4 DUP5 ADD SSTORE MLOAD SWAP2 ADD SSTORE PUSH1 0x6 SLOAD SWAP1 PUSH1 0x1 PUSH1 0x40 SHL DUP3 LT ISZERO PUSH2 0xAF8 JUMPI PUSH1 0x1 DUP3 ADD DUP1 PUSH1 0x6 SSTORE DUP3 LT ISZERO PUSH2 0x12F3 JUMPI DUP9 SWAP3 DUP4 PUSH1 0x7 SWAP4 PUSH1 0x6 PUSH1 0x0 MSTORE PUSH32 0xF652222313E28459528D920B65115C16C04F3EFC82AAEDC97BE59F3F377C0D3F ADD SSTORE DUP4 DUP4 PUSH1 0x6 DUP4 ADD SWAP3 PUSH1 0xFF NOT SWAP4 PUSH1 0x1 DUP6 DUP3 SLOAD AND OR SWAP1 SSTORE ADD SSTORE PUSH1 0x1 PUSH1 0x6 DUP4 ADD SWAP2 DUP3 SLOAD AND OR SWAP1 SSTORE ADD SSTORE PUSH1 0x8 SLOAD PUSH1 0x2 DUP2 ADD DUP1 SWAP2 GT PUSH2 0x602 JUMPI PUSH1 0x8 SSTORE DUP4 PUSH1 0x1 SHL SWAP4 DUP1 DUP6 DIV PUSH1 0x2 EQ DUP2 ISZERO OR ISZERO PUSH2 0x602 JUMPI PUSH32 0x6566DF240955B8C0C5DCBC15956C9EFE60FF1586D4A0A020D84BF9F5F5F08230 SWAP6 PUSH2 0x1C77 PUSH1 0xA0 SWAP7 PUSH1 0x9 SLOAD PUSH2 0x16CF JUMP JUMPDEST PUSH1 0x9 SSTORE PUSH2 0x1C8F PUSH2 0x1C87 DUP6 DUP6 PUSH2 0x16CF JUMP JUMPDEST PUSH1 0xA SLOAD PUSH2 0x16CF JUMP JUMPDEST PUSH1 0xA SSTORE PUSH1 0x40 MLOAD SWAP5 DUP6 MSTORE PUSH1 0x20 DUP6 ADD MSTORE PUSH1 0x40 DUP5 ADD MSTORE PUSH1 0x60 DUP4 ADD MSTORE PUSH1 0x80 DUP3 ADD MSTORE LOG2 JUMP JUMPDEST SWAP1 SWAP3 POP PUSH1 0x20 DUP2 RETURNDATASIZE PUSH1 0x20 GT PUSH2 0x1CDB JUMPI JUMPDEST DUP2 PUSH2 0x1CCB PUSH1 0x20 SWAP4 DUP4 PUSH2 0x142E JUMP JUMPDEST DUP2 ADD SUB SLT PUSH2 0x1E1 JUMPI MLOAD SWAP2 CODESIZE PUSH2 0x1B03 JUMP JUMPDEST RETURNDATASIZE SWAP2 POP PUSH2 0x1CBE JUMP JUMPDEST PUSH1 0x40 MLOAD RETURNDATASIZE PUSH1 0x0 DUP3 RETURNDATACOPY RETURNDATASIZE SWAP1 REVERT JUMPDEST SWAP1 POP PUSH1 0x20 DUP2 RETURNDATASIZE PUSH1 0x20 GT PUSH2 0x1D19 JUMPI JUMPDEST DUP2 PUSH2 0x1D0A PUSH1 0x20 SWAP4 DUP4 PUSH2 0x142E JUMP JUMPDEST DUP2 ADD SUB SLT PUSH2 0x1E1 JUMPI MLOAD CODESIZE PUSH2 0x1AAE JUMP JUMPDEST RETURNDATASIZE SWAP2 POP PUSH2 0x1CFD JUMP JUMPDEST SWAP1 POP SWAP2 PUSH2 0x1A5B JUMP INVALID LOG2 PUSH5 0x6970667358 0x22 SLT KECCAK256 0xE8 0xB5 0xCC SWAP4 CREATE 0xD7 CHAINID 0xB9 PC NUMBER 0xB3 0xFB PUSH22 0xF888FFD81CF0CFBEE0FDE58CA37DED0ABE58FE64736F PUSH13 0x634300081300332F8788117E7E SELFDESTRUCT SAR DUP3 0xE9 0x26 0xEC PUSH26 0x4901D17C78024A50270940304540A733656F0D00000000000000 "},"methodIdentifiers":{"DEFAULT_ADMIN_ROLE()":"a217fddf","MATCHER_ROLE()":"b2194ff5","allMatchIds(uint256)":"54f276b9","getMatch(bytes32)":"fcc6077d","getPosition(bytes32)":"1928b3cb","getRoleAdmin(bytes32)":"248a9ca3","getSystemStats()":"d1ce59a7","getUnmatchedCount()":"93ebe538","grantRole(bytes32,address)":"2f2ff15d","hasRole(bytes32,address)":"91d14854","manualMatch(bytes32,bytes32)":"dfed0e9b","matches(bytes32)":"9fe9ada3","positions(bytes32)":"514ea4bf","renounceRole(bytes32,address)":"36568abe","revokeRole(bytes32,address)":"d547741f","submitPosition(uint8,string,string,uint256,uint256)":"74f75f90","supportsInterface(bytes4)":"01ffc9a7","totalFryFromMatching()":"32117e71","totalMatchedVolume()":"4df36a89","totalPositionsMatched()":"6e1861da","totalPositionsSubmitted()":"ee75c027","unmatchedPositions(uint256)":"34dc19ac","usdFryToken()":"7739329e"}}}}}