{"contracts/AgentBVerifier.sol":{"AgentBVerifier":{"abi":[{"anonymous":false,"inputs":[{"indexed":true,"internalType":"bytes32","name":"proofId","type":"bytes32"},{"indexed":true,"internalType":"address","name":"client","type":"address"},{"indexed":false,"internalType":"string","name":"reason","type":"string"}],"name":"ProofRejected","type":"event"},{"anonymous":false,"inputs":[{"indexed":true,"internalType":"bytes32","name":"proofId","type":"bytes32"},{"indexed":true,"internalType":"address","name":"client","type":"address"},{"indexed":false,"internalType":"uint256","name":"threshold","type":"uint256"},{"indexed":false,"internalType":"uint256","name":"timestamp","type":"uint256"}],"name":"ProofVerified","type":"event"},{"inputs":[],"name":"MAX_THRESHOLD","outputs":[{"internalType":"uint256","name":"","type":"uint256"}],"stateMutability":"view","type":"function"},{"inputs":[],"name":"MIN_SAMPLES","outputs":[{"internalType":"uint256","name":"","type":"uint256"}],"stateMutability":"view","type":"function"},{"inputs":[],"name":"REPUTATION_DECAY_PERIOD","outputs":[{"internalType":"uint256","name":"","type":"uint256"}],"stateMutability":"view","type":"function"},{"inputs":[{"internalType":"address","name":"client","type":"address"}],"name":"calculateFRYAlphaWeight","outputs":[{"internalType":"uint256","name":"weight","type":"uint256"}],"stateMutability":"view","type":"function"},{"inputs":[{"internalType":"address","name":"","type":"address"}],"name":"clientReputation","outputs":[{"internalType":"uint256","name":"proofsSubmitted","type":"uint256"},{"internalType":"uint256","name":"proofsVerified","type":"uint256"},{"internalType":"uint256","name":"totalSamples","type":"uint256"},{"internalType":"uint256","name":"lastProofTimestamp","type":"uint256"},{"internalType":"uint256","name":"reputationScore","type":"uint256"}],"stateMutability":"view","type":"function"},{"inputs":[{"internalType":"address","name":"client","type":"address"}],"name":"getClientReputation","outputs":[{"components":[{"internalType":"uint256","name":"proofsSubmitted","type":"uint256"},{"internalType":"uint256","name":"proofsVerified","type":"uint256"},{"internalType":"uint256","name":"totalSamples","type":"uint256"},{"internalType":"uint256","name":"lastProofTimestamp","type":"uint256"},{"internalType":"uint256","name":"reputationScore","type":"uint256"}],"internalType":"struct AgentBVerifier.ClientReputation","name":"reputation","type":"tuple"}],"stateMutability":"view","type":"function"},{"inputs":[{"internalType":"bytes32","name":"proofId","type":"bytes32"}],"name":"isProofVerified","outputs":[{"internalType":"bool","name":"verified","type":"bool"}],"stateMutability":"view","type":"function"},{"inputs":[{"internalType":"bytes32","name":"","type":"bytes32"}],"name":"verifiedProofs","outputs":[{"internalType":"bool","name":"","type":"bool"}],"stateMutability":"view","type":"function"},{"inputs":[{"internalType":"bytes","name":"proof","type":"bytes"},{"internalType":"uint256[3]","name":"publicInputs","type":"uint256[3]"}],"name":"verifyAccuracyProof","outputs":[{"internalType":"bool","name":"success","type":"bool"}],"stateMutability":"nonpayable","type":"function"}],"evm":{"bytecode":{"linkReferences":{},"object":"6080806040523461001657610657908161001c8239f35b600080fdfe608060408181526004908136101561001657600080fd5b600092833560e01c90816308af5431146104c857508063176d80c4146103e75780631efb3ba41461041457806342c8fd00146103e75780636be279861461016a5780638257886d1461014c578063bf1858ee14610111578063da150e8f146100f15763f5bbb3211461008757600080fd5b346100ed5760203660031901126100ed5781356001600160a01b038116908190036100e95783829160a0955280602052208054926001820154926002830154916003840154930154938151958652602086015284015260608301526080820152f35b8380fd5b8280fd5b83823461010d578160031936011261010d576020905160648152f35b5080fd5b5090346100ed5760203660031901126100ed5735916001600160a01b03831683036101495750610142602092610548565b9051908152f35b80fd5b83823461010d578160031936011261010d576020905162278d008152f35b5082346101495760803660031901126101495767ffffffffffffffff9280358481116100ed57366023820112156100ed5780820135918583116100e957602491828436920101116100e957366084116100e95781359360648035906101f487116103b35780821061037d578751956020998a88013360601b81528960348a015260443560548a01524260748a01526074895260a08901918983109083111761036b57818b52885190209788865260018c5260ff8b8720541661033257505060c0116102fc575084825260018852868220600160ff19825416179055338252818852868220936102598554610516565b92838655600186019261026c8454610516565b80945561027e6002880191825461053b565b9055426003870155612710928381029381850414901517156102ec5783156102dc57505004910155825191825242848301527f059b05c502b9e9cf45d5a7bfd25185aa1fac82e2b71552ec6429b98a84b4b675833393a35160018152f35b634e487b7160e01b815260128552fd5b634e487b7160e01b815260118552fd5b875162461bcd60e51b81528085018a905260148187015273092dcecc2d8d2c840e0e4dedecc40d8cadccee8d60631b6044820152fd5b9075141c9bdbd988185b1c9958591e481d995c9a599a595960521b60e485938e62461bcd60e51b855260a4820152601660c48201520152fd5b634e487b7160e01b8652604187528786fd5b875162461bcd60e51b815260208186015260148187015273496e73756666696369656e742073616d706c657360601b6044820152fd5b875162461bcd60e51b8152602081860152601281870152710a8d0e4cae6d0ded8c840e8dede40d0d2ced60731b6044820152fd5b5090346100ed5760203660031901126100ed578160209360ff923581526001855220541690519015158152f35b50346100ed5760203660031901126100ed5781356001600160a01b038116908190036100e95783829160a0956080845161044d816104e4565b8281528260208201528286820152826060820152015281528060205220815191610476836104e4565b8154938484526001830154602085019081526080600285015492848701938452600386015495606088019687520154950194855282519586525160208601525190840152516060830152516080820152f35b84903461010d578160031936011261010d57806101f460209252f35b60a0810190811067ffffffffffffffff82111761050057604052565b634e487b7160e01b600052604160045260246000fd5b60001981146105255760010190565b634e487b7160e01b600052601160045260246000fd5b9190820180921161052557565b9060009160018060a01b031682528160205260806040832060405161056c816104e4565b8154808252600183015460208301526002830154918260408201526004600385015494856060840152015494859101521561061757612710101561061057610bb8915b84914203944286116105fc575062093a806105df9495106105f2575b61ffff6105da9293169061053b565b61053b565b614e208082116105ed575090565b905090565b6107d091506105cb565b634e487b7160e01b81526011600452602490fd5b83916105af565b506127109350505056fea2646970667358221220b5f613cec568c36550ee9a4e5b4d994703626a0cc7c844baa1146748f6c1370f64736f6c63430008130033","opcodes":"PUSH1 0x80 DUP1 PUSH1 0x40 MSTORE CALLVALUE PUSH2 0x16 JUMPI PUSH2 0x657 SWAP1 DUP2 PUSH2 0x1C DUP3 CODECOPY RETURN JUMPDEST PUSH1 0x0 DUP1 REVERT INVALID PUSH1 0x80 PUSH1 0x40 DUP2 DUP2 MSTORE PUSH1 0x4 SWAP1 DUP2 CALLDATASIZE LT ISZERO PUSH2 0x16 JUMPI PUSH1 0x0 DUP1 REVERT JUMPDEST PUSH1 0x0 SWAP3 DUP4 CALLDATALOAD PUSH1 0xE0 SHR SWAP1 DUP2 PUSH4 0x8AF5431 EQ PUSH2 0x4C8 JUMPI POP DUP1 PUSH4 0x176D80C4 EQ PUSH2 0x3E7 JUMPI DUP1 PUSH4 0x1EFB3BA4 EQ PUSH2 0x414 JUMPI DUP1 PUSH4 0x42C8FD00 EQ PUSH2 0x3E7 JUMPI DUP1 PUSH4 0x6BE27986 EQ PUSH2 0x16A JUMPI DUP1 PUSH4 0x8257886D EQ PUSH2 0x14C JUMPI DUP1 PUSH4 0xBF1858EE EQ PUSH2 0x111 JUMPI DUP1 PUSH4 0xDA150E8F EQ PUSH2 0xF1 JUMPI PUSH4 0xF5BBB321 EQ PUSH2 0x87 JUMPI PUSH1 0x0 DUP1 REVERT JUMPDEST CALLVALUE PUSH2 0xED JUMPI PUSH1 0x20 CALLDATASIZE PUSH1 0x3 NOT ADD SLT PUSH2 0xED JUMPI DUP2 CALLDATALOAD PUSH1 0x1 PUSH1 0x1 PUSH1 0xA0 SHL SUB DUP2 AND SWAP1 DUP2 SWAP1 SUB PUSH2 0xE9 JUMPI DUP4 DUP3 SWAP2 PUSH1 0xA0 SWAP6 MSTORE DUP1 PUSH1 0x20 MSTORE KECCAK256 DUP1 SLOAD SWAP3 PUSH1 0x1 DUP3 ADD SLOAD SWAP3 PUSH1 0x2 DUP4 ADD SLOAD SWAP2 PUSH1 0x3 DUP5 ADD SLOAD SWAP4 ADD SLOAD SWAP4 DUP2 MLOAD SWAP6 DUP7 MSTORE PUSH1 0x20 DUP7 ADD MSTORE DUP5 ADD MSTORE PUSH1 0x60 DUP4 ADD MSTORE PUSH1 0x80 DUP3 ADD MSTORE RETURN JUMPDEST DUP4 DUP1 REVERT JUMPDEST DUP3 DUP1 REVERT JUMPDEST DUP4 DUP3 CALLVALUE PUSH2 0x10D JUMPI DUP2 PUSH1 0x3 NOT CALLDATASIZE ADD SLT PUSH2 0x10D JUMPI PUSH1 0x20 SWAP1 MLOAD PUSH1 0x64 DUP2 MSTORE RETURN JUMPDEST POP DUP1 REVERT JUMPDEST POP SWAP1 CALLVALUE PUSH2 0xED JUMPI PUSH1 0x20 CALLDATASIZE PUSH1 0x3 NOT ADD SLT PUSH2 0xED JUMPI CALLDATALOAD SWAP2 PUSH1 0x1 PUSH1 0x1 PUSH1 0xA0 SHL SUB DUP4 AND DUP4 SUB PUSH2 0x149 JUMPI POP PUSH2 0x142 PUSH1 0x20 SWAP3 PUSH2 0x548 JUMP JUMPDEST SWAP1 MLOAD SWAP1 DUP2 MSTORE RETURN JUMPDEST DUP1 REVERT JUMPDEST DUP4 DUP3 CALLVALUE PUSH2 0x10D JUMPI DUP2 PUSH1 0x3 NOT CALLDATASIZE ADD SLT PUSH2 0x10D JUMPI PUSH1 0x20 SWAP1 MLOAD PUSH3 0x278D00 DUP2 MSTORE RETURN JUMPDEST POP DUP3 CALLVALUE PUSH2 0x149 JUMPI PUSH1 0x80 CALLDATASIZE PUSH1 0x3 NOT ADD SLT PUSH2 0x149 JUMPI PUSH8 0xFFFFFFFFFFFFFFFF SWAP3 DUP1 CALLDATALOAD DUP5 DUP2 GT PUSH2 0xED JUMPI CALLDATASIZE PUSH1 0x23 DUP3 ADD SLT ISZERO PUSH2 0xED JUMPI DUP1 DUP3 ADD CALLDATALOAD SWAP2 DUP6 DUP4 GT PUSH2 0xE9 JUMPI PUSH1 0x24 SWAP2 DUP3 DUP5 CALLDATASIZE SWAP3 ADD ADD GT PUSH2 0xE9 JUMPI CALLDATASIZE PUSH1 0x84 GT PUSH2 0xE9 JUMPI DUP2 CALLDATALOAD SWAP4 PUSH1 0x64 DUP1 CALLDATALOAD SWAP1 PUSH2 0x1F4 DUP8 GT PUSH2 0x3B3 JUMPI DUP1 DUP3 LT PUSH2 0x37D JUMPI DUP8 MLOAD SWAP6 PUSH1 0x20 SWAP10 DUP11 DUP9 ADD CALLER PUSH1 0x60 SHL DUP2 MSTORE DUP10 PUSH1 0x34 DUP11 ADD MSTORE PUSH1 0x44 CALLDATALOAD PUSH1 0x54 DUP11 ADD MSTORE TIMESTAMP PUSH1 0x74 DUP11 ADD MSTORE PUSH1 0x74 DUP10 MSTORE PUSH1 0xA0 DUP10 ADD SWAP2 DUP10 DUP4 LT SWAP1 DUP4 GT OR PUSH2 0x36B JUMPI DUP2 DUP12 MSTORE DUP9 MLOAD SWAP1 KECCAK256 SWAP8 DUP9 DUP7 MSTORE PUSH1 0x1 DUP13 MSTORE PUSH1 0xFF DUP12 DUP8 KECCAK256 SLOAD AND PUSH2 0x332 JUMPI POP POP PUSH1 0xC0 GT PUSH2 0x2FC JUMPI POP DUP5 DUP3 MSTORE PUSH1 0x1 DUP9 MSTORE DUP7 DUP3 KECCAK256 PUSH1 0x1 PUSH1 0xFF NOT DUP3 SLOAD AND OR SWAP1 SSTORE CALLER DUP3 MSTORE DUP2 DUP9 MSTORE DUP7 DUP3 KECCAK256 SWAP4 PUSH2 0x259 DUP6 SLOAD PUSH2 0x516 JUMP JUMPDEST SWAP3 DUP4 DUP7 SSTORE PUSH1 0x1 DUP7 ADD SWAP3 PUSH2 0x26C DUP5 SLOAD PUSH2 0x516 JUMP JUMPDEST DUP1 SWAP5 SSTORE PUSH2 0x27E PUSH1 0x2 DUP9 ADD SWAP2 DUP3 SLOAD PUSH2 0x53B JUMP JUMPDEST SWAP1 SSTORE TIMESTAMP PUSH1 0x3 DUP8 ADD SSTORE PUSH2 0x2710 SWAP3 DUP4 DUP2 MUL SWAP4 DUP2 DUP6 DIV EQ SWAP1 ISZERO OR ISZERO PUSH2 0x2EC JUMPI DUP4 ISZERO PUSH2 0x2DC JUMPI POP POP DIV SWAP2 ADD SSTORE DUP3 MLOAD SWAP2 DUP3 MSTORE TIMESTAMP DUP5 DUP4 ADD MSTORE PUSH32 0x59B05C502B9E9CF45D5A7BFD25185AA1FAC82E2B71552EC6429B98A84B4B675 DUP4 CALLER SWAP4 LOG3 MLOAD PUSH1 0x1 DUP2 MSTORE RETURN JUMPDEST PUSH4 0x4E487B71 PUSH1 0xE0 SHL DUP2 MSTORE PUSH1 0x12 DUP6 MSTORE REVERT JUMPDEST PUSH4 0x4E487B71 PUSH1 0xE0 SHL DUP2 MSTORE PUSH1 0x11 DUP6 MSTORE REVERT JUMPDEST DUP8 MLOAD PUSH3 0x461BCD PUSH1 0xE5 SHL DUP2 MSTORE DUP1 DUP6 ADD DUP11 SWAP1 MSTORE PUSH1 0x14 DUP2 DUP8 ADD MSTORE PUSH20 0x92DCECC2D8D2C840E0E4DEDECC40D8CADCCEE8D PUSH1 0x63 SHL PUSH1 0x44 DUP3 ADD MSTORE REVERT JUMPDEST SWAP1 PUSH22 0x141C9BDBD988185B1C9958591E481D995C9A599A5959 PUSH1 0x52 SHL PUSH1 0xE4 DUP6 SWAP4 DUP15 PUSH3 0x461BCD PUSH1 0xE5 SHL DUP6 MSTORE PUSH1 0xA4 DUP3 ADD MSTORE PUSH1 0x16 PUSH1 0xC4 DUP3 ADD MSTORE ADD MSTORE REVERT JUMPDEST PUSH4 0x4E487B71 PUSH1 0xE0 SHL DUP7 MSTORE PUSH1 0x41 DUP8 MSTORE DUP8 DUP7 REVERT JUMPDEST DUP8 MLOAD PUSH3 0x461BCD PUSH1 0xE5 SHL DUP2 MSTORE PUSH1 0x20 DUP2 DUP7 ADD MSTORE PUSH1 0x14 DUP2 DUP8 ADD MSTORE PUSH20 0x496E73756666696369656E742073616D706C6573 PUSH1 0x60 SHL PUSH1 0x44 DUP3 ADD MSTORE REVERT JUMPDEST DUP8 MLOAD PUSH3 0x461BCD PUSH1 0xE5 SHL DUP2 MSTORE PUSH1 0x20 DUP2 DUP7 ADD MSTORE PUSH1 0x12 DUP2 DUP8 ADD MSTORE PUSH18 0xA8D0E4CAE6D0DED8C840E8DEDE40D0D2CED PUSH1 0x73 SHL PUSH1 0x44 DUP3 ADD MSTORE REVERT JUMPDEST POP SWAP1 CALLVALUE PUSH2 0xED JUMPI PUSH1 0x20 CALLDATASIZE PUSH1 0x3 NOT ADD SLT PUSH2 0xED JUMPI DUP2 PUSH1 0x20 SWAP4 PUSH1 0xFF SWAP3 CALLDATALOAD DUP2 MSTORE PUSH1 0x1 DUP6 MSTORE KECCAK256 SLOAD AND SWAP1 MLOAD SWAP1 ISZERO ISZERO DUP2 MSTORE RETURN JUMPDEST POP CALLVALUE PUSH2 0xED JUMPI PUSH1 0x20 CALLDATASIZE PUSH1 0x3 NOT ADD SLT PUSH2 0xED JUMPI DUP2 CALLDATALOAD PUSH1 0x1 PUSH1 0x1 PUSH1 0xA0 SHL SUB DUP2 AND SWAP1 DUP2 SWAP1 SUB PUSH2 0xE9 JUMPI DUP4 DUP3 SWAP2 PUSH1 0xA0 SWAP6 PUSH1 0x80 DUP5 MLOAD PUSH2 0x44D DUP2 PUSH2 0x4E4 JUMP JUMPDEST DUP3 DUP2 MSTORE DUP3 PUSH1 0x20 DUP3 ADD MSTORE DUP3 DUP7 DUP3 ADD MSTORE DUP3 PUSH1 0x60 DUP3 ADD MSTORE ADD MSTORE DUP2 MSTORE DUP1 PUSH1 0x20 MSTORE KECCAK256 DUP2 MLOAD SWAP2 PUSH2 0x476 DUP4 PUSH2 0x4E4 JUMP JUMPDEST DUP2 SLOAD SWAP4 DUP5 DUP5 MSTORE PUSH1 0x1 DUP4 ADD SLOAD PUSH1 0x20 DUP6 ADD SWAP1 DUP2 MSTORE PUSH1 0x80 PUSH1 0x2 DUP6 ADD SLOAD SWAP3 DUP5 DUP8 ADD SWAP4 DUP5 MSTORE PUSH1 0x3 DUP7 ADD SLOAD SWAP6 PUSH1 0x60 DUP9 ADD SWAP7 DUP8 MSTORE ADD SLOAD SWAP6 ADD SWAP5 DUP6 MSTORE DUP3 MLOAD SWAP6 DUP7 MSTORE MLOAD PUSH1 0x20 DUP7 ADD MSTORE MLOAD SWAP1 DUP5 ADD MSTORE MLOAD PUSH1 0x60 DUP4 ADD MSTORE MLOAD PUSH1 0x80 DUP3 ADD MSTORE RETURN JUMPDEST DUP5 SWAP1 CALLVALUE PUSH2 0x10D JUMPI DUP2 PUSH1 0x3 NOT CALLDATASIZE ADD SLT PUSH2 0x10D JUMPI DUP1 PUSH2 0x1F4 PUSH1 0x20 SWAP3 MSTORE RETURN JUMPDEST PUSH1 0xA0 DUP2 ADD SWAP1 DUP2 LT PUSH8 0xFFFFFFFFFFFFFFFF DUP3 GT OR PUSH2 0x500 JUMPI PUSH1 0x40 MSTORE JUMP JUMPDEST PUSH4 0x4E487B71 PUSH1 0xE0 SHL PUSH1 0x0 MSTORE PUSH1 0x41 PUSH1 0x4 MSTORE PUSH1 0x24 PUSH1 0x0 REVERT JUMPDEST PUSH1 0x0 NOT DUP2 EQ PUSH2 0x525 JUMPI PUSH1 0x1 ADD SWAP1 JUMP JUMPDEST PUSH4 0x4E487B71 PUSH1 0xE0 SHL PUSH1 0x0 MSTORE PUSH1 0x11 PUSH1 0x4 MSTORE PUSH1 0x24 PUSH1 0x0 REVERT JUMPDEST SWAP2 SWAP1 DUP3 ADD DUP1 SWAP3 GT PUSH2 0x525 JUMPI JUMP JUMPDEST SWAP1 PUSH1 0x0 SWAP2 PUSH1 0x1 DUP1 PUSH1 0xA0 SHL SUB AND DUP3 MSTORE DUP2 PUSH1 0x20 MSTORE PUSH1 0x80 PUSH1 0x40 DUP4 KECCAK256 PUSH1 0x40 MLOAD PUSH2 0x56C DUP2 PUSH2 0x4E4 JUMP JUMPDEST DUP2 SLOAD DUP1 DUP3 MSTORE PUSH1 0x1 DUP4 ADD SLOAD PUSH1 0x20 DUP4 ADD MSTORE PUSH1 0x2 DUP4 ADD SLOAD SWAP2 DUP3 PUSH1 0x40 DUP3 ADD MSTORE PUSH1 0x4 PUSH1 0x3 DUP6 ADD SLOAD SWAP5 DUP6 PUSH1 0x60 DUP5 ADD MSTORE ADD SLOAD SWAP5 DUP6 SWAP2 ADD MSTORE ISZERO PUSH2 0x617 JUMPI PUSH2 0x2710 LT ISZERO PUSH2 0x610 JUMPI PUSH2 0xBB8 SWAP2 JUMPDEST DUP5 SWAP2 TIMESTAMP SUB SWAP5 TIMESTAMP DUP7 GT PUSH2 0x5FC JUMPI POP PUSH3 0x93A80 PUSH2 0x5DF SWAP5 SWAP6 LT PUSH2 0x5F2 JUMPI JUMPDEST PUSH2 0xFFFF PUSH2 0x5DA SWAP3 SWAP4 AND SWAP1 PUSH2 0x53B JUMP JUMPDEST PUSH2 0x53B JUMP JUMPDEST PUSH2 0x4E20 DUP1 DUP3 GT PUSH2 0x5ED JUMPI POP SWAP1 JUMP JUMPDEST SWAP1 POP SWAP1 JUMP JUMPDEST PUSH2 0x7D0 SWAP2 POP PUSH2 0x5CB JUMP JUMPDEST PUSH4 0x4E487B71 PUSH1 0xE0 SHL DUP2 MSTORE PUSH1 0x11 PUSH1 0x4 MSTORE PUSH1 0x24 SWAP1 REVERT JUMPDEST DUP4 SWAP2 PUSH2 0x5AF JUMP JUMPDEST POP PUSH2 0x2710 SWAP4 POP POP POP JUMP INVALID LOG2 PUSH5 0x6970667358 0x22 SLT KECCAK256 0xB5 0xF6 SGT 0xCE 0xC5 PUSH9 0xC36550EE9A4E5B4D99 SELFBALANCE SUB PUSH3 0x6A0CC7 0xC8 PREVRANDAO 0xBA LOG1 EQ PUSH8 0x48F6C1370F64736F PUSH13 0x63430008130033000000000000 "},"methodIdentifiers":{"MAX_THRESHOLD()":"08af5431","MIN_SAMPLES()":"da150e8f","REPUTATION_DECAY_PERIOD()":"8257886d","calculateFRYAlphaWeight(address)":"bf1858ee","clientReputation(address)":"f5bbb321","getClientReputation(address)":"1efb3ba4","isProofVerified(bytes32)":"42c8fd00","verifiedProofs(bytes32)":"176d80c4","verifyAccuracyProof(bytes,uint256[3])":"6be27986"}}}}}